:020000040800F2
:1000000000120020B55A00081D3305081D330508ED
:10001000DD5305081D3305081D3305081D3305088C
:100020001D3305081D3305081D3305081D3305085C
:100030001D3305081D3305081D3305081D3305084C
:100040001D3305081D3305081D3305081D3305083C
:100050001D3305081D3305081D3305081D3305082C
:100060001D3305081D3305081D3305081D3305081C
:100070001D3305081D3305081D3305081D3305080C
:100080001D330508054A00081D3305081D33050802
:100090001D330508716100081D3305081D3305086F
:1000A0001D33050895620008716200081D330508BC
:1000B0001D33050899690308B17303082BC30608AB
:1000C00027C306087D6B030837C306082FC306083D
:1000D0008973030833C30608F173030855740308D2
:1000E0001D3305081D3305081D3305081D3305089C
:1000F000D95305081D3305081D3305081D330508B0
:100100001D330508394A00081D3305081D3305084D
:100110001D3305081D3305081D3305081D3305086B
:100120001D3305081D3305081D3305081D3305085B
:100130001D3305081D3305081D3305081D3305084B
:100140001D3305081D3305081D330508E554050852
:10015000915003081D330508EFBF0608F5BF0608D8
:100160001D3305081D3305081D3305081D3305081B
:10017000013800D0FCE770477F4B73B51C8814F042
:10018000010440F0F38041F60B227C4D7C4B7F2133
:10019000C5E900347B4B7C489A8010221C60AC601F
:1001A00077F0A4FA7F22794B1A70794B1B6ADB0730
:1001B00006D440F20E41774B774A78484BF0A2FDC7
:1001C000214628462FF004FF044620B940F2124190
:1001D000734B714AF1E730F035FE20B140F2164121
:1001E000704B6D4AE9E74FF0011120466BF0E3FBDD
:1001F00020B140F21A416B4B674ADEE702212046EC
:100200006BF0BBFA20B140F21D41664B624AD4E765
:100210002046654930F072FC20B14FF48461614B97
:100220005D4ACAE7012120466BF0BDFC20B140F2D7
:1002300025415C4B584AC0E7012120466BF0C3FCC6
:10024000064620B14FF48561564B534AB5E7014647
:100250003822564877F04AFA80233246204605F184
:1002600010016BF0B1FB802804D040F22F41504BBD
:10027000494AA2E74F4D01202FF0FEFE3CA3D3E9EF
:1002800000232C602046CDE900234FF0FF324FF0D1
:10029000FF336BF0ADFA014620B140F26E31414BB5
:1002A000454A8AE737480FF043F8012108460FF026
:1002B000B3F8012128686BF002FA044620B140F23D
:1002C000C141384B3D4A78E701464FF408723C483B
:1002D00077F00CFA3B4A3C4B02F188011A609962B4
:1002E00002F5887102F5CC729C809A679C85374A2A
:1002F000A3F854401965A3F87C40354B6FF06300B8
:100300001A609C80334A344B1A60344A9C801470C3
:10031000334A5A611CF0F6F80B200EF0C3FF314B44
:10032000186020B940F2D9412F4B244A45E709F023
:100330008BF820460FF0DCF80822286811466BF095
:1003400059FA044620B140F2DE41284B1B4A34E7FB
:1003500010F0C6F9264B27481C70274B1C70274B02
:100360001C7002B0BDE870405CF0FCBF02B070BD14
:100370000BE020FF22020000D695002048710020EB
:1003800075F700084071002031A9002022A9002043
:100390000080E00FC4A1070868A30708699F070849
:1003A000DDA10708C79E070878A40708E4710020AC
:1003B000ECA107083C7100205BA30708E4A3070831
:1003C0001C720020247200207020002042A900200E
:1003D00048200020C7A9002010210020C1A900202A
:1003E00038210020E071002024A207083FA207085E
:1003F00025A90020C3A20708C6A90020C5A900207E
:100400002DE9F04F2DED028B4FF0000B99B0259D9B
:100410009146C5E900BBC5E902BB85F839B0A5F82E
:100420003AB0A5F83CB085F83EB0D0F8D62AD0F85E
:10043000DACAD0F8DE7AD0F8E26A2A61EE61C5F84D
:1004400014C0AF61D0F8E62A1E462A62D0F8C23A3C
:10045000D0F8CA7AD0F8CE2AD0F8C6CA2A63C5F82E
:1004600028C0EF626B62D0F8D23A00F6F80A6B63EC
:1004700090F8EA3A044685F83830249B00F6C22703
:1004800083F800B0B0F85C3A059337F0F5FCDAE990
:10049000002352EA030104D094F8BD1A002900F0A9
:1004A000FE8094F8EB3A93B394F8EA3A94F8ED2A84
:1004B000013BDBB29A4204D194F8BD3A022B00F022
:1004C00059810022012194F8B83A85F83A3094F81D
:1004D000B60AA34B85F83B0094F8B70A19EB03035F
:1004E00046EB0202C5E9003285F83C0085F8391078
:1004F00002222946204638F08BF80423A4F85A3A01
:10050000CAE9009619B0BDEC028BBDE8F08F0DF181
:100510003E070DF13D032A4601212046009737F0A2
:10052000B1FC9DF83D30BDF83E803BB194F8B83A3F
:1005300085F83A3094F8B63A85F83B302A460DF102
:100540003D0302212046009737F09CFCBDF83E3069
:100550009DF83D20984528BF98463AB194F8B73A9F
:1005600085F83C3094F8B63A85F83B302A460DF1D0
:100570003D0303212046009737F084FCBDF83E3050
:100580009DF83D20984528BF9846002A40F0CE802F
:100590002A4604210DF13D032046009737F072FCF6
:1005A000BDF83E300599434528BF4346994228BFD0
:1005B00019469DF83D208B46002A40F0718104F5D4
:1005C0001067B4F8B23AB4F85E2AB3FBFBF10BFB48
:1005D0001131ABEB010B1FFA8BFB5B449BB2B3FBFE
:1005E000F2F102FB1133CAE900969FED5B0BA4F810
:1005F000B23AA4F85ABAADF83E203CF0BBFA51EC3E
:10060000100B4BF0D1F90B464FF00008A0FB0B018B
:1006100003FB0B113B687A6810EB090941EB0606F6
:10062000B9EB0300C5E9009666EB020184F8BA8ACB
:100630004BF014F9DFED4B8A07EE900A9FED4A8AE2
:10064000C7EEA87AF4EEC87AF1EE10FA1FD49FED47
:10065000477AF4EEC77AF1EE10FA18DCD4F80809FC
:10066000D4F80C19B9EB000066EB01014BF0F6F879
:1006700007EE900AC7EEA87AF4EEC87AF1EE10FA07
:100680004ABF662384F8BB8A84F8BB3A3AE76523FD
:1006900084F8BB3A19B0BDEC028BBDE8F08FB9EB22
:1006A00002010A914FF00001B4F85A0A66EB030206
:1006B0009FED290B0B92CDE906013CF05BFA51EC62
:1006C000100B4BF071F98C46069B0B9AA0FB0301B3
:1006D0000CFB0311030943EA017302930A9BCDE962
:1006E0001001C31A08934FEA2113039361EB02032D
:1006F0000993DDE90823DDE902BC93457CEB0303A4
:10070000C0F265810A9B1B1A0C930B9B63EB0103E0
:100710000D93DDE90C23DDE90201904271EB030347
:10072000BFF6BFAE6423249A1370BAE64FF6FF7289
:100730000F4B94F8B61A5B7B85F83B1004EB430330
:10074000B3F8A0389342ADF83E303FF421AFAB6828
:1007500043F40053AB601BE700000000D01263417C
:10076000C00E1602286B6E4E0000704200007043EF
:10077000AC23080894F8EC3A002B3FF4A2AE94F8AE
:10078000BF3A94F8BE0A18444AF0FCFB41EC100B47
:1007900094F8C00A00F044FB94F8BE2A0130C3B2BA
:1007A0009A4284F8C03ABFF48CAE38687968BA6867
:1007B000FB680DF14C0CE046ACE80F0038692F46A1
:1007C000CCF80000BDF84C004AF0CCFB02940D467A
:1007D00004460DF15E0B38F8020F4AF0C3FB0246E7
:1007E0000B46204629464AF081FAC34504460D4689
:1007F000F1D14BF0D9F8029C3D4694F8BF7AA7FBA3
:10080000002301FB07334FEAC20CDF001CEB020C94
:1008100047EA527743EB07074FEA8C01BF0047EAEC
:100820009C77B1EB020C67EB030E4FEA8E0747EAA9
:100830009C77BE4690484FEA8C0CA2FB007800FBE8
:10084000038817EB090348EB0602C5E90032294685
:1008500000222046CDE910CE37F0DAFEDDE910782F
:100860000123002F84F8C03A78F10003C0F2D7804A
:100870000A220023384641464BF07EF80A220546FC
:100880000023384641464BF077F8002B08BF052A75
:1008900080F0E580A8B2A4F85A0ACAE9009631E6C9
:1008A000012385F8393094F8B52A0DF13D0302F2A1
:1008B000375234F8121010AAA98194F8B70A13A974
:1008C00085F83C0094F8B67A204685F83B7038F0FD
:1008D0008FFFDDED137AF5EE407AF1EE10FA0ED1CE
:1008E00094F8BA3A5BB994F8B53A04F5106703F294
:1008F000335334F81330EB81C7E9009661E604F511
:10090000106704F60818D7E90023D8E900018242ED
:1009100073EB010CCDE9102303DA02460B46CDE957
:100920001001B9EB020066EB03014AF097FFDFED1F
:10093000537A07EE100A87EE270AF1EE000A8DEDD2
:10094000130A50F0F5FBF0EE080AB0EE408A9DED78
:10095000130A50F0EDFBDFED4A6ADFED4A7A9DEDB8
:10096000137A28EE268A20EE270ADFED476A67EE23
:10097000077A38EE008A67EEA67ADFED446A78EEF1
:10098000277A27EE267ADFED426A77EE877A9FEDA7
:10099000417A77EEA67A67EE877AF8FE677AFCEE00
:1009A000E77A17EE902A94F8BA3AEA8143BB0093AB
:1009B0009FED390A4A4633461621204638F026FE76
:1009C00094F8BA3A002B97D0C8E90096F9E59FED64
:1009D000280BDAE90067B4F85A8A3CF0CBF851ECFE
:1009E000100B4AF0E1FF6424A0FB082301FB08334D
:1009F000961947EB0303C5E90063249B1C7081E54E
:100A00000023B7EE000A00934A46334616212046DB
:100A100038F0FCFDAB6843F40013AB60D0E7B8F1ED
:100A2000004F08BF002F1DD07F4268EB48080A2204
:100A30000023384641464AF09FFF0D46029041464A
:100A400038460A22002303954AF096FFDDE90201A9
:100A5000002B08BF052A08D2404280B21BE7681C61
:100A600080B218E743F2333015E7C04380B212E793
:100A700000000000D0126341003B5808286B6E4E06
:100A8000598207B0DFE0C2343767D9B85A8E863C46
:100A90006A92E43E00007A4400000000000000007A
:100AA0002DE9F04F2DED048B044600200D4616462F
:100AB00098468DB01A9F0DF1080904F6782C04F6BB
:100AC000982A3870CE46DCF80000DCF80410DCF818
:100AD0000820DCF80C300CF1100CD445AEE80F0007
:100AE00009F11009EED1DCF80000BCF80430C9F8B7
:100AF0000000A9F8043076BB0C2384F8EB6A3B7045
:100B0000204602A937F0ECF9002840F0248197F93B
:100B10000000002856DB0023B94EDFF8F89203E00E
:100B20005D1C1A2D2B464DD046FA03F2D507F7D59A
:100B300013F809200CA901EB420002F23B5130F8F6
:100B40002A2C34F811005D1C9042E9B2E9D020460D
:100B500037F07CFBE5E72B79013BDAB2012A40D97B
:100B600000229FEDA88A9FEDA89ADFEDA88ADFF802
:100B700090B205EBC60684F8EB2A0092CDF804800B
:100B800012E04BFA03F2D20711D5012202FA03F365
:100B9000009A13EA020A00F09380F3233B700835B1
:100BA000B54209D02B79013BDBB2192BE9D90A23D5
:100BB0000835B5423B70F5D197F90030DDF8048077
:100BC000002B9DDA98F80030072B22D8F1234FF044
:100BD000000E3B7088F800E00DB0BDEC048BBDE862
:100BE000F08FD5ED007AF5EE407AF1EE10FAB7D13C
:100BF00047F23053BDF808209A4200F0ED80BDF86E
:100C00000A209A4200F0E8800B234FF0000E3B7060
:100C1000E0E700259FED7B6AAE46DFED7B5ADFF80B
:100C2000F8A177497A4FDFF8ECC1DDF86CB002E04B
:100C30000135182DCED00122AA4012EA0A0FF7D0B2
:100C40000EF1010E5FFA8EFE0EF1FF360BEBC606BB
:100C5000013586ED006A00234FF6FF7935710CE00F
:100C6000484507D007EE900AF8EEE77A85EEA77AB6
:100C700086ED007A01331A2BDBD041FA03F0C0076E
:100C8000F8D557F823000242F4D0D6ED007AF4EEFE
:100C9000467AF1EE10FA13F80C0000F23B5034F8EB
:100CA0001000DDD007EE100AB8EEC77AC5EE876AED
:100CB000F4EEE67AF1EE10FA48BFC6ED006AD9E725
:100CC000D5ED007AF5EE407AF1EE10FA009A42EA9C
:100CD0000302009229D1F6233B70D5ED007AF5EEA0
:100CE000407AF1EE10FAB0EE677A1ED1B5EEC07A16
:100CF000F1EE10FA31DCB5EE407AF1EE10FA14BFE5
:100D00004FF0FF3300231FFA83F897F90030002BD0
:100D10007FF445AF3F4A2B79134413F8013C0CAAEA
:100D200002EB430323F82A8C39E7F4EE487AF1EE1C
:100D300010FA4ED0B2EE047AF4EEC77AF1EE10FA61
:100D400004DCF4EEE87AF1EE10FA4DD5F2233B70B4
:100D500095ED007ACAE73870DBE6B4EEC87AF1EEBA
:100D600010FAC8D5C9EE077AF8FE677AFCEEE77A82
:100D700017EE903A1FFA83F8264A2B79134413F89A
:100D8000013C534403F2A74334F813900AF1130AC9
:100D900048464AF0E7F818A3D3E900234AF05CF983
:100DA00041EC100B3BF0E6FE51EC100B4AF016FC48
:100DB00080B2A9EB00039BB2814443451FFA89F935
:100DC00001D8C145A1D2BAF1720FD5D1F4233B703D
:100DD000E5E6B0EE677A8EE794F9BB3A3BB90122BB
:100DE0009E4684F8BA2AF5E6B0EE677A7EE74FF0C1
:100DF000000E3B70EEE600BF7B14AE47E17A843F05
:100E0000EF79F20300FF7F470000C8420E74DA3A20
:100E1000C4230808602408080F20E0000000000038
:100E20002DE9F84F2DED028B55EC104B07463BF0AA
:100E3000A1FE51EC100B4AF0D1FBC6B230464AF08D
:100E4000A1F822462B464AF06FFB40B1BDEC028B65
:100E5000B7FBF6F306FB1370C0B2BDE8F88F384657
:100E60004AF080F8002241EC180B00232046294666
:100E70004AF05AFBB0BB45EC104B4FF0EFFF204659
:100E800053EC102B29464AF04FFB58BB22462B4609
:100E900051EC180B4AF00AFA21F0004700221E4BD1
:100EA0003946064649F022FF41EC100B4FF0D6FFC1
:100EB000304653EC102B394649F016FF002280468D
:100EC0008946164B304639464AF0C6F829F0004BA1
:100ED00002460B46404659464AF03AFB10B19FED98
:100EE0000C0B07E0B0EE480AF0EE680A45EC114B37
:100EF00050F030F83BF03EFE51EC100B4AF06EFB28
:100F0000BDEC028BC0B2BDE8F88F00BFAFF300802C
:100F100000000000000000000000E03F0000B03CC6
:100F20002DE9F04F00224FF0090BDFED205A9FED25
:100F3000206ADFED206AB1EE047ADFED1F7A4FF010
:100F4000FF346FF00045DFF880A0DFF88090DFF815
:100F50008080DFF880E0DFF880C0184F184E194914
:100F6000C0ED015A80ED046AC0ED056A80ED067A95
:100F7000C0ED097AC0E9164580F800B0C0F828A095
:100F8000C0F82C90C0F83880C0F83CE0C0F840C0F1
:100F9000C764066501668260C260C2610262026364
:100FA000426342648264BDE8F08F00BF07F0963D63
:100FB0001C7CE13D3480D73FCDCC0C3E5DFEE33E52
:100FC000363C85BF0000404067D5273EE63F4CC019
:100FD00091ED3CBFFB3A403FB15083402DE9F047D3
:100FE00086B004AB05AE04460078CDE900360DF1BD
:100FF0000F030D463BF08EFD9DF90F00E0B94FF059
:10100000010A04F1400904F12C0804F118075FFA01
:101010008AF3013B032B24D8DFE803F01D171102EC
:101020004A463146284638F049FF0AF1010ABAF12A
:10103000060FECD19DF90F0006B0BDE8F0874246DF
:101040003146284638F03AFFEFE73A46314628461F
:1010500038F034FFE9E731462846221D38F02EFFEC
:10106000E3E73146284638F0B5FC84ED180ADCE7A2
:101070002DE9F0432DED048B83B0BDF840400546CB
:10108000DDE90E89B4F5E16F17461E46B0EE408AE1
:10109000F0EE608A6BD028D941F270739C422ED05A
:1010A00047F230539C4208BF012408D1D5E916010C
:1010B0004FF0FF326FF000433BF008FE08B39FEDA6
:1010C000309A4FF0FF326FF00043384631463BF024
:1010D000FDFD08B9C5E9167638EE490A30EE680A12
:1010E00003B0BDEC048BBDE8F083642C05D0B4F5EF
:1010F000967F08BF0424D9D0E1E70524D6E702246F
:10110000D4E7D5E91601B8EB000069EB010149F01D
:1011100075FF19A3D3E900234AF0C8F80B4602462D
:10112000CDE900234AF07AFADDE9002305EB8404D7
:1011300007EE900AD4ED009A94ED057A67EEA99A2D
:1011400094ED0A9A1046194627EE899A79EE879A05
:1011500049F082FF4AF062FA07EE900A94ED0F7AA6
:1011600079EE277A77EE877A89EEA79AA9E790ED4C
:10117000189AA6E7AFF300800000000065CDCD41CE
:10118000000000002DE9F047052482B00746904694
:1011900000780DF103020D468DF803403BF0DCFCB6
:1011A0009DF80360019036B3012407F1400A07F16E
:1011B0002C09E3B2013B042B0BD8DFE803F031101C
:1011C0002A2303004146284697ED180A01AA38F061
:1011D00019FCA64204F101030CD01C46E9E701AB5F
:1011E0004246294607F1180038F0CAFDA64204F12C
:1011F0000103F2D10198C0F3072328706B7002B08D
:10120000BDE8F08742462946504601AB38F0B8FDAC
:10121000DFE742462946484601AB38F0B1FDD8E742
:101220004246294601AB381D38F0AAFDD1E700BF80
:101230002DE9F043012485B08046914600780DF1F8
:101240000B020E468DF80B403BF086FC9DF80B50D0
:10125000039035B1002403AF54B10134A542FBD152
:101260000398C0F307233070737005B0BDE8F083B6
:10127000D8E916014B463246009738F011FCECE7EE
:1012800070B586B004AB05AE04460078CDE90036F3
:101290000DF10F030D463BF03DFC9DF90F0008B129
:1012A00006B070BD3146284638F0DEFBC4E91601B1
:1012B0009DF90F0006B070BD70B590B00E460446A3
:1012C00006A909AD81E80C000023179928460F9361
:1012D0003DF0D2FF9DF858304FF00001B268204633
:1012E0000393159B049502939DF850300193079B3F
:1012F0009FED050B0093069B6FF06BF928466BF092
:10130000BEFF204610B070BD0000000000000000CD
:1013100070B590B00E46044606A909AD81E80C00F0
:101320000023179928460F933EF018F8169B4FF0AC
:101330000001B26820460393159B049502939DF823
:1013400050300193079B9FED060B0093069B6FF0B7
:1013500068FA28466BF093FF204610B070BD00BFBE
:10136000000000000000000070B590B00E4604467A
:1013700006A909AD81E80C000023179928460F93B0
:1013800040F014F99DF858304FF00001B268204643
:101390000393159B049502939DF850300193079B8E
:1013A0009FED050B0093069B6CF070FA28466BF0DE
:1013B00066FF204610B070BD000000000000000075
:1013C00070B590B00E46044606A909AD81E80C0040
:1013D0000023179928460F9340F02EF9169B4FF0E3
:1013E0000001B26820460393159B049502939DF873
:1013F00050300193079B9FED060B0093069B6CF00A
:101400001EFB28466BF03BFF204610B070BD00BFAE
:1014100000000000000000002DE9F04F1F460023EF
:10142000044688464FF0000A4FF0000B2DED028B6A
:101430009DB018939F4B13921B681846059376F046
:10144000A2FA0546CDF85C80179B1A782B2A4ED05D
:101450003BD80D2A34D8082A34D8002A3ED000239D
:101460000A93179E3378302B40F0B080737803F0E6
:10147000DF03582B68D10A9B17A9029720460193D6
:1014800018AB8D4A009319AB4EF07EF810F00707A9
:10149000054605D0062F2CD10136002317960A9356
:1014A000139B002B40F08E850A9BEBB152460BF14B
:1014B000004343EC102B1DB0BDEC028BBDE8F08F58
:1014C000202ACCD101331793BEE72D2AC7D10122A0
:1014D0000A925A1C17925B78002BC2D1139BCDF84D
:1014E0005C80002B40F06C8552465B46E1E70022B1
:1014F000EEE7189A3AB135211AA876F0C8FE189985
:1015000020464EF065FB013F042F06D8DFE807F0C8
:101510000A0314170A00DDE91AAB2807C0D54BF0FF
:10152000004BBDE7DDE91AA3199A23F4801302F2F8
:10153000334243EA025BF0E7DFF880B1EDE76FF09A
:10154000004B4FF0FF3AE8E7179B5A1C17925B7865
:10155000302BF9D0002BA3D001234FF000090493C6
:101560000A22179B4F46CDF81C90089317980678CF
:10157000A6F13003D9B209292AD92A46059976F06D
:101580000AFAA0B3002032463D4603460590652A7C
:1015900001D0452A18D11DB9049A02439ED00025D6
:1015A000DDF85C8008F10102179298F801202B2ADF
:1015B00075D02D2A7BD04FF0000CA2F13001092903
:1015C00040F28280CDF85C8000269DE00023C4E7D5
:1015D000082F00F1010007F10107D4BF079902FBB2
:1015E00009391790DCBF02FB01330793BEE7179B55
:1015F0005A1917925A5D002F36D03D460590A2F138
:101600003003092B12D90123C1E7179B01305A1C63
:1016100017925A78302AF8D0A2F13103082B00F241
:10162000D68405900020179B05460893303A00F1B8
:10163000010313D0059900EB050E19442B460591C3
:101640000A21734512D12B180135082B05441CDCE7
:1016500007990A2303FB012307930023179A1846CF
:10166000511C17915278CAE73846D3E7082B04DC9F
:10167000079E4E4307960133E3E703F1010CBCF1EB
:10168000100FD8BF01FB09F9F5E7102DDCBF0A23C5
:1016900003FB0929E1E70023059301237CE74FF0D1
:1016A000000C08F10202179298F8022085E74FF02B
:1016B000010CF6E7E86F0808AC6B08080000F07F43
:1016C000179A511C17915278302AF9D0A2F13101A2
:1016D00008293FF679AFA2F1300E179A0692179AB1
:1016E000511C17915278A2F13006092E37D9069E67
:1016F000891B44F61F66082902DC7645A8BF76469A
:10170000BCF1000F00D07642002D4DD10499014369
:101710007FF4C6AE002B7FF4E1AE692A27D024DC2B
:10172000492A24D04E2A7FF4D9AE9F4917A876F0D3
:101730003BFC00283FF4D2AE179B1B78282B2DD101
:101740001AAA9A4917A876F043FC052826D11B9BB4
:10175000DDF868A043F0FF4B4BF4E00BA0E60A2154
:1017600001FB0E2EAEF1300EB9E76E2ADBE7904991
:1017700017A876F019FC00283FF4B0AE179B17A805
:101780008C49013B179376F00FFC10B9179B01337E
:101790001793DFF830B24FF0000A81E6864800F078
:1017A0003FFC5BEC10AB7BE6059B002F08BF2F4690
:1017B000102D0798A6EB0303A846A8BF4FF010080A
:1017C000069349F0CFFB092D82468B4613DD7B4BF8
:1017D00003EBC80353E9122349F03EFC82468B46D3
:1017E000484649F0BFFB02460B465046594649F071
:1017F0007DFA82468B460F2D38DC069B002B3FF48A
:101800004FAE24DD162B0BDC6C49524601EBC301B5
:101810005B46D1E9000149F01FFC82468B463FE65A
:10182000C5F12503069A934220DBC5F10F05634CF1
:1018300052465B4604EBC501D1E9000149F00CFCBE
:10184000069B5D1B04EBC504D4E90023E3E7069B7C
:1018500016330BDB059B504659469E1B574B03EB3B
:10186000C606D6E9002349F021FDD6E7A5EB080816
:10187000069B9844B8F1000F74DD18F00F030AD0EE
:101880004E49524601EBC3015B46D1E9000149F0E4
:10189000E3FB82468B4638F00F084FD0B8F59A7FAD
:1018A00022DD00252E46079505952223DFF814B189
:1018B0004FF0000A2360079B002B3FF4F1AD18990D
:1018C00020464EF085F9059920464EF081F93146C3
:1018D00020464EF07DF9079920464EF079F92946C9
:1018E00020464EF075F9DBE5354B4FEA2818504697
:1018F0005946049300239946B8F1010F21DC0BB13E
:1019000082468B462E4BABF1547B524603EBC90902
:101910005B46D9E9000149F09FFB2A4B0A46824603
:101920000B4029498B42BCD8A1F580118B4286BF60
:10193000DFF898B04FF0FF3A02F1547B0023049394
:1019400083E018F0010F05D0049BD3E9002349F090
:1019500083FB0123049A09F101094FEA6808083260
:101960000492C9E7EAD0C8F1000818F00F020AD0C3
:10197000124B5046594603EBC203D3E9002349F00A
:1019800095FC82468B465FEA2818D7D0B8F11F0F26
:101990001EDD00252E460795059522234FF0000AEF
:1019A0004FF0000B236086E7D9E10708C06B0808F9
:1019B000A96B08084F730808CCA80708A07008088E
:1019C000787008080000F07F0000A07CFFFFEF7F28
:1019D00018F0100350465946DFF8A89318BF6A2341
:1019E0000493002318F0010F04D0D9E9002349F033
:1019F00033FB01235FEA680809F10809F2D10BB152
:101A000082468B46049BC3B1CBF30A525946C2F1BE
:101A10006B03002B11DD1F2B40F32181342B4FF082
:101A2000000ADBBFC2F14B024FF0FF334FF05C7B8B
:101A300003FA02F2D8BF02EA010B0022002350464B
:101A4000594649F071FD0028A3D1079B3A460899F1
:101A5000204600932B464EF025F9079000283FF4CE
:101A600020AF059B00259E1B069B002BB4BF334671
:101A700000232E460C93069B23EAE3731293079BE5
:101A8000204659684EF064F8059000283FF40DAFE9
:101A9000079B0C301A6903F10C010232920075F0B9
:101AA000FEFD1AAA19A920464BEC10AB4EF0D6FB4E
:101AB00018904BEC18AB00283FF4F7AE01212046FC
:101AC0004EF03AF9064600283FF4EFAE199B049910
:101AD000002BA3EB0108A9BF0C9A129A03EB020991
:101AE000129FB8BFD71A1A9AA14B9044B8BFDDF81D
:101AF0003090C2F1360208F1FF38984580F2C38079
:101B0000A3EB080301211F2BA2EB030200F3AE801D
:101B100001FA03F30D930023089309EB0208049BD9
:101B20001744C1451F444B46A8BF4346BB42A8BF0C
:101B30003B46002BC2BFA8EB0308FF1AA9EB030921
:101B40000C9B002B17DD31461A4620464EF0B2F9A9
:101B5000064600283FF4A9AE0146189A20464EF0EA
:101B600001F90B9000283FF4A0AE189920464EF0E2
:101B70002FF80B9B1893B8F1000F00F38980069B98
:101B8000002B08DD129A204605994EF093F9059036
:101B900000283FF48AAE002F08DD3A46059920461A
:101BA0004EF0E2F9059000283FF47FAEB9F1000F46
:101BB00008DD31464A4620464EF0D6F90646002852
:101BC0003FF473AE059A204618994EF03DFA05464B
:101BD00000283FF46AAEC36831460B930023C3600C
:101BE00076F006FB00285DDA0B9B53EA0A037FD1EF
:101BF000CBF31303002B7BD12BF000431B0D1B05F4
:101C0000B3F1D66F74D96B6913B92B69012B6FDDF2
:101C10002946012220464EF0A7F93146054676F0C6
:101C2000E7FA002864DD04995B46524A00297FD018
:101C300002EA0B01B1F1D66F7ADCB1F15C7F7FF77C
:101C4000ACAE4D4B50465946002249F005FA0B46C2
:101C500082468B46034304BF222323602FE64FF0C6
:101C6000FF3202FA03F303EA0A0AE6E6C8F17F4804
:101C70000D9108F57F0808F57B4808F1E20801FAA4
:101C800008F3089349E70023089301230D9344E7E1
:101C90004246189920464EF067F9189000287FF4C4
:101CA0006EAF02E65F466FD10B9ACBF3130342B3DC
:101CB000324A934228D1049B5146EBB12D4B4FF051
:101CC000FF323B40B3F1D46F19D81B0DC3F16B0346
:101CD00002FA03F3994217D1294B9F4202D10131F5
:101CE0003FF4E3AD234B4FF0000A3B4003F5801B6C
:101CF000049B002BA5D1E2E54FF0FF33EAE7134642
:101D0000E8E753EA0A038ED0089BDBB13B42EFD0F1
:101D10000B9B5046049A5946C3B175F079FE0246B2
:101D20000B4651EC180B48F0E1FF82468B46DFE78B
:101D300013404FF0FF3AA3F580136FEA135B6FEA8D
:101D40000B5BD5E70D9B13EA0A0FE0E775F060FE29
:101D500002460B4651EC180B48F0C6FF0022002348
:101D600082468B4649F0E0FB0028C1D015E600BF53
:101D700002FCFFFF0000F07F00005039FFFF0F0062
:101D8000FFFFEF7FD86B08083146284676F04CFA03
:101D900000224FF0804310EE100A59EC108B494698
:101DA00049F0D6FB00287AD00B9B002B4AD00022AA
:101DB000934B4FF00008DFF84892CDE90823914B90
:101DC0003B400D930D9A904B9A4240F0B080A7F1A2
:101DD000547BDDE908014BEC10ABCDE908014EF076
:101DE000C3F9DDE9080153EC102B49F035F95246EF
:101DF0005B4648F07BFF0B4682498246834A194086
:101E0000914260D918EE903A02F15472934204D193
:101E100018EE103A01333FF448ADDFF8FCB14FF053
:101E2000FF3A189920464DF0D3FE059920464DF013
:101E3000CFFE314620464DF0CBFE294620464DF0E0
:101E4000C7FE1CE6BAF1000F1BD1CBF31303F3B9A5
:101E500000226B4B4046494649F070FBD0B94046E2
:101E6000494600226A4B49F0F7F88046894609F155
:101E70000043CDF850801593DDE91423CDE9082304
:101E80009DE7BAF1010F02D1002F3FF486AD002289
:101E9000604B8EE74FF00008DFF87491E7E75C4B8A
:101EA00040464946002249F0D7F80B9B80468946B8
:101EB00033B901F100430E900F93DDE90E23DDE706
:101EC000CDE90E89F9E703F1547B049B002BA8D1DF
:101ED0002BF000430D9A1B0D1B059A42A1D14046E1
:101EE000494649F061FD49F089F802460B464046F3
:101EF000494648F0F9FECBF313030B9A804643EAB8
:101F00000A038946134355D035A3D3E9002349F08A
:101F100015FB00287FF4D3AC4046494632A3D3E9F1
:101F2000002349F029FB00283FF47BAFC7E4049B62
:101F300033B30D9BB3F1D46F22D8404649462CA34E
:101F4000D3E9002349F004FBA0B14946404649F0DB
:101F500045FB012838BF012049F004F80B9B80465F
:101F6000894623BB01F1004310901193DDE9102352
:101F7000CDE90823099B0D9A03F1D6639B1A0993B7
:101F8000B0EE480AF0EE680ADDE90801CDE9080183
:101F90004EF0EAF8DDE9080153EC102B49F05CF84B
:101FA00053EC182B48F0A2FE82468B468DE7CDE914
:101FB0001089DBE710A3D3E9002349F0BFFAB2E7A9
:101FC00000230A93179B139A1360FFF76DBA652AD3
:101FD0003FF461AB452A3FF45EAB0123FFF796BBAC
:101FE0009535A094FFFFDF3F35E5AF350000E03FBA
:101FF0000000C0FFFFFFDF419535A094FFFFCF3FFA
:102000000000F03F0000F07F0000E07FFFFF9F7CBA
:102010000000E03F0000F0BFFFFFEF7F0000000086
:102020009FED010B704700BF000000000000F87F2B
:102030002DE9F04F1D460023894683462DED048B84
:10204000D3B019930B924EF0ADFE03681B78169334
:10205000B9F80C301C061AD5D9F81030BBB940219C
:1020600058464AF043FCC9F80000C9F8100058B9B6
:102070000C23CBF800304FF0FF330D930D9853B085
:10208000BDEC048BBDE8F08F4023C9F81430002369
:102090009FED8D7B0F931193B0EE478AF0EE678A28
:1020A0000D930B9B1C4653F8042B0AB1252AF9D13A
:1020B0000B9BA3420DD0E61A0B9A4946584633466D
:1020C00076F04FF9013000F0E8800D9B03EBA6039A
:1020D0000D932368002B00F0E0800021221D0A20D0
:1020E0004FF0FF340E460F4615910C9152F8043B09
:1020F00009930B92099B392B4CD81F2B4FD9099B65
:10210000203B192B4AD8DFE803F06B494970494955
:1021100049494949736C497A7D49989B9B9B9B9B94
:102120009B9B9B9B332B39D8DFE813F0EB003800E7
:10213000EB0038003800380038009D0038003800C7
:1021400038003800380038003800380038003800CF
:1021500038002103380038003800380038003800D3
:102160003800380038003800A600D700EB00EB003C
:10217000EB00A000D70038003800A3003800890227
:102180009A02A702A3003800C602380016033800DE
:1021900038004200099B453B332BC3D911B1099B41
:1021A000002B7AD0099B00200A952A93159081E094
:1021B00001B11596464B2A460F93F80652F8043B98
:1021C0000A9202D4790648BF9BB2FA0706D52BB112
:1021D000302247F002071A92099A1B9202225AE211
:1021E0000EB9099E01210B9A80E747F00107FAE733
:1021F00055F8043B002B0C93F5DA5B420C9347F047
:102200000407F0E70B9A52F8043B2A2B099312D1EA
:1022100055F8044B0B9244EAE474E4E700FB043401
:1022200052F8043B0993099B303B092BF6D944EA49
:10223000E4740B925EE70024F5E747F08007D2E7ED
:1022400000230C930C9A099B00FB0233303B0C9348
:102250000B9B1A4652F8043B0993099B0B92303BA7
:10226000092BEFD946E747F00807BCE747F04007DE
:10227000B9E747F01007B6E701B115962B1DF80630
:102280000A9327D4286849F05BFD411C0ED1B9F8A8
:102290000C3043F04003A9F80C30B9F80C3013F0BF
:1022A000400F0D9B18BF4FF0FF33E6E62A90002049
:1022B0002B90159080460124064605460DF1A80A8C
:1022C00008E100BFAFF30080000000000000000044
:1022D000807208082B682A93E9E701B115962B1D37
:1022E000FA060A9307D52B68002B02DA2D225B42EF
:1022F00015920122D1E117F0400F2B6818BF1BB2D5
:10230000F2E701B1159607354FF0FF3225F00703CC
:10231000B3EC027BB0EE478AF0EE678A0A93B0EE28
:10232000479A18EE903A23F0004309EE903AA54BF5
:1023300051EC190B4EF07CFDF0B94FF0FF32A14B80
:1023400051EC190B49F004F9B0B90022002351EC0B
:10235000180B49F0F3F808B12D2315939A4B9B48BD
:10236000099A27F080074FF000080324472A94BFFA
:102370009A4682464646D1E353EC182B51EC180B93
:102380004EF056FD40B118EE903A9148002BBCBF7C
:102390002D2315938F4BE3E7631C00F00D81099B00
:1023A00023F02003472B02D1002C08BF012447F45F
:1023B00080730DF1A80818AE17AD0E932823584668
:1023C000CDF81880079319AB03960593099B0295E6
:1023D00004930E9BCDE9004353EC182B76F0E6F8FE
:1023E0004045824640F0EA801999282940F3E6806A
:1023F000890058464AF07AFA804600283FF447AFF1
:10240000199B0295CDE9060319AB58460593099B24
:10241000CDE903630E9BCDE9004353EC182B76F016
:10242000C5F88246099B189D23F02003472B40F0F6
:10243000D580EE1C199B02DBAC4280F2EB80099B3D
:10244000023B09936B1E099A002B18931C92BABF8A
:10245000C5F101032D222B22092B1D9240F3D180BF
:102460002AA80A250246043893FBF5F405FB14312B
:10247000303142F8041C194623466329F2DC30331C
:10248000A2F1080140F8043C1EA82AAB9942C0F012
:10249000B3800DF1B304A41A0B3A24F00304934261
:1024A00038BF00241EAB1C441CA8241AA31011938F
:1024B000199B012B03EBA40402DC17F0010501D0EA
:1024C00001340025179E002E00F07D812D230E9FE4
:1024D00000261593A6423346B8BF23460E93159B9C
:1024E00013B10E9B01330E9317F0020312931EBF1C
:1024F0000E9B02330E9317F08403139300F0658153
:10250000159B43B1042315AA4946584675F029FF87
:10251000013000F06D81129B43B108231AAA49468D
:10252000584675F01EFF013000F06281139B802B2E
:1025300013D10C9B0E9A9B1A002B10930DDD109B50
:10254000254A102B00F369819B00234A49465846CF
:1025500075F007FF013000F04B81361B002E0CDDBB
:10256000102E1D4A00F36481B3001B4A49465846A9
:1025700075F0F7FE013000F03B81F90500F1618153
:10258000A30052464946584675F0EBFE013000F074
:102590002F817A0700F17F820E99DDE90C238A42B0
:1025A000ACBF9B185B180D93B8F1000F56D0414695
:1025B00058464AF04FF951E00624F8E64FF000087B
:1025C00030E700BFFFFFEF7FFC7108080C720808BE
:1025D0002C7208081C7208080C730808099B662BEB
:1025E0007FF430AF07F00103002D43EA04030EDD52
:1025F000FBB101342C4465E751F8044B40F8044B1F
:1026000044E7302220AC13441E921F934CE793B151
:10261000023457E79D4205DBFC070ED56C1C67238F
:1026200009934FE7002DD4BFC5F1020401241C44D7
:10263000F5E72C4646E7012444E72C46EFE701B1D5
:1026400015962B1DF8060A9303D52B680D9A1A6070
:1026500004E07906F9D52B680D9A1A800A9D20E5C9
:102660002A4617F0100152F8043B0A9203D117F0E2
:10267000400210D09BB200220DE02A46782147F09C
:10268000020752F8043B09910A923022CDE91A213F
:10269000A44A0F92022200211591661C00F01882B4
:1026A00027F08001002B40F01782002C00F083807F
:1026B000012A40F0148260E02B46002617F0100536
:1026C00053F804AB15960A932DD1621C14D0224600
:1026D00029465046264674F0C4FF08B1A0EB0A060E
:1026E000272E0ED9711C584689004AF0FFF80028A1
:1026F0003FF4CDAD804607E0504675F044F90646FC
:10270000EEE74FF000082AA834460023B34204D174
:102710000026824640F82360DCE61AF8032040F8E1
:1027200023200133F2E7631C11D022463146504684
:1027300075F0E4FA804600283FF41CAEA0EB0A08CE
:102740004FEAA8084445A8BF4446B04612E65046A2
:1027500075F043FA0446F8E72A46FE0652F8043BB1
:102760000A9202D47D0600D59BB2012293E701B103
:1027700015966D4B1FE5092B04D830330DF5A27A61
:102780005193C3E10DF5A47A0A25B3FBF5F005FBDF
:10279000103230324AF8042D1A460346092AF4D87A
:1027A000B4E103F00F020F981B0950F822204AF8F9
:1027B000042DF6D1AAE11AB9F80701D53023DDE7D7
:1027C0000DF5A47AA2E10E9F84E60C9B0E9A9B1A4B
:1027D000002B10937FF794AE109B102B11DC9B0005
:1027E000524A4946584675F0BCFD01307FF488AE28
:1027F000B8F1000F3FF451AD414658464AF02AF86F
:102800004BE54023494A4946584675F0AAFD013038
:10281000EED0109B103B1093DEE74023494658460C
:1028200075F09FFD0130E3D0109B103B109386E6BE
:1028300040234946584675F094FD0130D8D0103EEB
:102840008EE6099B652B40F2E4800022002351ECC8
:10285000180B48F069FE58B30423354A49465846D8
:1028600075F07FFD0130C3D0DDE918239A4202DB09
:10287000FB077FF58EAE042316AA4946584675F02D
:1028800070FD0130B4D0199C013C002C7FF781AE63
:10289000284D102C02DCA300264A73E640232A466A
:1028A0004946584675F05DFD0130A1D0103CF0E777
:1028B000189B002B40DC04231D4A4946584675F0FE
:1028C00050FD013094D0DDE91832134307F00102C6
:1028D00013433FF45EAE042316AA4946584675F0EA
:1028E00040FD013084D0189C002C0CDA6442114D5C
:1028F000102C0BDCA3000F4A4946584675F031FDF9
:1029000001303FF475AF199B9B003AE640232A46FD
:102910004946584675F025FD01303FF469AF103C3B
:10292000E6E700BF807208083C720808CC7208080D
:10293000C47208080C730808199C44F31D04AC42C7
:10294000A8BF2C46002C1FDC002CACBF2E1B2E4633
:10295000002E0BDD724C102E1FDCB300704A49466E
:10296000584675F0FEFC01303FF442AFAD00DDE9A2
:1029700018239A421CDA042316AA4946584675F0D1
:10298000F0FC013016D133E7A300524649465846C1
:1029900075F0E7FC0130D7D12AE7402322464946AB
:1029A000584675F0DEFC01303FF422AF103ED2E70E
:1029B000FE07E0D4199BC5EB8304A210189C1C1BD6
:1029C0009442A8BF1446002C09DDA3000AEB0502BF
:1029D0004946584675F0C5FC01303FF409AF002C5C
:1029E000DDE91835A5EB0305A8BF2D1B002D7FF7EA
:1029F000D0AD4B4C102D01DCAB004DE740232246FF
:102A00004946584675F0ADFC01303FF4F1AE103D3B
:102A1000F0E7199B524649465846012B4FF00403F4
:102A200001DCFC071BD575F09CFC01303FF4E0AEE7
:102A3000042316AA4946584675F093FC01303FF42A
:102A4000D7AE199C00220023013C51EC180B48F032
:102A50006BFD68B9A3000AF104024946584675F0B7
:102A600080FC01303FF4C4AE119B1CAA9B0089E599
:102A7000002CF9DD2A4D102C02DCA300284AECE7DB
:102A800040232A464946584675F06BFC01303FF416
:102A9000AFAE103CEFE70C9B0E9A9C1A002C7FF710
:102AA0007BAD102C09DCA3001E4A4946584675F040
:102AB00058FC01307FF470AD9AE64023194A49462C
:102AC000584675F04EFC01303FF492AE103CE8E7FA
:102AD0003946002B3FF4ECAD012A3FF44CAE022AFC
:102AE0000DF5A47A3FF45DAE03F00702DB08504613
:102AF00002F130024AF8042DF6D1CD0706D5302A6E
:102B000004D030234AF8043CA0F1080A52AB264610
:102B10000F464FF00008A3EB0A04A4104546D9E481
:102B20000C730808CC7208082DE9F04F456A04467A
:102B300010EE10AA2DED048B93B057EC106BDDF85E
:102B40008080BB46069109920C9375B9102049F01C
:102B500049FE0246606220B9A74BEA21A74849F026
:102B6000D1F8C0E901550560C560636A196851B1C3
:102B70005A680123204693404A608B604DF028F844
:102B8000636A00221A603B1EADBF0023012223F0BE
:102B9000004BC8F800309A4BB8BFC8F8002033EAA1
:102BA0000B031BD142F20F730C9A1360CBF3130388
:102BB000334300F08F85219B63B9924B22E0924B07
:102BC00001930833219A1360019813B0BDEC048B74
:102BD000BDE8F08F8B4B01930333F3E70022002312
:102BE0005046594648F0A0FC80464BEC19AB58B112
:102BF00001230C9A1360219B002B00F06885834809
:102C00001860431E0193DFE7CBF30A5510AA11A900
:102C100020464BEC10AB4DF021FB08EE100A002DC6
:102C200000F0828019EE903A5646A5F2FF35CDF8B5
:102C30003880C3F3130343F07F5747F44017002253
:102C4000734B3046394648F04FF865A3D3E900236B
:102C500048F002FA64A3D3E9002348F047F8064697
:102C60000F46284648F08EF961A3D3E9002348F0C7
:102C7000F3F902460B463046394648F037F8064627
:102C80000F4648F083FC002200900023304639466E
:102C900048F054FC50B1009848F074F932463B4675
:102CA00048F042FC10B9009B013B0093009B162B9F
:102CB00059D8009A574B03EBC20351EC190BD3E9D7
:102CC000002348F03BFC00284FD0009B013B0093C1
:102CD00000230B93109B5D1B6B1E059349BFC5F131
:102CE000010300230493002354BF04930593009B26
:102CF000002B3CDB059B009A13440A9205930023AA
:102D00000793069B092B00F28980052BC5BF043B66
:102D1000002501250693069B023B032B00F28980C8
:102D2000DFE803F02E3B395ADDE910531D4405F26C
:102D30003243202BC6BFC3F1400305F21240C3F15A
:102D4000200305F1FF35C5BF0BFA03F326FA00F0A7
:102D500006FA03F0184348F005F901230646A1F1ED
:102D6000F8770E936BE70123B3E70B90B2E7049B70
:102D7000009A9B1A04935342079300230A93C0E7D7
:102D800000230893099B002B56DC01231A46CDE94A
:102D9000023309920CE00123F3E70023099A089318
:102DA000009B134402930133012B0393B8BF01230B
:102DB0000022606A4260042202F1140641689E42C9
:102DC0003ED920464CF0C4FE019000283CD1124B65
:102DD00002464FF4D571C1E60123DFE7AFF300806F
:102DE00061436F63A787D23FB3C8608B288AC63F11
:102DF000FB799F501344D33FA46208085973080815
:102E00000000F07F557308084C730808CE9B070834
:102E10000000F83FA0700808506F08080125002343
:102E2000089506934FF0FF330022CDE902331223B9
:102E3000AFE701230893F5E7099BCDE90233B7E734
:102E4000013152004160B7E7636A019A1A60039B3F
:102E50000E2B00F29D80002D00F09A80009B002B2D
:102E600032DD03F00F03B64A02EBC303D3E9008956
:102E7000009BD8054FEA231716D5B24B07F00F0772
:102E80000325D3E9082351EC190B48F00FFA8246C9
:102E90008B46AC4E57B942464B465046594648F0D1
:102EA00005FA82468B4628E00225F2E7F90708D5A5
:102EB000404649460135D6E9002348F0CDF8804622
:102EC00089467F100836E5E700F09B80009B0225CD
:102ED0009C4F5E429A4B06F00F02361103EBC20381
:102EE00051EC190BD3E9002348F0B6F800238246D1
:102EF0008B46002E7AD1002BD3D10B9B002B00F0F8
:102F000082800022904B5046594648F017FB00281B
:102F100079D0039B002B76D0029B002B36DD009BE3
:102F20005046594600225F1E884B48F095F80135FF
:102F300082468B46029E2846D04648F023F85246E9
:102F40005B46D94648F088F80022814B47F0CEFE18
:102F50008246A1F1507B002E58D100227D4B404685
:102F6000494647F0C1FE52465B468046894648F0D6
:102F700003FB002840F0938252460BF10043404689
:102F8000494648F0DBFA002840F087825BEC19AB39
:102F9000119B002BC0F24881009A0E2A00F3448155
:102FA000674B03EBC203D3E90089099B002B80F236
:102FB000D580039B002B00F3D18040F06D8200226E
:102FC000644B4046494648F047F852465B4648F055
:102FD000C9FA039E3746002840F043823123019D01
:102FE00005F8013B009B013300933EE2F20705D553
:102FF0000135D7E9002348F02FF801237610083770
:1030000077E7022579E7009F039E94E701994C4BEF
:10301000314403EBC6030D91089953E902230029BB
:1030200043D000204C4948F041F952465B4647F0F6
:103030005BFE019D82468B464946404648F0A6FA13
:10304000064647F09FFF024630360B46404649464B
:1030500047F04AFE52465B4605F8016B80468946BA
:1030600048F06CFA002863D142464B4600203649AE
:1030700047F03AFE52465B4648F060FA002840F0BE
:10308000B5800D9B9D4281D00022304B5046594661
:1030900047F0E2FF002282468B46404649462B4BD2
:1030A00047F0DAFF80468946C6E75046594647F062
:1030B000D3FF0D9B82468B46019D0F9349464046A8
:1030C00048F064FA064647F05DFF02460B4640466C
:1030D0004946303647F008FE0D9B05F8016B8046E7
:1030E0009D4289464FF0000224D11B4B5046594661
:1030F00047F0FCFD02460B464046494648F03CFA84
:10310000002873D152465B460020134947F0ECFD7E
:1031100002460B464046494648F010FA00283FF464
:1031200035AF0F9D6B1E0F9315F8013C302BF8D077
:10313000009749E0054B47F08FFF80468946BDE781
:10314000A0700808787008080000F03F00002440D4
:1031500000001C40000014400000E03F56465F465F
:10316000019D42464B463046394648F09FF848F0AC
:103170000DFA824647F006FF42464B4647F06CFF89
:10318000024630460AF130060B46394647F0ACFDA0
:1031900005F8016B019E0246039F0B46AE1BB7422A
:1031A00035D147F0A3FD42464B4606460F4648F050
:1031B000E3F9D0B942464B463046394648F0B4F9B7
:1031C00010B11AF0010F10D1204618EE101A4CF071
:1031D000FFFC002300982B7001300C9B1860219B92
:1031E000002B3FF4F1AC1D60EEE4009F2B461D4622
:1031F00013F8012D392A06D1019A9A42F7D13022CB
:10320000019901370A701A7801321A7090E700228A
:10321000A44B47F021FF0022002306460F4648F04A
:1032200083F900289DD0CFE7089A002A00F0D580C6
:10323000069A012A00F3B9800E9A002A00F0B180A4
:1032400003F23343079E049D049A012120461A4449
:103250000492059A1A4405924CF06EFD0746002D23
:103260000CDD059B002B09DDAB42049AA8BF2B4661
:10327000D21AED1A0492059AD31A0593079B1BB331
:10328000089B002B00F0AD80002E13DD394632463E
:1032900020464CF00FFE18EE102A01460746204645
:1032A0004CF060FD804618EE101A204608EE108A99
:1032B0004CF08EFC079B9A1B06D018EE101A204685
:1032C0004CF0F8FD08EE100A012120464CF034FDC8
:1032D0000A9B0646002B40F386801A46014620468C
:1032E0004CF0E8FD069B0646012B7FDD4FF0000801
:1032F000336906EB8303186974F02BFFC0F12000DB
:10330000059B184410F01F0000F09180C0F12003CD
:10331000042B40F38980C0F11C00049B0544034446
:103320000493059B03440593049B002B07DD18EED3
:10333000101A1A4620464CF017FE08EE100A059B9C
:10334000002B05DD31461A4620464CF00DFE0646A0
:103350000B9B002B6DD0314618EE100A74F048FF1D
:10336000002866DA009B18EE101A0A222046013B5C
:10337000009300234CF04EFC089B08EE100A002B33
:1033800000F0AF81002339460A2220464CF042FC6F
:10339000029B0746002B00F38D80069B022B50DC1E
:1033A00088E0109BC3F136034CE7039B5E1E079B2E
:1033B000B342B7BF079B9E1B0796F21ABFBF0A9B7B
:1033C00000269B180A93039B002BB7BFDDE903235C
:1033D000DDE903359D1A002336E7079E049D089F0B
:1033E0003DE7079A69E7069B012B18DCBAF1000F4D
:1033F00015D1CBF3130393B92BF000431B0D1B0521
:1034000083B1049B4FF0010801330493059B013302
:1034100005930A9B002B7FF46BAF012070E74FF000
:103420000008F6E79846F4E73FF47EAF18461C30F4
:1034300073E7039B002B37DC069B022B34DD039BD9
:103440000293029B6BB93146052220464CF0E2FB09
:103450000146064618EE100A74F0CAFE00283FF72F
:10346000BDAD099B019DDB4300934FF00008314641
:1034700020464CF0ADFB002F3FF4A6AEB8F1000F94
:1034800005D0B84503D0414620464CF0A1FB394653
:1034900020464CF09DFB97E600263746E1E7009773
:1034A00037469BE500002440089B002B00F0CA80B3
:1034B000039B0293002D05DD39462A4620464CF039
:1034C00053FD0746B8F1000F5BD0796820464CF0F9
:1034D0003FFB054628B9874B024640F2EA21FFF739
:1034E0003DBB3A6907F10C010C300232920074F0D6
:1034F000D6F80122294620464CF036FD019BB846FD
:10350000074603F10109DDE90123134405930AF09D
:1035100001030493314618EE100A75F0B8F84146DD
:10352000029000F1300A18EE100A09F1FF3B74F026
:103530005FFE3A460390314620464CF085FDC26856
:10354000054602BB014618EE100A74F051FE024611
:103550002946204607924CF03BFB4D46DDE90632FA
:1035600043EA0201049B0B430FD1BAF1390F2AD071
:10357000039B002B02DD029B03F1310A8BF800A0B4
:1035800075E73846BAE70122E2E7039B002B04DB2C
:1035900006990B4304990B4322D1002AEEDD18EE65
:1035A000101A012220464CF0DFFC314608EE100ACA
:1035B00074F01EFE002803DCE0D11AF0010FDDD00C
:1035C000BAF1390FD7D139238BF800302B461D467D
:1035D000013B15F8012C392A70D001321A7046E7E8
:1035E000002A07DDBAF1390FEDD00AF101038BF89B
:1035F00000303CE7059B09F801AC994546D018EE30
:10360000101A00230A2220464CF004FBB84508EEAD
:10361000100A4FF000034FF00A024146204606D13F
:103620004CF0F8FA8046074609F1010972E74CF0C0
:10363000F1FA3946804600230A2220464CF0EAFA85
:103640000746F1E7039B0293019D314618EE100AED
:1036500075F01DF8019B00F1300A05F801ABEA1A7C
:10366000029B934209DD18EE101A00230A2220461D
:103670004CF0D0FA08EE100AE7E7029B4FF0000882
:10368000002BCCBF1D460125019B1D4418EE101ACE
:10369000012220464CF068FC314608EE100A74F016
:1036A000A7FD002892DC02D11AF0010F8ED12B4623
:1036B0001D4613F8012D302AFAD0D8E6019A9A4215
:1036C00085D1009B0133009331231370CFE60A4B61
:1036D000FFF798BA219B002B7FF471AA074BFFF7E5
:1036E00091BA029B002BAFDC069B022B3FF7A9AEE1
:1036F000AAE700BF506F0808CD9B07084C73080865
:1037000051EC100BF8B5C1F30A530C4610EE106AD9
:10371000A3F2FF35132D32DC002D1EDB364F2F4177
:1037200001EA070303432FD031A3D3E9002347F075
:10373000DDFA0022002347F01FFF48B1002C04DD12
:103740004FF4801343FA05F52C4424EA07040026BD
:103750002346324643EC102BF8BD25A3D3E90023C2
:1037600047F0C4FA0022002347F006FF0028EFD0FC
:10377000002C39DB264333D00026204CE8E7332DDC
:1037800005DDB5F5806F23D041EC100BF8BDA3F239
:1037900013434FF0FF37DF400742F5D014A3D3E9BE
:1037A000002347F0A3FA0022002347F0E5FE00289B
:1037B000CED0002C09DD142D14D00123C5F1340521
:1037C00003FA05F5AE1928BFE41826EA0706BFE795
:1037D00010EE102A0B4647F089FA41EC100BF8BDA9
:1037E0003446B5E70134F0E700264FF00044AFE778
:1037F0009C7500883CE4377EFFFF0F000000F03F1F
:1038000051EC100BF8B5C1F30A530C4610EE106AD8
:10381000A3F2FF35132D30DC002D1EDB384F2F4176
:1038200001EA070303432DD033A3D3E9002347F074
:103830005DFA0022002347F09FFE48B1002C04DA15
:103840004FF4801343FA05F52C4424EA07040026BC
:103850002346324643EC102BF8BD27A3D3E90023BF
:1038600047F044FA0022002347F086FE0028EFD0FC
:10387000002C29DB00263446EAE7332D05DDB5F5BB
:10388000806F19D041EC100BF8BDA3F213434FF039
:10389000FF37DF400742F5D017A3D3E9002347F0F5
:1038A00025FA0022002347F067FE0028D0D0002C24
:1038B00013DB26EA0706CBE710EE102A0B4647F08B
:1038C00015FA41EC100BF8BD24F000430D4A3343C8
:1038D0000026B34218BF1446BAE7142D08D00123BE
:1038E000C5F1340503FA05F5AE1928BFE418E0E781
:1038F0000134DEE7AFF300809C7500883CE4377E3E
:10390000FFFF0F000000F0BF10B5054C237833B95E
:10391000044B13B1044800E000BF0123237010BD25
:10392000D862002000000000D877080808B5034BD3
:103930001BB10349034800E000BF08BD00000000C0
:10394000DC620020D8770808A3F5803A704700BFF2
:10395000174B002B08BF134B9D46FFF7F5FF0021C7
:103960008B460F461348144A121A73F0BFFE0E4BD3
:10397000002B00D098470D4B002B00D0984700201B
:10398000002104000D000D48002802D00C4800E082
:1039900000BF48F047FE200029004FF048FC48F0E7
:1039A00035FA00BF00000800000000000000000021
:1039B00000120020A81F002094B200200000000088
:1039C00000000000CB8B07EE900A07EE103A9FED47
:1039D000180AB8EE477AF8EE677A27EE000ADFEDAC
:1039E000156A17EEA60ADFED146A27EE267ADFEDD8
:1039F000136AB1F9203017EEA67A06EE903A91F9E3
:103A00002230B3EE006A07EE903AF8EEE77A20EE45
:103A1000000A67EE867AF8EEE66A67EE807A9FED36
:103A2000080A47EE267AC1ED0E7A87EE800A7047C3
:103A300000000039000000370000803A00008038A4
:103A40000000A045D1ED0E6AF6EE007A9FED557AA2
:103A500091F9283016EEA77A07EE903AB1F92630A0
:103A6000F8EEE77A06EE903A67EE877AF8EEE66AC5
:103A700067EE877A66EE876AB0EE476A9FED4A7A0C
:103A8000F7EE005A47EE876ADFED487A8B8C66EED8
:103A9000A76A9FED474AF0EE657A05EE903A46EE4A
:103AA000847AF8EE655A65EEA75AFDEEE57A17EED0
:103AB000903A03EE900A002B70D091F92E30DFED92
:103AC0003D4A05EE103AB1F92C30B8EEC55A07EE72
:103AD000103AB8EEC77A27EE067A66EE067A25EE39
:103AE000245A37EE077AB1F92A3005EE277A06EE26
:103AF000103AF8EE637ADFED306AB8EEC66A76EE19
:103B0000E76ADFED2E7A26EE276AF5EE007A07EEF9
:103B1000276ADFED2B7AB0EE667A06EE677ADFED84
:103B2000297A27EE277AB1F9323087EE250A07EE97
:103B3000103AB1F93030B8EEC77A07EE903AF8EEA5
:103B4000E77A27EE007A67EE847A27EE007A67EE4E
:103B5000807A9FED1D6ADFED1D6A91F8343060EECA
:103B6000266A47EE067A07EE103A26EEA66AB8EE07
:103B7000C77A66EE266A27EE247A91F92F3047EE4F
:103B8000267A07EE103ADFED126AB8EEC77A47EEF2
:103B9000267A9FED107A07EE870A70479FED0E0A8E
:103BA000704700BF00007A470000803800000036F0
:103BB0000000003800000037000080490000804706
:103BC000000080390050C345000000300000803BF9
:103BD000000000430000803D0000000091ED0E7ADF
:103BE000DFED307A91F91530C7EE276A07EE103A0B
:103BF00091F91630DFED2C5A06EE103AB8EEC77A7E
:103C0000F7EE007A27EE257ABAEEC66A4B8A47EEBF
:103C1000267A26EE266A00EE103A46EE267ABBEEAB
:103C2000C70A91F9143067EE807A06EE103A0B8AD3
:103C3000B3EE005A00EE103AB8EE400A07EE100A52
:103C4000BAEEEF6A20EE050AB8EE477A06EE260ACB
:103C500037EE400A91F9183027EE800A07EE103A45
:103C6000CB7DBAEEE57A07EE903AF8EE677A67EE2A
:103C7000A57A47EE267A67EE807A07EE800ADFEDB6
:103C80000B7AB4EEE70AF1EE10FA07DCB5EEC00AE3
:103C9000F1EE10FA04D59FED060A7047B0EE670A00
:103CA000704700BF0000A045000080380000C842F7
:103CB00000000000B1F91A30B0F5C87F07EE903A65
:103CC00028BF4FF4C870FAEEE87ADFED2B6A9FED5B
:103CD0002B7A07EEA67AF7EE006A07EE900AF0EE6E
:103CE000665AF8EE677A91F9193047EE275A07EECF
:103CF000103ADFED237ABAEECE7A91F91C3037EE26
:103D0000277A07EE903A91F90E30FAEECB7A06EE6A
:103D1000103AB8EEC66A67EE867A91F83C3045EE06
:103D2000877A07EE103AB1EE006AB8EE477A37EEBE
:103D3000067A91F93D30C6EE075A07EE103A67EE63
:103D4000A57AB8EEC77A9FED0F6AF0EE665A47EE95
:103D5000065AB3EE097A86EEA56A17EE867ADFED8B
:103D60000A7A67EE277AFCEEE77A82B0CDED017A27
:103D70009DF8040002B070476F12033A75021A3BB7
:103D8000000044426F12033B9A99594006EE900A94
:103D9000F0B52B4CA1B06D46264607EE902A9FED5C
:103DA000297AF8EE666A0F460FCE0FC50FCE76EE73
:103DB000C76AF8EEE77AB1EE046A9FED237A0FC581
:103DC0000FCE0FC596E80F00403485E80F000FCCEA
:103DD00010AD0FC50FCC0FC50FCC0FC594E80F0069
:103DE00085E80F0020AB03EB870353ED205A07EE65
:103DF000867A9FED166AB7EE000AC5EE867A77EEF0
:103E0000807A27EE277AC6EE877A13ED107A77EE5E
:103E1000806AC7EE067A012377EE807A9FED0C7AEE
:103E2000BB4027EE877A07EE903AF8EEE77A67EE26
:103E3000277A66EEA77A80EE270A21B0F0BD00BF90
:103E4000F0870708000000440080A7440000C84233
:103E5000BD370634F0B54D4B064618681B7987B060
:103E60008DF80C30002302900DF107000D460493ED
:103E70008DF814304FF09CF80446002840F0838001
:103E800029464FF058F80746044666B94FF0FF340C
:103E90009DF8070020B11CB929464FF04CF80446A4
:103EA000204607B0F0BD0028F2D12B4605229DF830
:103EB000080004A94EF01BFF85F84D700446002849
:103EC000E6D12A460721F01C4EF066FE0446002883
:103ED000DED10521701C4EF05FFE04460028D7D1CC
:103EE000B01C4EF059FE04460028D1D130464EF0A9
:103EF00053FE04460028CBD10821301D4EF04CFE65
:103F000004460028C4D1F3789DF814209B0022F0C9
:103F10001C0203F01C0313435AB29DF8133071784E
:103F200003F01F0343EA4113B17823F01C03890017
:103F300001F01C010B438DF8133031789DF81130DE
:103F400001F0070123F007030B4331798DF811309D
:103F5000082912BF0020012000219DF8103002F036
:103F60001F0203F07F0342EA411243EAC0138DF8B7
:103F700014208DF8103005222B4604A902A84EF01B
:103F80006CFE044684E7002E82D17FE7E8870708AD
:103F900037B51E4B0546D3F88000B3F884300C4685
:103FA0000090ADF8043011B9002003B030BD0521F8
:103FB000601C4EF0F1FD0028F6D1A01C4EF0ECFD87
:103FC0000028F1D120464EF0E7FD0028ECD16378BF
:103FD00002AA1344A27813F8080C02AB1A4412F890
:103FE000083C02AA18442378022D134413F8083C15
:103FF000034440F2AB7000FB03F30BBF03F58650A4
:1040000003F5A55040180D30CFE700BFF087070833
:104010002DE9F04FB5B01E4622AB019204460F4683
:1040200018464822002173F061FB28AB0A900B93DD
:1040300030462EAB0C934EF0A1FD054628B14FF053
:10404000FF34204635B0BDE8F08F002FF7D0012CAB
:1040500040F0D480014615900D2216A873F046FB5F
:104060000525334611221D2015A94EF040FE9DF86E
:1040700055200446BA709DF856209DF854000292CF
:104080009DF8572000F0800303929DF8582000F01F
:104090000F0004929DF85920787005929DF85A20DF
:1040A0009DF862A006929DF85C209DF864800792BE
:1040B0009DF85D209DF85B9008929DF861209DF829
:1040C00063B00992B268012A0CBF08F030020AF00E
:1040D000300213433B701B0679D5002C7DD133464B
:1040E0000122F91C5A304EF002FE0446002874D119
:1040F0007878334650300122391DC0B24EF0F7FDBA
:104100000446002869D17878334664300122791D4D
:10411000C0B24EF0ECFD044600285ED1069B4FEA8B
:10412000191040EA0310059B314640EA0330FFF7BF
:1041300049FC049B87ED020A1809039B40EA03101F
:10414000029B40EA0330FFF77DFCDDE9072387EDA2
:10415000030A43EA0220FFF741FDB36887ED040A32
:10416000012B26D14FEA981343EA8B0B4FF480239F
:1041700008F00F0823FA08F307EE103ADFEDB37AE0
:10418000B8EEC77A0BEB4B0B0BF5206B27EE277ABB
:1041900007EE90BAF8EEE77AC7EE276AC7ED056A30
:1041A00097F90030002BB5BF01250025002402241B
:1041B0001EE0099B4FEA9A1096F93E200AF00F0183
:1041C00040EA8300FFF7E2FD87ED050AE8E724B93E
:1041D00042F21070B36C71689847013D15F0FF050D
:1041E00004D0002C3FF43DAF002501E0002CD7D0D7
:1041F000019B002B3FF423AF1D7022E7023C012CF2
:1042000000F2218101462F22159016A873F06EFA54
:104210001A2229460EA80D9573F068FA3346332208
:104220001D2015A94EF063FD04468246002840F08B
:104230009A8033461E2250200DA94EF058FD15AD30
:104240009FED823A0446002840F08D800AAB53F877
:104250002A806B7895F8039088F80230AB784FEAA3
:10426000091949EA03392B79A87949EA13196B79B5
:10427000000140EA0330EB792A7A40EA131307EE93
:10428000903A6B7A297843EA02236A7BB0680292FB
:10429000EA7B95F80EB003922A7C012801F00F0CFE
:1042A00021F07F010CBF02F0200E0BF0200E49B26E
:1042B0000BBF41EA0E0141EA0E0102F0100E0BF0B5
:1042C000100E41EA0E01049334AB88F8001003EBA2
:1042D0000C0111F89C1C88F801C088F8041003EB4D
:1042E0000C0111F8921C9C4488F803101CF8881CDF
:1042F00017EE900A88F805103146FFF763FB484631
:1043000088ED020AFFF79EFB049B88ED030A18461E
:10431000FFF764FCB36888ED040A012B38D10399D8
:10432000930943EA81034FF4802102F00F0221FA3E
:1043300002F207EE902A03EB430303F52063F8EE45
:10434000E77A07EE103A67EE837AB8EEC77A87EE1F
:10435000870A0AF1010ABAF1030F88ED050A05F18F
:1043600011057FF473AF0DF1280E7246032300256B
:10437000002C4FD152F8041B013B91F90010002989
:10438000BCBF0135EDB213F0FF03F3D1704639E045
:10439000029B4FEA9B1096F93E200BF00F0140EA7A
:1043A0008300FFF7F3FCD4E74FF00209DCF800606C
:1043B00051F8043B96F900A093F90020BAF1000FE0
:1043C00016DA002A16DA96F802A09A78A2EB0A0208
:1043D00092B202F1020A1FFA8AFABAF1010F02D967
:1043E00012B2022A06DDCCF8003041F8046C01E07C
:1043F000002AF8DBB9F1020FD6D1B8F1020F4FF065
:10440000010307D0013384465FFA83F80430014684
:10441000C146CBE74FF000084FF018097CB909FB03
:1044200008765EF804CB08F10108BCE80F000FC65F
:104430009CE80300B8F1030F86E80300EFD1002DDC
:1044400008BF0224D4E60124D2E600BF0024744948
:1044500047F270132DE9F04F93B0064617460D460C
:10446000ADF81430002900F09380114600204EF082
:1044700062FD0446002840F0F5806E238C4A8DF8DA
:104480001330D2F88600D2F88A1006AB03C3B2F814
:104490008E20022E1A8009AB03C31A800CAB03C313
:1044A0001A800FAB03C30DF118081A800DF124090F
:1044B0000DF13C0A00F09E80032E64D0012E40F0E6
:1044C000F5805A23394668888DF81830FFF7F2FBDB
:1044D00064238DF83030AB888DF82400B3F57C6F01
:1044E0004FD23F2BE2B204F1010448D803EB821310
:1044F000DBB24FF0000A8DF83C303B46324649466D
:1045000040464EF0AAFB0446002840F0AB803B46F4
:1045100032460FA90CA84EF0A0FB0446002840F03C
:10452000A1803B46022270200FA94EF0E0FB04461A
:10453000002840F097802A78012A40F0B480BB68B8
:10454000012B08BF02229DF83C300FA923F008037D
:1045500043EAC4049DF83D3005A823F00F0343EA65
:104560000A0323F0300343EA02138DF83D300222A0
:104570003B468DF83C404EF070FB044672E09B08D1
:10458000AFE7FF23B5E7D5F80CB0BBF1000F02D1C0
:104590004FF0FF3466E0AB68002BF9D02E7CE2B21E
:1045A000964201D8B246A8E702F15A0108F8041071
:1045B00033F8140039460193FFF77CFB64320CABEF
:1045C0001A5509F804003BF81420019BB2F57C6FE2
:1045D0000ED200213F2AC8B201F1010106D802EB38
:1045E0008012D2B20AF804200134D8E79208F1E729
:1045F000FF22F7E7D5F80CB0BBF1000FC8D0AB68CD
:104600000193002BC4D06B8A0022002B08BF032427
:104610002E7CCDF808A05FFA82FA564526D840F2E3
:10462000827293423DD84FF47A72534340F2DD12C6
:10463000B3FBF2F300229BB23F2BD1B202F1010295
:104640002DD803EB8113DBB28DF8123054B93B4601
:1046500001220DF112010DF113004EF0FEFA044695
:1046600000289FD0204613B0BDE8F08F0AF15A0110
:104670000393019B08F8021033F812003946FFF744
:1046800019FB0AF1640A0CAB03F802A009F8020056
:104690003BF81210029BD154039B0132BBE79B08ED
:1046A000CAE7FF23D0E7024601244CE70124D9E7FB
:1046B000F087070830B585B06C4684E80F00064ADD
:1046C00004AD234603CBAB42106051601C4602F19F
:1046D0000802F6D105B030BDD697002010B586B0DF
:1046E00002AC84E80F0001220E4B1A7000F074F93E
:1046F00041F2336158F082FB94E80F00FFF7DAFFD4
:10470000094B0A4C1A681021009220465B68084A3F
:1047100048F0CCFC2146074806B0BDE8104057F0F1
:104720004FBF00BFD6960020A81F0020E6970020AC
:10473000EC970708F7970708F0B52DED068B664B49
:104740009BB01D78002D00F0BA80644CA368A2696C
:104750009A4200F0BF80624893ED00AA93ED028A6E
:10476000D3ED048AD3ED06AA93ED089AD3ED0A9A05
:1047700057F026FF00F030F90FA959F062F8DFED8D
:10478000597A29EEA77ABCEEC77A574BFCEEEAAA13
:104790001A688DED067A29EE277ABCEEC77A8DED80
:1047A000057A28EEA77A68EE277ABCEEC77AFDEE86
:1047B000E77ABCEECAAACDED04AA8DED037ACDED61
:1047C000027A8DED01AA08929DF93C20474B079291
:1047D0001A68FE2100925B68454A464848F066FC2C
:1047E0002269A368403A93422CD040338022A360D0
:1047F000414BC3F8A0200BAA1746404B03F110060B
:10480000144618685968083303C4B3422246F7D1E6
:1048100000F0E2F8002158F094FA04460322002147
:1048200058F09CFA0221204658F0B3FA2046344949
:1048300058F0B6FA90B1334E002C45D133680133AD
:10484000336035E0E06867F0D4FD63691A1D5B688A
:10485000626103F50072E3602261C7E7254873F0E7
:1048600092F8064658B1204658F09CFA0028E2D14A
:1048700020462049B2B258F081FD0028DBD12C221D
:1048800000210FA813AE72F031FF97E80F0086E801
:104890000F0041F23263ADF85E3000F09DF8002366
:1048A0002146CDE900330FAA1DF02AFB0028C2D112
:1048B0008022154B1548C3F8A02057F081FE2846EA
:1048C0001BB0BDEC068BF0BD00232046336058F0D2
:1048D0004FFDB3E70025F2E7D6960020F8620020EE
:1048E0001898070800007A44F4620020A81F0020EE
:1048F00048980708D796002000D00350D69700208C
:10490000719807082063002000E00350789807089A
:10491000F8B51B4C204638F0D9FA1A4A1A492046F5
:1049200067F062FD0023194C2020C4E90233C4E97A
:104930000433C4E90633C4E9083323600823636001
:1049400067F059FD65680646013D6D0800EB850777
:1049500020604FF4007067F04EFD00F50073C4E96D
:10496000070346F82500E060A060A061676120466B
:1049700023616762034A0649BDE8F84067F034BD29
:10498000F69700205812002035D10308F862002065
:10499000FF2F05081FB5036804460391984780B1AF
:1049A000002384F86A3004F144030093064A234646
:1049B000039958F00EFB00280CBF2420032004B0FC
:1049C00010BD0D20FBE700BF613005080122014B3F
:1049D0001A707047F8970020014B1868704700BFA5
:1049E000D063002007B5019002F01AFB0020019966
:1049F00002F00AFB0222024B9A6103B05DF804FB4D
:104A000000500650022208B5084B5A6102F008FB1C
:104A1000074B5A6812B19A6A002AFAD10222012180
:104A2000DA60044B1970014B9A6108BD00600650B2
:104A300000400650B116002013B50B4C68462146C5
:104A40004EF0B5FE4FF49662009B04F500545343BC
:104A50004FF47A72B3FBF2F3044A13604FF400731D
:104A6000636202B010BD00BF00400059F462002034
:104A700030B53B4C8DB0206858F0A6FD2068394C0D
:104A80000BF0F0FE4EF0B3FB237863B10023364900
:104A900036482370FFF77EFF354857F091FD80229E
:104AA000344BC3F8A020344D2B78CBB92F480DF1EF
:104AB000030201A98DF803304EF03AFB00284DD0D7
:104AC0009DF8033043BB2D4857F07AFD0123237036
:104AD000284B2022C3F8A020294B8022C3F8A02015
:104AE0004022244BC3F8A020264B1A7822B1002282
:104AF00025481A7000F086FAFFF71EFE402220219A
:104B00001F4BC3F8A020C3F8A010C3F8A020802238
:104B1000C3F8A0200DB030BD1C4857F051FD1C4912
:104B2000019B0C4603F11202223352F8040B9A4205
:104B300041F8040BF9D12822154802A958F0D3FAFC
:104B4000144802A957F03CFD012320682B706168CE
:104B5000E368A268FFF7C2FD094BBAE70E4BBCE75A
:104B6000D0630020F897002099980708246300205C
:104B7000BA98070800D00350F7970020D898070884
:104B800000E00350B1160020E5490008F698070838
:104B9000F99700201399070800F0035070B5584B9F
:104BA0005022A6B004460021184672F09FFD012253
:104BB0000273544A0264544A4264544A8264544A16
:104BC00042601F2282734EF0E9F828B1C421514B94
:104BD000514A524847F096F88DF80A009DF80A109D
:104BE0004F4849B257F0ECFC32F0F0FC8DF80A0067
:104BF0009DF80A104B4849B257F0E2FC002C5CD1FA
:104C00004FF4805340F2B671474A484832F010FDE5
:104C10008DF80A004FF48053434ADD21444832F0B6
:104C200017FD9DF80A103F4849B257F0C9FC1721FB
:104C30008DF85C1018218DF8641019218DF86C1016
:104C4000072108228DF87410062116238DF80B20F9
:104C50008DF884201A228DF87C1009218DF85430AB
:104C6000344B8DF89420149304AA169318931A9336
:104C70001C931E9320932293249314A80DF10B03ED
:104C80008DF88C1032F0B0FC8DF80A009DF80A10F7
:104C9000294849B257F094FC03A832F08DFC9DF8E6
:104CA0000F309DF80D2000939DF80C109DF80E30EC
:104CB000224857F085FC26B070BD012CAAD14FF4D4
:104CC000805340F2B671184A1D4832F0B1FC2026DC
:104CD000402580241B4B8DF80A00C3F8A0604FF4D8
:104CE000FA70C3F8A050C3F8A04009F013FD164BAA
:104CF000C3F8A060C3F8A050C3F8A0408AE700BF83
:104D0000D4630020933105085B3105084D31050857
:104D1000B01600203D9907085C99070877990708A5
:104D200087990708A5990708E79800208088070851
:104D30000A980020B08E633D249B0708AB990708B2
:104D40003690070800D0035000E003501FB5202222
:104D5000264B274CC3F8A020A3F58053586FC0F30F
:104D6000C000FFF71BFF00F053FC00F075FC4EF095
:104D70003DFA0121206858F053F928B16E211D4BEE
:104D80001D4A1E4846F0BEFF0121206858F068FD0C
:104D900018B16F211A4B184AF3E700F0B3FC41F247
:104DA000883003A909F0D2FC034630B9CDE90000F0
:104DB000144A0399144850F047FB0023134A14483F
:104DC0001370144A137057F0FBFB04F0D3F88022E1
:104DD000114BC3E90001054BC3F8A020202203F5C5
:104DE0008053C3F8A02004B010BD00BF00D0035012
:104DF000D0630020D5990708079A07087799070814
:104E0000179A0708CD49000824640020F79700206E
:104E10004C9A0708F8970020A81F002008B558F002
:104E2000F4F8054B186030B94FF49F71034B044AF6
:104E3000044846F067FF08BDD0630020769A070853
:104E4000809A070877990708014B186817F0FABA93
:104E5000D063002010B5084C204638F037F82046C3
:104E6000064A074967F0C0FABDE810400423054927
:104E70001A4605484EF0F9B809980020581200204B
:104E800035D10308D9490008246300202DE9F347F0
:104E900000F1180506460C4600F10801284601916C
:104EA0004EF093F90328019906D13269B368403A6C
:104EB000934216D04033B360336AB769403B9F4298
:104EC0001ED00FCC3D460FC50FCC0FC50FCC0FC564
:104ED000403794E80F0085E80F00B76102B0BDE8E5
:104EE000F087F068019167F084FA736901991A1DDF
:104EF0005B68726103F50072F3603261B360DBE7F7
:104F000028464EF062F96FF07E43984202D13C4849
:104F10006CF047FE726A30687368111AA3EBA10146
:104F2000012925D87169A2EB01084FEAA807BD1C29
:104F3000B3EB450F3ED95D1B6D0800EB8505131DD6
:104F4000A942A3EB01022ED9994202D0284672F061
:104F5000B3FB2B687561F36003F50073336105EBF8
:104F60000803736255F80830F36103F50073336288
:104F70004FF40070756A67F03EFA6860B5690FCC4F
:104F80000FC50FCC0FC50FCC0FC594E80F0085E8F7
:104F90000F00736A1A1D5B68726203F50072F36199
:104FA0003262B3619AE79942D3D008F10400801AC3
:104FB0002844CCE703F10209012B2CBF994409F1E5
:104FC0000109B9F1005F01D36CF0E2FD4FEA8900FD
:104FD00067F011FA726A7169A9EB050504326D0870
:104FE0009142824600EB850503D02846521A72F0A2
:104FF00063FB306867F0FDF9C6E900A9A9E700BFC7
:105000009D9A07082DE9F04FAD4C0646ADF50F7D92
:1050100022460021002032F063FB0023A94A054606
:10502000D4E9000146F058FCB04794F83E60012EE8
:1050300040F06081A44FA54938464DF055FF08BBAC
:1050400094F83C3038463B7094F83B309F497B7075
:1050500094F83A30BB70FEF7FDFE98B99C49A389DD
:1050600030464B80E389994A0E708B80FFF7F0F948
:1050700040B9304695494DF05EFF18B9954B1E700A
:10508000954B1E7094F83D30002B00F0798294F817
:105090003E30002B00F074820024904E8D488B4BE4
:1050A00032468F4900783470FEF7B2FF8D4B1C708A
:1050B0003378002B00F06482864BDFF834821B7853
:1050C000012B40F078814646854F0FCF0FC697E8F9
:1050D000030086E803000026834B1E7098F800301A
:1050E0009B0640F1908150F0D3F909F04DFB754BD0
:1050F00098F801205843724B07EE902A9B6898F865
:10510000005013F40051D8F808A0D8F80CE0D8F8F3
:105110001090D8F814C007D00E228DF895200022E8
:105120000121CDE9220424925F070DD54FF0030839
:1051300022AE06EB01120F010131F05182F80D8011
:10514000C2F808A05460C9B29E070DD54FF00208FE
:1051500022AE06EB01120F010131F05182F80D80F1
:10516000C2F808905460C9B2DA070DD54FF00108B3
:1051700022AE06EB01120F014144F05182F80D807E
:10518000C2F808E05460C9B21F070FD5AE060DD5AE
:105190004FF0040E22AE06EB01120F010131F05167
:1051A00082F80DE0C2F808C05460C9B21A0240F19A
:1051B0002681AB0640F12381182622AB03EB0112B6
:1051C0005673454A0D0112780131012A14BFF8EED9
:1051D000E77ADFED467A5A19C2ED027A5851C9B220
:1051E0005460002312931493169318931A931C93EC
:1051F000132342AA8DF8473022A80DF147038DF8FA
:105200004C408DF854408DF85C408DF864408DF82A
:105210006C408DF8744032F0F9F99DF85C309DF8DF
:1052200047200B939DF8543005460A9342AB03EB9D
:1052300002120F920022DDED1C6A9DED1A6A9DEDAF
:10524000165ADDED185ADDED144A9DED124A9DED1A
:10525000207B16461746CDE90D22CDE908229DF8A0
:1052600074E09DF86C909DF879C09DF878809DF869
:1052700064B09DF84CA00C9207920F998B4200F0FD
:105280000D81597B0139162900F2C980DFE811F040
:10529000BE00C700C700C700C700E500F100EB0073
:1052A000C700C700C700C900D700C700C700C700B4
:1052B000C700C700C700C700C700F800FF0000BF55
:1052C000B01F002040420F00ECA80020D463002053
:1052D00044640020E7A80020E9A80020EBA80020F3
:1052E00070640020EAA80020E8A800200000000068
:1052F00058640020022E49D1DFF8C48298F80030AB
:10530000022B3FF4BFAEAA4FAA4938464DF0ECFD40
:1053100000287FF4B7AE94F83C3038463B7094F8E0
:105320003B30A4497B7094F83A30BB70FEF792FD95
:1053300000287FF4A7AE39469E4A3046FEF728FE85
:1053400001239D499B4A0B7004F110038B6004F10B
:105350002403CB604FF47A73B0FBF3F094F8383049
:10536000C0F18C00488230460B74FFF771F80028BA
:105370007FF488AE30468F494DF0DDFD00287FF484
:1053800081AE8E4B88F800601E707BE6002E7FF4A5
:1053900079AE8B4F3B78002B3FF474AE3046854995
:1053A0004DF0C9FD00287FF46DAE3B78002B3FF433
:1053B00069AE387066E6834B1E78002E3FF48CAEE3
:1053C0004FF0180CC146DFF820E27F4B9EF80070CA
:1053D0000CFB073CBCE80F00A9E80F009CE80300A9
:1053E0007B1CDBB29E4289E8030003D8013E8EF8A5
:1053F000006070E6F61A8EF80030F6B26CE600290E
:105400007FF4EFAE0025714B1B7852E6012293ED3D
:10541000024A93F80EA0079293ED007B012210330D
:105420002BE7D3ED027AF5EE407A0122F1EE10FA85
:10543000099214BF4FF001084FF00008ECE7D3EDDC
:10544000027AF5EE407A0122F1EE10FA089214BFCA
:105450004FF0010C4FF0000CDEE79A7BD3ED024ACF
:1054600001270A92D8E79A7B93ED025A01260B9204
:10547000D2E70122D3ED025A93F80EB00C92CBE79B
:10548000012293ED026A93F80E900D92C4E7012277
:10549000D3ED026A93F80EE00E92BDE7079B1BB1B5
:1054A0008DED124A8DF84CA0099B0BB18DF87880D8
:1054B000089B0BB18DF879C027B1CDED144A0A9B3A
:1054C0008DF8543026B18DED165A0B9B8DF85C305B
:1054D0000C9B1BB1CDED185A8DF864B00D9B1BB120
:1054E0008DED1A6A8DF86C900E9B1BB1CDED1C6A88
:1054F0008DF874E00AB18DED207B354812A9FFF7D5
:10550000C5FC9FED347ADDED1C7A67EE877AFDEEFF
:10551000E77ACDED047ADDED1A7A67EE877AFDEE53
:10552000E77ACDED037ADDED187A67EE877AFDEE46
:10553000E77ACDED027ADDED167A67EE877AFDEE39
:10554000E77ACDED017ADDED147A67EE877ADDED4D
:10555000126AFDEEE77ACDED007AFDEEE67A9DF86F
:10556000793017EE901A9DF878201B4857F028F8EC
:10557000002D3FF447AF28460DF50F7DBDE8F08FB5
:1055800042F20F72154C2368013393422360F2D923
:1055900042AB01934FF48053DD2200930020104B67
:1055A0001049429232F080F8002305462360E2E77A
:1055B000ECA80020D463002044640020E7A8002069
:1055C000E9A80020EBA8002070640020E8A80020D3
:1055D000F862002000007A44CD9A0708B8640020E1
:1055E000E79800200A980020EAA8002010B5054C92
:1055F000204637F06BFC2046BDE81040024A0349C4
:1056000066F0F2BEF1A800205812002035D1030840
:1056100010B50F4856F0D4FFFFF7DEF94FF4FA61EA
:1056200057F0E3FD044638B9FFF7D6F94FF0000113
:1056300058F015F8044648B1204657F0E4FC2146DE
:10564000BDE810400246034856F0BABF10BD00BF87
:10565000289B07084D9B070870B5A4B0782200214D
:1056600006A872F043F8224B224A1C936B4610683E
:10567000516802AC03C36B46224603CB1E4BCDF8E8
:105680005900CDF85D1003F11006254618685968D9
:10569000083303C5B3422C46F7D10FCA0EAC84E8D9
:1056A0000F00BDF88C30154843F4CA7343F0010372
:1056B000ADF88C3072F067F91049024612A871F00B
:1056C000EEFF9DF88C3043F008038DF88C30FFF727
:1056D00083F906A957F0FDFB044630B157F093FC5F
:1056E00021460246064856F06BFF24B070BD00BF4D
:1056F000ADDE0F00AB9B0708B49B0708B216002075
:10570000829B070830B58BB0FFF766F90DF10601F3
:1057100057F020FF0446224DFFF75EF9294657F067
:10572000EFFE2B6823602B792371FFF755F957F0B3
:10573000EBFEFFF751F957F019FF48F29A230446A0
:10574000184A03822021012302A847F0AFFC20461B
:105750000DF1060157F02BFFBDF8062002A971F0EC
:105760009EFF20460DF1060157F01DFFBDF80620F3
:105770000D4971F094FFFFF72FF9214657F0CCFE49
:10578000044628B1A621094B094A0A4846F0BAFA4C
:10579000FFF722F92246214657F07CFE0BB030BDC0
:1057A000C59B0708CF9B0708D89B0708E39B070802
:1057B000FA9B07080C9C07081FB50C214FF4F060FA
:1057C00002F050FA01213D2001F0A8FE01213C2009
:1057D00001F0A4FE0C4A01AB07CA83E8070040F2BF
:1057E00001121846ADF80C2001F0B8FB0222074B5D
:1057F0009A614FF40032064B1A60012001F0E2FB7F
:1058000005B05DF804FB00BF209C0708005006505F
:1058100000E100E010B5274C02F0B8F802F000FA01
:10582000236F23F0070343F0030323674DF00AFFC0
:10583000214B00209B6ADB015EBF4FF480321F4B7F
:105840009A62D4F8203123F0070343F00203C4F82E
:105850002031D4F8283123F0070343F00203C4F8C1
:105860002831D4F8403123F0030343F00103C4F896
:105870004031D4F8603123F0030343F00103C4F84E
:105880006031D4F8403223F0030343F00103C4F83D
:105890004032D4F8003223F0070343F00103C4F888
:1058A0000032D4F8083223F0070343F00103C4F8B0
:1058B000083210BD008000500040005A0060005ABD
:1058C00007B501A803F030FB9DF80530012B14D17A
:1058D0009DF804308BB94FF48012114B1149586E6A
:1058E00003F580535A664B6B23F0E05343F040635B
:1058F0004B63C3025CBF0C4B5A6607F0CDFE07F04A
:105900005FFE4FF067FD07F083FEFFF783FF07F0B0
:105910006DFE00F0D1FC03B05DF804EB08F046B971
:10592000008000500040005A00A0005008B53A2006
:10593000012101F0F3FDBDE80840014800F0C6B9BF
:105940005C12002018B1034B18600020704725201E
:10595000704700BF1C65002010B5054C0549206844
:1059600001F0FEF82068BDE81040FFF7EBBF00BF74
:1059700094120020701200202DE9F041484C8EB0A6
:10598000264601AD0FCE0FC5336814342B6006AD2B
:105990000FCC0FC594E80F0085E80F0001213A20D5
:1059A00001F0BCFD0121572001F0B8FD4FF48073D8
:1059B0003C4EADF81C303C4B3046039301A906AB7E
:1059C000059302F027FE022101230846042202F07B
:1059D00091FF012200231146022002F08BFF0123D8
:1059E00004220321022002F085FF04220123114634
:1059F000022002F07FFF2D4C2D4B1025C4F8C83437
:105A0000A3F50033C4F8C4344FF00213C4F8CC3407
:105A10001C2304F50058C4F8B4344FF4487009F05E
:105A2000DFF804F580571420C8F8A05009F0D8F822
:105A30002320C7F8A05009F0D3F8B9213046C8F8A0
:105A4000A0504DF076FE002302211A460846C7F802
:105A5000A05002F04FFF002301211A46022002F05D
:105A600049FF012300220321022002F043FF01230A
:105A700000220421022002F03DFF304602F02CFDFE
:105A800000215720C4F8C814C4F8C414C4F8CC14B6
:105A9000C4F8B41401F042FD0EB0BDE8F08100BFBF
:105AA000549C070800000A50E070720000C00350C8
:105AB0000200030008B500F02DF8124B12498B428A
:105AC00012D30020114B12498B4218D3FDF740FF2F
:105AD000186850F82240586840F82240013298680F
