:020000040800F2
:100000000012002051580008032E0508032E050891
:100010006D4E0508032E0508032E0508032E05085E
:10002000032E0508032E0508032E0508032E0508D8
:10003000032E0508032E0508032E0508032E0508C8
:10004000032E0508032E0508032E0508032E0508B8
:10005000032E0508032E0508032E0508032E0508A8
:10006000032E0508032E0508032E0508032E050898
:10007000032E0508032E0508032E0508032E050888
:10008000032E0508B1490008032E0508032E0508B4
:10009000032E05080D5F0008032E0508032E050832
:1000A000032E0508316000080D600008032E0508C6
:1000B000032E050889640308A16E0308BBBD06086A
:1000C000B7BD06086D660308C7BD0608BFBD0608B4
:1000D000796E0308C3BD0608E16E0308456F030887
:1000E000032E0508032E0508032E0508032E050818
:1000F000694E0508032E0508032E0508032E050882
:10010000032E0508032E0508032E0508032E0508F7
:10011000032E0508032E0508032E0508032E0508E7
:10012000032E0508032E0508032E0508032E0508D7
:10013000032E0508032E0508032E0508032E0508C7
:10014000032E0508032E0508032E0508754F050824
:10015000814B0308032E05087FBA060885BA0608F6
:10016000032E0508032E0508032E0508032E050897
:10017000013800D0FCE770477F4B73B51C8814F042
:10018000010440F0F38041F60B227C4D7C4B7F2133
:10019000C5E900347B4B7C489A8010221C60AC601F
:1001A00076F0ECFF7F22794B1A70794B1B6ADB07E4
:1001B00006D440F20E41774B774A78484BF01AFB51
:1001C000214628462FF07CFC044620B940F212411B
:1001D000734B714AF1E730F0ADFB20B140F21641AC
:1001E000704B6D4AE9E74FF0011120466BF02BF997
:1001F00020B140F21A416B4B674ADEE702212046EC
:100200006BF003F820B140F21D41664B624AD4E71F
:100210002046654930F0EAF920B14FF48461614B22
:100220005D4ACAE7012120466BF005FA20B140F291
:1002300025415C4B584AC0E7012120466BF00BFA80
:10024000064620B14FF48561564B534AB5E7014647
:100250003822564876F092FF80233246204605F138
:1002600010016BF0F9F8802804D040F22F41504B78
:10027000494AA2E74F4D01202FF076FC3CA3D3E979
:1002800000232C602046CDE900234FF0FF324FF0D1
:10029000FF336AF0F5FF014620B140F26E31414B69
:1002A000454A8AE737480EF0BBFD012108460EF0AB
:1002B0002BFE012128686AF04AFF044620B140F273
:1002C000C141384B3D4A78E701464FF408723C483B
:1002D00076F054FF3B4A3C4B02F188011A60996268
:1002E00002F5887102F5CC729C809A679C85374A2A
:1002F000A3F854401965A3F87C40354B6FF06300B8
:100300001A609C80334A344B1A60344A9C801470C3
:10031000334A5A611BF06EFE0B200EF03BFD314B51
:10032000186020B940F2D9412F4B244A45E708F024
:1003300003FE20460EF054FE0822286811466AF09B
:10034000A1FF044620B140F2DE41284B1B4A34E7AE
:100350000FF03EFF264B27481C70274B1C70274B85
:100360001C7002B0BDE870405CF044BD02B070BDCE
:100370000BE020FF22020000CA9500203C71002003
:1003800065F200083471002015A9002006A900209C
:100390000080E00FC09B0708649D07086599070867
:1003A000D99B0708C3980708749E0708D8710020D6
:1003B000E89B070830710020579D0708E09D07085B
:1003C00010720020187200206820002026A900204A
:1003D00040200020ABA9002008210020A5A9002072
:1003E00030210020D4710020209C07083B9C070886
:1003F00009A90020BF9C0708AAA90020A9A90020DC
:100400002DE9F04F2DED028B4FF0000B99B0259D9B
:100410009146C5E900BBC5E902BB85F839B0A5F82E
:100420003AB0A5F83CB085F83EB0D0F8D62AD0F85E
:10043000DACAD0F8DE7AD0F8E26A2A61EE61C5F84D
:1004400014C0AF61D0F8E62A1E462A62D0F8C23A3C
:10045000D0F8CA7AD0F8CE2AD0F8C6CA2A63C5F82E
:1004600028C0EF626B62D0F8D23A00F6F80A6B63EC
:1004700090F8EA3A044685F83830249B00F6C22703
:1004800083F800B0B0F85C3A059337F06DFADAE91A
:10049000002352EA030104D094F8BD1A002900F0A9
:1004A000FE8094F8EB3A93B394F8EA3A94F8ED2A84
:1004B000013BDBB29A4204D194F8BD3A022B00F022
:1004C00059810022012194F8B83A85F83A3094F81D
:1004D000B60AA34B85F83B0094F8B70A19EB03035F
:1004E00046EB0202C5E9003285F83C0085F8391078
:1004F00002222946204637F003FE0423A4F85A3A84
:10050000CAE9009619B0BDEC028BBDE8F08F0DF181
:100510003E070DF13D032A4601212046009737F0A2
:1005200029FA9DF83D30BDF83E803BB194F8B83AC9
:1005300085F83A3094F8B63A85F83B302A460DF102
:100540003D0302212046009737F014FABDF83E30F3
:100550009DF83D20984528BF98463AB194F8B73A9F
:1005600085F83C3094F8B63A85F83B302A460DF1D0
:100570003D0303212046009737F0FCF9BDF83E30DB
:100580009DF83D20984528BF9846002A40F0CE802F
:100590002A4604210DF13D032046009737F0EAF981
:1005A000BDF83E300599434528BF4346994228BFD0
:1005B00019469DF83D208B46002A40F0718104F5D4
:1005C0001067B4F8B23AB4F85E2AB3FBFBF10BFB48
:1005D0001131ABEB010B1FFA8BFB5B449BB2B3FBFE
:1005E000F2F102FB1133CAE900969FED5B0BA4F810
:1005F000B23AA4F85ABAADF83E203CF033F851ECC8
:10060000100B4AF049FF0B464FF00008A0FB0B010E
:1006100003FB0B113B687A6810EB090941EB0606F6
:10062000B9EB0300C5E9009666EB020184F8BA8ACB
:100630004AF08CFEDFED4B8A07EE900A9FED4A8A66
:10064000C7EEA87AF4EEC87AF1EE10FA1FD49FED47
:10065000477AF4EEC77AF1EE10FA18DCD4F80809FC
:10066000D4F80C19B9EB000066EB01014AF06EFEFC
:1006700007EE900AC7EEA87AF4EEC87AF1EE10FA07
:100680004ABF662384F8BB8A84F8BB3A3AE76523FD
:1006900084F8BB3A19B0BDEC028BBDE8F08FB9EB22
:1006A00002010A914FF00001B4F85A0A66EB030206
:1006B0009FED290B0B92CDE906013BF0D3FF51ECE6
:1006C000100B4AF0E9FE8C46069B0B9AA0FB030137
:1006D0000CFB0311030943EA017302930A9BCDE962
:1006E0001001C31A08934FEA2113039361EB02032D
:1006F0000993DDE90823DDE902BC93457CEB0303A4
:10070000C0F265810A9B1B1A0C930B9B63EB0103E0
:100710000D93DDE90C23DDE90201904271EB030347
:10072000BFF6BFAE6423249A1370BAE64FF6FF7289
:100730000F4B94F8B61A5B7B85F83B1004EB430330
:10074000B3F8A0389342ADF83E303FF421AFAB6828
:1007500043F40053AB601BE700000000D01263417C
:10076000C00E1602286B6E4E0000704200007043EF
:10077000A81D080894F8EC3A002B3FF4A2AE94F8B8
:10078000BF3A94F8BE0A18444AF074F941EC100BD1
:1007900094F8C00A00F044FB94F8BE2A0130C3B2BA
:1007A0009A4284F8C03ABFF48CAE38687968BA6867
:1007B000FB680DF14C0CE046ACE80F0038692F46A1
:1007C000CCF80000BDF84C004AF044F902940D4604
:1007D00004460DF15E0B38F8020F4AF03BF9024671
:1007E0000B462046294649F0F9FFC34504460D460D
:1007F000F1D14AF051FE029C3D4694F8BF7AA7FB26
:10080000002301FB07334FEAC20CDF001CEB020C94
:1008100047EA527743EB07074FEA8C01BF0047EAEC
:100820009C77B1EB020C67EB030E4FEA8E0747EAA9
:100830009C77BE4690484FEA8C0CA2FB007800FBE8
:10084000038817EB090348EB0602C5E90032294685
:1008500000222046CDE910CE37F052FCDDE91078B9
:100860000123002F84F8C03A78F10003C0F2D7804A
:100870000A220023384641464AF0F6FD0A22054680
:100880000023384641464AF0EFFD002B08BF052AF9
:1008900080F0E580A8B2A4F85A0ACAE9009631E6C9
:1008A000012385F8393094F8B52A0DF13D0302F2A1
:1008B000375234F8121010AAA98194F8B70A13A974
:1008C00085F83C0094F8B67A204685F83B7038F0FD
:1008D00007FDDDED137AF5EE407AF1EE10FA0ED158
:1008E00094F8BA3A5BB994F8B53A04F5106703F294
:1008F000335334F81330EB81C7E9009661E604F511
:10090000106704F60818D7E90023D8E900018242ED
:1009100073EB010CCDE9102303DA02460B46CDE957
:100920001001B9EB020066EB03014AF00FFDDFEDA9
:10093000537A07EE100A87EE270AF1EE000A8DEDD2
:10094000130A50F06DF9F0EE080AB0EE408A9DED02
:10095000130A50F065F9DFED4A6ADFED4A7A9DED42
:10096000137A28EE268A20EE270ADFED476A67EE23
:10097000077A38EE008A67EEA67ADFED446A78EEF1
:10098000277A27EE267ADFED426A77EE877A9FEDA7
:10099000417A77EEA67A67EE877AF8FE677AFCEE00
:1009A000E77A17EE902A94F8BA3AEA8143BB0093AB
:1009B0009FED390A4A4633461621204638F09EFB01
:1009C00094F8BA3A002B97D0C8E90096F9E59FED64
:1009D000280BDAE90067B4F85A8A3BF043FE51EC81
:1009E000100B4AF059FD6424A0FB082301FB0833D7
:1009F000961947EB0303C5E90063249B1C7081E54E
:100A00000023B7EE000A00934A46334616212046DB
:100A100038F074FBAB6843F40013AB60D0E7B8F177
:100A2000004F08BF002F1DD07F4268EB48080A2204
:100A30000023384641464AF017FD0D4602904146D4
:100A400038460A22002303954AF00EFDDDE9020133
:100A5000002B08BF052A08D2404280B21BE7681C61
:100A600080B218E743F2333015E7C04380B212E793
:100A700000000000D0126341003B5808286B6E4E06
:100A8000598207B0DFE0C2343767D9B85A8E863C46
:100A90006A92E43E00007A4400000000000000007A
:100AA0002DE9F04F2DED048B044600200D4616462F
:100AB00098468DB01A9F0DF1080904F6782C04F6BB
:100AC000982A3870CE46DCF80000DCF80410DCF818
:100AD0000820DCF80C300CF1100CD445AEE80F0007
:100AE00009F11009EED1DCF80000BCF80430C9F8B7
:100AF0000000A9F8043076BB0C2384F8EB6A3B7045
:100B0000204602A936F064FF002840F0248197F9BE
:100B10000000002856DB0023B94EDFF8F89203E00E
:100B20005D1C1A2D2B464DD046FA03F2D507F7D59A
:100B300013F809200CA901EB420002F23B5130F8F6
:100B40002A2C34F811005D1C9042E9B2E9D020460D
:100B500037F0F4F8E5E72B79013BDAB2012A40D906
:100B600000229FEDA88A9FEDA89ADFEDA88ADFF802
:100B700090B205EBC60684F8EB2A0092CDF804800B
:100B800012E04BFA03F2D20711D5012202FA03F365
:100B9000009A13EA020A00F09380F3233B700835B1
:100BA000B54209D02B79013BDBB2192BE9D90A23D5
:100BB0000835B5423B70F5D197F90030DDF8048077
:100BC000002B9DDA98F80030072B22D8F1234FF044
:100BD000000E3B7088F800E00DB0BDEC048BBDE862
:100BE000F08FD5ED007AF5EE407AF1EE10FAB7D13C
:100BF00047F23053BDF808209A4200F0ED80BDF86E
:100C00000A209A4200F0E8800B234FF0000E3B7060
:100C1000E0E700259FED7B6AAE46DFED7B5ADFF80B
:100C2000F8A177497A4FDFF8ECC1DDF86CB002E04B
:100C30000135182DCED00122AA4012EA0A0FF7D0B2
:100C40000EF1010E5FFA8EFE0EF1FF360BEBC606BB
:100C5000013586ED006A00234FF6FF7935710CE00F
:100C6000484507D007EE900AF8EEE77A85EEA77AB6
:100C700086ED007A01331A2BDBD041FA03F0C0076E
:100C8000F8D557F823000242F4D0D6ED007AF4EEFE
:100C9000467AF1EE10FA13F80C0000F23B5034F8EB
:100CA0001000DDD007EE100AB8EEC77AC5EE876AED
:100CB000F4EEE67AF1EE10FA48BFC6ED006AD9E725
:100CC000D5ED007AF5EE407AF1EE10FA009A42EA9C
:100CD0000302009229D1F6233B70D5ED007AF5EEA0
:100CE000407AF1EE10FAB0EE677A1ED1B5EEC07A16
:100CF000F1EE10FA31DCB5EE407AF1EE10FA14BFE5
:100D00004FF0FF3300231FFA83F897F90030002BD0
:100D10007FF445AF3F4A2B79134413F8013C0CAAEA
:100D200002EB430323F82A8C39E7F4EE487AF1EE1C
:100D300010FA4ED0B2EE047AF4EEC77AF1EE10FA61
:100D400004DCF4EEE87AF1EE10FA4DD5F2233B70B4
:100D500095ED007ACAE73870DBE6B4EEC87AF1EEBA
:100D600010FAC8D5C9EE077AF8FE677AFCEEE77A82
:100D700017EE903A1FFA83F8264A2B79134413F89A
:100D8000013C534403F2A74334F813900AF1130AC9
:100D9000484649F05FFE18A3D3E9002349F0D4FE8A
:100DA00041EC100B3BF05EFC51EC100B4AF08EF95D
:100DB00080B2A9EB00039BB2814443451FFA89F935
:100DC00001D8C145A1D2BAF1720FD5D1F4233B703D
:100DD000E5E6B0EE677A8EE794F9BB3A3BB90122BB
:100DE0009E4684F8BA2AF5E6B0EE677A7EE74FF0C1
:100DF000000E3B70EEE600BF7B14AE47E17A843F05
:100E0000EF79F20300FF7F470000C8420E74DA3A20
:100E1000C01D08085C1E08080F20E000000000004C
:100E20002DE9F84F2DED028B55EC104B07463BF0AA
:100E300019FC51EC100B4AF049F9C6B2304649F0A2
:100E400019FE22462B464AF0E7F840B1BDEC028B72
:100E5000B7FBF6F306FB1370C0B2BDE8F88F384657
:100E600049F0F8FD002241EC180B002320462946EA
:100E70004AF0D2F8B0BB45EC104B4FF067FD20466E
:100E800053EC102B29464AF0C7F858BB22462B4694
:100E900051EC180B49F082FF21F0004700221E4B55
:100EA0003946064649F09AFC41EC100B4FF04EFDD6
:100EB000304653EC102B394649F08EFC0022804618
:100EC0008946164B3046394649F03EFE29F0004B24
:100ED00002460B46404659464AF0B2F810B19FED23
:100EE0000C0B07E0B0EE480AF0EE680A45EC114B37
:100EF0004FF0A8FD3BF0B6FB51EC100B4AF0E6F8C2
:100F0000BDEC028BC0B2BDE8F88F00BFAFF300802C
:100F100000000000000000000000E03F0000B03CC6
:100F20002DE9F04F00224FF0090BDFED205A9FED25
:100F3000206ADFED206AB1EE047ADFED1F7A4FF010
:100F4000FF346FF00045DFF880A0DFF88090DFF815
:100F50008080DFF880E0DFF880C0184F184E194914
:100F6000C0ED015A80ED046AC0ED056A80ED067A95
:100F7000C0ED097AC0E9164580F800B0C0F828A095
:100F8000C0F82C90C0F83880C0F83CE0C0F840C0F1
:100F9000C764066501668260C260C2610262026364
:100FA000426342648264BDE8F08F00BF07F0963D63
:100FB0001C7CE13D3480D73FCDCC0C3E5DFEE33E52
:100FC000363C85BF0000404067D5273EE63F4CC019
:100FD00091ED3CBFFB3A403FB15083402DE9F047D3
:100FE00086B004AB05AE04460078CDE900360DF1BD
:100FF0000F030D463BF006FB9DF90F00E0B94FF0E3
:10100000010A04F1400904F12C0804F118075FFA01
:101010008AF3013B032B24D8DFE803F01D171102EC
:101020004A463146284638F0C1FC0AF1010ABAF1B5
:10103000060FECD19DF90F0006B0BDE8F0874246DF
:101040003146284638F0B2FCEFE73A4631462846AA
:1010500038F0ACFCE9E731462846221D38F0A6FC02
:10106000E3E73146284638F02DFA84ED180ADCE72C
:101070002DE9F0432DED048B83B0BDF840400546CB
:10108000DDE90E89B4F5E16F17461E46B0EE408AE1
:10109000F0EE608A6BD028D941F270739C422ED05A
:1010A00047F230539C4208BF012408D1D5E916010C
:1010B0004FF0FF326FF000433BF080FB08B39FED31
:1010C000309A4FF0FF326FF00043384631463BF024
:1010D00075FB08B9C5E9167638EE490A30EE680A9C
:1010E00003B0BDEC048BBDE8F083642C05D0B4F5EF
:1010F000967F08BF0424D9D0E1E70524D6E702246F
:10110000D4E7D5E91601B8EB000069EB010149F01D
:10111000EDFC19A3D3E9002349F040FE0B4602463B
:10112000CDE9002349F0F2FFDDE9002305EB84045B
:1011300007EE900AD4ED009A94ED057A67EEA99A2D
:1011400094ED0A9A1046194627EE899A79EE879A05
:1011500049F0FAFC49F0DAFF07EE900A94ED0F7AB5
:1011600079EE277A77EE877A89EEA79AA9E790ED4C
:10117000189AA6E7AFF300800000000065CDCD41CE
:10118000000000002DE9F047052482B00746904694
:1011900000780DF103020D468DF803403BF054FA40
:1011A0009DF80360019036B3012407F1400A07F16E
:1011B0002C09E3B2013B042B0BD8DFE803F031101C
:1011C0002A2303004146284697ED180A01AA38F061
:1011D00091F9A64204F101030CD01C46E9E701ABEA
:1011E0004246294607F1180038F042FBA64204F1B6
:1011F0000103F2D10198C0F3072328706B7002B08D
:10120000BDE8F08742462946504601AB38F030FB36
:10121000DFE742462946484601AB38F029FBD8E7CC
:101220004246294601AB381D38F022FBD1E700BF0A
:101230002DE9F043012485B08046914600780DF1F8
:101240000B020E468DF80B403BF0FEF99DF80B505B
:10125000039035B1002403AF54B10134A542FBD152
:101260000398C0F307233070737005B0BDE8F083B6
:10127000D8E916014B463246009738F089F9ECE779
:1012800070B586B004AB05AE04460078CDE90036F3
:101290000DF10F030D463BF0B5F99DF90F0008B1B4
:1012A00006B070BD3146284638F056F9C4E916013B
:1012B0009DF90F0006B070BD70B590B00E460446A3
:1012C00006A909AD81E80C000023179928460F9361
:1012D0003DF04AFD9DF858304FF00001B2682046BD
:1012E0000393159B049502939DF850300193079B3F
:1012F0009FED050B0093069B6EF0B3FE28466BF046
:1013000006FD204610B070BD000000000000000087
:1013100070B590B00E46044606A909AD81E80C00F0
:101320000023179928460F933DF090FD169B4FF030
:101330000001B26820460393159B049502939DF823
:1013400050300193079B9FED060B0093069B6EF0B8
:10135000B0FF28466BF0DBFC204610B070BD00BF2C
:10136000000000000000000070B590B00E4604467A
:1013700006A909AD81E80C000023179928460F93B0
:101380003FF08CFE9DF858304FF00001B2682046C7
:101390000393159B049502939DF850300193079B8E
:1013A0009FED050B0093069B6BF0B8FF28466BF092
:1013B000AEFC204610B070BD000000000000000030
:1013C00070B590B00E46044606A909AD81E80C0040
:1013D0000023179928460F933FF0A6FE169B4FF067
:1013E0000001B26820460393159B049502939DF873
:1013F00050300193079B9FED060B0093069B6CF00A
:1014000066F828466BF083FC204610B070BD00BF24
:1014100000000000000000002DE9F04F1F460023EF
:10142000044688464FF0000A4FF0000B2DED028B6A
:101430009DB018939F4B13921B681846059375F047
:10144000EAFF0546CDF85C80179B1A782B2A4ED010
:101450003BD80D2A34D8082A34D8002A3ED000239D
:101460000A93179E3378302B40F0B080737803F0E6
:10147000DF03582B68D10A9B17A9029720460193D6
:1014800018AB8D4A009319AB4DF0F6FD10F007072D
:10149000054605D0062F2CD10136002317960A9356
:1014A000139B002B40F08E850A9BEBB152460BF14B
:1014B000004343EC102B1DB0BDEC028BBDE8F08F58
:1014C000202ACCD101331793BEE72D2AC7D10122A0
:1014D0000A925A1C17925B78002BC2D1139BCDF84D
:1014E0005C80002B40F06C8552465B46E1E70022B1
:1014F000EEE7189A3AB135211AA876F010FC18993F
:1015000020464EF0DDF8013F042F06D8DFE807F053
:101510000A0314170A00DDE91AAB2807C0D54BF0FF
:10152000004BBDE7DDE91AA3199A23F4801302F2F8
:10153000334243EA025BF0E7DFF880B1EDE76FF09A
:10154000004B4FF0FF3AE8E7179B5A1C17925B7865
:10155000302BF9D0002BA3D001234FF000090493C6
:101560000A22179B4F46CDF81C90089317980678CF
:10157000A6F13003D9B209292AD92A46059975F06E
:1015800052FFA0B3002032463D4603460590652A2F
:1015900001D0452A18D11DB9049A02439ED00025D6
:1015A000DDF85C8008F10102179298F801202B2ADF
:1015B00075D02D2A7BD04FF0000CA2F13001092903
:1015C00040F28280CDF85C8000269DE00023C4E7D5
:1015D000082F00F1010007F10107D4BF079902FBB2
:1015E00009391790DCBF02FB01330793BEE7179B55
:1015F0005A1917925A5D002F36D03D460590A2F138
:101600003003092B12D90123C1E7179B01305A1C63
:1016100017925A78302AF8D0A2F13103082B00F241
:10162000D68405900020179B05460893303A00F1B8
:10163000010313D0059900EB050E19442B460591C3
:101640000A21734512D12B180135082B05441CDCE7
:1016500007990A2303FB012307930023179A1846CF
:10166000511C17915278CAE73846D3E7082B04DC9F
:10167000079E4E4307960133E3E703F1010CBCF1EB
:10168000100FD8BF01FB09F9F5E7102DDCBF0A23C5
:1016900003FB0929E1E70023059301237CE74FF0D1
:1016A000000C08F10202179298F8022085E74FF02B
:1016B000010CF6E7E0690808A86508080000F07F5B
:1016C000179A511C17915278302AF9D0A2F13101A2
:1016D00008293FF679AFA2F1300E179A0692179AB1
:1016E000511C17915278A2F13006092E37D9069E67
:1016F000891B44F61F66082902DC7645A8BF76469A
:10170000BCF1000F00D07642002D4DD10499014369
:101710007FF4C6AE002B7FF4E1AE692A27D024DC2B
:10172000492A24D04E2A7FF4D9AE9F4917A876F0D3
:1017300083F900283FF4D2AE179B1B78282B2DD1BC
:101740001AAA9A4917A876F08BF9052826D11B9B6F
:10175000DDF868A043F0FF4B4BF4E00BA0E60A2154
:1017600001FB0E2EAEF1300EB9E76E2ADBE7904991
:1017700017A876F061F900283FF4B0AE179B17A8C0
:101780008C49013B179376F057F910B9179B013339
:101790001793DFF830B24FF0000A81E6864800F078
:1017A0003FFC5BEC10AB7BE6059B002F08BF2F4690
:1017B000102D0798A6EB0303A846A8BF4FF010080A
:1017C000069349F047F9092D82468B4613DD7B4B82
:1017D00003EBC80353E9122349F0B6F982468B465E
:1017E000484649F037F902460B465046594648F0FC
:1017F000F5FF82468B460F2D38DC069B002B3FF40D
:101800004FAE24DD162B0BDC6C49524601EBC301B5
:101810005B46D1E9000149F097F982468B463FE6E5
:10182000C5F12503069A934220DBC5F10F05634CF1
:1018300052465B4604EBC501D1E9000149F084F949
:10184000069B5D1B04EBC504D4E90023E3E7069B7C
:1018500016330BDB059B504659469E1B574B03EB3B
:10186000C606D6E9002349F099FAD6E7A5EB0808A1
:10187000069B9844B8F1000F74DD18F00F030AD0EE
:101880004E49524601EBC3015B46D1E9000149F0E4
:101890005BF982468B4638F00F084FD0B8F59A7F37
:1018A00022DD00252E46079505952223DFF814B189
:1018B0004FF0000A2360079B002B3FF4F1AD18990D
:1018C00020464DF0FDFE059920464DF0F9FE3146CB
:1018D00020464DF0F5FE079920464DF0F1FE2946D1
:1018E00020464DF0EDFEDBE5354B4FEA281850461B
:1018F0005946049300239946B8F1010F21DC0BB13E
:1019000082468B462E4BABF1547B524603EBC90902
:101910005B46D9E9000149F017F92A4B0A4682468D
:101920000B4029498B42BCD8A1F580118B4286BF60
:10193000DFF898B04FF0FF3A02F1547B0023049394
:1019400083E018F0010F05D0049BD3E9002349F090
:10195000FBF80123049A09F101094FEA68080832EB
:101960000492C9E7EAD0C8F1000818F00F020AD0C3
:10197000124B5046594603EBC203D3E9002349F00A
:101980000DFA82468B465FEA2818D7D0B8F11F0FB0
:101990001EDD00252E460795059522234FF0000AEF
:1019A0004FF0000B236086E7D5DB0708BC6508080D
:1019B000A5650808476D0808C8A20708986A0808BE
:1019C000706A08080000F07F0000A07CFFFFEF7F36
:1019D00018F0100350465946DFF8A89318BF6A2341
:1019E0000493002318F0010F04D0D9E9002349F033
:1019F000ABF801235FEA680809F10809F2D10BB1DD
:101A000082468B46049BC3B1CBF30A525946C2F1BE
:101A10006B03002B11DD1F2B40F32181342B4FF082
:101A2000000ADBBFC2F14B024FF0FF334FF05C7B8B
:101A300003FA02F2D8BF02EA010B0022002350464B
:101A4000594649F0E9FA0028A3D1079B3A4608997C
:101A5000204600932B464DF09DFE079000283FF452
:101A600020AF059B00259E1B069B002BB4BF334671
:101A700000232E460C93069B23EAE3731293079BE5
:101A8000204659684DF0DCFD059000283FF40DAF6D
:101A9000079B0C301A6903F10C010232920075F0B9
:101AA00046FB1AAA19A920464BEC10AB4EF04EF992
:101AB00018904BEC18AB00283FF4F7AE01212046FC
:101AC0004DF0B2FE064600283FF4EFAE199B049994
:101AD000002BA3EB0108A9BF0C9A129A03EB020991
:101AE000129FB8BFD71A1A9AA14B9044B8BFDDF81D
:101AF0003090C2F1360208F1FF38984580F2C38079
:101B0000A3EB080301211F2BA2EB030200F3AE801D
:101B100001FA03F30D930023089309EB0208049BD9
:101B20001744C1451F444B46A8BF4346BB42A8BF0C
:101B30003B46002BC2BFA8EB0308FF1AA9EB030921
:101B40000C9B002B17DD31461A4620464DF02AFF2C
:101B5000064600283FF4A9AE0146189A20464DF0EB
:101B600079FE0B9000283FF4A0AE189920464DF066
:101B7000A7FD0B9B1893B8F1000F00F38980069B1B
:101B8000002B08DD129A204605994DF00BFF0590B9
:101B900000283FF48AAE002F08DD3A46059920461A
:101BA0004DF05AFF059000283FF47FAEB9F1000FC9
:101BB00008DD31464A4620464DF04EFF06460028D5
:101BC0003FF473AE059A204618994DF0B5FF0546CF
:101BD00000283FF46AAEC36831460B930023C3600C
:101BE00076F04EF800285DDA0B9B53EA0A037FD1AA
:101BF000CBF31303002B7BD12BF000431B0D1B05F4
:101C0000B3F1D66F74D96B6913B92B69012B6FDDF2
:101C10002946012220464DF01FFF3146054676F049
:101C20002FF8002864DD04995B46524A00297FD0D2
:101C300002EA0B01B1F1D66F7ADCB1F15C7F7FF77C
:101C4000ACAE4D4B50465946002248F07DFF0B4646
:101C500082468B46034304BF222323602FE64FF0C6
:101C6000FF3202FA03F303EA0A0AE6E6C8F17F4804
:101C70000D9108F57F0808F57B4808F1E20801FAA4
:101C800008F3089349E70023089301230D9344E7E1
:101C90004246189920464DF0DFFE189000287FF448
:101CA0006EAF02E65F466FD10B9ACBF3130342B3DC
:101CB000324A934228D1049B5146EBB12D4B4FF051
:101CC000FF323B40B3F1D46F19D81B0DC3F16B0346
:101CD00002FA03F3994217D1294B9F4202D10131F5
:101CE0003FF4E3AD234B4FF0000A3B4003F5801B6C
:101CF000049B002BA5D1E2E54FF0FF33EAE7134642
:101D0000E8E753EA0A038ED0089BDBB13B42EFD0F1
:101D10000B9B5046049A5946C3B175F0C1FB02466D
:101D20000B4651EC180B48F059FD82468B46DFE715
:101D300013404FF0FF3AA3F580136FEA135B6FEA8D
:101D40000B5BD5E70D9B13EA0A0FE0E775F0A8FBE4
:101D500002460B4651EC180B48F03EFD00220023D2
:101D600082468B4649F058F90028C1D015E600BFDD
:101D700002FCFFFF0000F07F00005039FFFF0F0062
:101D8000FFFFEF7FD06508083146284675F094FFC5
:101D900000224FF0804310EE100A59EC108B494698
:101DA00049F04EF900287AD00B9B002B4AD0002234
:101DB000934B4FF00008DFF84892CDE90823914B90
:101DC0003B400D930D9A904B9A4240F0B080A7F1A2
:101DD000547BDDE908014BEC10ABCDE908014DF077
:101DE0003BFFDDE9080153EC102B48F0ADFE5246F5
:101DF0005B4648F0F3FC0B4682498246834A194011
:101E0000914260D918EE903A02F15472934204D193
:101E100018EE103A01333FF448ADDFF8FCB14FF053
:101E2000FF3A189920464DF04BFC059920464DF09D
:101E300047FC314620464DF043FC294620464DF0F4
:101E40003FFC1CE6BAF1000F1BD1CBF31303F3B92F
:101E500000226B4B4046494649F0E8F8D0B940466D
:101E6000494600226A4B48F06FFE8046894609F1D8
:101E70000043CDF850801593DDE91423CDE9082304
:101E80009DE7BAF1010F02D1002F3FF486AD002289
:101E9000604B8EE74FF00008DFF87491E7E75C4B8A
:101EA00040464946002248F04FFE0B9B804689463B
:101EB00033B901F100430E900F93DDE90E23DDE706
:101EC000CDE90E89F9E703F1547B049B002BA8D1DF
:101ED0002BF000430D9A1B0D1B059A42A1D14046E1
:101EE000494649F0D9FA48F001FE02460B46404601
:101EF000494648F071FCCBF313030B9A804643EA42
:101F00000A038946134355D035A3D3E9002349F08A
:101F10008DF800287FF4D3AC4046494632A3D3E97C
:101F2000002349F0A1F800283FF47BAFC7E4049BED
:101F300033B30D9BB3F1D46F22D8404649462CA34E
:101F4000D3E9002349F07CF8A0B14946404649F066
:101F5000BDF8012838BF012048F07CFD0B9B80466E
:101F6000894623BB01F1004310901193DDE9102352
:101F7000CDE90823099B0D9A03F1D6639B1A0993B7
:101F8000B0EE480AF0EE680ADDE90801CDE9080183
:101F90004DF062FEDDE9080153EC102B48F0D4FD52
:101FA00053EC182B48F01AFC82468B468DE7CDE99E
:101FB0001089DBE710A3D3E9002349F037F8B2E733
:101FC00000230A93179B139A1360FFF76DBA652AD3
:101FD0003FF461AB452A3FF45EAB0123FFF796BBAC
:101FE0009535A094FFFFDF3F35E5AF350000E03FBA
:101FF0000000C0FFFFFFDF419535A094FFFFCF3FFA
:102000000000F03F0000F07F0000E07FFFFF9F7CBA
:102010000000E03F0000F0BFFFFFEF7F0000000086
:102020009FED010B704700BF000000000000F87F2B
:102030002DE9F04F1D460023894683462DED048B84
:10204000D3B019930B924EF025FC03681B781693BE
:10205000B9F80C301C061AD5D9F81030BBB940219C
:1020600058464AF0BBF9C9F80000C9F8100058B941
:102070000C23CBF800304FF0FF330D930D9853B085
:10208000BDEC048BBDE8F08F4023C9F81430002369
:102090009FED8D7B0F931193B0EE478AF0EE678A28
:1020A0000D930B9B1C4653F8042B0AB1252AF9D13A
:1020B0000B9BA3420DD0E61A0B9A4946584633466D
:1020C00075F097FE013000F0E8800D9B03EBA6034E
:1020D0000D932368002B00F0E0800021221D0A20D0
:1020E0004FF0FF340E460F4615910C9152F8043B09
:1020F00009930B92099B392B4CD81F2B4FD9099B65
:10210000203B192B4AD8DFE803F06B494970494955
:1021100049494949736C497A7D49989B9B9B9B9B94
:102120009B9B9B9B332B39D8DFE813F0EB003800E7
:10213000EB0038003800380038009D0038003800C7
:1021400038003800380038003800380038003800CF
:1021500038002103380038003800380038003800D3
:102160003800380038003800A600D700EB00EB003C
:10217000EB00A000D70038003800A3003800890227
:102180009A02A702A3003800C602380016033800DE
:1021900038004200099B453B332BC3D911B1099B41
:1021A000002B7AD0099B00200A952A93159081E094
:1021B00001B11596464B2A460F93F80652F8043B98
:1021C0000A9202D4790648BF9BB2FA0706D52BB112
:1021D000302247F002071A92099A1B9202225AE211
:1021E0000EB9099E01210B9A80E747F00107FAE733
:1021F00055F8043B002B0C93F5DA5B420C9347F047
:102200000407F0E70B9A52F8043B2A2B099312D1EA
:1022100055F8044B0B9244EAE474E4E700FB043401
:1022200052F8043B0993099B303B092BF6D944EA49
:10223000E4740B925EE70024F5E747F08007D2E7ED
:1022400000230C930C9A099B00FB0233303B0C9348
:102250000B9B1A4652F8043B0993099B0B92303BA7
:10226000092BEFD946E747F00807BCE747F04007DE
:10227000B9E747F01007B6E701B115962B1DF80630
:102280000A9327D4286849F0D3FA411C0ED1B9F833
:102290000C3043F04003A9F80C30B9F80C3013F0BF
:1022A000400F0D9B18BF4FF0FF33E6E62A90002049
:1022B0002B90159080460124064605460DF1A80A8C
:1022C00008E100BFAFF30080000000000000000044
:1022D000786C08082B682A93E9E701B115962B1D45
:1022E000FA060A9307D52B68002B02DA2D225B42EF
:1022F00015920122D1E117F0400F2B6818BF1BB2D5
:10230000F2E701B1159607354FF0FF3225F00703CC
:10231000B3EC027BB0EE478AF0EE678A0A93B0EE28
:10232000479A18EE903A23F0004309EE903AA54BF5
:1023300051EC190B4EF0F4FAF0B94FF0FF32A14B0B
:1023400051EC190B48F07CFEB0B90022002351EC8F
:10235000180B48F06BFE08B12D2315939A4B9B4840
:10236000099A27F080074FF000080324472A94BFFA
:102370009A4682464646D1E353EC182B51EC180B93
:102380004EF0CEFA40B118EE903A9148002BBCBF07
:102390002D2315938F4BE3E7631C00F00D81099B00
:1023A00023F02003472B02D1002C08BF012447F45F
:1023B00080730DF1A80818AE17AD0E932823584668
:1023C000CDF81880079319AB03960593099B0295E6
:1023D00004930E9BCDE9004353EC182B75F02EFEB1
:1023E0004045824640F0EA801999282940F3E6806A
:1023F0008900584649F0F2FF804600283FF447AF75
:10240000199B0295CDE9060319AB58460593099B24
:10241000CDE903630E9BCDE9004353EC182B75F017
:102420000DFE8246099B189D23F02003472B40F0A8
:10243000D580EE1C199B02DBAC4280F2EB80099B3D
:10244000023B09936B1E099A002B18931C92BABF8A
:10245000C5F101032D222B22092B1D9240F3D180BF
:102460002AA80A250246043893FBF5F405FB14312B
:10247000303142F8041C194623466329F2DC30331C
:10248000A2F1080140F8043C1EA82AAB9942C0F012
:10249000B3800DF1B304A41A0B3A24F00304934261
:1024A00038BF00241EAB1C441CA8241AA31011938F
:1024B000199B012B03EBA40402DC17F0010501D0EA
:1024C00001340025179E002E00F07D812D230E9FE4
:1024D00000261593A6423346B8BF23460E93159B9C
:1024E00013B10E9B01330E9317F0020312931EBF1C
:1024F0000E9B02330E9317F08403139300F0658153
:10250000159B43B1042315AA4946584675F071FC42
:10251000013000F06D81129B43B108231AAA49468D
:10252000584675F066FC013000F06281139B802BE9
:1025300013D10C9B0E9A9B1A002B10930DDD109B50
:10254000254A102B00F369819B00234A49465846CF
:1025500075F04FFC013000F04B81361B002E0CDD76
:10256000102E1D4A00F36481B3001B4A49465846A9
:1025700075F03FFC013000F03B81F90500F161810D
:10258000A30052464946584675F033FC013000F02E
:102590002F817A0700F17F820E99DDE90C238A42B0
:1025A000ACBF9B185B180D93B8F1000F56D0414695
:1025B000584649F0C7FE51E00624F8E64FF00008FF
:1025C00030E700BFFFFFEF7FF46B0808046C0808DA
:1025D000246C0808146C0808046D0808099B662B15
:1025E0007FF430AF07F00103002D43EA04030EDD52
:1025F000FBB101342C4465E751F8044B40F8044B1F
:1026000044E7302220AC13441E921F934CE793B151
:10261000023457E79D4205DBFC070ED56C1C67238F
:1026200009934FE7002DD4BFC5F1020401241C44D7
:10263000F5E72C4646E7012444E72C46EFE701B1D5
:1026400015962B1DF8060A9303D52B680D9A1A6070
:1026500004E07906F9D52B680D9A1A800A9D20E5C9
:102660002A4617F0100152F8043B0A9203D117F0E2
:10267000400210D09BB200220DE02A46782147F09C
:10268000020752F8043B09910A923022CDE91A213F
:10269000A44A0F92022200211591661C00F01882B4
:1026A00027F08001002B40F01782002C00F083807F
:1026B000012A40F0148260E02B46002617F0100536
:1026C00053F804AB15960A932DD1621C14D0224600
:1026D00029465046264674F00CFD08B1A0EB0A06C8
:1026E000272E0ED9711C5846890049F077FE002824
:1026F0003FF4CDAD804607E0504674F08CFE0646B0
:10270000EEE74FF000082AA834460023B34204D174
:102710000026824640F82360DCE61AF8032040F8E1
:1027200023200133F2E7631C11D022463146504684
:1027300075F02CF8804600283FF41CAEA0EB0A0888
:102740004FEAA8084445A8BF4446B04612E65046A2
:1027500074F08BFF0446F8E72A46FE0652F8043B65
:102760000A9202D47D0600D59BB2012293E701B103
:1027700015966D4B1FE5092B04D830330DF5A27A61
:102780005193C3E10DF5A47A0A25B3FBF5F005FBDF
:10279000103230324AF8042D1A460346092AF4D87A
:1027A000B4E103F00F020F981B0950F822204AF8F9
:1027B000042DF6D1AAE11AB9F80701D53023DDE7D7
:1027C0000DF5A47AA2E10E9F84E60C9B0E9A9B1A4B
:1027D000002B10937FF794AE109B102B11DC9B0005
:1027E000524A4946584675F004FB01307FF488AEE2
:1027F000B8F1000F3FF451AD4146584649F0A2FDF3
:102800004BE54023494A4946584675F0F2FA0130F3
:10281000EED0109B103B1093DEE74023494658460C
:1028200075F0E7FA0130E3D0109B103B109386E679
:1028300040234946584675F0DCFA0130D8D0103EA6
:102840008EE6099B652B40F2E4800022002351ECC8
:10285000180B48F0E1FB58B30423354A4946584663
:1028600075F0C7FA0130C3D0DDE918239A4202DBC4
:10287000FB077FF58EAE042316AA4946584675F02D
:10288000B8FA0130B4D0199C013C002C7FF781AE1E
:10289000284D102C02DCA300264A73E640232A466A
:1028A0004946584675F0A5FA0130A1D0103CF0E732
:1028B000189B002B40DC04231D4A4946584675F0FE
:1028C00098FA013094D0DDE91832134307F0010281
:1028D00013433FF45EAE042316AA4946584675F0EA
:1028E00088FA013084D0189C002C0CDA6442114D17
:1028F000102C0BDCA3000F4A4946584675F079FAB4
:1029000001303FF475AF199B9B003AE640232A46FD
:102910004946584675F06DFA01303FF469AF103CF6
:10292000E6E700BF786C0808346C0808C46C080837
:10293000BC6C0808046D0808199C44F31D04AC42E3
:10294000A8BF2C46002C1FDC002CACBF2E1B2E4633
:10295000002E0BDD724C102E1FDCB300704A49466E
:10296000584675F046FA01303FF442AFAD00DDE95C
:1029700018239A421CDA042316AA4946584675F0D1
:1029800038FA013016D133E7A3005246494658467B
:1029900075F02FFA0130D7D12AE740232246494665
:1029A000584675F026FA01303FF422AF103ED2E7C8
:1029B000FE07E0D4199BC5EB8304A210189C1C1BD6
:1029C0009442A8BF1446002C09DDA3000AEB0502BF
:1029D0004946584675F00DFA01303FF409AF002C16
:1029E000DDE91835A5EB0305A8BF2D1B002D7FF7EA
:1029F000D0AD4B4C102D01DCAB004DE740232246FF
:102A00004946584675F0F5F901303FF4F1AE103DF6
:102A1000F0E7199B524649465846012B4FF00403F4
:102A200001DCFC071BD575F0E4F901303FF4E0AEA2
:102A3000042316AA4946584675F0DBF901303FF4E5
:102A4000D7AE199C00220023013C51EC180B48F032
:102A5000E3FA68B9A3000AF104024946584675F042
:102A6000C8F901303FF4C4AE119B1CAA9B0089E554
:102A7000002CF9DD2A4D102C02DCA300284AECE7DB
:102A800040232A464946584675F0B3F901303FF4D1
:102A9000AFAE103CEFE70C9B0E9A9C1A002C7FF710
:102AA0007BAD102C09DCA3001E4A4946584675F040
:102AB000A0F901307FF470AD9AE64023194A4946E7
:102AC000584675F096F901303FF492AE103CE8E7B5
:102AD0003946002B3FF4ECAD012A3FF44CAE022AFC
:102AE0000DF5A47A3FF45DAE03F00702DB08504613
:102AF00002F130024AF8042DF6D1CD0706D5302A6E
:102B000004D030234AF8043CA0F1080A52AB264610
:102B10000F464FF00008A3EB0A04A4104546D9E481
:102B2000046D0808C46C08082DE9F04F456A044696
:102B300010EE10AA2DED048B93B057EC106BDDF85E
:102B40008080BB46069109920C9375B9102049F01C
:102B5000C1FB0246606220B9A74BEA21A74848F0B2
:102B600049FEC0E901550560C560636A196851B145
:102B70005A680123204693404A608B604CF0A0FDC8
:102B8000636A00221A603B1EADBF0023012223F0BE
:102B9000004BC8F800309A4BB8BFC8F8002033EAA1
:102BA0000B031BD142F20F730C9A1360CBF3130388
:102BB000334300F08F85219B63B9924B22E0924B07
:102BC00001930833219A1360019813B0BDEC048B74
:102BD000BDE8F08F8B4B01930333F3E70022002312
:102BE0005046594648F018FA80464BEC19AB58B19C
:102BF00001230C9A1360219B002B00F06885834809
:102C00001860431E0193DFE7CBF30A5510AA11A900
:102C100020464BEC10AB4DF099F808EE100A002D51
:102C200000F0828019EE903A5646A5F2FF35CDF8B5
:102C30003880C3F3130343F07F5747F44017002253
:102C4000734B3046394647F0C7FD65A3D3E90023EF
:102C500047F07AFF64A3D3E9002347F0BFFD06469F
:102C60000F46284647F006FF61A3D3E9002347F04B
:102C70006BFF02460B463046394647F0AFFD06462D
:102C80000F4648F0FBF900220090002330463946F9
:102C900048F0CCF950B1009847F0ECFE32463B4684
:102CA00048F0BAF910B9009B013B0093009B162B2A
:102CB00059D8009A574B03EBC20351EC190BD3E9D7
:102CC000002348F0B3F900284FD0009B013B00934C
:102CD00000230B93109B5D1B6B1E059349BFC5F131
:102CE000010300230493002354BF04930593009B26
:102CF000002B3CDB059B009A13440A9205930023AA
:102D00000793069B092B00F28980052BC5BF043B66
:102D1000002501250693069B023B032B00F28980C8
:102D2000DFE803F02E3B395ADDE910531D4405F26C
:102D30003243202BC6BFC3F1400305F21240C3F15A
:102D4000200305F1FF35C5BF0BFA03F326FA00F0A7
:102D500006FA03F0184347F07DFE01230646A1F171
:102D6000F8770E936BE70123B3E70B90B2E7049B70
:102D7000009A9B1A04935342079300230A93C0E7D7
:102D800000230893099B002B56DC01231A46CDE94A
:102D9000023309920CE00123F3E70023099A089318
:102DA000009B134402930133012B0393B8BF01230B
:102DB0000022606A4260042202F1140641689E42C9
:102DC0003ED920464CF03CFC019000283CD1124BEF
:102DD00002464FF4D571C1E60123DFE7AFF300806F
:102DE00061436F63A787D23FB3C8608B288AC63F11
:102DF000FB799F501344D33FA05C0808516D08082D
:102E00000000F07F4D6D0808446D080829960708FA
:102E10000000F83F986A080848690808012500235F
:102E2000089506934FF0FF330022CDE902331223B9
:102E3000AFE701230893F5E7099BCDE90233B7E734
:102E4000013152004160B7E7636A019A1A60039B3F
:102E50000E2B00F29D80002D00F09A80009B002B2D
:102E600032DD03F00F03B64A02EBC303D3E9008956
:102E7000009BD8054FEA231716D5B24B07F00F0772
:102E80000325D3E9082351EC190B47F087FF82464D
:102E90008B46AC4E57B942464B465046594647F0D2
:102EA0007DFF82468B4628E00225F2E7F90708D528
:102EB000404649460135D6E9002347F045FE8046A5
:102EC00089467F100836E5E700F09B80009B0225CD
:102ED0009C4F5E429A4B06F00F02361103EBC20381
:102EE00051EC190BD3E9002347F02EFE0023824654
:102EF0008B46002E7AD1002BD3D10B9B002B00F0F8
:102F000082800022904B5046594648F08FF80028A6
:102F100079D0039B002B76D0029B002B36DD009BE3
:102F20005046594600225F1E884B47F00DFE013582
:102F300082468B46029E2846D04647F09BFD52466D
:102F40005B46D94647F000FE0022814B47F046FC25
:102F50008246A1F1507B002E58D100227D4B404685
:102F6000494647F039FC52465B468046894648F060
:102F70007BF8002840F0938252460BF10043404614
:102F8000494648F053F8002840F087825BEC19ABC3
:102F9000119B002BC0F24881009A0E2A00F3448155
:102FA000674B03EBC203D3E90089099B002B80F236
:102FB000D580039B002B00F3D18040F06D8200226E
:102FC000644B4046494647F0BFFD52465B4648F0D9
:102FD00041F8039E3746002840F043823123019D8B
:102FE00005F8013B009B013300933EE2F20705D553
:102FF0000135D7E9002347F0A7FD012376100837F4
:1030000077E7022579E7009F039E94E701994C4BEF
:10301000314403EBC6030D91089953E902230029BB
:1030200043D000204C4947F0B9FE52465B4647F07A
:10303000D3FB019D82468B464946404648F01EF828
:10304000064647F017FD024630360B4640464946D5
:1030500047F0C2FB52465B4605F8016B8046894645
:1030600047F0E4FF002863D142464B460020364932
:1030700047F0B2FB52465B4647F0D8FF002840F0CD
:10308000B5800D9B9D4281D00022304B5046594661
:1030900047F05AFD002282468B46404649462B4B5C
:1030A00047F052FD80468946C6E75046594647F0EC
:1030B0004BFD0D9B82468B46019D0F934946404632
:1030C00047F0DCFF064647F0D5FC02460B4640467B
:1030D0004946303647F080FB0D9B05F8016B804672
:1030E0009D4289464FF0000224D11B4B5046594661
:1030F00047F074FB02460B464046494647F0B4FF92
:10310000002873D152465B460020134947F064FB08
:1031100002460B464046494647F088FF00283FF4E8
:1031200035AF0F9D6B1E0F9315F8013C302BF8D077
:10313000009749E0054B47F007FD80468946BDE70B
:10314000986A0808706A08080000F03F00002440F0
:1031500000001C40000014400000E03F56465F465F
:10316000019D42464B463046394647F017FE47F030
:1031700085FF824647F07EFC42464B4647F0E4FC22
:10318000024630460AF130060B46394647F024FB2A
:1031900005F8016B019E0246039F0B46AE1BB7422A
:1031A00035D147F01BFB42464B4606460F4647F0DB
:1031B0005BFFD0B942464B463046394647F02CFFBC
:1031C00010B11AF0010F10D1204618EE101A4CF071
:1031D00077FA002300982B7001300C9B1860219B1C
:1031E000002B3FF4F1AC1D60EEE4009F2B461D4622
:1031F00013F8012D392A06D1019A9A42F7D13022CB
:10320000019901370A701A7801321A7090E700228A
:10321000A44B47F099FC0022002306460F4647F0D6
:10322000FBFE00289DD0CFE7089A002A00F0D58049
:10323000069A012A00F3B9800E9A002A00F0B180A4
:1032400003F23343079E049D049A012120461A4449
:103250000492059A1A4405924CF0E6FA0746002DAE
:103260000CDD059B002B09DDAB42049AA8BF2B4661
:10327000D21AED1A0492059AD31A0593079B1BB331
:10328000089B002B00F0AD80002E13DD394632463E
:1032900020464CF087FB18EE102A014607462046D0
:1032A0004CF0D8FA804618EE101A204608EE108A24
:1032B0004CF006FA079B9A1B06D018EE101A20460F
:1032C0004CF070FB08EE100A012120464CF0ACFADD
:1032D0000A9B0646002B40F386801A46014620468C
:1032E0004CF060FB069B0646012B7FDD4FF000088B
:1032F000336906EB8303186974F073FCC0F1200096
:10330000059B184410F01F0000F09180C0F12003CD
:10331000042B40F38980C0F11C00049B0544034446
:103320000493059B03440593049B002B07DD18EED3
:10333000101A1A4620464CF08FFB08EE100A059B27
:10334000002B05DD31461A4620464CF085FB06462B
:103350000B9B002B6DD0314618EE100A74F090FCD8
:10336000002866DA009B18EE101A0A222046013B5C
:10337000009300234CF0C6F9089B08EE100A002BBE
:1033800000F0AF81002339460A2220464CF0BAF9FA
:10339000029B0746002B00F38D80069B022B50DC1E
:1033A00088E0109BC3F136034CE7039B5E1E079B2E
:1033B000B342B7BF079B9E1B0796F21ABFBF0A9B7B
:1033C00000269B180A93039B002BB7BFDDE903235C
:1033D000DDE903359D1A002336E7079E049D089F0B
:1033E0003DE7079A69E7069B012B18DCBAF1000F4D
:1033F00015D1CBF3130393B92BF000431B0D1B0521
:1034000083B1049B4FF0010801330493059B013302
:1034100005930A9B002B7FF46BAF012070E74FF000
:103420000008F6E79846F4E73FF47EAF18461C30F4
:1034300073E7039B002B37DC069B022B34DD039BD9
:103440000293029B6BB93146052220464CF05AF993
:103450000146064618EE100A74F012FC00283FF7E9
:10346000BDAD099B019DDB4300934FF00008314641
:1034700020464CF025F9002F3FF4A6AEB8F1000F1E
:1034800005D0B84503D0414620464CF019F93946DD
:1034900020464CF015F997E600263746E1E70097FD
:1034A00037469BE500002440089B002B00F0CA80B3
:1034B000039B0293002D05DD39462A4620464CF039
:1034C000CBFA0746B8F1000F5BD0796820464CF084
:1034D000B7F8054628B9874B024640F2EA21FFF7C4
:1034E0003DBB3A6907F10C010C300232920073F0D7
:1034F0001EFE0122294620464CF0AEFA019BB8463A
:10350000074603F10109DDE90123134405930AF09D
:1035100001030493314618EE100A74F000FE414690
:10352000029000F1300A18EE100A09F1FF3B74F026
:10353000A7FB3A460390314620464CF0FDFAC2689C
:10354000054602BB014618EE100A74F099FB0246CC
:103550002946204607924CF0B3F84D46DDE9063285
:1035600043EA0201049B0B430FD1BAF1390F2AD071
:10357000039B002B02DD029B03F1310A8BF800A0B4
:1035800075E73846BAE70122E2E7039B002B04DB2C
:1035900006990B4304990B4322D1002AEEDD18EE65
:1035A000101A012220464CF057FA314608EE100A54
:1035B00074F066FB002803DCE0D11AF0010FDDD0C7
:1035C000BAF1390FD7D139238BF800302B461D467D
:1035D000013B15F8012C392A70D001321A7046E7E8
:1035E000002A07DDBAF1390FEDD00AF101038BF89B
:1035F00000303CE7059B09F801AC994546D018EE30
:10360000101A00230A2220464CF07CF8B84508EE38
:10361000100A4FF000034FF00A024146204606D13F
:103620004CF070F88046074609F1010972E74CF04A
:1036300069F83946804600230A2220464CF062F899
:103640000746F1E7039B0293019D314618EE100AED
:1036500074F065FD019B00F1300A05F801ABEA1A30
:10366000029B934209DD18EE101A00230A2220461D
:103670004CF048F808EE100AE7E7029B4FF000080C
:10368000002BCCBF1D460125019B1D4418EE101ACE
:10369000012220464CF0E0F9314608EE100A74F0A1
:1036A000EFFA002892DC02D11AF0010F8ED12B46DE
:1036B0001D4613F8012D302AFAD0D8E6019A9A4215
:1036C00085D1009B0133009331231370CFE60A4B61
:1036D000FFF798BA219B002B7FF471AA074BFFF7E5
:1036E00091BA029B002BAFDC069B022B3FF7A9AEE1
:1036F000AAE700BF4869080828960708446D08082B
:1037000051EC100BF8B5C1F30A530C4610EE106AD9
:10371000A3F2FF35132D32DC002D1EDB364F2F4177
:1037200001EA070303432FD031A3D3E9002347F075
:1037300055F80022002347F097FC48B1002C04DD27
:103740004FF4801343FA05F52C4424EA07040026BD
:103750002346324643EC102BF8BD25A3D3E90023C2
:1037600047F03CF80022002347F07EFC0028EFD011
:10377000002C39DB264333D00026204CE8E7332DDC
:1037800005DDB5F5806F23D041EC100BF8BDA3F239
:1037900013434FF0FF37DF400742F5D014A3D3E9BE
:1037A000002347F01BF80022002347F05DFC0028AF
:1037B000CED0002C09DD142D14D00123C5F1340521
:1037C00003FA05F5AE1928BFE41826EA0706BFE795
:1037D00010EE102A0B4647F001F841EC100BF8BD33
:1037E0003446B5E70134F0E700264FF00044AFE778
:1037F0009C7500883CE4377EFFFF0F000000F03F1F
:1038000051EC100BF8B5C1F30A530C4610EE106AD8
:10381000A3F2FF35132D30DC002D1EDB384F2F4176
:1038200001EA070303432DD033A3D3E9002346F075
:10383000D5FF0022002347F017FC48B1002C04DA22
:103840004FF4801343FA05F52C4424EA07040026BC
:103850002346324643EC102BF8BD27A3D3E90023BF
:1038600046F0BCFF0022002347F0FEFB0028EFD00B
:10387000002C29DB00263446EAE7332D05DDB5F5BB
:10388000806F19D041EC100BF8BDA3F213434FF039
:10389000FF37DF400742F5D017A3D3E9002346F0F6
:1038A0009DFF0022002347F0DFFB0028D0D0002C32
:1038B00013DB26EA0706CBE710EE102A0B4646F08C
:1038C0008DFF41EC100BF8BD24F000430D4A33434B
:1038D0000026B34218BF1446BAE7142D08D00123BE
:1038E000C5F1340503FA05F5AE1928BFE418E0E781
:1038F0000134DEE7AFF300809C7500883CE4377E3E
:10390000FFFF0F000000F0BF10B5054C237833B95E
:10391000044B13B1044800E000BF0123237010BD25
:10392000D062002000000000D071080808B5034BE9
:103930001BB10349034800E000BF08BD00000000C0
:10394000D4620020D0710808A3F5803A704700BF08
:10395000174B002B08BF134B9D46FFF7F5FF0021C7
:103960008B460F461348144A121A73F007FC0E4B8D
:10397000002B00D098470D4B002B00D0984700201B
:10398000002104000D000D48002802D00C4800E082
:1039900000BF48F0BFFB200029004FF0C0F947F0FE
:1039A000ADFF00BF000008000000000000000000A4
:1039B00000120020A81F002078B2002000000000A4
:1039C00000000000CB8B07EE900A07EE103A9FED47
:1039D000180AB8EE477AF8EE677A27EE000ADFEDAC
:1039E000156A17EEA60ADFED146A27EE267ADFEDD8
:1039F000136AB1F9203017EEA67A06EE903A91F9E3
:103A00002230B3EE006A07EE903AF8EEE77A20EE45
:103A1000000A67EE867AF8EEE66A67EE807A9FED36
:103A2000080A47EE267AC1ED0E7A87EE800A7047C3
:103A300000000039000000370000803A00008038A4
:103A40000000A045D1ED0E6AF6EE007A9FED557AA2
:103A500091F9283016EEA77A07EE903AB1F92630A0
:103A6000F8EEE77A06EE903A67EE877AF8EEE66AC5
:103A700067EE877A66EE876AB0EE476A9FED4A7A0C
:103A8000F7EE005A47EE876ADFED487A8B8C66EED8
:103A9000A76A9FED474AF0EE657A05EE903A46EE4A
:103AA000847AF8EE655A65EEA75AFDEEE57A17EED0
:103AB000903A03EE900A002B70D091F92E30DFED92
:103AC0003D4A05EE103AB1F92C30B8EEC55A07EE72
:103AD000103AB8EEC77A27EE067A66EE067A25EE39
:103AE000245A37EE077AB1F92A3005EE277A06EE26
:103AF000103AF8EE637ADFED306AB8EEC66A76EE19
:103B0000E76ADFED2E7A26EE276AF5EE007A07EEF9
:103B1000276ADFED2B7AB0EE667A06EE677ADFED84
:103B2000297A27EE277AB1F9323087EE250A07EE97
:103B3000103AB1F93030B8EEC77A07EE903AF8EEA5
:103B4000E77A27EE007A67EE847A27EE007A67EE4E
:103B5000807A9FED1D6ADFED1D6A91F8343060EECA
:103B6000266A47EE067A07EE103A26EEA66AB8EE07
:103B7000C77A66EE266A27EE247A91F92F3047EE4F
:103B8000267A07EE103ADFED126AB8EEC77A47EEF2
:103B9000267A9FED107A07EE870A70479FED0E0A8E
:103BA000704700BF00007A470000803800000036F0
:103BB0000000003800000037000080490000804706
:103BC000000080390050C345000000300000803BF9
:103BD000000000430000803D0000000091ED0E7ADF
:103BE000DFED307A91F91530C7EE276A07EE103A0B
:103BF00091F91630DFED2C5A06EE103AB8EEC77A7E
:103C0000F7EE007A27EE257ABAEEC66A4B8A47EEBF
:103C1000267A26EE266A00EE103A46EE267ABBEEAB
:103C2000C70A91F9143067EE807A06EE103A0B8AD3
:103C3000B3EE005A00EE103AB8EE400A07EE100A52
:103C4000BAEEEF6A20EE050AB8EE477A06EE260ACB
:103C500037EE400A91F9183027EE800A07EE103A45
:103C6000CB7DBAEEE57A07EE903AF8EE677A67EE2A
:103C7000A57A47EE267A67EE807A07EE800ADFEDB6
:103C80000B7AB4EEE70AF1EE10FA07DCB5EEC00AE3
:103C9000F1EE10FA04D59FED060A7047B0EE670A00
:103CA000704700BF0000A045000080380000C842F7
:103CB00000000000B1F91A30B0F5C87F07EE903A65
:103CC00028BF4FF4C870FAEEE87ADFED2B6A9FED5B
:103CD0002B7A07EEA67AF7EE006A07EE900AF0EE6E
:103CE000665AF8EE677A91F9193047EE275A07EECF
:103CF000103ADFED237ABAEECE7A91F91C3037EE26
:103D0000277A07EE903A91F90E30FAEECB7A06EE6A
:103D1000103AB8EEC66A67EE867A91F83C3045EE06
:103D2000877A07EE103AB1EE006AB8EE477A37EEBE
:103D3000067A91F93D30C6EE075A07EE103A67EE63
:103D4000A57AB8EEC77A9FED0F6AF0EE665A47EE95
:103D5000065AB3EE097A86EEA56A17EE867ADFED8B
:103D60000A7A67EE277AFCEEE77A82B0CDED017A27
:103D70009DF8040002B070476F12033A75021A3BB7
:103D8000000044426F12033B9A99594006EE900A94
:103D9000F0B52B4CA1B06D46264607EE902A9FED5C
:103DA000297AF8EE666A0F460FCE0FC50FCE76EE73
:103DB000C76AF8EEE77AB1EE046A9FED237A0FC581
:103DC0000FCE0FC596E80F00403485E80F000FCCEA
:103DD00010AD0FC50FCC0FC50FCC0FC594E80F0069
:103DE00085E80F0020AB03EB870353ED205A07EE65
:103DF000867A9FED166AB7EE000AC5EE867A77EEF0
:103E0000807A27EE277AC6EE877A13ED107A77EE5E
:103E1000806AC7EE067A012377EE807A9FED0C7AEE
:103E2000BB4027EE877A07EE903AF8EEE77A67EE26
:103E3000277A66EEA77A80EE270A21B0F0BD00BF90
:103E400080820708000000440080A7440000C842A8
:103E5000BD370634F0B54D4B064618681B7987B060
:103E60008DF80C30002302900DF107000D460493ED
:103E70008DF814304EF014FE0446002840F0838084
:103E800029464EF0D0FD0746044666B94FF0FF3490
:103E90009DF8070020B11CB929464EF0C4FD044628
:103EA000204607B0F0BD0028F2D12B4605229DF830
:103EB000080004A94EF093FC85F84D7004460028D4
:103EC000E6D12A460721F01C4EF0DEFB044600280E
:103ED000DED10521701C4EF0D7FB04460028D7D157
:103EE000B01C4EF0D1FB04460028D1D130464EF034
:103EF000CBFB04460028CBD10821301D4EF0C4FB7B
:103F000004460028C4D1F3789DF814209B0022F0C9
:103F10001C0203F01C0313435AB29DF8133071784E
:103F200003F01F0343EA4113B17823F01C03890017
:103F300001F01C010B438DF8133031789DF81130DE
:103F400001F0070123F007030B4331798DF811309D
:103F5000082912BF0020012000219DF8103002F036
:103F60001F0203F07F0342EA411243EAC0138DF8B7
:103F700014208DF8103005222B4604A902A84EF01B
:103F8000E4FB044684E7002E82D17FE778820708AD
:103F900037B51E4B0546D3F88000B3F884300C4685
:103FA0000090ADF8043011B9002003B030BD0521F8
:103FB000601C4EF069FB0028F6D1A01C4EF064FB9B
:103FC0000028F1D120464EF05FFB0028ECD1637849
:103FD00002AA1344A27813F8080C02AB1A4412F890
:103FE000083C02AA18442378022D134413F8083C15
:103FF000034440F2AB7000FB03F30BBF03F58650A4
:1040000003F5A55040180D30CFE700BF80820708A8
:104010002DE9F04FB5B01E4622AB019204460F4683
:1040200018464822002173F0A9F828AB0A900B9398
:1040300030462EAB0C934EF019FB054628B14FF0DD
:10404000FF34204635B0BDE8F08F002FF7D0012CAB
:1040500040F0D480014615900D2216A873F08EF81A
:104060000525334611221D2015A94EF0B8FB9DF8F9
:1040700055200446BA709DF856209DF854000292CF
:104080009DF8572000F0800303929DF8582000F01F
:104090000F0004929DF85920787005929DF85A20DF
:1040A0009DF862A006929DF85C209DF864800792BE
:1040B0009DF85D209DF85B9008929DF861209DF829
:1040C00063B00992B268012A0CBF08F030020AF00E
:1040D000300213433B701B0679D5002C7DD133464B
:1040E0000122F91C5A304EF07AFB0446002874D1A4
:1040F0007878334650300122391DC0B24EF06FFB44
:104100000446002869D17878334664300122791D4D
:10411000C0B24EF064FB044600285ED1069B4FEA15
:10412000191040EA0310059B314640EA0330FFF7BF
:1041300049FC049B87ED020A1809039B40EA03101F
:10414000029B40EA0330FFF77DFCDDE9072387EDA2
:10415000030A43EA0220FFF741FDB36887ED040A32
:10416000012B26D14FEA981343EA8B0B4FF480239F
:1041700008F00F0823FA08F307EE103ADFEDB37AE0
:10418000B8EEC77A0BEB4B0B0BF5206B27EE277ABB
:1041900007EE90BAF8EEE77AC7EE276AC7ED056A30
:1041A00097F90030002BB5BF01250025002402241B
:1041B0001EE0099B4FEA9A1096F93E200AF00F0183
:1041C00040EA8300FFF7E2FD87ED050AE8E724B93E
:1041D00042F21070B36C71689847013D15F0FF050D
:1041E00004D0002C3FF43DAF002501E0002CD7D0D7
:1041F000019B002B3FF423AF1D7022E7023C012CF2
:1042000000F2218101462F22159016A872F0B6FF08
:104210001A2229460EA80D9572F0B0FF33463322BC
:104220001D2015A94EF0DBFA04468246002840F016
:104230009A8033461E2250200DA94EF0D0FA15ADBB
:104240009FED823A0446002840F08D800AAB53F877
:104250002A806B7895F8039088F80230AB784FEAA3
:10426000091949EA03392B79A87949EA13196B79B5
:10427000000140EA0330EB792A7A40EA131307EE93
:10428000903A6B7A297843EA02236A7BB0680292FB
:10429000EA7B95F80EB003922A7C012801F00F0CFE
:1042A00021F07F010CBF02F0200E0BF0200E49B26E
:1042B0000BBF41EA0E0141EA0E0102F0100E0BF0B5
:1042C000100E41EA0E01049334AB88F8001003EBA2
:1042D0000C0111F89C1C88F801C088F8041003EB4D
:1042E0000C0111F8921C9C4488F803101CF8881CDF
:1042F00017EE900A88F805103146FFF763FB484631
:1043000088ED020AFFF79EFB049B88ED030A18461E
:10431000FFF764FCB36888ED040A012B38D10399D8
:10432000930943EA81034FF4802102F00F0221FA3E
:1043300002F207EE902A03EB430303F52063F8EE45
:10434000E77A07EE103A67EE837AB8EEC77A87EE1F
:10435000870A0AF1010ABAF1030F88ED050A05F18F
:1043600011057FF473AF0DF1280E7246032300256B
:10437000002C4FD152F8041B013B91F90010002989
:10438000BCBF0135EDB213F0FF03F3D1704639E045
:10439000029B4FEA9B1096F93E200BF00F0140EA7A
:1043A0008300FFF7F3FCD4E74FF00209DCF800606C
:1043B00051F8043B96F900A093F90020BAF1000FE0
:1043C00016DA002A16DA96F802A09A78A2EB0A0208
:1043D00092B202F1020A1FFA8AFABAF1010F02D967
:1043E00012B2022A06DDCCF8003041F8046C01E07C
:1043F000002AF8DBB9F1020FD6D1B8F1020F4FF065
:10440000010307D0013384465FFA83F80430014684
:10441000C146CBE74FF000084FF018097CB909FB03
:1044200008765EF804CB08F10108BCE80F000FC65F
:104430009CE80300B8F1030F86E80300EFD1002DDC
:1044400008BF0224D4E60124D2E600BF0024744948
:1044500047F270132DE9F04F93B0064617460D460C
:10446000ADF81430002900F09380114600204EF082
:10447000DAFA0446002840F0F5806E238C4A8DF865
:104480001330D2F88600D2F88A1006AB03C3B2F814
:104490008E20022E1A8009AB03C31A800CAB03C313
:1044A0001A800FAB03C30DF118081A800DF124090F
:1044B0000DF13C0A00F09E80032E64D0012E40F0E6
:1044C000F5805A23394668888DF81830FFF7F2FBDB
:1044D00064238DF83030AB888DF82400B3F57C6F01
:1044E0004FD23F2BE2B204F1010448D803EB821310
:1044F000DBB24FF0000A8DF83C303B46324649466D
:1045000040464EF022F90446002840F0AB803B467E
:1045100032460FA90CA84EF018F90446002840F0C6
:10452000A1803B46022270200FA94EF058F90446A4
:10453000002840F097802A78012A40F0B480BB68B8
:10454000012B08BF02229DF83C300FA923F008037D
:1045500043EAC4049DF83D3005A823F00F0343EA65
:104560000A0323F0300343EA02138DF83D300222A0
:104570003B468DF83C404EF0E8F8044672E09B085C
:10458000AFE7FF23B5E7D5F80CB0BBF1000F02D1C0
:104590004FF0FF3466E0AB68002BF9D02E7CE2B21E
:1045A000964201D8B246A8E702F15A0108F8041071
:1045B00033F8140039460193FFF77CFB64320CABEF
:1045C0001A5509F804003BF81420019BB2F57C6FE2
:1045D0000ED200213F2AC8B201F1010106D802EB38
:1045E0008012D2B20AF804200134D8E79208F1E729
:1045F000FF22F7E7D5F80CB0BBF1000FC8D0AB68CD
:104600000193002BC4D06B8A0022002B08BF032427
:104610002E7CCDF808A05FFA82FA564526D840F2E3
:10462000827293423DD84FF47A72534340F2DD12C6
:10463000B3FBF2F300229BB23F2BD1B202F1010295
:104640002DD803EB8113DBB28DF8123054B93B4601
:1046500001220DF112010DF113004EF076F804461F
:1046600000289FD0204613B0BDE8F08F0AF15A0110
:104670000393019B08F8021033F812003946FFF744
:1046800019FB0AF1640A0CAB03F802A009F8020056
:104690003BF81210029BD154039B0132BBE79B08ED
:1046A000CAE7FF23D0E7024601244CE70124D9E7FB
:1046B0008082070830B585B06C4684E80F00064A52
:1046C00004AD234603CBAB42106051601C4602F19F
:1046D0000802F6D105B030BDCA9700201FB56C4660
:1046E00084E80F000122074B1A7000F04BF941F2E9
:1046F000336158F0CBF894E80F0004B0BDE81040E7
:10470000FFF7D8BFCA960020F0B52DED068B5F4BA2
:104710009BB01E78002E00F0AC805D4CA368A269AF
:104720009A4200F0B18093ED028A9FED5AAA5A484E
:1047300093ED009AD3ED048AD3ED069A57F088FCE6
:1047400028EE0A8AFCEEC87A17EE905A00F01AF9A1
:104750000FA958F0BEFD68EE8A7A0023FCEEE77AD6
:10476000FCEEE99ABDEEC88ABCEEC99A9DF93C20E0
:104770000893CDE906520093484ACDED049ACDED59
:10478000037A8DED028A8DED019AFE21444805954C
:1047900048F004FA2269A368403A93422CD040338F
:1047A0008022A3603F4BC3F8A0200BAA17463E4BC4
:1047B00003F11005144618685968083303C4AB4266
:1047C0002246F7D100F0DEF8002158F002F8044646
:1047D0000322002158F00AF80221204658F021F85F
:1047E0002046324958F024F890B1314D002C45D183
:1047F0002B6801332B6035E0E06867F042FB6369AA
:104800001A1D5B68626103F50072E3602261C7E70D
:10481000234872F000FE054658B1204658F00AF8C9
:104820000028E2D120461E49AAB258F0EFFA00282B
:10483000DBD12C2200210FA813AD72F09FFC97E86A
:104840000F0085E80F0041F23363ADF85E3000F0F1
:1048500099F800232146CDE900330FAA1DF0C8F8CE
:104860000028C2D18022134B1348C3F8A02057F070
:10487000EFFB30461BB0BDEC068BF0BD002320469D
:104880002B6058F0BDFAB3E70026F2E7CA96002085
:10489000EC62002000007A447C920708AC92070882
:1048A000CB96002000D00350CA970020D69207086C
:1048B0001463002000E00350DD920708F8B51B4C9C
:1048C000204638F07BF81A4A1A49204667F0D4FA95
:1048D0000023194C2020C4E90233C4E90433C4E99D
:1048E0000633C4E9083323600823636067F0CBFA1A
:1048F00065680646013D6D0800EB850720604FF4B2
:10490000007067F0C0FA00F50073C4E9070346F8C9
:104910002500E060A060A0616761204623616762B6
:10492000034A0649BDE8F84067F0A6BADA970020C6
:104930005812002025CC0308EC620020EF2A05085D
:104940001FB5036804460391984780B1002384F89B
:104950006A3004F144030093064A2346039958F051
:1049600080F800280CBF2420032004B010BD0D20C7
:10497000FBE700BF512B05080122014B1A7070475D
:10498000DC970020014B1868704700BFC46300200B
:1049900007B5019002F012FA0020019902F002FA24
:1049A0000222024B9A6103B05DF804FB00500650EE
:1049B000022208B5084B5A6102F000FA074B5A6808
:1049C00012B19A6A002AFAD102220121DA60044B5C
:1049D0001970014B9A6108BD0060065000400650F6
:1049E000B116002030B5374C8DB0206858F034FB3C
:1049F0002068354C0BF0AEFC4EF071F9237863B1B2
:104A00000023324932482370FFF79AFF314857F0AC
:104A10001FFB8022304BC3F8A020304D2B78CBB940
:104A20002B480DF1030201A98DF803304EF0F8F880
:104A3000002845D09DF8033003BB294857F008FBF8
:104A400001232370244B2022C3F8A020254B802271
:104A5000C3F8A0204022204BC3F8A020224B1A7894
:104A600022B1002221481A7000F05CFAFFF74CFED8
:104A700040221C4BC3F8A0200DB030BD1C4857F09D
:104A8000E7FA1C49019B0C4603F11202223352F84B
:104A9000040B9A4241F8040BF9D12822154802A9C7
:104AA00058F069F8144802A957F0D2FA0123206897
:104AB0002B706168E368A268FFF710FE094BC2E73C
:104AC0000E4BC4E7C4630020DC970020FE92070869
:104AD000186300201F93070800D00350DB970020C5
:104AE0003D93070800E00350B116002091490008EB
:104AF0005B930708DD9700207893070800F00350C8
:104B000010B54B4B5022A6B004460021184672F057
:104B100035FB01220273474A0264474A4264474A0E
:104B20008264474A42601F2282734DF0AFFE28B173
:104B3000B921444B444A454846F05CFE8DF80A00D2
:104B40009DF80A10424849B257F082FA32F0B6FA9C
:104B50008DF80A009DF80A103E4849B257F078FADD
:104B6000002C5CD14FF4805340F2B6713A4A3B4876
:104B700032F0D6FA8DF80A004FF48053364ADD2120
:104B8000374832F0DDFA9DF80A10324849B257F042
:104B90005FFA17218DF85C1018218DF86410192127
:104BA0008DF86C10072108228DF874100621162349
:104BB0008DF80B208DF884201A228DF87C100921A5
:104BC0008DF85430274B8DF89420149304AA169333
:104BD00018931A931C931E9320932293249314A842
:104BE0000DF10B038DF88C1032F076FA8DF80A0077
:104BF0009DF80A101C4849B257F02AFA03A832F06F
:104C000053FA9DF80F309DF80D2000939DF80C107D
:104C10009DF80E30154857F01BFA26B010BD012C38
:104C2000AAD14FF4805340F2B6710B4A10489FE767
:104C3000C8630020832C05084B2C05083D2C050873
:104C4000B0160020A2930708C1930708DC93070859
:104C5000EC9307080A940708CB98002010830708F4
:104C6000EE970020B08E633D8995070810940708E1
:104C7000C68A07081FB52022254B264CC3F8A02062
:104C8000A3F58053D3F8A400C0F30010FFF738FF5A
:104C900000F04EFC00F070FC4EF020F8012120687E
:104CA00057F006FF28B166211B4B1C4A1C4846F0F2
:104CB000A1FD0121206858F01BFB18B16721194B99
:104CC000164AF3E700F08AFC41F2883003A909F0A4
:104CD000B5FA034630B9CDE90000134A03991348E9
:104CE00050F0FAF80023124A12481370124A137057
:104CF00057F0AEF903F0B6FE8022054BC3F8A020B2
:104D0000202203F58053C3F8A02004B010BD00BFDB
:104D100000D00350C46300203A9407086C9407083D
:104D2000DC9307087C940708794900081864002080
:104D3000DB970020B1940708DC97002008B557F0F6
:104D4000ACFE054B186030B94FF49671034B044A22
:104D5000044846F04FFD08BDC4630020DB940708FB
:104D6000E5940708DC930708014B186817F0E2B8D0
:104D7000C463002010B5084C204637F01FFE2046C3
:104D8000064A074967F078F8BDE810400423054952
:104D90001A4605484DF0E1BEED970020581200205C
:104DA00025CC030885490008186300202DE9F34746
:104DB00000F1180506460C4600F10801284601914D
:104DC0004DF07BFF0328019906D13269B368403A60
:104DD000934216D04033B360336AB769403B9F4279
:104DE0001ED00FCC3D460FC50FCC0FC50FCC0FC545
:104DF000403794E80F0085E80F00B76102B0BDE8C6
:104E0000F087F068019167F03CF8736901991A1D09
:104E10005B68726103F50072F3603261B360DBE7D7
:104E200028464DF04AFF6FF07E43984202D13C483D
:104E30006CF0FFFB726A30687368111AA3EBA10172
:104E4000012925D87169A2EB01084FEAA807BD1C0A
:104E5000B3EB450F3ED95D1B6D0800EB8505131DB7
:104E6000A942A3EB01022ED9994202D0284672F042
:104E70006BF92B687561F36003F50073336105EB23
:104E80000803736255F80830F36103F50073336269
:104E90004FF40070756A66F0F6FF6860B5690FCC74
:104EA0000FC50FCC0FC50FCC0FC594E80F0085E8D8
:104EB0000F00736A1A1D5B68726203F50072F3617A
:104EC0003262B3619AE79942D3D008F10400801AA4
:104ED0002844CCE703F10209012B2CBF994409F1C6
:104EE0000109B9F1005F01D36CF09AFB4FEA890028
:104EF00066F0C9FF726A7169A9EB050504326D0895
:104F00009142824600EB850503D02846521A72F082
:104F10001BF9306866F0B5FFC6E900A9A9E700BF34
:104F2000029507082DE9F04FAD4C0646ADF50F7D13
:104F300022460021002032F04BF90023A94A054601
:104F4000D4E9000146F040FAB04794F83E60012EE3
:104F500040F06081A44FA54938464DF03DFD08BBA7
:104F600094F83C3038463B7094F83B309F497B7056
:104F700094F83A30BB70FEF76DFF98B99C49A3894D
:104F800030464B80E389994A0E708B80FFF760FAB8
:104F900040B9304695494DF046FD18B9954B1E7005
:104FA000954B1E7094F83D30002B00F0798294F8F8
:104FB0003E30002B00F074820024904E8D488B4BC5
:104FC00032468F4900783470FFF722F88D4B1C7001
:104FD0003378002B00F06482864BDFF834821B7834
:104FE000012B40F078814646854F0FCF0FC697E8DA
:104FF000030086E803000026834B1E7098F80030FB
:105000009B0640F190814FF08BFF09F035F9754B0D
:1050100098F801205843724B07EE902A9B6898F845
:10502000005013F40051D8F808A0D8F80CE0D8F8D4
:105030001090D8F814C007D00E228DF895200022C9
:105040000121CDE9220424925F070DD54FF003081A
:1050500022AE06EB01120F010131F05182F80D80F2
:10506000C2F808A05460C9B29E070DD54FF00208DF
:1050700022AE06EB01120F010131F05182F80D80D2
:10508000C2F808905460C9B2DA070DD54FF0010894
:1050900022AE06EB01120F014144F05182F80D805F
:1050A000C2F808E05460C9B21F070FD5AE060DD58F
:1050B0004FF0040E22AE06EB01120F010131F05148
:1050C00082F80DE0C2F808C05460C9B21A0240F17B
:1050D0002681AB0640F12381182622AB03EB011297
:1050E0005673454A0D0112780131012A14BFF8EEBA
:1050F000E77ADFED467A5A19C2ED027A5851C9B201
:105100005460002312931493169318931A931C93CC
:10511000132342AA8DF8473022A80DF147038DF8DA
:105120004C408DF854408DF85C408DF864408DF80B
:105130006C408DF8744031F0E1FF9DF85C309DF8D3
:1051400047200B939DF8543005460A9342AB03EB7E
:1051500002120F920022DDED1C6A9DED1A6A9DED90
:10516000165ADDED185ADDED144A9DED124A9DEDFB
:10517000207B16461746CDE90D22CDE908229DF881
:1051800074E09DF86C909DF879C09DF878809DF84A
:1051900064B09DF84CA00C9207920F998B4200F0DE
:1051A0000D81597B0139162900F2C980DFE811F021
:1051B000BE00C700C700C700C700E500F100EB0054
:1051C000C700C700C700C900D700C700C700C70095
:1051D000C700C700C700C700C700F800FF0000BF36
:1051E000A81F002040420F00D0A80020C863002064
:1051F00038640020CBA80020CDA80020CFA8002034
:1052000064640020CEA80020CCA80020000000008C
:105210004C640020022E49D1DFF8C48298F8003097
:10522000022B3FF4BFAEAA4FAA4938464DF0D4FB3B
:1052300000287FF4B7AE94F83C3038463B7094F8C1
:105240003B30A4497B7094F83A30BB70FEF702FE05
:1052500000287FF4A7AE39469E4A3046FEF798FEF6
:1052600001239D499B4A0B7004F110038B6004F1EC
:105270002403CB604FF47A73B0FBF3F094F838302A
:10528000C0F18C00488230460B74FFF7E1F800282B
:105290007FF488AE30468F494DF0C5FB00287FF47F
:1052A00081AE8E4B88F800601E707BE6002E7FF486
:1052B00079AE8B4F3B78002B3FF474AE3046854976
:1052C0004DF0B1FB00287FF46DAE3B78002B3FF42E
:1052D00069AE387066E6834B1E78002E3FF48CAEC4
:1052E0004FF0180CC146DFF820E27F4B9EF80070AB
:1052F0000CFB073CBCE80F00A9E80F009CE803008A
:105300007B1CDBB29E4289E8030003D8013E8EF885
:10531000006070E6F61A8EF80030F6B26CE60029EE
:105320007FF4EFAE0025714B1B7852E6012293ED1E
:10533000024A93F80EA0079293ED007B01221033EE
:105340002BE7D3ED027AF5EE407A0122F1EE10FA66
:10535000099214BF4FF001084FF00008ECE7D3EDBD
:10536000027AF5EE407A0122F1EE10FA089214BFAB
:105370004FF0010C4FF0000CDEE79A7BD3ED024AB0
:1053800001270A92D8E79A7B93ED025A01260B92E5
:10539000D2E70122D3ED025A93F80EB00C92CBE77C
:1053A000012293ED026A93F80E900D92C4E7012258
:1053B000D3ED026A93F80EE00E92BDE7079B1BB196
:1053C0008DED124A8DF84CA0099B0BB18DF87880B9
:1053D000089B0BB18DF879C027B1CDED144A0A9B1B
:1053E0008DF8543026B18DED165A0B9B8DF85C303C
:1053F0000C9B1BB1CDED185A8DF864B00D9B1BB101
:105400008DED1A6A8DF86C900E9B1BB1CDED1C6A68
:105410008DF874E00AB18DED207B354812A9FFF7B5
:10542000C5FC9FED347ADDED1C7A67EE877AFDEEE0
:10543000E77ACDED047ADDED1A7A67EE877AFDEE34
:10544000E77ACDED037ADDED187A67EE877AFDEE27
:10545000E77ACDED027ADDED167A67EE877AFDEE1A
:10546000E77ACDED017ADDED147A67EE877ADDED2E
:10547000126AFDEEE77ACDED007AFDEEE67A9DF850
:10548000793017EE901A9DF878201B4856F0E0FD11
:10549000002D3FF447AF28460DF50F7DBDE8F08F96
:1054A00042F20F72154C2368013393422360F2D904
:1054B00042AB01934FF48053DD2200930020104B48
:1054C0001049429231F068FE002305462360E2E76E
:1054D000D0A80020C863002038640020CBA800209A
:1054E000CDA80020CFA8002064640020CCA8002014
:1054F000EC62002000007A4432950708AC6400207A
:10550000CB980020EE970020CEA8002010B5054CC7
:10551000204637F053FA2046BDE81040024A0349BE
:1055200066F0AABCD5A800205812002025CC03089C
:1055300010B50F4856F08CFDFFF724FA4FF4FA61CE
:1055400057F09BFB044638B9FFF71CFA4FF00001F7
:1055500057F0CDFD044648B1204657F09CFA21464D
:10556000BDE810400246034856F072BD10BD00BFB2
:105570008D950708B295070810B5A4B078220021D0
:1055800006A871F0FBFD0F23ADF8723000236A46C8
:10559000CDE90033CDE9023303CACDE904330EACC3
:1055A000CDF85900CDF85D100FCA84E80F0040F225
:1055B0009D13ADF88C30FFF7E5F906A957F0D1F946
:1055C000044630B157F067FA21460246024856F0C9
:1055D0003FFD24B010BD00BFE795070830B58BB084
:1055E000FFF7D0F90DF1060157F0FCFC0446224DFF
:1055F000FFF7C8F9294657F0CBFC2B6823602B79BD
:105600002371FFF7BFF957F0C7FCFFF7BBF957F05D
:10561000F5FC48F29A230446184A0382202101230C
:1056200002A847F0BBFA20460DF1060157F007FD2E
:10563000BDF8062002A971F07AFD20460DF10601A1
:1056400057F0F9FCBDF806200D4971F070FDFFF729
:1056500099F9214657F0A8FC044628B1A721094B27
:10566000094A0A4846F0C6F8FFF78CF92246214657
:1056700057F058FC0BB030BD209607082A96070853
:10568000339607083C96070853960708659607085F
:105690001FB50C214FF4F06002F0B2F901213D205A
:1056A00001F00AFE01213C2001F006FE0C4A01AB8C
:1056B00007CA83E8070040F201121846ADF80C2033
:1056C00001F01AFB0222074B9A614FF40032064B9D
:1056D0001A60012001F044FB05B05DF804FB00BF37
:1056E000789607080050065000E100E010B5274CFE
:1056F00002F01AF802F062F9236F23F0070343F077
:10570000030323674DF011FD214B00209B6ADB0151
:105710005EBF4FF480321F4B9A62D4F8203123F0E1
:10572000070343F00203C4F82031D4F8283123F0F2
:10573000070343F00203C4F82831D4F8403123F0C2
:10574000030343F00103C4F84031D4F8603123F07F
:10575000030343F00103C4F86031D4F8403223F06E
:10576000030343F00103C4F84032D4F8003223F0BD
:10577000070343F00103C4F80032D4F8083223F0E1
:10578000070343F00103C4F8083210BD0080005045
:105790000040005A0060005A07B501A803F03CF928
:1057A0009DF80530012B14D19DF804308BB94FF4CE
:1057B0008012114B1149586E03F580535A664B6B9A
:1057C00023F0E05343F040634B63C3025CBF0C4BD8
:1057D0005A6607F0D9FC07F06BFC4FF043FB07F06B
:1057E0008FFCFFF783FF07F079FC00F033FC03B078
:1057F0005DF804EB07F052BF008000500040005AF3
:1058000000A0005008B53A20012101F055FDBDE887
:105810000840014800F028B95C12002018B1034B81
:105820001860002070472520704700BF10650020D9
:1058300010B5054C0549206801F060F82068BDE806
:105840001040FFF7EBBF00BF941200207012002041
:1058500008B500F02DF8124B12498B4212D30020EC
:10586000114B12498B4218D3FEF772F8186850F8A2
:105870002240586840F82240013298688242F5D3AD
:105880000C33EAE70022F8E71C6844F822000132F2
:105890005C68A242F8D30833E4E70022F8E700BFCF
:1058A000D8710808E4710808E4710808E471080870
:1058B0004FF480414FF0FF30114B124A10B59A60FF
:1058C000D3F8882042F47002C3F888200E4A91660B
:1058D0000E4901F5005210660D4850660220C3F8CB
:1058E000D000BFF34F8FBFF36F8F01244FF44033CD
:1058F0000848C0F88041D36004600B6110BD00BF50
:1059000000ED00E00000000800900050008000441E
:10591000F7FF370000E100E0014B1868704700BF57
:105920009C130020084B1B6F03F00703022B04D0CD
:10593000032B05D0012B05D0FEE7044B18687047F8
:10594000034BFBE703487047008000509C13002086
:10595000A0130020002D310108B5FFF7E3FF054B30
:105960001B6FC3F303330133B0FBF3F0024B18603A
:1059700008BD00BF00800050981300200048704709
:1059800000B4C404014B1868704700BFA013002086
:10599000054B1860054B1B6F03F00703032B01D168
:1059A000FFF7DABF704700BFA0130020008000504F
:1059B00000487047002D31014FF0B4439868C0F3A0
:1059C00004400C2822D8DFE800F009212121212100
:1059D000071719211B1D1F000F4870479B6803F014
:1059E0004073B3F1807F13D0B3F1007F12D00B4A24
:1059F000002B08BF10467047094870470948704798
:105A000009487047094870470948704700207047A7
:105A10000848704708487047405DC60000093D00CF
:105A20000024F400C0EA210180BA8C010048E8019A
:105A3000005A620280841E0040420F00014B186829
:105A4000704700BFA413002005490A6813180548D1
:105A500083428CBF4FF0FF320B601046704700BF8F
:105A6000A8130020000004202DE9FF41036804462C
:105A7000B3F1B64F04D0354A934251D12F2000E004
:105A80002E20012101F018FC01230A2261792079DE
:105A900002F0A8FC01230A22E179A07902F0A2FC1D
:105AA0000A2701262A4D4FF030082279637908FB36
:105AB000025206FA03F302F501521360642008F063
:105AC00007FE2379627908FB035306FA02F203F515
:105AD000825364201A6008F0FBFD013FE3D1206887
