S015000067617373656E74696E656C2D73772E7333372B
S31508000000001200208D5B0008653B0508653B050866
S31508000010895D0508653B0508653B0508653B0508D8
S31508000020653B0508653B0508653B0508653B05080E
S31508000030653B0508653B0508653B0508653B0508FE
S31508000040653B0508653B0508653B0508653B0508EE
S31508000050653B0508653B0508653B0508653B0508DE
S31508000060653B0508653B0508653B0508653B0508CE
S31508000070653B0508653B0508653B0508653B0508BE
S31508000080653B0508A54A0008653B0508653B050864
S31508000090653B050849620008653B0508653B050898
S315080000A0653B05086D63000849630008653B05085C
S315080000B0653B05088D710308A57B030809D7060863
S315080000C005D706087173030815D706080DD706085D
S315080000D07D7B030811D70608E57B0308497C0308DE
S315080000E0653B0508653B0508653B0508653B05084E
S315080000F0855D0508653B0508653B0508653B0508FC
S31508000100653B0508D94A0008653B0508653B0508AF
S31508000110653B0508653B0508653B0508653B05081D
S31508000120653B0508653B0508653B0508653B05080D
S31508000130653B0508653B0508653B0508653B0508FD
S31508000140653B0508653B0508653B0508915E05089E
S3150800015085580308653B0508CDD30608D3D306089A
S31508000160653B0508653B0508653B0508653B0508CD
S31508000170013800D0FCE770477F4B73B51C8814F034
S31508000180010440F0F38041F60B227C4D7C4B7F2125
S31508000190C5E900347B4B7C489A8010221C60AC6011
S315080001A078F093FC7F22794B1A70794B1B6ADB0730
S315080001B006D440F20E41774B774A78484CF09CF9C2
S315080001C02146284630F0FEFA044620B940F212418C
S315080001D0734B714AF1E731F02FFA20B140F216411C
S315080001E0704B6D4AE9E74FF0011120466CF0D2FDDD
S315080001F020B140F21A416B4B674ADEE702212046DE
S315080002006CF0AAFC20B140F21D41664B624AD4E765
S315080002102046654931F06CF820B14FF48461614B92
S315080002205D4ACAE7012120466CF0ACFE20B140F2D7
S3150800023025415C4B584AC0E7012120466CF0B2FEC6
S31508000240064620B14FF48561564B534AB5E7014639
S315080002503822564878F039FC80233246204605F184
S3150800026010016CF0A0FD802804D040F22F41504BBD
S31508000270494AA2E74F4D012030F0F8FA3CA3D3E9EA
S3150800028000232C602046CDE900234FF0FF324FF0C3
S31508000290FF336CF09CFC014620B140F26E31414BB5
S315080002A0454A8AE737480FF0CBFB012108460FF08D
S315080002B03BFC012128686CF0F1FB044620B140F2B2
S315080002C0C141384B3D4A78E701464FF408723C482D
S315080002D078F0FBFB3B4A3C4B02F188011A609962B5
S315080002E002F5887102F5CC729C809A679C85374A1C
S315080002F0A3F854401965A3F87C40354B6FF06300AA
S315080003001A609C80334A344B1A60344A9C801470B5
S31508000310334A5A611CF082FB0B200FF04BFB314B22
S31508000320186020B940F2D9412F4B244A45E709F015
S31508000330D7FB20460FF064FC0822286811466CF0AB
S3150800034048FC044620B140F2DE41284B1B4A34E7FC
S3150800035010F04EFD264B27481C70274B1C70274B68
S315080003601C7002B0BDE870405DF0A3BC02B070BD61
S315080003700BE020FF22020000CE98002040740020E7
S3150800038085FE00083874002039AC00202AAC00200D
S315080003900080E00FA0B3070844B5070845B1070871
S315080003A0B9B30708A3B0070854B60708DC740020D9
S315080003B0C8B307083474002037B50708C0B507085E
S315080003C0147500201C750020A81900204AAC0020CE
S315080003D080190020CFAC0020481A0020C9AC0020A4
S315080003E0701A0020D874002000B407081BB4070848
S315080003F02DAC00209FB40708CEAC0020CDAC002061
S315080004002DE9F04F2DED028B4FF0000B99B0259D8D
S315080004109146C5E900BBC5E902BB85F839B0A5F820
S315080004203AB0A5F83CB085F83EB0D0F8D62AD0F850
S31508000430DACAD0F8DE7AD0F8E26A2A61EE61C5F83F
S3150800044014C0AF61D0F8E62A1E462A62D0F8C23A2E
S31508000450D0F8CA7AD0F8CE2AD0F8C6CA2A63C5F820
S3150800046028C0EF626B62D0F8D23A00F6F80A6B63DE
S3150800047090F8EA3A044685F83830249B00F6C227F5
S3150800048083F800B0B0F85C3A059338F0EFF8DAE98B
S31508000490002352EA030104D094F8BD1A002900F09B
S315080004A0FE8094F8EB3A93B394F8EA3A94F8ED2A76
S315080004B0013BDBB29A4204D194F8BD3A022B00F014
S315080004C059810022012194F8B83A85F83A3094F80F
S315080004D0B60AA34B85F83B0094F8B70A19EB030351
S315080004E046EB0202C5E9003285F83C0085F839106A
S315080004F002222946204638F085FC0423A4F85A3AF5
S31508000500CAE9009619B0BDEC028BBDE8F08F0DF173
S315080005103E070DF13D032A4601212046009738F093
S31508000520ABF89DF83D30BDF83E803BB194F8B83A3B
S3150800053085F83A3094F8B63A85F83B302A460DF1F4
S315080005403D0302212046009738F096F8BDF83E3064
S315080005509DF83D20984528BF98463AB194F8B73A91
S3150800056085F83C3094F8B63A85F83B302A460DF1C2
S315080005703D0303212046009738F07EF8BDF83E304B
S315080005809DF83D20984528BF9846002A40F0CE8021
S315080005902A4604210DF13D032046009738F06CF8F1
S315080005A0BDF83E300599434528BF4346994228BFC2
S315080005B019469DF83D208B46002A40F0718104F5C6
S315080005C01067B4F8B23AB4F85E2AB3FBFBF10BFB3A
S315080005D01131ABEB010B1FFA8BFB5B449BB2B3FBF0
S315080005E0F2F102FB1133CAE900969FED5B0BA4F802
S315080005F0B23AA4F85ABAADF83E203CF0B5FE51EC32
S31508000600100B4BF0CBFD0B464FF00008A0FB0B017F
S3150800061003FB0B113B687A6810EB090941EB0606E8
S31508000620B9EB0300C5E9009666EB020184F8BA8ABD
S315080006304BF00EFDDFED4B8A07EE900A9FED4A8AD6
S31508000640C7EEA87AF4EEC87AF1EE10FA1FD49FED39
S31508000650477AF4EEC77AF1EE10FA18DCD4F80809EE
S31508000660D4F80C19B9EB000066EB01014BF0F0FC6D
S3150800067007EE900AC7EEA87AF4EEC87AF1EE10FAF9
S315080006804ABF662384F8BB8A84F8BB3A3AE76523EF
S3150800069084F8BB3A19B0BDEC028BBDE8F08FB9EB14
S315080006A002010A914FF00001B4F85A0A66EB0302F8
S315080006B09FED290B0B92CDE906013CF055FE51EC56
S315080006C0100B4BF06BFD8C46069B0B9AA0FB0301A7
S315080006D00CFB0311030943EA017302930A9BCDE954
S315080006E01001C31A08934FEA2113039361EB02031F
S315080006F00993DDE90823DDE902BC93457CEB030396
S31508000700C0F265810A9B1B1A0C930B9B63EB0103D2
S315080007100D93DDE90C23DDE90201904271EB030339
S31508000720BFF6BFAE6423249A1370BAE64FF6FF727B
S315080007300F4B94F8B61A5B7B85F83B1004EB430322
S31508000740B3F8A0389342ADF83E303FF421AFAB681A
S3150800075043F40053AB601BE700000000D01263416E
S31508000760C00E1602286B6E4E0000704200007043E1
S315080007704834080894F8EC3A002B3FF4A2AE94F8F3
S31508000780BF3A94F8BE0A18444AF0F6FF41EC100B3B
S3150800079094F8C00A00F044FB94F8BE2A0130C3B2AC
S315080007A09A4284F8C03ABFF48CAE38687968BA6859
S315080007B0FB680DF14C0CE046ACE80F0038692F4693
S315080007C0CCF80000BDF84C004AF0C6FF02940D466E
S315080007D004460DF15E0B38F8020F4AF0BDFF0246DB
S315080007E00B46204629464AF07BFEC34504460D467D
S315080007F0F1D14BF0D3FC029C3D4694F8BF7AA7FB97
S31508000800002301FB07334FEAC20CDF001CEB020C86
S3150800081047EA527743EB07074FEA8C01BF0047EADE
S315080008209C77B1EB020C67EB030E4FEA8E0747EA9B
S315080008309C77BE4690484FEA8C0CA2FB007800FBDA
S31508000840038817EB090348EB0602C5E90032294677
S3150800085000222046CDE910CE38F0D4FADDE910782A
S315080008600123002F84F8C03A78F10003C0F2D7803C
S315080008700A220023384641464BF078FC0A220546F0
S315080008800023384641464BF071FC002B08BF052A69
S3150800089080F0E580A8B2A4F85A0ACAE9009631E6BB
S315080008A0012385F8393094F8B52A0DF13D0302F293
S315080008B0375234F8121010AAA98194F8B70A13A966
S315080008C085F83C0094F8B67A204685F83B7039F0EE
S315080008D089FBDDED137AF5EE407AF1EE10FA0ED1CA
S315080008E094F8BA3A5BB994F8B53A04F5106703F286
S315080008F0335334F81330EB81C7E9009661E604F503
S31508000900106704F60818D7E90023D8E900018242DF
S3150800091073EB010CCDE9102303DA02460B46CDE949
S315080009201001B9EB020066EB03014BF091FBDFED1A
S31508000930537A07EE100A87EE270AF1EE000A8DEDC4
S31508000940130A50F0EFFFF0EE080AB0EE408A9DED6C
S31508000950130A50F0E7FFDFED4A6ADFED4A7A9DEDAC
S31508000960137A28EE268A20EE270ADFED476A67EE15
S31508000970077A38EE008A67EEA67ADFED446A78EEE3
S31508000980277A27EE267ADFED426A77EE877A9FED99
S31508000990417A77EEA67A67EE877AF8FE677AFCEEF2
S315080009A0E77A17EE902A94F8BA3AEA8143BB00939D
S315080009B09FED390A4A4633461621204639F020FA71
S315080009C094F8BA3A002B97D0C8E90096F9E59FED56
S315080009D0280BDAE90067B4F85A8A3CF0C5FC51ECF2
S315080009E0100B4BF0DBFB6424A0FB082301FB083348
S315080009F0961947EB0303C5E90063249B1C7081E540
S31508000A000023B7EE000A00934A46334616212046CD
S31508000A1039F0F6F9AB6843F40013AB60D0E7B8F1E8
S31508000A20004F08BF002F1DD07F4268EB48080A22F6
S31508000A300023384641464BF099FB0D460290414645
S31508000A4038460A22002303954BF090FBDDE90201A4
S31508000A50002B08BF052A08D2404280B21BE7681C53
S31508000A6080B218E743F2333015E7C04380B212E785
S31508000A7000000000D0126341003B5808286B6E4EF8
S31508000A80598207B0DFE0C2343767D9B85A8E863C38
S31508000A906A92E43E00007A4400000000000000006C
S31508000AA02DE9F04F2DED048B044600200D46164621
S31508000AB098468DB01A9F0DF1080904F6782C04F6AD
S31508000AC0982A3870CE46DCF80000DCF80410DCF80A
S31508000AD00820DCF80C300CF1100CD445AEE80F00F9
S31508000AE009F11009EED1DCF80000BCF80430C9F8A9
S31508000AF00000A9F8043076BB0C2384F8EB6A3B7037
S31508000B00204602A937F0E6FD002840F0248197F92F
S31508000B100000002856DB0023B94EDFF8F89203E000
S31508000B205D1C1A2D2B464DD046FA03F2D507F7D58C
S31508000B3013F809200CA901EB420002F23B5130F8E8
S31508000B402A2C34F811005D1C9042E9B2E9D02046FF
S31508000B5037F076FFE5E72B79013BDAB2012A40D96F
S31508000B6000229FEDA88A9FEDA89ADFEDA88ADFF8F4
S31508000B7090B205EBC60684F8EB2A0092CDF80480FD
S31508000B8012E04BFA03F2D20711D5012202FA03F357
S31508000B90009A13EA020A00F09380F3233B700835A3
S31508000BA0B54209D02B79013BDBB2192BE9D90A23C7
S31508000BB00835B5423B70F5D197F90030DDF8048069
S31508000BC0002B9DDA98F80030072B22D8F1234FF036
S31508000BD0000E3B7088F800E00DB0BDEC048BBDE854
S31508000BE0F08FD5ED007AF5EE407AF1EE10FAB7D12E
S31508000BF047F23053BDF808209A4200F0ED80BDF860
S31508000C000A209A4200F0E8800B234FF0000E3B7052
S31508000C10E0E700259FED7B6AAE46DFED7B5ADFF8FD
S31508000C20F8A177497A4FDFF8ECC1DDF86CB002E03D
S31508000C300135182DCED00122AA4012EA0A0FF7D0A4
S31508000C400EF1010E5FFA8EFE0EF1FF360BEBC606AD
S31508000C50013586ED006A00234FF6FF7935710CE001
S31508000C60484507D007EE900AF8EEE77A85EEA77AA8
S31508000C7086ED007A01331A2BDBD041FA03F0C00760
S31508000C80F8D557F823000242F4D0D6ED007AF4EEF0
S31508000C90467AF1EE10FA13F80C0000F23B5034F8DD
S31508000CA01000DDD007EE100AB8EEC77AC5EE876ADF
S31508000CB0F4EEE67AF1EE10FA48BFC6ED006AD9E717
S31508000CC0D5ED007AF5EE407AF1EE10FA009A42EA8E
S31508000CD00302009229D1F6233B70D5ED007AF5EE92
S31508000CE0407AF1EE10FAB0EE677A1ED1B5EEC07A08
S31508000CF0F1EE10FA31DCB5EE407AF1EE10FA14BFD7
S31508000D004FF0FF3300231FFA83F897F90030002BC2
S31508000D107FF445AF3F4A2B79134413F8013C0CAADC
S31508000D2002EB430323F82A8C39E7F4EE487AF1EE0E
S31508000D3010FA4ED0B2EE047AF4EEC77AF1EE10FA53
S31508000D4004DCF4EEE87AF1EE10FA4DD5F2233B70A6
S31508000D5095ED007ACAE73870DBE6B4EEC87AF1EEAC
S31508000D6010FAC8D5C9EE077AF8FE677AFCEEE77A74
S31508000D7017EE903A1FFA83F8264A2B79134413F88C
S31508000D80013C534403F2A74334F813900AF1130ABB
S31508000D9048464AF0E1FC18A3D3E900234AF056FD79
S31508000DA041EC100B3CF0E0FA51EC100B4BF010F84C
S31508000DB080B2A9EB00039BB2814443451FFA89F927
S31508000DC001D8C145A1D2BAF1720FD5D1F4233B702F
S31508000DD0E5E6B0EE677A8EE794F9BB3A3BB90122AD
S31508000DE09E4684F8BA2AF5E6B0EE677A7EE74FF0B3
S31508000DF0000E3B70EEE600BF7B14AE47E17A843FF7
S31508000E00EF79F20300FF7F470000C8420E74DA3A12
S31508000E1060340808FC3408080F20E00000000000D1
S31508000E202DE9F84F2DED028B55EC104B07463CF09B
S31508000E309BFA51EC100B4AF0CBFFC6B230464AF08B
S31508000E409BFC22462B464AF069FF40B1BDEC028B5B
S31508000E50B7FBF6F306FB1370C0B2BDE8F88F384649
S31508000E604AF07AFC002241EC180B0023204629465A
S31508000E704AF054FFB0BB45EC104B50F0E9FB204656
S31508000E8053EC102B29464AF049FF58BB22462B46FD
S31508000E9051EC180B4AF004FE21F0004700221E4BC5
S31508000EA0394606464AF01CFB41EC100B50F0D0FBC5
S31508000EB0304653EC102B39464AF010FB0022804688
S31508000EC08946164B304639464AF0C0FC29F0004B95
S31508000ED002460B46404659464AF034FF10B19FED8C
S31508000EE00C0B07E0B0EE480AF0EE680A45EC114B29
S31508000EF050F02AFC3CF038FA51EC100B4AF068FF27
S31508000F00BDEC028BC0B2BDE8F88F00BFAFF300801E
S31508000F1000000000000000000000E03F0000B03CB8
S31508000F202DE9F04F00224FF0090BDFED205A9FED17
S31508000F30206ADFED206AB1EE047ADFED1F7A4FF002
S31508000F40FF346FF00045DFF880A0DFF88090DFF807
S31508000F508080DFF880E0DFF880C0184F184E194906
S31508000F60C0ED015A80ED046AC0ED056A80ED067A87
S31508000F70C0ED097AC0E9164580F800B0C0F828A087
S31508000F80C0F82C90C0F83880C0F83CE0C0F840C0E3
S31508000F90C764066501668260C260C2610262026356
S31508000FA0426342648264BDE8F08F00BF07F0963D55
S31508000FB01C7CE13D3480D73FCDCC0C3E5DFEE33E44
S31508000FC0363C85BF0000404067D5273EE63F4CC00B
S31508000FD091ED3CBFFB3A403FB15083402DE9F047C5
S31508000FE086B004AB05AE04460078CDE900360DF1AF
S31508000FF00F030D463CF088F99DF90F00E0B94FF054
S31508001000010A04F1400904F12C0804F118075FFAF3
S315080010108AF3013B032B24D8DFE803F01D171102DE
S315080010204A463146284639F043FB0AF1010ABAF125
S31508001030060FECD19DF90F0006B0BDE8F0874246D1
S315080010403146284639F034FBEFE73A46314628461A
S3150800105039F02EFBE9E731462846221D39F028FBF0
S31508001060E3E73146284639F0AFF884ED180ADCE79D
S315080010702DE9F0432DED048B83B0BDF840400546BD
S31508001080DDE90E89B4F5E16F17461E46B0EE408AD3
S31508001090F0EE608A6BD028D941F270739C422ED04C
S315080010A047F230539C4208BF012408D1D5E91601FE
S315080010B04FF0FF326FF000433CF002FA08B39FEDA1
S315080010C0309A4FF0FF326FF00043384631463CF015
S315080010D0F7F908B9C5E9167638EE490A30EE680A0E
S315080010E003B0BDEC048BBDE8F083642C05D0B4F5E1
S315080010F0967F08BF0424D9D0E1E70524D6E7022461
S31508001100D4E7D5E91601B8EB000069EB01014AF00E
S315080011106FFB19A3D3E900234AF0C2FC0B4602462B
S31508001120CDE900234AF074FEDDE9002305EB8404CB
S3150800113007EE900AD4ED009A94ED057A67EEA99A1F
S3150800114094ED0A9A1046194627EE899A79EE879AF7
S315080011504AF07CFB4AF05CFE07EE900A94ED0F7AA3
S3150800116079EE277A77EE877A89EEA79AA9E790ED3E
S31508001170189AA6E7AFF300800000000065CDCD41C0
S31508001180000000002DE9F047052482B00746904686
S3150800119000780DF103020D468DF803403CF0D6F8B1
S315080011A09DF80360019036B3012407F1400A07F160
S315080011B02C09E3B2013B042B0BD8DFE803F031100E
S315080011C02A2303004146284697ED180A01AA39F052
S315080011D013F8A64204F101030CD01C46E9E701AB5B
S315080011E04246294607F1180039F0C4F9A64204F127
S315080011F00103F2D10198C0F3072328706B7002B07F
S31508001200BDE8F08742462946504601AB39F0B2F9A7
S31508001210DFE742462946484601AB39F0ABF9D8E73D
S315080012204246294601AB381D39F0A4F9D1E700BF7B
S315080012302DE9F043012485B08046914600780DF1EA
S315080012400B020E468DF80B403CF080F89DF80B50CB
S31508001250039035B1002403AF54B10134A542FBD144
S315080012600398C0F307233070737005B0BDE8F083A8
S31508001270D8E916014B463246009739F00BF8ECE7E9
S3150800128070B586B004AB05AE04460078CDE90036E5
S315080012900DF10F030D463CF037F89DF90F0008B124
S315080012A006B070BD3146284638F0D8FFC4E91601A5
S315080012B09DF90F0006B070BD70B590B00E46044695
S315080012C006A909AD81E80C000023179928460F9353
S315080012D03EF0CCFB9DF858304FF00001B26820462E
S315080012E00393159B049502939DF850300193079B31
S315080012F09FED050B0093069B70F05AFB28466DF090
S31508001300ADF9204610B070BD0000000000000000D6
S3150800131070B590B00E46044606A909AD81E80C00E2
S315080013200023179928460F933EF012FC169B4FF0A0
S315080013300001B26820460393159B049502939DF815
S3150800134050300193079B9FED060B0093069B70F0A8
S3150800135057FC28466DF082F9204610B070BD00BFD4
S31508001360000000000000000070B590B00E4604466C
S3150800137006A909AD81E80C000023179928460F93A2
S3150800138040F00EFD9DF858304FF00001B268204637
S315080013900393159B049502939DF850300193079B80
S315080013A09FED050B0093069B6DF05FFC28466DF0DC
S315080013B055F9204610B070BD00000000000000007E
S315080013C070B590B00E46044606A909AD81E80C0032
S315080013D00023179928460F9340F028FD169B4FF0D7
S315080013E00001B26820460393159B049502939DF865
S315080013F050300193079B9FED060B0093069B6DF0FB
S315080014000DFD28466DF02AF9204610B070BD00BFC4
S3150800141000000000000000002DE9F04F1F460023E1
S31508001420044688464FF0000A4FF0000B2DED028B5C
S315080014309DB018939F4B13921B681846059377F037
S3150800144091FC0546CDF85C80179B1A782B2A4ED05E
S315080014503BD80D2A34D8082A34D8002A3ED000238F
S315080014600A93179E3378302B40F0B080737803F0D8
S31508001470DF03582B68D10A9B17A9029720460193C8
S3150800148018AB8D4A009319AB4EF078FC10F007079D
S31508001490054605D0062F2CD10136002317960A9348
S315080014A0139B002B40F08E850A9BEBB152460BF13D
S315080014B0004343EC102B1DB0BDEC028BBDE8F08F4A
S315080014C0202ACCD101331793BEE72D2AC7D1012292
S315080014D00A925A1C17925B78002BC2D1139BCDF83F
S315080014E05C80002B40F06C8552465B46E1E70022A3
S315080014F0EEE7189A3AB135211AA878F0B7F818998C
S3150800150020464EF05FFF013F042F06D8DFE807F0BC
S315080015100A0314170A00DDE91AAB2807C0D54BF0F1
S31508001520004BBDE7DDE91AA3199A23F4801302F2EA
S31508001530334243EA025BF0E7DFF880B1EDE76FF08C
S31508001540004B4FF0FF3AE8E7179B5A1C17925B7857
S31508001550302BF9D0002BA3D001234FF000090493B8
S315080015600A22179B4F46CDF81C90089317980678C1
S31508001570A6F13003D9B209292AD92A46059977F05E
S31508001580F9FBA0B3002032463D4603460590652A7E
S3150800159001D0452A18D11DB9049A02439ED00025C8
S315080015A0DDF85C8008F10102179298F801202B2AD1
S315080015B075D02D2A7BD04FF0000CA2F130010929F5
S315080015C040F28280CDF85C8000269DE00023C4E7C7
S315080015D0082F00F1010007F10107D4BF079902FBA4
S315080015E009391790DCBF02FB01330793BEE7179B47
S315080015F05A1917925A5D002F36D03D460590A2F12A
S315080016003003092B12D90123C1E7179B01305A1C55
S3150800161017925A78302AF8D0A2F13103082B00F233
S31508001620D68405900020179B05460893303A00F1AA
S31508001630010313D0059900EB050E19442B460591B5
S315080016400A21734512D12B180135082B05441CDCD9
S3150800165007990A2303FB012307930023179A1846C1
S31508001660511C17915278CAE73846D3E7082B04DC91
S31508001670079E4E4307960133E3E703F1010CBCF1DD
S31508001680100FD8BF01FB09F9F5E7102DDCBF0A23B7
S3150800169003FB0929E1E70023059301237CE74FF0C3
S315080016A0000C08F10202179298F8022085E74FF01D
S315080016B0010CF6E780800808487C08080000F07FDF
S315080016C0179A511C17915278302AF9D0A2F1310194
S315080016D008293FF679AFA2F1300E179A0692179AA3
S315080016E0511C17915278A2F13006092E37D9069E59
S315080016F0891B44F61F66082902DC7645A8BF76468C
S31508001700BCF1000F00D07642002D4DD1049901435B
S315080017107FF4C6AE002B7FF4E1AE692A27D024DC1D
S31508001720492A24D04E2A7FF4D9AE9F4917A877F0C4
S315080017302AFE00283FF4D2AE179B1B78282B2DD102
S315080017401AAA9A4917A877F032FE052826D11B9BB4
S31508001750DDF868A043F0FF4B4BF4E00BA0E60A2146
S3150800176001FB0E2EAEF1300EB9E76E2ADBE7904983
S3150800177017A877F008FE00283FF4B0AE179B17A805
S315080017808C49013B179377F0FEFD10B9179B01337F
S315080017901793DFF830B24FF0000A81E6864800F06A
S315080017A03FFC5BEC10AB7BE6059B002F08BF2F4682
S315080017B0102D0798A6EB0303A846A8BF4FF01008FC
S315080017C0069349F0C9FF092D82468B4613DD7B4BEC
S315080017D003EBC80353E912234AF038F882468B46CE
S315080017E0484649F0B9FF02460B465046594649F065
S315080017F077FE82468B460F2D38DC069B002B3FF47E
S315080018004FAE24DD162B0BDC6C49524601EBC301A7
S315080018105B46D1E900014AF019F882468B463FE655
S31508001820C5F12503069A934220DBC5F10F05634CE3
S3150800183052465B4604EBC501D1E900014AF006F8B9
S31508001840069B5D1B04EBC504D4E90023E3E7069B6E
S3150800185016330BDB059B504659469E1B574B03EB2D
S31508001860C606D6E900234AF01BF9D6E7A5EB080811
S31508001870069B9844B8F1000F74DD18F00F030AD0E0
S315080018804E49524601EBC3015B46D1E9000149F0D6
S31508001890DDFF82468B4638F00F084FD0B8F59A7FA1
S315080018A022DD00252E46079505952223DFF814B17B
S315080018B04FF0000A2360079B002B3FF4F1AD1899FF
S315080018C020464EF07FFD059920464EF07BFD3146B9
S315080018D020464EF077FD079920464EF073FD2946BF
S315080018E020464EF06FFDDBE5354B4FEA281850468B
S315080018F05946049300239946B8F1010F21DC0BB130
S3150800190082468B462E4BABF1547B524603EBC909F4
S315080019105B46D9E9000149F099FF2A4B0A468246F7
S315080019200B4029498B42BCD8A1F580118B4286BF52
S31508001930DFF898B04FF0FF3A02F1547B0023049386
S3150800194083E018F0010F05D0049BD3E9002349F082
S315080019507DFF0123049A09F101094FEA6808083254
S315080019600492C9E7EAD0C8F1000818F00F020AD0B5
S31508001970124B5046594603EBC203D3E900234AF0FB
S315080019808FF882468B465FEA2818D7D0B8F11F0F22
S315080019901EDD00252E460795059522234FF0000AE1
S315080019A04FF0000B236086E791F207085C7C080875
S315080019B0457C0808E7830808A8BA07083881080894
S315080019C0108108080000F07F0000A07CFFFFEF7F71
S315080019D018F0100350465946DFF8A89318BF6A2333
S315080019E00493002318F0010F04D0D9E9002349F025
S315080019F02DFF01235FEA680809F10809F2D10BB146
S31508001A0082468B46049BC3B1CBF30A525946C2F1B0
S31508001A106B03002B11DD1F2B40F32181342B4FF074
S31508001A20000ADBBFC2F14B024FF0FF334FF05C7B7D
S31508001A3003FA02F2D8BF02EA010B0022002350463D
S31508001A4059464AF06BF90028A3D1079B3A460899EC
S31508001A50204600932B464EF01FFD079000283FF4C2
S31508001A6020AF059B00259E1B069B002BB4BF334663
S31508001A7000232E460C93069B23EAE3731293079BD7
S31508001A80204659684EF05EFC059000283FF40DAFDD
S31508001A90079B0C301A6903F10C010232920076F0AA
S31508001AA0EDFF1AAA19A920464BEC10AB4EF0D0FF51
S31508001AB018904BEC18AB00283FF4F7AE01212046EE
S31508001AC04EF034FD064600283FF4EFAE199B049904
S31508001AD0002BA3EB0108A9BF0C9A129A03EB020983
S31508001AE0129FB8BFD71A1A9AA14B9044B8BFDDF80F
S31508001AF03090C2F1360208F1FF38984580F2C3806B
S31508001B00A3EB080301211F2BA2EB030200F3AE800F
S31508001B1001FA03F30D930023089309EB0208049BCB
S31508001B201744C1451F444B46A8BF4346BB42A8BFFE
S31508001B303B46002BC2BFA8EB0308FF1AA9EB030913
S31508001B400C9B002B17DD31461A4620464EF0ACFD9D
S31508001B50064600283FF4A9AE0146189A20464EF0DC
S31508001B60FBFC0B9000283FF4A0AE189920464EF0D7
S31508001B7029FC0B9B1893B8F1000F00F38980069B8C
S31508001B80002B08DD129A204605994EF08DFD05902A
S31508001B9000283FF48AAE002F08DD3A46059920460C
S31508001BA04EF0DCFD059000283FF47FAEB9F1000F3A
S31508001BB008DD31464A4620464EF0D0FD0646002846
S31508001BC03FF473AE059A204618994EF037FE05463F
S31508001BD000283FF46AAEC36831460B930023C360FE
S31508001BE077F0F5FC00285DDA0B9B53EA0A037FD1F0
S31508001BF0CBF31303002B7BD12BF000431B0D1B05E6
S31508001C00B3F1D66F74D96B6913B92B69012B6FDDE4
S31508001C102946012220464EF0A1FD3146054677F0B9
S31508001C20D6FC002864DD04995B46524A00297FD019
S31508001C3002EA0B01B1F1D66F7ADCB1F15C7F7FF76E
S31508001C40ACAE4D4B50465946002249F0FFFD0B46B7
S31508001C5082468B46034304BF222323602FE64FF0B8
S31508001C60FF3202FA03F303EA0A0AE6E6C8F17F48F6
S31508001C700D9108F57F0808F57B4808F1E20801FA96
S31508001C8008F3089349E70023089301230D9344E7D3
S31508001C904246189920464EF061FD189000287FF4B8
S31508001CA06EAF02E65F466FD10B9ACBF3130342B3CE
S31508001CB0324A934228D1049B5146EBB12D4B4FF043
S31508001CC0FF323B40B3F1D46F19D81B0DC3F16B0338
S31508001CD002FA03F3994217D1294B9F4202D10131E7
S31508001CE03FF4E3AD234B4FF0000A3B4003F5801B5E
S31508001CF0049B002BA5D1E2E54FF0FF33EAE7134634
S31508001D00E8E753EA0A038ED0089BDBB13B42EFD0E3
S31508001D100B9B5046049A5946C3B177F068F80246B9
S31508001D200B4651EC180B49F0DBFB82468B46DFE786
S31508001D3013404FF0FF3AA3F580136FEA135B6FEA7F
S31508001D400B5BD5E70D9B13EA0A0FE0E777F04FF830
S31508001D5002460B4651EC180B49F0C0FB0022002343
S31508001D6082468B4649F0DAFF0028C1D015E600BF47
S31508001D7002FCFFFF0000F07F00005039FFFF0F0054
S31508001D80FFFFEF7F707C08083146284677F03BFC5A
S31508001D9000224FF0804310EE100A59EC108B49468A
S31508001DA049F0D0FF00287AD00B9B002B4AD000229E
S31508001DB0934B4FF00008DFF84892CDE90823914B82
S31508001DC03B400D930D9A904B9A4240F0B080A7F194
S31508001DD0547BDDE908014BEC10ABCDE908014EF068
S31508001DE0BDFDDDE9080153EC102B49F02FFD5246E5
S31508001DF05B4649F075FB0B4682498246834A194081
S31508001E00914260D918EE903A02F15472934204D185
S31508001E1018EE103A01333FF448ADDFF8FCB14FF045
S31508001E20FF3A189920464EF0CDFA059920464EF00D
S31508001E30C9FA314620464EF0C5FA294620464EF0E4
S31508001E40C1FA1CE6BAF1000F1BD1CBF31303F3B9A1
S31508001E5000226B4B4046494649F06AFFD0B94046D6
S31508001E60494600226A4B49F0F1FC8046894609F149
S31508001E700043CDF850801593DDE91423CDE90823F6
S31508001E809DE7BAF1010F02D1002F3FF486AD00227B
S31508001E90604B8EE74FF00008DFF87491E7E75C4B7C
S31508001EA040464946002249F0D1FC0B9B80468946AC
S31508001EB033B901F100430E900F93DDE90E23DDE7F8
S31508001EC0CDE90E89F9E703F1547B049B002BA8D1D1
S31508001ED02BF000430D9A1B0D1B059A42A1D14046D3
S31508001EE049464AF05BF949F083FC02460B464046F0
S31508001EF0494649F0F3FACBF313030B9A804643EAB3
S31508001F000A038946134355D035A3D3E9002349F07C
S31508001F100FFF00287FF4D3AC4046494632A3D3E9E5
S31508001F20002349F023FF00283FF47BAFC7E4049B56
S31508001F3033B30D9BB3F1D46F22D8404649462CA340
S31508001F40D3E9002349F0FEFEA0B14946404649F0D0
S31508001F503FFF012838BF012049F0FEFB0B9B804656
S31508001F60894623BB01F1004310901193DDE9102344
S31508001F70CDE90823099B0D9A03F1D6639B1A0993A9
S31508001F80B0EE480AF0EE680ADDE90801CDE9080175
S31508001F904EF0E4FCDDE9080153EC102B49F056FC41
S31508001FA053EC182B49F09CFA82468B468DE7CDE90F
S31508001FB01089DBE710A3D3E9002349F0B9FEB2E79D
S31508001FC000230A93179B139A1360FFF76DBA652AC5
S31508001FD03FF461AB452A3FF45EAB0123FFF796BB9E
S31508001FE09535A094FFFFDF3F35E5AF350000E03FAC
S31508001FF00000C0FFFFFFDF419535A094FFFFCF3FEC
S315080020000000F03F0000F07F0000E07FFFFF9F7CAC
S315080020100000E03F0000F0BFFFFFEF7F0000000078
S315080020209FED010B704700BF000000000000F87F1D
S315080020302DE9F04F1D460023894683462DED048B76
S31508002040D3B019930B924FF0A7FA03681B7816932F
S31508002050B9F80C301C061AD5D9F81030BBB940218E
S3150800206058464BF03DF8C9F80000C9F8100058B9B1
S315080020700C23CBF800304FF0FF330D930D9853B077
S31508002080BDEC048BBDE8F08F4023C9F8143000235B
S315080020909FED8D7B0F931193B0EE478AF0EE678A1A
S315080020A00D930B9B1C4653F8042B0AB1252AF9D12C
S315080020B00B9BA3420DD0E61A0B9A4946584633465F
S315080020C077F03EFB013000F0E8800D9B03EBA6039A
S315080020D00D932368002B00F0E0800021221D0A20C2
S315080020E04FF0FF340E460F4615910C9152F8043BFB
S315080020F009930B92099B392B4CD81F2B4FD9099B57
S31508002100203B192B4AD8DFE803F06B494970494947
S3150800211049494949736C497A7D49989B9B9B9B9B86
S315080021209B9B9B9B332B39D8DFE813F0EB003800D9
S31508002130EB0038003800380038009D0038003800B9
S3150800214038003800380038003800380038003800C1
S3150800215038002103380038003800380038003800C5
S315080021603800380038003800A600D700EB00EB002E
S31508002170EB00A000D70038003800A3003800890219
S315080021809A02A702A3003800C602380016033800D0
S3150800219038004200099B453B332BC3D911B1099B33
S315080021A0002B7AD0099B00200A952A93159081E086
S315080021B001B11596464B2A460F93F80652F8043B8A
S315080021C00A9202D4790648BF9BB2FA0706D52BB104
S315080021D0302247F002071A92099A1B9202225AE203
S315080021E00EB9099E01210B9A80E747F00107FAE725
S315080021F055F8043B002B0C93F5DA5B420C9347F039
S315080022000407F0E70B9A52F8043B2A2B099312D1DC
S3150800221055F8044B0B9244EAE474E4E700FB0434F3
S3150800222052F8043B0993099B303B092BF6D944EA3B
S31508002230E4740B925EE70024F5E747F08007D2E7DF
S3150800224000230C930C9A099B00FB0233303B0C933A
S315080022500B9B1A4652F8043B0993099B0B92303B99
S31508002260092BEFD946E747F00807BCE747F04007D0
S31508002270B9E747F01007B6E701B115962B1DF80622
S315080022800A9327D428684AF055F9411C0ED1B9F8A3
S315080022900C3043F04003A9F80C30B9F80C3013F0B1
S315080022A0400F0D9B18BF4FF0FF33E6E62A9000203B
S315080022B02B90159080460124064605460DF1A80A7E
S315080022C008E100BFAFF30080000000000000000036
S315080022D0188308082B682A93E9E701B115962B1D80
S315080022E0FA060A9307D52B68002B02DA2D225B42E1
S315080022F015920122D1E117F0400F2B6818BF1BB2C7
S31508002300F2E701B1159607354FF0FF3225F00703BE
S31508002310B3EC027BB0EE478AF0EE678A0A93B0EE1A
S31508002320479A18EE903A23F0004309EE903AA54BE7
S3150800233051EC190B4FF076F9F0B94FF0FF32A14B7B
S3150800234051EC190B49F0FEFCB0B90022002351EC00
S31508002350180B49F0EDFC08B12D2315939A4B9B48B1
S31508002360099A27F080074FF000080324472A94BFEC
S315080023709A4682464646D1E353EC182B51EC180B85
S315080023804FF050F940B118EE903A9148002BBCBF77
S315080023902D2315938F4BE3E7631C00F00D81099BF2
S315080023A023F02003472B02D1002C08BF012447F451
S315080023B080730DF1A80818AE17AD0E93282358465A
S315080023C0CDF81880079319AB03960593099B0295D8
S315080023D004930E9BCDE9004353EC182B77F0D5FAFE
S315080023E04045824640F0EA801999282940F3E6805C
S315080023F0890058464AF074FE804600283FF447AFE5
S31508002400199B0295CDE9060319AB58460593099B16
S31508002410CDE903630E9BCDE9004353EC182B77F007
S31508002420B4FA8246099B189D23F02003472B40F0F7
S31508002430D580EE1C199B02DBAC4280F2EB80099B2F
S31508002440023B09936B1E099A002B18931C92BABF7C
S31508002450C5F101032D222B22092B1D9240F3D180B1
S315080024602AA80A250246043893FBF5F405FB14311D
S31508002470303142F8041C194623466329F2DC30330E
S31508002480A2F1080140F8043C1EA82AAB9942C0F004
S31508002490B3800DF1B304A41A0B3A24F00304934253
S315080024A038BF00241EAB1C441CA8241AA310119381
S315080024B0199B012B03EBA40402DC17F0010501D0DC
S315080024C001340025179E002E00F07D812D230E9FD6
S315080024D000261593A6423346B8BF23460E93159B8E
S315080024E013B10E9B01330E9317F0020312931EBF0E
S315080024F00E9B02330E9317F08403139300F0658145
S31508002500159B43B1042315AA4946584677F018F98E
S31508002510013000F06D81129B43B108231AAA49467F
S31508002520584677F00DF9013000F06281139B802B35
S3150800253013D10C9B0E9A9B1A002B10930DDD109B42
S31508002540254A102B00F369819B00234A49465846C1
S3150800255077F0F6F8013000F04B81361B002E0CDDC3
S31508002560102E1D4A00F36481B3001B4A494658469B
S3150800257077F0E6F8013000F03B81F90500F161815A
S31508002580A30052464946584677F0DAF8013000F07B
S315080025902F817A0700F17F820E99DDE90C238A42A2
S315080025A0ACBF9B185B180D93B8F1000F56D0414687
S315080025B058464AF049FD51E00624F8E64FF000086F
S315080025C030E700BFFFFFEF7F94820808A48208085F
S315080025D0C4820808B4820808A4830808099B662BE5
S315080025E07FF430AF07F00103002D43EA04030EDD44
S315080025F0FBB101342C4465E751F8044B40F8044B11
S3150800260044E7302220AC13441E921F934CE793B143
S31508002610023457E79D4205DBFC070ED56C1C672381
S3150800262009934FE7002DD4BFC5F1020401241C44C9
S31508002630F5E72C4646E7012444E72C46EFE701B1C7
S3150800264015962B1DF8060A9303D52B680D9A1A6062
S3150800265004E07906F9D52B680D9A1A800A9D20E5BB
S315080026602A4617F0100152F8043B0A9203D117F0D4
S31508002670400210D09BB200220DE02A46782147F08E
S31508002680020752F8043B09910A923022CDE91A2131
S31508002690A44A0F92022200211591661C00F01882A6
S315080026A027F08001002B40F01782002C00F0838071
S315080026B0012A40F0148260E02B46002617F0100528
S315080026C053F804AB15960A932DD1621C14D02246F2
S315080026D029465046264676F0B3F908B1A0EB0A0615
S315080026E0272E0ED9711C584689004AF0F9FC002895
S315080026F03FF4CDAD804607E0504676F033FB0646FC
S31508002700EEE74FF000082AA834460023B34204D166
S315080027100026824640F82360DCE61AF8032040F8D3
S3150800272023200133F2E7631C11D022463146504676
S3150800273076F0D3FC804600283FF41CAEA0EB0A08CE
S315080027404FEAA8084445A8BF4446B04612E6504694
S3150800275076F032FC0446F8E72A46FE0652F8043BB1
S315080027600A9202D47D0600D59BB2012293E701B1F5
S3150800277015966D4B1FE5092B04D830330DF5A27A53
S315080027805193C3E10DF5A47A0A25B3FBF5F005FBD1
S31508002790103230324AF8042D1A460346092AF4D86C
S315080027A0B4E103F00F020F981B0950F822204AF8EB
S315080027B0042DF6D1AAE11AB9F80701D53023DDE7C9
S315080027C00DF5A47AA2E10E9F84E60C9B0E9A9B1A3D
S315080027D0002B10937FF794AE109B102B11DC9B00F7
S315080027E0524A4946584676F0ABFF01307FF488AE28
S315080027F0B8F1000F3FF451AD414658464AF024FC63
S315080028004BE54023494A4946584676F099FF013038
S31508002810EED0109B103B1093DEE7402349465846FE
S3150800282076F08EFF0130E3D0109B103B109386E6BE
S3150800283040234946584676F083FF0130D8D0103EEB
S315080028408EE6099B652B40F2E4800022002351ECBA
S31508002850180B49F063FA58B30423354A49465846D3
S3150800286076F06EFF0130C3D0DDE918239A4202DB09
S31508002870FB077FF58EAE042316AA4946584676F01E
S315080028805FFF0130B4D0199C013C002C7FF781AE64
S31508002890284D102C02DCA300264A73E640232A465C
S315080028A04946584676F04CFF0130A1D0103CF0E777
S315080028B0189B002B40DC04231D4A4946584676F0EF
S315080028C03FFF013094D0DDE91832134307F00102C7
S315080028D013433FF45EAE042316AA4946584676F0DB
S315080028E02FFF013084D0189C002C0CDA6442114D5D
S315080028F0102C0BDCA3000F4A4946584676F020FFF9
S3150800290001303FF475AF199B9B003AE640232A46EF
S315080029104946584676F014FF01303FF469AF103C3B
S31508002920E6E700BF18830808D48208086483080805
S315080029305C830808A4830808199C44F31D04AC4268
S31508002940A8BF2C46002C1FDC002CACBF2E1B2E4625
S31508002950002E0BDD724C102E1FDCB300704A494660
S31508002960584676F0EDFE01303FF442AFAD00DDE9A2
S3150800297018239A421CDA042316AA4946584676F0C2
S31508002980DFFE013016D133E7A300524649465846C2
S3150800299076F0D6FE0130D7D12AE7402322464946AB
S315080029A0584676F0CDFE01303FF422AF103ED2E70E
S315080029B0FE07E0D4199BC5EB8304A210189C1C1BC8
S315080029C09442A8BF1446002C09DDA3000AEB0502B1
S315080029D04946584676F0B4FE01303FF409AF002C5C
S315080029E0DDE91835A5EB0305A8BF2D1B002D7FF7DC
S315080029F0D0AD4B4C102D01DCAB004DE740232246F1
S31508002A004946584676F09CFE01303FF4F1AE103D3B
S31508002A10F0E7199B524649465846012B4FF00403E6
S31508002A2001DCFC071BD576F08BFE01303FF4E0AEE7
S31508002A30042316AA4946584676F082FE01303FF42A
S31508002A40D7AE199C00220023013C51EC180B49F023
S31508002A5065F968B9A3000AF104024946584676F0B2
S31508002A606FFE01303FF4C4AE119B1CAA9B0089E59A
S31508002A70002CF9DD2A4D102C02DCA300284AECE7CD
S31508002A8040232A464946584676F05AFE01303FF416
S31508002A90AFAE103CEFE70C9B0E9A9C1A002C7FF702
S31508002AA07BAD102C09DCA3001E4A4946584676F031
S31508002AB047FE01307FF470AD9AE64023194A49462D
S31508002AC0584676F03DFE01303FF492AE103CE8E7FA
S31508002AD03946002B3FF4ECAD012A3FF44CAE022AEE
S31508002AE00DF5A47A3FF45DAE03F00702DB08504605
S31508002AF002F130024AF8042DF6D1CD0706D5302A60
S31508002B0004D030234AF8043CA0F1080A52AB264602
S31508002B100F464FF00008A3EB0A04A4104546D9E473
S31508002B20A4830808648308082DE9F04F456A04461B
S31508002B3010EE10AA2DED048B93B057EC106BDDF850
S31508002B408080BB46069109920C9375B910204AF00D
S31508002B5043FA0246606220B9A74BEA21A74849F022
S31508002B60CBFCC0E901550560C560636A196851B1B7
S31508002B705A680123204693404A608B604DF022FC38
S31508002B80636A00221A603B1EADBF0023012223F0B0
S31508002B90004BC8F800309A4BB8BFC8F8002033EA93
S31508002BA00B031BD142F20F730C9A1360CBF313037A
S31508002BB0334300F08F85219B63B9924B22E0924BF9
S31508002BC001930833219A1360019813B0BDEC048B66
S31508002BD0BDE8F08F8B4B01930333F3E70022002304
S31508002BE05046594649F09AF880464BEC19AB58B10D
S31508002BF001230C9A1360219B002B00F068858348FB
S31508002C001860431E0193DFE7CBF30A5510AA11A9F2
S31508002C1020464BEC10AB4DF01BFF08EE100A002DBA
S31508002C2000F0828019EE903A5646A5F2FF35CDF8A7
S31508002C303880C3F3130343F07F5747F44017002245
S31508002C40734B3046394648F049FC65A3D3E900235F
S31508002C5048F0FCFD64A3D3E9002348F041FC06468E
S31508002C600F46284648F088FD61A3D3E9002348F0BB
S31508002C70EDFD02460B463046394648F031FC06461D
S31508002C800F4649F07DF80022009000233046394669
S31508002C9049F04EF850B1009848F06EFD32463B4672
S31508002CA049F03CF810B9009B013B0093009B162B9A
S31508002CB059D8009A574B03EBC20351EC190BD3E9C9
S31508002CC0002349F035F800284FD0009B013B0093BC
S31508002CD000230B93109B5D1B6B1E059349BFC5F123
S31508002CE0010300230493002354BF04930593009B18
S31508002CF0002B3CDB059B009A13440A92059300239C
S31508002D000793069B092B00F28980052BC5BF043B58
S31508002D10002501250693069B023B032B00F28980BA
S31508002D20DFE803F02E3B395ADDE910531D4405F25E
S31508002D303243202BC6BFC3F1400305F21240C3F14C
S31508002D40200305F1FF35C5BF0BFA03F326FA00F099
S31508002D5006FA03F0184348F0FFFC01230646A1F1E2
S31508002D60F8770E936BE70123B3E70B90B2E7049B62
S31508002D70009A9B1A04935342079300230A93C0E7C9
S31508002D8000230893099B002B56DC01231A46CDE93C
S31508002D90023309920CE00123F3E70023099A08930A
S31508002DA0009B134402930133012B0393B8BF0123FD
S31508002DB00022606A4260042202F1140641689E42BB
S31508002DC03ED920464DF0BEFA019000283CD1124B60
S31508002DD002464FF4D571C1E60123DFE7AFF3008061
S31508002DE061436F63A787D23FB3C8608B288AC63F03
S31508002DF0FB799F501344D33F40730808F1830808B2
S31508002E000000F07FED830808E483080811820808AB
S31508002E100000F83F38810808E87F080801250023E4
S31508002E20089506934FF0FF330022CDE902331223AB
S31508002E30AFE701230893F5E7099BCDE90233B7E726
S31508002E40013152004160B7E7636A019A1A60039B31
S31508002E500E2B00F29D80002D00F09A80009B002B1F
S31508002E6032DD03F00F03B64A02EBC303D3E9008948
S31508002E70009BD8054FEA231716D5B24B07F00F0764
S31508002E800325D3E9082351EC190B48F009FE8246BD
S31508002E908B46AC4E57B942464B465046594648F0C3
S31508002EA0FFFD82468B4628E00225F2E7F90708D59A
S31508002EB0404649460135D6E9002348F0C7FC804616
S31508002EC089467F100836E5E700F09B80009B0225BF
S31508002ED09C4F5E429A4B06F00F02361103EBC20373
S31508002EE051EC190BD3E9002348F0B0FC00238246C5
S31508002EF08B46002E7AD1002BD3D10B9B002B00F0EA
S31508002F0082800022904B5046594648F011FF00280F
S31508002F1079D0039B002B76D0029B002B36DD009BD5
S31508002F205046594600225F1E884B48F08FFC0135F3
S31508002F3082468B46029E2846D04648F01DFC5246DD
S31508002F405B46D94648F082FC0022814B48F0C8FA15
S31508002F508246A1F1507B002E58D100227D4B404677
S31508002F60494648F0BBFA52465B468046894648F0D1
S31508002F70FDFE002840F0938252460BF1004340467E
S31508002F80494648F0D5FE002840F087825BEC19AB2D
S31508002F90119B002BC0F24881009A0E2A00F3448147
S31508002FA0674B03EBC203D3E90089099B002B80F228
S31508002FB0D580039B002B00F3D18040F06D82002260
S31508002FC0644B4046494648F041FC52465B4648F049
S31508002FD0C3FE039E3746002840F043823123019DF5
S31508002FE005F8013B009B013300933EE2F20705D545
S31508002FF00135D7E9002348F029FC01237610083764
S3150800300077E7022579E7009F039E94E701994C4BE1
S31508003010314403EBC6030D91089953E902230029AD
S3150800302043D000204C4948F03BFD52465B4648F0E9
S3150800303055FA019D82468B464946404648F0A0FE11
S31508003040064648F099FB024630360B464046494646
S3150800305048F044FA52465B4605F8016B80468946B5
S3150800306048F066FE002863D142464B4600203649A2
S3150800307048F034FA52465B4648F05AFE002840F0BB
S31508003080B5800D9B9D4281D00022304B5046594653
S3150800309048F0DCFB002282468B46404649462B4BCD
S315080030A048F0D4FB80468946C6E75046594648F05C
S315080030B0CDFB0D9B82468B46019D0F9349464046A4
S315080030C048F05EFE064648F057FB02460B46404669
S315080030D04946303648F002FA0D9B05F8016B8046E2
S315080030E09D4289464FF0000224D11B4B5046594653
S315080030F048F0F6F902460B464046494648F036FE81
S31508003100002873D152465B460020134948F0E6F979
S3150800311002460B464046494648F00AFE00283FF458
S3150800312035AF0F9D6B1E0F9315F8013C302BF8D069
S31508003130009749E0054B48F089FB80468946BDE77C
S3150800314038810808108108080000F03F0000244074
S3150800315000001C40000014400000E03F56465F4651
S31508003160019D42464B463046394648F099FC48F0A0
S3150800317007FE824648F000FB42464B4648F066FB8F
S31508003180024630460AF130060B46394648F0A6F99B
S3150800319005F8016B019E0246039F0B46AE1BB7421C
S315080031A035D148F09DF942464B4606460F4648F04B
S315080031B0DDFDD0B942464B463046394648F0AEFDAD
S315080031C010B11AF0010F10D1204618EE101A4DF062
S315080031D0F9F8002300982B7001300C9B1860219B8E
S315080031E0002B3FF4F1AC1D60EEE4009F2B461D4614
S315080031F013F8012D392A06D1019A9A42F7D13022BD
S31508003200019901370A701A7801321A7090E700227C
S31508003210A44B48F01BFB0022002306460F4648F045
S315080032207DFD00289DD0CFE7089A002A00F0D580BA
S31508003230069A012A00F3B9800E9A002A00F0B18096
S3150800324003F23343079E049D049A012120461A443B
S315080032500492059A1A4405924DF068F90746002D1E
S315080032600CDD059B002B09DDAB42049AA8BF2B4653
S31508003270D21AED1A0492059AD31A0593079B1BB323
S31508003280089B002B00F0AD80002E13DD3946324630
S3150800329020464DF009FA18EE102A01460746204640
S315080032A04DF05AF9804618EE101A204608EE108A94
S315080032B04DF088F8079B9A1B06D018EE101A204680
S315080032C04DF0F2F908EE100A012120464DF02EF9CC
S315080032D00A9B0646002B40F386801A46014620467E
S315080032E04DF0E2F9069B0646012B7FDD4FF00008FC
S315080032F0336906EB8303186976F01AF9C0F12000E2
S31508003300059B184410F01F0000F09180C0F12003BF
S31508003310042B40F38980C0F11C00049B0544034438
S315080033200493059B03440593049B002B07DD18EEC5
S31508003330101A1A4620464DF011FA08EE100A059B97
S31508003340002B05DD31461A4620464DF007FA06469B
S315080033500B9B002B6DD0314618EE100A76F037F924
S31508003360002866DA009B18EE101A0A222046013B4E
S31508003370009300234DF048F8089B08EE100A002B2E
S3150800338000F0AF81002339460A2220464DF03CF86A
S31508003390029B0746002B00F38D80069B022B50DC10
S315080033A088E0109BC3F136034CE7039B5E1E079B20
S315080033B0B342B7BF079B9E1B0796F21ABFBF0A9B6D
S315080033C000269B180A93039B002BB7BFDDE903234E
S315080033D0DDE903359D1A002336E7079E049D089FFD
S315080033E03DE7079A69E7069B012B18DCBAF1000F3F
S315080033F015D1CBF3130393B92BF000431B0D1B0513
S3150800340083B1049B4FF0010801330493059B0133F4
S3150800341005930A9B002B7FF46BAF012070E74FF0F2
S315080034200008F6E79846F4E73FF47EAF18461C30E6
S3150800343073E7039B002B37DC069B022B34DD039BCB
S315080034400293029B6BB93146052220464CF0DCFFFD
S315080034500146064618EE100A76F0B9F800283FF736
S31508003460BDAD099B019DDB4300934FF00008314633
S3150800347020464CF0A7FF002F3FF4A6AEB8F1000F88
S3150800348005D0B84503D0414620464CF09BFF394647
S3150800349020464CF097FF97E600263746E1E7009767
S315080034A037469BE500002440089B002B00F0CA80A5
S315080034B0039B0293002D05DD39462A4620464DF02A
S315080034C04DF90746B8F1000F5BD0796820464CF0F5
S315080034D039FF054628B9874B024640F2EA21FFF72D
S315080034E03DBB3A6907F10C010C300232920075F0C7
S315080034F0C5FA0122294620464DF030F9019BB84607
S31508003500074603F10109DDE90123134405930AF08F
S3150800351001030493314618EE100A76F0A7FA4146DD
S31508003520029000F1300A18EE100A09F1FF3B76F016
S315080035304EF83A460390314620464DF07FF9C26868
S31508003540054602BB014618EE100A76F040F8024618
S315080035502946204607924CF035FF4D46DDE90632EE
S3150800356043EA0201049B0B430FD1BAF1390F2AD063
S31508003570039B002B02DD029B03F1310A8BF800A0A6
S3150800358075E73846BAE70122E2E7039B002B04DB1E
S3150800359006990B4304990B4322D1002AEEDD18EE57
S315080035A0101A012220464DF0D9F8314608EE100AC5
S315080035B076F00DF8002803DCE0D11AF0010FDDD013
S315080035C0BAF1390FD7D139238BF800302B461D466F
S315080035D0013B15F8012C392A70D001321A7046E7DA
S315080035E0002A07DDBAF1390FEDD00AF101038BF88D
S315080035F000303CE7059B09F801AC994546D018EE22
S31508003600101A00230A2220464CF0FEFEB84508EEA2
S31508003610100A4FF000034FF00A024146204606D131
S315080036204CF0F2FE8046074609F1010972E74CF0B4
S31508003630EBFE3946804600230A2220464CF0E4FE7B
S315080036400746F1E7039B0293019D314618EE100ADF
S3150800365076F00CFA019B00F1300A05F801ABEA1A7C
S31508003660029B934209DD18EE101A00230A2220460F
S315080036704CF0CAFE08EE100AE7E7029B4FF0000876
S31508003680002BCCBF1D460125019B1D4418EE101AC0
S31508003690012220464DF062F8314608EE100A75F010
S315080036A096FF002892DC02D11AF0010F8ED12B4624
S315080036B01D4613F8012D302AFAD0D8E6019A9A4207
S315080036C085D1009B0133009331231370CFE60A4B53
S315080036D0FFF798BA219B002B7FF471AA074BFFF7D7
S315080036E091BA029B002BAFDC069B022B3FF7A9AED3
S315080036F0AAE700BFE87F080810820808E4830808DC
S3150800370051EC100BF8B5C1F30A530C4610EE106ACB
S31508003710A3F2FF35132D32DC002D1EDB364F2F4169
S3150800372001EA070303432FD031A3D3E9002347F067
S31508003730D7FE0022002348F019FB48B1002C04DD0F
S315080037404FF4801343FA05F52C4424EA07040026AF
S315080037502346324643EC102BF8BD25A3D3E90023B4
S3150800376047F0BEFE0022002348F000FB0028EFD0F9
S31508003770002C39DB264333D00026204CE8E7332DCE
S3150800378005DDB5F5806F23D041EC100BF8BDA3F22B
S3150800379013434FF0FF37DF400742F5D014A3D3E9B0
S315080037A0002347F09DFE0022002348F0DFFA002898
S315080037B0CED0002C09DD142D14D00123C5F1340513
S315080037C003FA05F5AE1928BFE41826EA0706BFE787
S315080037D010EE102A0B4647F083FE41EC100BF8BD9D
S315080037E03446B5E70134F0E700264FF00044AFE76A
S315080037F09C7500883CE4377EFFFF0F000000F03F11
S3150800380051EC100BF8B5C1F30A530C4610EE106ACA
S31508003810A3F2FF35132D30DC002D1EDB384F2F4168
S3150800382001EA070303432DD033A3D3E9002347F066
S3150800383057FE0022002348F099FA48B1002C04DA12
S315080038404FF4801343FA05F52C4424EA07040026AE
S315080038502346324643EC102BF8BD27A3D3E90023B1
S3150800386047F03EFE0022002348F080FA0028EFD0F9
S31508003870002C29DB00263446EAE7332D05DDB5F5AD
S31508003880806F19D041EC100BF8BDA3F213434FF02B
S31508003890FF37DF400742F5D017A3D3E9002347F0E7
S315080038A01FFE0022002348F061FA0028D0D0002C21
S315080038B013DB26EA0706CBE710EE102A0B4647F07D
S315080038C00FFE41EC100BF8BD24F000430D4A3343BC
S315080038D00026B34218BF1446BAE7142D08D00123B0
S315080038E0C5F1340503FA05F5AE1928BFE418E0E773
S315080038F00134DEE7AFF300809C7500883CE4377E30
S31508003900FFFF0F000000F0BF10B5054C237833B950
S31508003910044B13B1044800E000BF0123237010BD17
S3150800392010650020000000007088080808B5034BE1
S315080039301BB10349034800E000BF08BD00000000B2
S315080039401465002070880808A3F5803A704700BF00
S31508003950174B002B08BF134B9D46FFF7F5FF0021B9
S315080039608B460F461348144A121A75F0AEF80E4BDA
S31508003970002B00D098470D4B002B00D0984700200D
S31508003980002104000D000D48002802D00C4800E074
S3150800399000BF49F041FA2000290050F015F848F018
S315080039A02FFE00BF00000800000000000000000015
S315080039B000120020E01800209CB40020000000003F
S315080039C000000000CB8B07EE900A07EE103A9FED39
S315080039D0180AB8EE477AF8EE677A27EE000ADFED9E
S315080039E0156A17EEA60ADFED146A27EE267ADFEDCA
S315080039F0136AB1F9203017EEA67A06EE903A91F9D5
S31508003A002230B3EE006A07EE903AF8EEE77A20EE37
S31508003A10000A67EE867AF8EEE66A67EE807A9FED28
S31508003A20080A47EE267AC1ED0E7A87EE800A7047B5
S31508003A3000000039000000370000803A0000803896
S31508003A400000A045D1ED0E6AF6EE007A9FED557A94
S31508003A5091F9283016EEA77A07EE903AB1F9263092
S31508003A60F8EEE77A06EE903A67EE877AF8EEE66AB7
S31508003A7067EE877A66EE876AB0EE476A9FED4A7AFE
S31508003A80F7EE005A47EE876ADFED487A8B8C66EECA
S31508003A90A76A9FED474AF0EE657A05EE903A46EE3C
S31508003AA0847AF8EE655A65EEA75AFDEEE57A17EEC2
S31508003AB0903A03EE900A002B70D091F92E30DFED84
S31508003AC03D4A05EE103AB1F92C30B8EEC55A07EE64
S31508003AD0103AB8EEC77A27EE067A66EE067A25EE2B
S31508003AE0245A37EE077AB1F92A3005EE277A06EE18
S31508003AF0103AF8EE637ADFED306AB8EEC66A76EE0B
S31508003B00E76ADFED2E7A26EE276AF5EE007A07EEEB
S31508003B10276ADFED2B7AB0EE667A06EE677ADFED76
S31508003B20297A27EE277AB1F9323087EE250A07EE89
S31508003B30103AB1F93030B8EEC77A07EE903AF8EE97
S31508003B40E77A27EE007A67EE847A27EE007A67EE40
S31508003B50807A9FED1D6ADFED1D6A91F8343060EEBC
S31508003B60266A47EE067A07EE103A26EEA66AB8EEF9
S31508003B70C77A66EE266A27EE247A91F92F3047EE41
S31508003B80267A07EE103ADFED126AB8EEC77A47EEE4
S31508003B90267A9FED107A07EE870A70479FED0E0A80
S31508003BA0704700BF00007A470000803800000036E2
S31508003BB000000038000000370000804900008047F8
S31508003BC0000080390050C345000000300000803BEB
S31508003BD0000000430000803D0000000091ED0E7AD1
S31508003BE0DFED307A91F91530C7EE276A07EE103AFD
S31508003BF091F91630DFED2C5A06EE103AB8EEC77A70
S31508003C00F7EE007A27EE257ABAEEC66A4B8A47EEB1
S31508003C10267A26EE266A00EE103A46EE267ABBEE9D
S31508003C20C70A91F9143067EE807A06EE103A0B8AC5
S31508003C30B3EE005A00EE103AB8EE400A07EE100A44
S31508003C40BAEEEF6A20EE050AB8EE477A06EE260ABD
S31508003C5037EE400A91F9183027EE800A07EE103A37
S31508003C60CB7DBAEEE57A07EE903AF8EE677A67EE1C
S31508003C70A57A47EE267A67EE807A07EE800ADFEDA8
S31508003C800B7AB4EEE70AF1EE10FA07DCB5EEC00AD5
S31508003C90F1EE10FA04D59FED060A7047B0EE670AF2
S31508003CA0704700BF0000A045000080380000C842E9
S31508003CB000000000B1F91A30B0F5C87F07EE903A57
S31508003CC028BF4FF4C870FAEEE87ADFED2B6A9FED4D
S31508003CD02B7A07EEA67AF7EE006A07EE900AF0EE60
S31508003CE0665AF8EE677A91F9193047EE275A07EEC1
S31508003CF0103ADFED237ABAEECE7A91F91C3037EE18
S31508003D00277A07EE903A91F90E30FAEECB7A06EE5C
S31508003D10103AB8EEC66A67EE867A91F83C3045EEF8
S31508003D20877A07EE103AB1EE006AB8EE477A37EEB0
S31508003D30067A91F93D30C6EE075A07EE103A67EE55
S31508003D40A57AB8EEC77A9FED0F6AF0EE665A47EE87
S31508003D50065AB3EE097A86EEA56A17EE867ADFED7D
S31508003D600A7A67EE277AFCEEE77A82B0CDED017A19
S31508003D709DF8040002B070476F12033A75021A3BA9
S31508003D80000044426F12033B9A99594006EE900A86
S31508003D90F0B52B4CA1B06D46264607EE902A9FED4E
S31508003DA0297AF8EE666A0F460FCE0FC50FCE76EE65
S31508003DB0C76AF8EEE77AB1EE046A9FED237A0FC573
S31508003DC00FCE0FC596E80F00403485E80F000FCCDC
S31508003DD010AD0FC50FCC0FC50FCC0FC594E80F005B
S31508003DE085E80F0020AB03EB870353ED205A07EE57
S31508003DF0867A9FED166AB7EE000AC5EE867A77EEE2
S31508003E00807A27EE277AC6EE877A13ED107A77EE50
S31508003E10806AC7EE067A012377EE807A9FED0C7AE0
S31508003E20BB4027EE877A07EE903AF8EEE77A67EE18
S31508003E30277A66EEA77A80EE270A21B0F0BD00BF82
S31508003E40D09B0708000000440080A7440000C84231
S31508003E50BD370634F0B54D4B064618681B7987B052
S31508003E608DF80C30002302900DF107000D460493DF
S31508003E708DF814304FF096FC0446002840F08380F5
S31508003E8029464FF052FC0746044666B94FF0FF3400
S31508003E909DF8070020B11CB929464FF046FC044698
S31508003EA0204607B0F0BD0028F2D12B4605229DF822
S31508003EB0080004A94FF015FB85F84D700446002844
S31508003EC0E6D12A460721F01C4FF060FA044600287E
S31508003ED0DED10521701C4FF059FA04460028D7D1C7
S31508003EE0B01C4FF053FA04460028D1D130464FF0A3
S31508003EF04DFA04460028CBD10821301D4FF046FA6A
S31508003F0004460028C4D1F3789DF814209B0022F0BB
S31508003F101C0203F01C0313435AB29DF81330717840
S31508003F2003F01F0343EA4113B17823F01C03890009
S31508003F3001F01C010B438DF8133031789DF81130D0
S31508003F4001F0070123F007030B4331798DF811308F
S31508003F50082912BF0020012000219DF8103002F028
S31508003F601F0203F07F0342EA411243EAC0138DF8A9
S31508003F7014208DF8103005222B4604A902A84FF00C
S31508003F8066FA044684E7002E82D17FE7C89B0708B5
S31508003F9037B51E4B0546D3F88000B3F884300C4677
S31508003FA00090ADF8043011B9002003B030BD0521EA
S31508003FB0601C4FF0EBF90028F6D1A01C4FF0E6F98B
S31508003FC00028F1D120464FF0E1F90028ECD16378BA
S31508003FD002AA1344A27813F8080C02AB1A4412F882
S31508003FE0083C02AA18442378022D134413F8083C07
S31508003FF0034440F2AB7000FB03F30BBF03F5865096
S3150800400003F5A55040180D30CFE700BFD09B070831
S315080040102DE9F04FB5B01E4622AB019204460F4675
S3150800402018464822002174F050FD28AB0A900B93DD
S3150800403030462EAB0C934FF09BF9054628B14FF04E
S31508004040FF34204635B0BDE8F08F002FF7D0012C9D
S3150800405040F0D480014615900D2216A874F035FD5F
S315080040600525334611221D2015A94FF03AFA9DF869
S3150800407055200446BA709DF856209DF854000292C1
S315080040809DF8572000F0800303929DF8582000F011
S315080040900F0004929DF85920787005929DF85A20D1
S315080040A09DF862A006929DF85C209DF864800792B0
S315080040B09DF85D209DF85B9008929DF861209DF81B
S315080040C063B00992B268012A0CBF08F030020AF000
S315080040D0300213433B701B0679D5002C7DD133463D
S315080040E00122F91C5A304FF0FCF90446002874D115
S315080040F07878334650300122391DC0B24FF0F1F9B5
S315080041000446002869D17878334664300122791D3F
S31508004110C0B24FF0E6F9044600285ED1069B4FEA86
S31508004120191040EA0310059B314640EA0330FFF7B1
S3150800413049FC049B87ED020A1809039B40EA031011
S31508004140029B40EA0330FFF77DFCDDE9072387ED94
S31508004150030A43EA0220FFF741FDB36887ED040A24
S31508004160012B26D14FEA981343EA8B0B4FF4802391
S3150800417008F00F0823FA08F307EE103ADFEDB37AD2
S31508004180B8EEC77A0BEB4B0B0BF5206B27EE277AAD
S3150800419007EE90BAF8EEE77AC7EE276AC7ED056A22
S315080041A097F90030002BB5BF01250025002402240D
S315080041B01EE0099B4FEA9A1096F93E200AF00F0175
S315080041C040EA8300FFF7E2FD87ED050AE8E724B930
S315080041D042F21070B36C71689847013D15F0FF05FF
S315080041E004D0002C3FF43DAF002501E0002CD7D0C9
S315080041F0019B002B3FF423AF1D7022E7023C012CE4
S3150800420000F2218101462F22159016A874F05DFC54
S315080042101A2229460EA80D9574F057FC3346332208
S315080042201D2015A94FF05DF904468246002840F086
S315080042309A8033461E2250200DA94FF052F915AD2B
S315080042409FED823A0446002840F08D800AAB53F869
S315080042502A806B7895F8039088F80230AB784FEA95
S31508004260091949EA03392B79A87949EA13196B79A7
S31508004270000140EA0330EB792A7A40EA131307EE85
S31508004280903A6B7A297843EA02236A7BB0680292ED
S31508004290EA7B95F80EB003922A7C012801F00F0CF0
S315080042A021F07F010CBF02F0200E0BF0200E49B260
S315080042B00BBF41EA0E0141EA0E0102F0100E0BF0A7
S315080042C0100E41EA0E01049334AB88F8001003EB94
S315080042D00C0111F89C1C88F801C088F8041003EB3F
S315080042E00C0111F8921C9C4488F803101CF8881CD1
S315080042F017EE900A88F805103146FFF763FB484623
S3150800430088ED020AFFF79EFB049B88ED030A184610
S31508004310FFF764FCB36888ED040A012B38D10399CA
S31508004320930943EA81034FF4802102F00F0221FA30
S3150800433002F207EE902A03EB430303F52063F8EE37
S31508004340E77A07EE103A67EE837AB8EEC77A87EE11
S31508004350870A0AF1010ABAF1030F88ED050A05F181
S3150800436011057FF473AF0DF1280E7246032300255D
S31508004370002C4FD152F8041B013B91F9001000297B
S31508004380BCBF0135EDB213F0FF03F3D1704639E037
S31508004390029B4FEA9B1096F93E200BF00F0140EA6C
S315080043A08300FFF7F3FCD4E74FF00209DCF800605E
S315080043B051F8043B96F900A093F90020BAF1000FD2
S315080043C016DA002A16DA96F802A09A78A2EB0A02FA
S315080043D092B202F1020A1FFA8AFABAF1010F02D959
S315080043E012B2022A06DDCCF8003041F8046C01E06E
S315080043F0002AF8DBB9F1020FD6D1B8F1020F4FF057
S31508004400010307D0013384465FFA83F80430014676
S31508004410C146CBE74FF000084FF018097CB909FBF5
S3150800442008765EF804CB08F10108BCE80F000FC651
S315080044309CE80300B8F1030F86E80300EFD1002DCE
S3150800444008BF0224D4E60124D2E600BF002474493A
S3150800445047F270132DE9F04F93B0064617460D46FE
S31508004460ADF81430002900F09380114600204FF073
S315080044705CF90446002840F0F5806E238C4A8DF8D6
S315080044801330D2F88600D2F88A1006AB03C3B2F806
S315080044908E20022E1A8009AB03C31A800CAB03C305
S315080044A01A800FAB03C30DF118081A800DF1240901
S315080044B00DF13C0A00F09E80032E64D0012E40F0D8
S315080044C0F5805A23394668888DF81830FFF7F2FBCD
S315080044D064238DF83030AB888DF82400B3F57C6FF3
S315080044E04FD23F2BE2B204F1010448D803EB821302
S315080044F0DBB24FF0000A8DF83C303B46324649465F
S3150800450040464EF0A4FF0446002840F0AB803B46E8
S3150800451032460FA90CA84EF09AFF0446002840F030
S31508004520A1803B46022270200FA94EF0DAFF04460E
S31508004530002840F097802A78012A40F0B480BB68AA
S31508004540012B08BF02229DF83C300FA923F008036F
S3150800455043EAC4049DF83D3005A823F00F0343EA57
S315080045600A0323F0300343EA02138DF83D30022292
S315080045703B468DF83C404EF06AFF044672E09B08C5
S31508004580AFE7FF23B5E7D5F80CB0BBF1000F02D1B2
S315080045904FF0FF3466E0AB68002BF9D02E7CE2B210
S315080045A0964201D8B246A8E702F15A0108F8041063
S315080045B033F8140039460193FFF77CFB64320CABE1
S315080045C01A5509F804003BF81420019BB2F57C6FD4
S315080045D00ED200213F2AC8B201F1010106D802EB2A
S315080045E08012D2B20AF804200134D8E79208F1E71B
S315080045F0FF22F7E7D5F80CB0BBF1000FC8D0AB68BF
S315080046000193002BC4D06B8A0022002B08BF032419
S315080046102E7CCDF808A05FFA82FA564526D840F2D5
S31508004620827293423DD84FF47A72534340F2DD12B8
S31508004630B3FBF2F300229BB23F2BD1B202F1010287
S315080046402DD803EB8113DBB28DF8123054B93B46F3
S3150800465001220DF112010DF113004EF0F8FE044689
S3150800466000289FD0204613B0BDE8F08F0AF15A0102
S315080046700393019B08F8021033F812003946FFF736
S3150800468019FB0AF1640A0CAB03F802A009F8020048
S315080046903BF81210029BD154039B0132BBE79B08DF
S315080046A0CAE7FF23D0E7024601244CE70124D9E7ED
S315080046B0D09B07082DE9F341164607460D4602F139
S315080046C01004354A06F1200C234603CB63451060D7
S315080046D051601C4602F10802F6D1284659F00DF839
S315080046E000218046384658F0CEFF044690B344234E
S315080046F00222294658F0D6FF284659F00FF80190AD
S31508004700284659F004F801990246204658F0E1FF78
S31508004710204658F0E9FF284659F0D5FA1F230146E6
S315080047201E4A284659F0D3FAB8F1010F1CD11C4B82
S3150800473019680846019174F015FB019982B2204662
S3150800474059F0C3FA034610BB3246214638461DF0D7
S315080047502DFDE0B90122134B1A708022124BC3F8C3
S31508004760A02002B0BDE8F081104B196808460191F7
S3150800477074F0F8FA019982B2204659F0A6FA05466D
S315080047808521204658F0BEFF0DB92B46DCE72046AA
S3150800479059F095FADEE700BFEF990020CF9900207F
S315080047A05C120020CE99002000E003506012002021
S315080047B037B5124C124D00F05FF941F2336158F0EB
S315080047C0C4FF256000F058F90E4A0F4BA0606360DD
S315080047D013682B6053686B609368AB6000F04CF904
S315080047E0214658F0BDFF094B10211A680848009267
S315080047F05B68084A49F054F803B030BD5865002094
S3150800480015AC0708D7AB0708B5460008E01800201E
S31508004810FE9A0020CCAB07082DE9F0412DED048B5C
S31508004820654B96B093F80080B8F1000F00F0B4809D
S31508004830624CA368A2699A4200F0BA809FED607A3A
S31508004840D3ED027A67EE877AFDEEE77A17EE905A8D
S31508004850D3ED047A67EE877AFCEEE77A17EE906A6C
S31508004860D3ED087A93ED0A8A67EE877AD3ED008A44
S3150800487093ED069A28EE078AFCEEE77AFCEEE88ABC
S31508004880BCEEC99ABCEEC88A17EE907A00F0F4F826
S315080048900BA959F089FC4B4B4B481B688DED078AD1
S315080048A08DED059ACDED028A09939DF92C30CDE957
S315080048B003560893454B06971A6801925B68444A63
S315080048C00093FE23194648F0EBFF2269A368403A95
S315080048D093421FD040338022A3603E4BC3F8A020EA
S315080048E000F0CAF8002158F0CEFE04460322002143
S315080048F058F0D6FE0221204658F0EDFE20463649ED
S3150800490058F0F0FE90B1354D002C4BD12B68013391
S315080049102B603DE0E06868F05BFF63691A1D5B6821
S31508004920626103F50072E3602261D4E7264874F0F9
S3150800493019FA054658B1204658F0D6FE0028E2D1A5
S3150800494020462149AAB259F0C0F90028DBD12C2209
S3150800495000210DEB020074F0B8F8214B0FAD03F1FE
S3150800496010062A4618685968083303C2B342154622
S31508004970F7D141F23363ADF84E3000F07DF80023ED
S315080049802146CDE900330BAA1DF0F0FB0028BAD169
S315080049908022144BC3F8A020404616B0BDEC048B09
S315080049A0BDE8F081002320462B6059F088F9ADE771
S315080049B04FF00008F0E700BFCE99002030650020D0
S315080049C000007A442C650020FF990020E01800209A
S315080049D0E3AB070800D00350CF9900206865002094
S315080049E0EF99002000E00350F8B51B4C204638F03C
S315080049F067FE1A4A1A49204668F0E5FE0023194C54
S31508004A002020C4E90233C4E90433C4E90633C4E9FF
S31508004A10083323600823636068F0DCFE6568064691
S31508004A20013D6D0800EB850720604FF4007068F0C3
S31508004A30D1FE00F50073C4E9070346F82500E060D7
S31508004A40A060A0616761204623616762034A064940
S31508004A50BDE8F84068F0B7BE0E9B0020581200204B
S31508004A6029D9030830650020F33705080122014BD0
S31508004A701A7070470F9B0020014B1868704700BFDB
S31508004A801866002007B5019002F0C0FD00200199C4
S31508004A9002F0B0FD0222024B9A6103B05DF804FBF6
S31508004AA000500650022208B5084B5A6102F0AEFDC6
S31508004AB0074B5A6812B19A6A002AFAD102220121D2
S31508004AC0DA60044B1970014B9A6108BD0060065004
S31508004AD000400650E916002013B50B4C68462146DF
S31508004AE04FF02BFB4FF49662009B04F5005453439A
S31508004AF04FF47A72B3FBF2F3044A13604FF400736F
S31508004B00636202B010BD00BF004000592C6500204A
S31508004B10042213B54FF471200DEB020100F0EAFEF2
S31508004B200423084901AA12F8014B11F8010B844223
S31508004B3006D1013B13F0FF03F5D1012002B010BDE9
S31508004B400020FBE7E416002010B54FF480524024FD
S31508004B500B4B10460B49C3F8A04000F0CBFE60B9DA
S31508004B60DD224FF48830084900F0C4FEB0FA80F020
S31508004B70064B4009C3F8A04010BD0020FCE700BF63
S31508004B8000D00350EE9B0020119B002000E003504C
S31508004B9040222DE9F8430024244B254DC3F8A020D4
S31508004BA0DD2229464FF4883000F0E4FE90BB4FF032
S31508004BB04008044605461F4FDFF87490C7F8A080E2
S31508004BC0C5F58056B6F5807F28BF4FF4807609EB89
S31508004BD00501324605F5805000F0CCFE08BB0446B8
S31508004BE0C7F8A0803544B5F5805FE9D31249042299
S31508004BF04FF4712000F0BEFE402204460F4BC3F866
S31508004C00A02000F0F3FE1E200AF072FBE04300F03D
S31508004C10010002E0332C02D10020BDE8F8830134FC
S31508004C20BEE7322CF8D80134DDE700BF00D00350C8
S31508004C30119B002000F00350E416002000E003500A
S31508004C4010B5104C206859F06CF920680CF092F9F0
S31508004C5040220D4BC3F8A0200C4B1A7822B1002233
S31508004C600B481A7000F03AFA0A4CFFF7D5FD23787C
S31508004C701BB1FFF78DFF002323704022064BC3F8B4
S31508004C80A02010BD1866002000D00350E9160020A9
S31508004C90854A00080F9B002000E00350F0B5524BF0
S31508004CA05022A5B004460021184673F00EFF0122D3
S31508004CB002734E4A02644E4A42644E4A82644E4A1F
S31508004CC042601F2282734EF063FC30B140F24111FC
S31508004CD04A4B4B4A4B4847F00FFC8DF8020033F01D
S31508004CE06FF88DF80200FFF713FF0546002C58D120
S31508004CF04FF4805340F2B671434A444833F092F871
S31508004D008DF80200FFF744FF18B92022404BC3F87C
S31508004D10A0200DB1FFF718FF00F068FE4FF480538E
S31508004D20DD21394A3B4833F08DF840231721384AAC
S31508004D3012A8C2F8A03002F58052C2F8A0308DF849
S31508004D40541018218DF85C1019218DF8641007216C
S31508004D5008228DF86C10062116238DF803208DF88D
S31508004D607C201A228DF8741009218DF84C302A4BB4
S31508004D708DF88C2012931493169318931A931C93F8
S31508004D801E932093229302AA0DF103038DF8841033
S31508004D9033F024F88DF8020001A833F007F825B09F
S31508004DA0F0BD012CAED14FF4805340F2B671164ACD
S31508004DB01A4833F037F8202740268024144B8DF8FC
S31508004DC00200C3F8A07040F2DC50C3F8A060C3F834
S31508004DD0A04009F0EBFF124BC3F8A070C3F8A0601F
S31508004DE0C3F8A0408EE700BF1C6600200D390508F1
S31508004DF0D5380508C7380508E816002021AC070885
S31508004E0040AC07085BAC0708EE9B0020609C0708CF
S31508004E1000D00350119B0020B08E633D16A40708EE
S31508004E2000E003501FB52022294B2A4CC3F8A020C6
S31508004E30A3F58053586FC0F3C000FFF72FFF002378
S31508004E40032101201A4604F04BF84EF08DFD00F0C0
S31508004E5011FC0121206858F08AFD28B19A211E4BC1
S31508004E601E4A1F4847F048FB0121206859F0ABF954
S31508004E7018B19B211B4B194AF3E700F051FC41F28C
S31508004E80883003A909F0AEFF034630B9CDE9000022
S31508004E90154A0399154850F0ADFF0023144ACDE989
S31508004EA000331449144809F0BBFF04F059FB134BAF
S31508004EB0C3E90001FFF77CFC8022054BC3F8A0205C
S31508004EC0202203F58053C3F8A02004B010BD00BF0C
S31508004ED000D00350186600206BAC07089DAC070885
S31508004EE05BAC0708ADAC0708C53805088C6600201A
S31508004EF06D4A000880EE36006C660020E018002037
S31508004F0008B558F029FD054B186030B940F29D11D7
S31508004F10034B044A044847F0EFFA08BD1866002018
S31508004F20E2AC0708ECAC07085BAC070810B5084C00
S31508004F30204638F0C5FB2046064A074968F043FC78
S31508004F40BDE81040042305491A4605484EF057BCEB
S31508004F50109B00205812002029D90308794A000816
S31508004F606C6500202DE9F34700F1180506460C4646
S31508004F7000F10801284601914EF0E5FC0328019945
S31508004F8006D13269B368403A934216D04033B360CB
S31508004F90336AB769403B9F421ED00FCC3D460FC5CA
S31508004FA00FCC0FC50FCC0FC5403794E80F0085E826
S31508004FB00F00B76102B0BDE8F087F068019168F0AC
S31508004FC007FC736901991A1D5B68726103F5007223
S31508004FD0F3603261B360DBE728464EF0B4FC6FF04D
S31508004FE07E43984202D13C486DF0CAFF726A306827
S31508004FF07368111AA3EBA101012925D87169A2EBDF
S3150800500001084FEAA807BD1CB3EB450F3ED95D1B47
S315080050106D0800EB8505131DA942A3EB01022ED9E5
S31508005020994202D0284673F036FD2B687561F36005
S3150800503003F50073336105EB0803736255F808300E
S31508005040F36103F5007333624FF40070756A68F014
S31508005050C1FB6860B5690FCC0FC50FCC0FC50FCC67
S315080050600FC594E80F0085E80F00736A1A1D5B6880
S31508005070726203F50072F3613262B3619AE799428C
S31508005080D3D008F10400801A2844CCE703F10209BA
S31508005090012B2CBF994409F10109B9F1005F01D32D
S315080050A06DF065FF4FEA890068F094FB726A7169D2
S315080050B0A9EB050504326D089142824600EB850589
S315080050C003D02846521A73F0E6FC306868F080FB75
S315080050D0C6E900A9A9E700BF09AD07082DE9F04F01
S315080050E0AD4C0646ADF50B7D22460021002032F078
S315080050F0F1FE0023A94A0546D4E9000146F0E6FF79
S31508005100B04794F83E60012E40F06081A44FA5494F
S3150800511038464EF0E3FA08BB94F83C3038463B7004
S3150800512094F83B309F497B7094F83A30BB70FEF791
S3150800513091FE98B99C49A38930464B80E389994AE0
S315080051400E708B80FFF784F940B9304695494EF0CA
S31508005150ECFA18B9954B1E70954B1E7094F83D30B5
S31508005160002B00F0428294F83E30002B00F03D827E
S315080051700024904E8D488B4B32468F490078347008
S31508005180FEF746FF8D4B1C703378002B00F02D82FE
S31508005190864BDFF834821B78012B40F0788146462F
S315080051A0854F0FCF0FC697E8030086E80300002651
S315080051B0834B1E7098F800309B0640F1908150F0A2
S315080051C03DFE09F069FE754B98F801205843724B6D
S315080051D007EE902A9B6898F8005013F40051D8F807
S315080051E008A0D8F80CE0D8F81090D8F814C007D062
S315080051F00E228DF8852000220121CDE91E04209279
S315080052005F070DD54FF003081EAE06EB01120F011E
S315080052100131F05182F80D80C2F808A05460C9B275
S315080052209E070DD54FF002081EAE06EB01120F01C0
S315080052300131F05182F80D80C2F808905460C9B265
S31508005240DA070DD54FF001081EAE06EB01120F0165
S315080052504144F05182F80D80C2F808E05460C9B2A2
S315080052601F070FD5AE060DD54FF0040E1EAE06EB82
S3150800527001120F010131F05182F80DE0C2F808C0A1
S315080052805460C9B21A0240F12681AB0640F1238167
S3150800529018261EAB03EB01125673454A0D01127808
S315080052A00131012A14BFF8EEE77ADFED467A5A197A
S315080052B0C2ED027A5851C9B2546000230E93109376
S315080052C0129314931693189313233EAA8DF8373026
S315080052D01EA80DF137038DF83C408DF844408DF833
S315080052E04C408DF854408DF85C408DF8644032F09F
S315080052F087FD9DF84C309DF8372007939DF844307C
S31508005300054606933EAB03EB02120B920022DDED37
S31508005310186A9DED166A9DED125ADDED145ADDEDFB
S31508005320104A9DED0E4A9DED1C7B16461746CDE9A3
S315080053300922CDE904229DF864E09DF85C909DF869
S3150800534069C09DF868809DF854B09DF83CA0089205
S3150800535003920B998B4200F00D81597B013916296E
S3150800536000F2C980DFE811F0BE00C700C700C70019
S31508005370C700E500F100EB00C700C700C700C90079
S31508005380D700C700C700C700C700C700C700C700C7
S31508005390C700F800FF0000BFE818002040420F00D1
S315080053A0F3AB00201C660020AC660020EEAB0020A4
S315080053B0F0AB0020F2AB0020D8660020F1AB00204D
S315080053C0EFAB002000000000C0660020022E49D185
S315080053D0DFF8588298F80030022B3FF4BFAE8F4FA3
S315080053E08F4938464EF07AF900287FF4B7AE94F81C
S315080053F03C3038463B7094F83B3089497B7094F8CA
S315080054003A30BB70FEF726FD00287FF4A7AE394672
S31508005410834A3046FEF7BCFD01238249804A0B7059
S3150800542004F110038B6004F12403CB604FF47A7304
S31508005430B0FBF3F094F83830C0F18C00488230465F
S315080054400B74FFF705F800287FF488AE30467449D8
S315080054504EF06BF900287FF481AE734B88F8006034
S315080054601E707BE6002E7FF479AE704F3B78002BDA
S315080054703FF474AE30466A494EF057F900287FF477
S315080054806DAE3B78002B3FF469AE387066E6684B24
S315080054901E78002E3FF48CAE4FF0180CC146DFF88C
S315080054A0ACE1644B9EF800700CFB073CBCE80F00AF
S315080054B0A9E80F009CE803007B1CDBB29E4289E842
S315080054C0030003D8013E8EF8006070E6F61A8EF8DF
S315080054D00030F6B26CE600297FF4EFAE0025564B95
S315080054E01B7852E6012293ED024A93F80EA0039226
S315080054F093ED007B012210332BE7D3ED027AF5EE0C
