:020000040800F2
:10000000001200203D2A0008AF210308AF21030899
:10001000873C0308AF210308AF210308AF21030881
:10002000AF210308AF210308AF210308AF21030864
:10003000AF210308AF210308AF210308AF21030854
:10004000AF210308AF210308AF210308AF21030844
:10005000AF210308AF210308AF210308AF21030834
:10006000AF210308AF210308AF210308AF21030824
:10007000AF210308AF210308AF210308AF21030814
:10008000AF21030819220008AF210308AF2103089C
:10009000AF210308F9300008AF210308AF2103089E
:1000A000AF2103081D320008F9310008AF21030811
:1000B000AF210308D1780208E9820208B573040869
:1000C000B1730408B57A0208C1730408B97304084F
:1000D000C1820208BD730408298302088D830208C7
:1000E000AF210308AF210308AF210308AF210308A4
:1000F000833C0308AF210308AF210308AF210308A5
:10010000AF210308AF210308AF210308AF21030883
:10011000AF210308AF210308AF210308AF21030873
:10012000AF210308AF210308AF210308AF21030863
:10013000AF210308AF210308AF210308AF21030853
:10014000AF210308AF210308AF2103088F3D030847
:10015000C95F0208AF210308797004087F700408A2
:10016000AF210308AF210308AF210308AF21030823
:10017000013800D0FCE770477F4B73B51C8814F042
:10018000010440F0F38041F60B227C4D7C4B7F2133
:10019000C5E900347B4B7C489A8010221C60AC601F
:1001A00047F0B8F97F22794B1A70794B1B6ADB074D
:1001B00006D440F20E41774B774A78482EF000FE85
:1001C0002146284620F0A0FE044620B940F2124104
:1001D000734B714AF1E721F0D1FD20B140F2164195
:1001E000704B6D4AE9E74FF00111204646F028FCBC
:1001F00020B140F21A416B4B674ADEE702212046EC
:1002000046F000FB20B140F21D41664B624AD4E744
:100210002046654921F00EFC20B14FF48461614B0A
:100220005D4ACAE70121204646F002FD20B140F2B6
:1002300025415C4B584AC0E70121204646F008FDA5
:10024000064620B14FF48561564B534AB5E7014647
:100250003822564847F05EF980233246204605F1A1
:10026000100146F0F6FB802804D040F22F41504B9D
:10027000494AA2E74F4D012020F09AFE3CA3D3E962
:1002800000232C602046CDE900234FF0FF324FF0D1
:10029000FF3346F0F2FA014620B140F26E31414B95
:1002A000454A8AE737480AF07BFA012108460AF0F6
:1002B000EBFA0121286846F047FA044620B140F2E3
:1002C000C141384B3D4A78E701464FF408723C483B
:1002D00047F020F93B4A3C4B02F188011A609962D1
:1002E00002F5887102F5CC729C809A679C85374A2A
:1002F000A3F854401965A3F87C40354B6FF06300B8
:100300001A609C80334A344B1A60344A9C801470C3
:10031000334A5A610FF038FA0B200AF0FBF9314BDF
:10032000186020B940F2D9412F4B244A45E705F027
:10033000F9FE20460AF014FB08222868114646F010
:100340009EFA044620B140F2DE41284B1B4A34E7B6
:100350000BF0FEFB264B27481C70274B1C70274BCD
:100360001C7002B0BDE8704039F081B802B070BDB9
:100370000BE020FF22020000D66C0020845E0020EB
:10038000E5AB00087C5E00201F7E0020107E002070
:100390000080E00F84890408288B0408298704085A
:1003A0009D89040887860408388C0408205F002093
:1003B000AC890408785E00201B8B0408A48B040819
:1003C000585F0020605F0020701C0020307E0020FD
:1003D000481C0020B57E0020101D0020AF7E0020AC
:1003E000381D00201C5F0020E4890408FF890408F0
:1003F000137E0020838A0408B47E0020B37E002090
:100400002DE9F04F2DED028B4FF0000B99B0259D9B
:100410009146C5E900BBC5E902BB85F839B0A5F82E
:100420003AB0A5F83CB085F83EB0D0F8D62AD0F85E
:10043000DACAD0F8DE7AD0F8E26A2A61EE61C5F84D
:1004400014C0AF61D0F8E62A1E462A62D0F8C23A3C
:10045000D0F8CA7AD0F8CE2AD0F8C6CA2A63C5F82E
:1004600028C0EF626B62D0F8D23A00F6F80A6B63EC
:1004700090F8EA3A044685F83830249B00F6C22703
:1004800083F800B0B0F85C3A059328F091FCDAE903
:10049000002352EA030104D094F8BD1A002900F0A9
:1004A000FE8094F8EB3A93B394F8EA3A94F8ED2A84
:1004B000013BDBB29A4204D194F8BD3A022B00F022
:1004C00059810022012194F8B83A85F83A3094F81D
:1004D000B60AA34B85F83B0094F8B70A19EB03035F
:1004E00046EB0202C5E9003285F83C0085F8391078
:1004F00002222946204629F027F80423A4F85A3A74
:10050000CAE9009619B0BDEC028BBDE8F08F0DF181
:100510003E070DF13D032A4601212046009728F0B1
:100520004DFC9DF83D30BDF83E803BB194F8B83AA3
:1005300085F83A3094F8B63A85F83B302A460DF102
:100540003D0302212046009728F038FCBDF83E30DC
:100550009DF83D20984528BF98463AB194F8B73A9F
:1005600085F83C3094F8B63A85F83B302A460DF1D0
:100570003D0303212046009728F020FCBDF83E30C3
:100580009DF83D20984528BF9846002A40F0CE802F
:100590002A4604210DF13D032046009728F00EFC69
:1005A000BDF83E300599434528BF4346994228BFD0
:1005B00019469DF83D208B46002A40F0718104F5D4
:1005C0001067B4F8B23AB4F85E2AB3FBFBF10BFB48
:1005D0001131ABEB010B1FFA8BFB5B449BB2B3FBFE
:1005E000F2F102FB1133CAE900969FED5B0BA4F810
:1005F000B23AA4F85ABAADF83E202DF057FA51ECB1
:10060000100B2EF02FFA0B464FF00008A0FB0B0149
:1006100003FB0B113B687A6810EB090941EB0606F6
:10062000B9EB0300C5E9009666EB020184F8BA8ACB
:100630002EF072F9DFED4B8A07EE900A9FED4A8AA1
:10064000C7EEA87AF4EEC87AF1EE10FA1FD49FED47
:10065000477AF4EEC77AF1EE10FA18DCD4F80809FC
:10066000D4F80C19B9EB000066EB01012EF054F937
:1006700007EE900AC7EEA87AF4EEC87AF1EE10FA07
:100680004ABF662384F8BB8A84F8BB3A3AE76523FD
:1006900084F8BB3A19B0BDEC028BBDE8F08FB9EB22
:1006A00002010A914FF00001B4F85A0A66EB030206
:1006B0009FED290B0B92CDE906012DF0F7F951ECD6
:1006C000100B2EF0CFF98C46069B0B9AA0FB030172
:1006D0000CFB0311030943EA017302930A9BCDE962
:1006E0001001C31A08934FEA2113039361EB02032D
:1006F0000993DDE90823DDE902BC93457CEB0303A4
:10070000C0F265810A9B1B1A0C930B9B63EB0103E0
:100710000D93DDE90C23DDE90201904271EB030347
:10072000BFF6BFAE6423249A1370BAE64FF6FF7289
:100730000F4B94F8B61A5B7B85F83B1004EB430330
:10074000B3F8A0389342ADF83E303FF421AFAB6828
:1007500043F40053AB601BE700000000D01263417C
:10076000C00E1602286B6E4E0000704200007043EF
:100770000CF9040894F8EC3A002B3FF4A2AE94F87C
:10078000BF3A94F8BE0A18442DF05AFC41EC100B05
:1007900094F8C00A00F044FB94F8BE2A0130C3B2BA
:1007A0009A4284F8C03ABFF48CAE38687968BA6867
:1007B000FB680DF14C0CE046ACE80F0038692F46A1
:1007C000CCF80000BDF84C002DF02AFC02940D4638
:1007D00004460DF15E0B38F8020F2DF021FC0246A5
:1007E0000B46204629462DF0DFFAC34504460D4648
:1007F000F1D12EF037F9029C3D4694F8BF7AA7FB61
:10080000002301FB07334FEAC20CDF001CEB020C94
:1008100047EA527743EB07074FEA8C01BF0047EAEC
:100820009C77B1EB020C67EB030E4FEA8E0747EAA9
:100830009C77BE4690484FEA8C0CA2FB007800FBE8
:10084000038817EB090348EB0602C5E90032294685
:1008500000222046CDE910CE28F076FEDDE91078A2
:100860000123002F84F8C03A78F10003C0F2D7804A
:100870000A220023384641462EF0DCF80A220546BB
:100880000023384641462EF0D5F8002B08BF052A34
:1008900080F0E580A8B2A4F85A0ACAE9009631E6C9
:1008A000012385F8393094F8B52A0DF13D0302F2A1
:1008B000375234F8121010AAA98194F8B70A13A974
:1008C00085F83C0094F8B67A204685F83B7029F00C
:1008D0002BFFDDED137AF5EE407AF1EE10FA0ED132
:1008E00094F8BA3A5BB994F8B53A04F5106703F294
:1008F000335334F81330EB81C7E9009661E604F511
:10090000106704F60818D7E90023D8E900018242ED
:1009100073EB010CCDE9102303DA02460B46CDE957
:100920001001B9EB020066EB03012DF0F5FFDFEDDE
:10093000537A07EE100A87EE270AF1EE000A8DEDD2
:10094000130A2FF09FFBF0EE080AB0EE408A9DEDEF
:10095000130A2FF097FBDFED4A6ADFED4A7A9DED2F
:10096000137A28EE268A20EE270ADFED476A67EE23
:10097000077A38EE008A67EEA67ADFED446A78EEF1
:10098000277A27EE267ADFED426A77EE877A9FEDA7
:10099000417A77EEA67A67EE877AF8FE677AFCEE00
:1009A000E77A17EE902A94F8BA3AEA8143BB0093AB
:1009B0009FED390A4A4633461621204629F0C2FDEA
:1009C00094F8BA3A002B97D0C8E90096F9E59FED64
:1009D000280BDAE90067B4F85A8A2DF067F851EC71
:1009E000100B2EF03FF86424A0FB082301FB083312
:1009F000961947EB0303C5E90063249B1C7081E54E
:100A00000023B7EE000A00934A46334616212046DB
:100A100029F098FDAB6843F40013AB60D0E7B8F160
:100A2000004F08BF002F1DD07F4268EB48080A2204
:100A30000023384641462DF0FDFF0D460290414609
:100A400038460A22002303952DF0F4FFDDE9020168
:100A5000002B08BF052A08D2404280B21BE7681C61
:100A600080B218E743F2333015E7C04380B212E793
:100A700000000000D0126341003B5808286B6E4E06
:100A8000598207B0DFE0C2343767D9B85A8E863C46
:100A90006A92E43E00007A4400000000000000007A
:100AA0002DE9F04F2DED048B044600200D4616462F
:100AB00098468DB01A9F0DF1080904F6782C04F6BB
:100AC000982A3870CE46DCF80000DCF80410DCF818
:100AD0000820DCF80C300CF1100CD445AEE80F0007
:100AE00009F11009EED1DCF80000BCF80430C9F8B7
:100AF0000000A9F8043076BB0C2384F8EB6A3B7045
:100B0000204602A928F088F9002840F0248197F9AE
:100B10000000002856DB0023B94EDFF8F89203E00E
:100B20005D1C1A2D2B464DD046FA03F2D507F7D59A
:100B300013F809200CA901EB420002F23B5130F8F6
:100B40002A2C34F811005D1C9042E9B2E9D020460D
:100B500028F018FBE5E72B79013BDAB2012A40D9EE
:100B600000229FEDA88A9FEDA89ADFEDA88ADFF802
:100B700090B205EBC60684F8EB2A0092CDF804800B
:100B800012E04BFA03F2D20711D5012202FA03F365
:100B9000009A13EA020A00F09380F3233B700835B1
:100BA000B54209D02B79013BDBB2192BE9D90A23D5
:100BB0000835B5423B70F5D197F90030DDF8048077
:100BC000002B9DDA98F80030072B22D8F1234FF044
:100BD000000E3B7088F800E00DB0BDEC048BBDE862
:100BE000F08FD5ED007AF5EE407AF1EE10FAB7D13C
:100BF00047F23053BDF808209A4200F0ED80BDF86E
:100C00000A209A4200F0E8800B234FF0000E3B7060
:100C1000E0E700259FED7B6AAE46DFED7B5ADFF80B
:100C2000F8A177497A4FDFF8ECC1DDF86CB002E04B
:100C30000135182DCED00122AA4012EA0A0FF7D0B2
:100C40000EF1010E5FFA8EFE0EF1FF360BEBC606BB
:100C5000013586ED006A00234FF6FF7935710CE00F
:100C6000484507D007EE900AF8EEE77A85EEA77AB6
:100C700086ED007A01331A2BDBD041FA03F0C0076E
:100C8000F8D557F823000242F4D0D6ED007AF4EEFE
:100C9000467AF1EE10FA13F80C0000F23B5034F8EB
:100CA0001000DDD007EE100AB8EEC77AC5EE876AED
:100CB000F4EEE67AF1EE10FA48BFC6ED006AD9E725
:100CC000D5ED007AF5EE407AF1EE10FA009A42EA9C
:100CD0000302009229D1F6233B70D5ED007AF5EEA0
:100CE000407AF1EE10FAB0EE677A1ED1B5EEC07A16
:100CF000F1EE10FA31DCB5EE407AF1EE10FA14BFE5
:100D00004FF0FF3300231FFA83F897F90030002BD0
:100D10007FF445AF3F4A2B79134413F8013C0CAAEA
:100D200002EB430323F82A8C39E7F4EE487AF1EE1C
:100D300010FA4ED0B2EE047AF4EEC77AF1EE10FA61
:100D400004DCF4EEE87AF1EE10FA4DD5F2233B70B4
:100D500095ED007ACAE73870DBE6B4EEC87AF1EEBA
:100D600010FAC8D5C9EE077AF8FE677AFCEEE77A82
:100D700017EE903A1FFA83F8264A2B79134413F89A
:100D8000013C534403F2A74334F813900AF1130AC9
:100D900048462DF045F918A3D3E900232DF0BAF900
:100DA00041EC100B2CF082FE51EC100B2DF074FC7A
:100DB00080B2A9EB00039BB2814443451FFA89F935
:100DC00001D8C145A1D2BAF1720FD5D1F4233B703D
:100DD000E5E6B0EE677A8EE794F9BB3A3BB90122BB
:100DE0009E4684F8BA2AF5E6B0EE677A7EE74FF0C1
:100DF000000E3B70EEE600BF7B14AE47E17A843F05
:100E0000EF79F20300FF7F470000C8420E74DA3A20
:100E100024F90408C0F904080F20E00000000000D5
:100E20002DE9F84F2DED028B55EC104B07462CF0B9
:100E30003DFE51EC100B2DF02FFCC6B230462DF0CC
:100E4000FFF822462B462DF0CDFB40B1BDEC028BC6
:100E5000B7FBF6F306FB1370C0B2BDE8F88F384657
:100E60002DF0DEF8002241EC180B00232046294625
:100E70002DF0B8FBB0BB45EC104B2EF099FF20468F
:100E800053EC102B29462DF0ADFB58BB22462B46C8
:100E900051EC180B2DF068FA21F0004700221E4B90
:100EA000394606462CF080FF41EC100B2EF080FFF7
:100EB000304653EC102B39462CF074FF002280464C
:100EC0008946164B304639462DF024F929F0004B5F
:100ED00002460B46404659462DF098FB10B19FED57
:100EE0000C0B07E0B0EE480AF0EE680A45EC114B37
:100EF0002EF0DAFF2CF0DAFD51EC100B2DF0CCFBCC
:100F0000BDEC028BC0B2BDE8F88F00BFAFF300802C
:100F100000000000000000000000E03F0000B03CC6
:100F20002DE9F04F00224FF0090BDFED205A9FED25
:100F3000206ADFED206AB1EE047ADFED1F7A4FF010
:100F4000FF346FF00045DFF880A0DFF88090DFF815
:100F50008080DFF880E0DFF880C0184F184E194914
:100F6000C0ED015A80ED046AC0ED056A80ED067A95
:100F7000C0ED097AC0E9164580F800B0C0F828A095
:100F8000C0F82C90C0F83880C0F83CE0C0F840C0F1
:100F9000C764066501668260C260C2610262026364
:100FA000426342648264BDE8F08F00BF07F0963D63
:100FB0001C7CE13D3480D73FCDCC0C3E5DFEE33E52
:100FC000363C85BF0000404067D5273EE63F4CC019
:100FD00091ED3CBFFB3A403FB15083402DE9F047D3
:100FE00086B004AB05AE04460078CDE900360DF1BD
:100FF0000F030D462CF02AFD9DF90F00E0B94FF0CC
:10100000010A04F1400904F12C0804F118075FFA01
:101010008AF3013B032B24D8DFE803F01D171102EC
:101020004A463146284629F0E5FE0AF1010ABAF19E
:10103000060FECD19DF90F0006B0BDE8F0874246DF
:101040003146284629F0D6FEEFE73A463146284693
:1010500029F0D0FEE9E731462846221D29F0CAFED4
:10106000E3E73146284629F051FC84ED180ADCE715
:101070002DE9F0432DED048B83B0BDF840400546CB
:10108000DDE90E89B4F5E16F17461E46B0EE408AE1
:10109000F0EE608A6BD028D941F270739C422ED05A
:1010A00047F230539C4208BF012408D1D5E916010C
:1010B0004FF0FF326FF000432CF0A4FD08B39FED1A
:1010C000309A4FF0FF326FF00043384631462CF033
:1010D00099FD08B9C5E9167638EE490A30EE680A76
:1010E00003B0BDEC048BBDE8F083642C05D0B4F5EF
:1010F000967F08BF0424D9D0E1E70524D6E702246F
:10110000D4E7D5E91601B8EB000069EB01012CF03A
:10111000D3FF19A3D3E900232DF026F90B4602468D
:10112000CDE900232DF0D8FADDE9002305EB840496
:1011300007EE900AD4ED009A94ED057A67EEA99A2D
:1011400094ED0A9A1046194627EE899A79EE879A05
:101150002CF0E0FF2DF0C0FA07EE900A94ED0F7A24
:1011600079EE277A77EE877A89EEA79AA9E790ED4C
:10117000189AA6E7AFF300800000000065CDCD41CE
:10118000000000002DE9F047052482B00746904694
:1011900000780DF103020D468DF803402CF078FC29
:1011A0009DF80360019036B3012407F1400A07F16E
:1011B0002C09E3B2013B042B0BD8DFE803F031101C
:1011C0002A2303004146284697ED180A01AA29F070
:1011D000B5FBA64204F101030CD01C46E9E701ABC4
:1011E0004246294607F1180029F066FDA64204F19F
:1011F0000103F2D10198C0F3072328706B7002B08D
:10120000BDE8F08742462946504601AB29F054FD1F
:10121000DFE742462946484601AB29F04DFDD8E7B5
:101220004246294601AB381D29F046FDD1E700BFF3
:101230002DE9F043012485B08046914600780DF1F8
:101240000B020E468DF80B402CF022FC9DF80B5043
:10125000039035B1002403AF54B10134A542FBD152
:101260000398C0F307233070737005B0BDE8F083B6
:10127000D8E916014B463246009729F0ADFBECE762
:1012800070B586B004AB05AE04460078CDE90036F3
:101290000DF10F030D462CF0D9FB9DF90F0008B19D
:1012A00006B070BD3146284629F07AFBC4E9160124
:1012B0009DF90F0006B070BD51EC100BF8B5C1F3ED
:1012C0000A530C4610EE106AA3F2FF35132D32DCE0
:1012D000002D1EDB364F2F4101EA070303432FD0B9
:1012E00031A3D3E900232CF05FFD002200232DF071
:1012F000A1F948B1002C04DD4FF4801343FA05F541
:101300002C4424EA070400262346324643EC102BE3
:10131000F8BD25A3D3E900232CF046FD00220023CD
:101320002DF088F90028EFD0002C39DB264333D08C
:101330000026204CE8E7332D05DDB5F5806F23D07E
:1013400041EC100BF8BDA3F213434FF0FF37DF4021
:101350000742F5D014A3D3E900232CF025FD002289
:1013600000232DF067F90028CED0002C09DD142DC4
:1013700014D00123C5F1340503FA05F5AE1928BFD1
:10138000E41826EA0706BFE710EE102A0B462CF0F9
:101390000BFD41EC100BF8BD3446B5E70134F0E726
:1013A00000264FF00044AFE79C7500883CE4377E90
:1013B000FFFF0F000000F03F51EC100BF8B5C1F338
:1013C0000A530C4610EE106AA3F2FF35132D30DCE1
:1013D000002D1EDB384F2F4101EA070303432DD0B8
:1013E00033A3D3E900232CF0DFFC002200232DF0EF
:1013F00021F948B1002C04DA4FF4801343FA05F5C3
:101400002C4424EA070400262346324643EC102BE2
:10141000F8BD27A3D3E900232CF0C6FC002200234B
:101420002DF008F90028EFD0002C29DB00263446E7
:10143000EAE7332D05DDB5F5806F19D041EC100BCF
:10144000F8BDA3F213434FF0FF37DF400742F5D05A
:1014500017A3D3E900232CF0A7FC002200232DF0D2
:10146000E9F80028D0D0002C13DB26EA0706CBE7EA
:1014700010EE102A0B462CF097FC41EC100BF8BD37
:1014800024F000430D4A33430026B34218BF1446EC
:10149000BAE7142D08D00123C5F1340503FA05F588
:1014A000AE1928BFE418E0E70134DEE7AFF30080AF
:1014B0009C7500883CE4377EFFFF0F000000F0BF02
:1014C00010B5054C237833B9044B13B1044800E040
:1014D00000BF0123237010BD6850002000000000F1
:1014E0003807050808B5034B1BB10349034800E062
:1014F00000BF08BD000000006C5000203807050840
:10150000A3F5803A704700BF174B002B08BF134B61
:101510009D46FFF7F5FF00218B460F461348144AFE
:10152000121A45F0F7FF0E4B002B00D098470D4BD9
:10153000002B00D098470020002104000D000D482A
:10154000002802D00C4800E000BF2DF085FC2000F0
:10155000290030F0BCFD2DF059FC00BF0000080050
:10156000000000000000000000120020A81B002066
:10157000608700200000000000000000CB8B07EE19
:10158000900A07EE103A9FED180AB8EE477AF8EE87
:10159000677A27EE000ADFED156A17EEA60ADFED7F
:1015A000146A27EE267ADFED136AB1F9203017EEC0
:1015B000A67A06EE903A91F92230B3EE006A07EE71
:1015C000903AF8EEE77A20EE000A67EE867AF8EEB7
:1015D000E66A67EE807A9FED080A47EE267AC1ED4B
:1015E0000E7A87EE800A704700000039000000374D
:1015F0000000803A000080380000A045D1ED0E6A5E
:10160000F6EE007A9FED557A91F9283016EEA77A1A
:1016100007EE903AB1F92630F8EEE77A06EE903A06
:1016200067EE877AF8EEE66A67EE877A66EE876A93
:10163000B0EE476A9FED4A7AF7EE005A47EE876AA6
:10164000DFED487A8B8C66EEA76A9FED474AF0EE95
:10165000657A05EE903A46EE847AF8EE655A65EEC4
:10166000A75AFDEEE57A17EE903A03EE900A002BAA
:1016700070D091F92E30DFED3D4A05EE103AB1F908
:101680002C30B8EEC55A07EE103AB8EEC77A27EEFE
:10169000067A66EE067A25EE245A37EE077AB1F915
:1016A0002A3005EE277A06EE103AF8EE637ADFED7F
:1016B000306AB8EEC66A76EEE76ADFED2E7A26EE7D
:1016C000276AF5EE007A07EE276ADFED2B7AB0EE97
:1016D000667A06EE677ADFED297A27EE277AB1F986
:1016E000323087EE250A07EE103AB1F93030B8EE05
:1016F000C77A07EE903AF8EEE77A27EE007A67EEBF
:10170000847A27EE007A67EE807A9FED1D6ADFED1E
:101710001D6A91F8343060EE266A47EE067A07EECD
:10172000103A26EEA66AB8EEC77A66EE266A27EE6B
:10173000247A91F92F3047EE267A07EE103ADFED42
:10174000126AB8EEC77A47EE267A9FED107A07EE56
:10175000870A70479FED0E0A704700BF00007A4766
:10176000000080380000003600000038000000371C
:101770000000804900008047000080390050C345C8
:10178000000000300000803B000000430000803D6E
:101790000000000091ED0E7ADFED307A91F91530FE
:1017A000C7EE276A07EE103A91F91630DFED2C5A92
:1017B00006EE103AB8EEC77AF7EE007A27EE257AF1
:1017C000BAEEC66A4B8A47EE267A26EE266A00EE05
:1017D000103A46EE267ABBEEC70A91F9143067EE4E
:1017E000807A06EE103A0B8AB3EE005A00EE103AF9
:1017F000B8EE400A07EE100ABAEEEF6A20EE050ACC
:10180000B8EE477A06EE260A37EE400A91F918300C
:1018100027EE800A07EE103ACB7DBAEEE57A07EEA6
:10182000903AF8EE677A67EEA57A47EE267A67EE89
:10183000807A07EE800ADFED0B7AB4EEE70AF1EE6C
:1018400010FA07DCB5EEC00AF1EE10FA04D59FEDF0
:10185000060A7047B0EE670A704700BF0000A04557
:10186000000080380000C84200000000B1F91A30C2
:10187000B0F5C87F07EE903A28BF4FF4C870FAEE73
:10188000E87ADFED2B6A9FED2B7A07EEA67AF7EE6A
:10189000006A07EE900AF0EE665AF8EE677A91F960
:1018A000193047EE275A07EE103ADFED237ABAEEE9
:1018B000CE7A91F91C3037EE277A07EE903A91F9FB
:1018C0000E30FAEECB7A06EE103AB8EEC66A67EE44
:1018D000867A91F83C3045EE877A07EE103AB1EE01
:1018E000006AB8EE477A37EE067A91F93D30C6EED7
:1018F000075A07EE103A67EEA57AB8EEC77A9FED61
:101900000F6AF0EE665A47EE065AB3EE097A86EE93
:10191000A56A17EE867ADFED0A7A67EE277AFCEE83
:10192000E77A82B0CDED017A9DF8040002B07047ED
:101930006F12033A75021A3B000044426F12033BD8
:101940009A99594006EE900AF0B52B4CA1B06D461D
:10195000264607EE902A9FED297AF8EE666A0F4632
:101960000FCE0FC50FCE76EEC76AF8EEE77AB1EE6E
:10197000046A9FED237A0FC50FCE0FC596E80F00BE
:10198000403485E80F000FCC10AD0FC50FCC0FC54C
:101990000FCC0FC594E80F0085E80F0020AB03EBD8
:1019A000870353ED205A07EE867A9FED166AB7EE4D
:1019B000000AC5EE867A77EE807A27EE277AC6EEA1
:1019C000877A13ED107A77EE806AC7EE067A0123E4
:1019D00077EE807A9FED0C7ABB4027EE877A07EE90
:1019E000903AF8EEE77A67EE277A66EEA77A80EE0D
:1019F000270A21B0F0BD00BF387A04080000004477
:101A00000080A7440000C842BD370634F0B54D4BF6
:101A1000064618681B7987B08DF80C3000230290B9
:101A20000DF107000D4604938DF8143030F086FA5E
:101A30000446002840F08380294630F042FA0746E9
:101A4000044666B94FF0FF349DF8070020B11CB979
:101A5000294630F036FA0446204607B0F0BD00288B
:101A6000F2D12B4605229DF8080004A930F005F9B3
:101A700085F84D7004460028E6D12A460721F01C5F
:101A800030F050F804460028DED10521701C30F0FB
:101A900049F804460028D7D1B01C30F043F804467A
:101AA0000028D1D1304630F03DF804460028CBD193
:101AB0000821301D30F036F804460028C4D1F378F0
:101AC0009DF814209B0022F01C0203F01C0313431A
:101AD0005AB29DF81330717803F01F0343EA4113A3
:101AE000B17823F01C03890001F01C010B438DF831
:101AF000133031789DF8113001F0070123F007030E
:101B00000B4331798DF81130082912BF00200120D4
:101B100000219DF8103002F01F0203F07F0342EA1B
:101B2000411243EAC0138DF814208DF810300522BD
:101B30002B4604A902A830F056F8044684E7002E8C
:101B400082D17FE7307A04082DE9F04FB5B01E4608
:101B500022AB019204460F4618464822002145F068
:101B6000D9FC28AB0A900B9330462EAB0C932FF088
:101B7000CBFF054628B14FF0FF34204635B0BDE815
:101B8000F08F002FF7D0012C40F0D4800146159043
:101B90000D2216A845F0BEFC0525334611221D2056
:101BA00015A930F06AF89DF855200446BA709DF8E2
:101BB00056209DF8540002929DF8572000F08003B3
:101BC00003929DF8582000F00F0004929DF85920D0
:101BD000787005929DF85A209DF862A006929DF8B3
:101BE0005C209DF8648007929DF85D209DF85B90D5
:101BF00008929DF861209DF863B00992B268012AAD
:101C00000CBF08F030020AF0300213433B701B0691
:101C100079D5002C7DD133460122F91C5A3030F0A1
:101C20002CF80446002874D17878334650300122CD
:101C3000391DC0B230F021F80446002869D1787807
:101C4000334664300122791DC0B230F016F80446E4
:101C500000285ED1069B4FEA191040EA0310059B4D
:101C6000314640EA0330FFF789FC049B87ED020A06
:101C70001809039B40EA0310029B40EA0330FFF778
:101C8000BDFCDDE9072387ED030A43EA0220FFF7E5
:101C900081FDB36887ED040A012B26D14FEA981322
:101CA00043EA8B0B4FF4802308F00F0823FA08F364
:101CB00007EE103ADFEDB37AB8EEC77A0BEB4B0BB9
:101CC0000BF5206B27EE277A07EE90BAF8EEE77A4D
:101CD000C7EE276AC7ED056A97F90030002BB5BF3C
:101CE00001250025002402241EE0099B4FEA9A10DA
:101CF00096F93E200AF00F0140EA8300FFF722FE2A
:101D000087ED050AE8E724B942F21070B36C7168F8
:101D10009847013D15F0FF0504D0002C3FF43DAF7E
:101D2000002501E0002CD7D0019B002B3FF423AF0E
:101D30001D7022E7023C012C00F2218101462F2276
:101D4000159016A845F0E6FB1A2229460EA80D9517
:101D500045F0E0FB334633221D2015A92FF08DFFFF
:101D600004468246002840F09A8033461E225020C6
:101D70000DA92FF082FF15AD9FED823A0446002891
:101D800040F08D800AAB53F82A806B7895F8039069
:101D900088F80230AB784FEA091949EA03392B7900
:101DA000A87949EA13196B79000140EA0330EB790D
:101DB0002A7A40EA131307EE903A6B7A297843EABD
:101DC00002236A7BB0680292EA7B95F80EB0039218
:101DD0002A7C012801F00F0C21F07F010CBF02F0DA
:101DE000200E0BF0200E49B20BBF41EA0E0141EA72
:101DF0000E0102F0100E0BF0100E41EA0E010493DA
:101E000034AB88F8001003EB0C0111F89C1C88F827
:101E100001C088F8041003EB0C0111F8921C9C44DB
:101E200088F803101CF8881C17EE900A88F8051033
:101E30003146FFF7A3FB484688ED020AFFF7DEFBB9
:101E4000049B88ED030A1846FFF7A4FCB36888EDED
:101E5000040A012B38D10399930943EA81034FF413
:101E6000802102F00F0221FA02F207EE902A03EB22
:101E7000430303F52063F8EEE77A07EE103A67EEC6
:101E8000837AB8EEC77A87EE870A0AF1010ABAF1B7
:101E9000030F88ED050A05F111057FF473AF0DF10D
:101EA000280E724603230025002C4FD152F8041B44
:101EB000013B91F900100029BCBF0135EDB213F0D0
:101EC000FF03F3D1704639E0029B4FEA9B1096F96D
:101ED0003E200BF00F0140EA8300FFF733FDD4E70B
:101EE0004FF00209DCF8006051F8043B96F900A0BD
:101EF00093F90020BAF1000F16DA002A16DA96F8E4
:101F000002A09A78A2EB0A0292B202F1020A1FFA28
:101F10008AFABAF1010F02D912B2022A06DDCCF810
:101F2000003041F8046C01E0002AF8DBB9F1020F3F
:101F3000D6D1B8F1020F4FF0010307D00133844628
:101F40005FFA83F804300146C146CBE74FF0000842
:101F50004FF018097CB909FB08765EF804CB08F14C
:101F60000108BCE80F000FC69CE80300B8F1030F9E
:101F700086E80300EFD1002D08BF0224D4E6012437
:101F8000D2E600BF0024744947F270132DE9F04FE8
:101F900093B0064617460D46ADF81430002900F000
:101FA0009380114600202FF08CFF0446002840F05B
:101FB000F5806E238C4A8DF81330D2F88600D2F863
:101FC0008A1006AB03C3B2F88E20022E1A8009AB2A
:101FD00003C31A800CAB03C31A800FAB03C30DF10C
:101FE00018081A800DF124090DF13C0A00F09E80BA
:101FF000032E64D0012E40F0F5805A2339466888BC
:102000008DF81830FFF732FC64238DF83030AB8840
:102010008DF82400B3F57C6F4FD23F2BE2B204F170
:10202000010448D803EB8213DBB24FF0000A8DF8AD
:102030003C303B463246494640462FF0D4FD0446EC
:10204000002840F0AB803B4632460FA90CA82FF089
:10205000CAFD0446002840F0A1803B4602227020C1
:102060000FA92FF00AFE0446002840F097802A7836
:10207000012A40F0B480BB68012B08BF02229DF802
:102080003C300FA923F0080343EAC4049DF83D3017
:1020900005A823F00F0343EA0A0323F0300343EAC1
:1020A00002138DF83D3002223B468DF83C402FF064
:1020B0009AFD044672E09B08AFE7FF23B5E7D5F829
:1020C0000CB0BBF1000F02D14FF0FF3466E0AB68FB
:1020D000002BF9D02E7CE2B2964201D8B246A8E796
:1020E00002F15A0108F8041033F81400394601933C
:1020F000FFF7BCFB64320CAB1A5509F804003BF83F
:102100001420019BB2F57C6F0ED200213F2AC8B289
:1021100001F1010106D802EB8012D2B20AF80420C4
:102120000134D8E79208F1E7FF22F7E7D5F80CB0C1
:10213000BBF1000FC8D0AB680193002BC4D06B8AF1
:102140000022002B08BF03242E7CCDF808A05FFAE4
:1021500082FA564526D840F2827293423DD84FF417
:102160007A72534340F2DD12B3FBF2F300229BB2CA
:102170003F2BD1B202F101022DD803EB8113DBB268
:102180008DF8123054B93B4601220DF112010DF1C8
:1021900013002FF028FD044600289FD0204613B0DE
:1021A000BDE8F08F0AF15A010393019B08F8021071
:1021B00033F812003946FFF759FB0AF1640A0CABF9
:1021C00003F802A009F802003BF81210029BD15458
:1021D000039B0132BBE79B08CAE7FF23D0E7024617
:1021E00001244CE70124D9E7387A0408014B186828
:1021F000704700BF3051002007B5019001F0D4FEB8
:102200000020019901F0C4FE0222024B9A6103B042
:102210005DF804FB00500650022208B5084B5A61D5
:1022200001F0C2FE074B5A6812B19A6A002AFAD12D
:1022300002220121DA60044B1970014B9A6108BD3A
:1022400000600650004006503914002008B536F0F2
:1022500083FF054B186028B96721044B044A0548E1
:102260002CF0AEFD08BD00BF305100207E82040876
:1022700088820408A5820408014B18680DF024BA6E
:102280003051002010B52F4B502298B00021184635
:1022900045F040F92C4A012402642C4A047342643C
:1022A0002B4A82642B4A4260192282732FF03CFD34
:1022B00028B1C521284B294A29482CF081FD8DF8E9
:1022C00006009DF80610274849B236F0AEFB26F00E
:1022D00019F98DF806009DF80610224849B236F02B
:1022E000A4FB4FF48053204A40F2B6711F4826F0F9
:1022F0003BF98DF806009DF806101A4849B236F0F1
:1023000094FB082306228DF807308DF814204FF037
:102310007E530922029304938DF81C20069308AA89
:102320000DF10703032102A88DF80C4026F0F8F800
:102330008DF806009DF806100A4849B236F075FB84
:1023400018B010BD345100202B200308632003086F
:102350009B20030838140020B5820408D4820408A6
:10236000A5820408E8820408D66D0020C87A040813
:1023700038B51B4836F059FB00241A4D4FF0B640D3
:10238000E1B22FF091FE18B92146284636F04DFBF8
:102390000134802CF2D1144C07F0A8FAFFF772FF39
:1023A00000F0F2F900F014FA2FF08FFE01212068FE
:1023B00036F0DDFE28B1B2210C4B0D4A0D482CF051
:1023C000FFFC0121206837F0D0FA18B1B3210A4B85
:1023D000074AF3E703F03CFC084BC3E9000138BDB2
:1023E000EE820408CBB1040830510020FB820408BF
:1023F0002D830408A58204083D830408A81B00203F
:1024000010B50A4C206837F06FF9206809F062FCBB
:102410002FF05CFE064B1A783AB1BDE8104000225E
:10242000044905481A7000F0C3B810BD30510020AF
:10243000391400203D9B0008F921000804230249BB
:102440001A4602482FF08EBDED210008845000206E
:1024500070B5F2B007EE903A769B0D4613F400513A
:1024600007D00E218DF8251000210891012106903A
:1024700007955E070AD506AC04EB0114032684ED2C
:10248000020AC4E9000501316673C9B29C070AD586
:1024900006AC04EB0114022684ED021AC4E900051F
:1024A00001316673C9B2DE070AD5012606AC04EB1A
:1024B0000114C4ED020AC4E9000531446673C9B2CF
:1024C0001C070CD596060AD506AC04EB01140426AD
:1024D000C4ED021AC4E9000501316673C9B21C02D9
:1024E00039D5930637D5182406AA02EB0112547386
:1024F0002B4A0B0112780131012A14BFF8EEE77A5A
:10250000DFED287A06AA1344C3ED027AC3E9000579
:10251000C9B2132326AA8DF8173006A80DF11703A8
:1025200026F010F80022DFED1F7A04461146B0EEC7
:10253000677A9DF8175026ABD0B285421BD9587BDD
:1025400009280CD01A280DD0062801D193ED027A63
:1025500001321033F0E70029DBD10C461DE0D3ED4A
:10256000027AF5E7D3ED026AFCEEE66ACDED036A86
:102570009DF80C10ECE7DFED0C6A67EEA67A27EE0B
:10258000267AFCEEE77ACDED007AFCEEC77A224699
:1025900017EE903A054836F048FA204672B070BD02
:1025A000D87D00200000000000007A4472830408F7
:1025B0002DE9F04F674C85B0054622460291002078
:1025C000002126F029F80023634A0746D4E90001D8
:1025D0002CF0E0F9039007F0B1FA5F4B3A46434321
:1025E00003995E4836F021FAD4E9000100235A4AE3
:1025F0002CF0D0F9A84794F83E50012D76D1584ED2
:10260000584930462FF036FC08BB94F83C30304631
:10261000337094F83B305349737094F83A30B37088
:10262000FFF7F4F998B95049A38928464B80E3890C
:102630004C4A0D708B80FFF7A7FC40B928464949EA
:102640002FF03FFC18B9494B1D70494B1D7094F891
:102650003D30002B46D094F83E30002B42D0002570
:10266000DFF81881DFF804B13E4B424641499BF840
:102670000000DFF80C9188F80050FFF765FA98F831
:10268000003089F800506BB3DFF8F8A09BF80030F9
:10269000012B3CD1384D374E0FCE0FC596E80300C5
:1026A00085E8030000258AF80050334D2B789B06FF
:1026B00014D5029B9847A368274900934843D5ED5A
:1026C000051A95ED041AD5ED030A95ED020A0021CD
:1026D0006B782A78FFF7BCFE074618B99AF80030E5
:1026E000002BD3D1384605B0BDE8F08F002DAED118
:1026F0001F4E3378002BAAD028461A492FF0E1FB51
:102700000028A4D13378002BA1D030709FE798F82F
:102710000050002DC7D04FF0180C99F80060154BF1
:10272000DFF854E00CFB063CBCE80F00AEE80F00FD
:102730009CE803000136F6B2B5428EE8030003D8E8
:10274000013D89F80050ADE7AD1B89F80060EDB29E
:10275000A9E700BFB01B002040420F00A683040879
:10276000DB7D00203451002084510020D67D0020E4
:10277000D87D0020B051002098510020DA7D002043
:10278000D97D0020D77D002010B50F4836F04DF9D7
:10279000FFF72CFD4FF4FA6136F0AEFD044638B970
:1027A000FFF724FD4FF0000136F0EBFF044648B17F
:1027B000204636F0CFFC2146BDE8104002460348D3
:1027C00036F033B910BD00BFDB830408F083040882
:1027D00070B5A4B07822002106A844F09BFE224BDD
:1027E000224A1C936B461068516802AC03C36B46C7
:1027F000224603CB1E4BCDF85900CDF85D1003F1F6
:102800001006254618685968083303C5B3422C469C
:10281000F7D10FCA0EAC84E80F00BDF88C30154814
:1028200043F4CA7343F00103ADF88C3044F063FF06
:102830001049024612A844F046FE9DF88C3043F041
:1028400008038DF88C30FFF7D1FC06A936F0E6FBC3
:10285000044630B136F07EFC21460246064836F08A
:10286000E4F824B070BD00BFADDE0F003E84040864
:10287000478404083A140020158404081FB50C216D
:102880004FF4F06002F0B2F901213D2001F00AFEA0
:1028900001213C2001F006FE0C4A01AB07CA83E887
:1028A000070040F201121846ADF80C2001F01AFBA7
:1028B0000222074B9A614FF40032064B1A60012046
:1028C00001F044FB05B05DF804FB00BF5884040828
:1028D0000050065000E100E010B5274C02F01AF855
:1028E00002F062F9236F23F0070343F00303236729
:1028F0002FF0F1FD214B00209B6ADB015EBF4FF4FE
:1029000080321F4B9A62D4F8203123F0070343F042
:102910000203C4F82031D4F8283123F0070343F030
:102920000203C4F82831D4F8403123F0030343F004
:102930000103C4F84031D4F8603123F0030343F0BD
:102940000103C4F86031D4F8403223F0030343F0AC
:102950000103C4F84032D4F8003223F0070343F0F7
:102960000103C4F80032D4F8083223F0070343F01F
:102970000103C4F8083210BD008000500040005A26
:102980000060005A07B501A803F03CF99DF8053036
:10299000012B14D19DF804308BB94FF48012114BE8
:1029A0001149586E03F580535A664B6B23F0E05380
:1029B00043F040634B63C3025CBF0C4B5A6606F0A6
:1029C0006BF805F0FDFF31F05AF906F021F8FFF73A
:1029D00083FF06F00BF800F033FC03B05DF804EB66
:1029E00006F0E4BA008000500040005A00A00050F9
:1029F00008B53A20012101F055FDBDE80840014825
:102A000000F028B90012002018B1034B1860002014
:102A100070472520704700BF5852002010B5054C64
:102A20000549206801F060F82068BDE81040FFF714
:102A3000EBBF00BF381200201412002008B500F0D0
:102A40002DF8124B12498B4212D30020114B124920
:102A50008B4218D3FEF758FD186850F8224058688A
:102A600040F82240013298688242F5D30C33EAE7FD
:102A70000022F8E71C6844F8220001325C68A24298
:102A8000F8D30833E4E70022F8E700BF4007050861
:102A90004C0705084C0705084C0705084FF4804112
:102AA0004FF0FF30114B124A10B59A60D3F88820CE
:102AB00042F47002C3F888200E4A91660E4901F56F
:102AC000005210660D4850660220C3F8D000BFF3D4
:102AD0004F8FBFF36F8F01244FF440330848C0F885
:102AE0008041D36004600B6110BD00BF00ED00E0C9
:102AF000000000080090005000800044F7FF3700FD
:102B000000E100E0014B1868704700BF401300204F
:102B1000084B1B6F03F00703022B04D0032B05D0D7
:102B2000012B05D0FEE7044B18687047034BFBE709
:102B300003487047008000504013002044130020D9
:102B4000002D310108B5FFF7E3FF054B1B6FC3F301
:102B500003330133B0FBF3F0024B186008BD00BF34
:102B6000008000503C1300200048704700B4C404AB
:102B7000014B1868704700BF44130020054B1860D4
:102B8000054B1B6F03F00703032B01D1FFF7DABFDF
:102B9000704700BF44130020008000500048704779
:102BA000002D31014FF0B4439868C0F304400C2865
:102BB00022D8DFE800F0092121212121071719215E
:102BC0001B1D1F000F4870479B6803F04073B3F153
:102BD000807F13D0B3F1007F12D00B4A002B08BFC7
:102BE00010467047094870470948704709487047C0
:102BF00009487047094870470020704708487047E7
:102C000008487047405DC60000093D000024F400FC
:102C1000C0EA210180BA8C010048E801005A620232
:102C200080841E0040420F00014B1868704700BFAF
:102C30004813002005490A681318054883428CBFD1
:102C40004FF0FF320B601046704700BF4C1300205E
:102C5000000004202DE9FF4103680446B3F1B64F9C
:102C600004D0354A934251D12F2000E02E2001217B
:102C700001F018FC01230A226179207902F0A8FCF6
:102C800001230A22E179A07902F0A2FC0A27012699
:102C90002A4D4FF030082279637908FB025206FA78
:102CA00003F302F501521360642007F0D1F9237990
:102CB000627908FB035306FA02F203F5825364209B
:102CC0001A6007F0C5F9013FE3D12068B0F1B64FB3
:102CD0001FD10323C5F8E8346279237943EA02431C
:102CE000C5F8EC34E279A37943EA0243C5F8F0343D
:102CF00040F20113ADF80030E36869460293A3681F
:102D00000193237C8DF80C3002F0DEFC04B0BDE8AA
:102D1000F081094B9842EBD10323C5F8F83462796E
:102D2000237943EA0243C5F8FC34E279A37943EA04
:102D30000243C5F80035DBE70080065000C00350B1
:102D400038B5054602F0EEFD044C012801D1013CE6
:102D500000D138BD284602F0D9FCF6E7E193040023
:102D60002DE9F04F9A46564B85B01B7806460F4624
:102D70001546DDF83C909DF844B0DDF85080002BFE
:102D800000F08D80072A00F28C800E9B002B00F053
:102D90008880B9F1000F00F08480129BB3F5006FBA
:102DA0007FDC012802D1109B002B7AD0454B03EB2E
:102DB00005131B7B002B76D0434C10220021684664
:102DC00044F0A8FB04EB45141022002F59D13946DA
:102DD000204644F09FFB43F210036380BBF1000FD9
:102DE00003D1E37843F00303E370374A0E9B02EB11
:102DF000451CCCE90193129B6901013BC3F30A0016
:102E00009DF84C30012E03F003034FEA836343EA3D
:102E1000001E53582D48CDF800A000EA03004EEAEA
:102E20000003535041D113230CF1100ECCF80C3099
:102E30009CE80F008EE80F006FF00301DCF81C2007
:102E4000109B61F39F02012FCCF81C20CCF81430AA
:102E500003D1CCF81890CCF804300027194A290186
:102E600002EB051342F80180159A28465A6069461C
:102E700022469F605E7302F0D7FD384605B0BDE87C
:102E8000F08F0021204644F045FB4FF444736380EB
:102E9000BBF1000FA9D1E37843F03003A4E70C485D
:102EA000ECE70C48EAE70C48E8E7B8F1000FD4D1AA
:102EB0009CF8023068F304138CF80230CDE700BFB1
:102EC000E07D00205C520020DC5200200F80FFF3E8
:102ED000028000F0018000F0078000F038B5124B4E
:102EE00005461B78DBB1E0B12FF019FB0F4A002338
:102EF0001146147B54B92B6001251A0101EB031311
:102F00001D738C502FF011FB204638BD0133082B68
:102F100002F11002EDD12FF008FB0548F5E7054856
:102F2000F3E70548F1E700BFE07D00205C52002098
:102F3000048000F0028000F0018000F0154B13B512
:102F40001868002301908DF804302FF0E8FA124B36
:102F50001C7824B12FF0E9FA104802B010BD01220C
:102F60001A702FF0E2FA0E4B01A81C731C7783F83D
:102F70002C4083F83C4083F84C4083F85C4083F855
:102F80006C4083F87C4008238DF8073002F01AFD6E
:102F90002046E2E764840408E07D0020038000F01E
:102FA0005C5200200A4A08B512785AB107280BD89B
:102FB000084A02EB00131B7B43B1002102F0F4FC32
:102FC000002008BD0448FCE70448FAE70448F8E795
:102FD000E07D00205C520020028000F0018000F0C3
:102FE000078000F00A4A08B512785AB107280BD8B2
:102FF000084A02EB00131B7B43B1012102F0D4FC11
:10300000002008BD0448FCE70448FAE70448F8E754
:10301000E07D00205C520020028000F0018000F082
:10302000078000F00A4A08B5127852B107280AD87A
:10303000084A02EB00131B7B3BB102F043FD00206A
:1030400008BD0548FCE70548FAE70548F8E700BF72
:10305000E07D00205C520020028000F0018000F042
:10306000078000F00D4B1B7893B1072812D889B167
:103070000B4B03EB00131B7B73B10A4BDA6A012382
:1030800003FA00F010401ABF00200B700870704760
:10309000054870470548704705487047E07D0020A7
:1030A0005C52002000000450028000F0018000F01B
:1030B000078000F00B4A10B512780C4662B1072861
:1030C0000CD859B1084A02EB00131B7B43B102F044
:1030D0000BFD2060002010BD0448FCE70448FAE71F
:1030E0000448F8E7E07D00205C520020028000F0F8
:1030F000018000F0078000F02DE9F843174B1F6DA9
:103100005B6D1F4000D5FEE701260025144CDFF85B
:103110005480DFF85490374217D02368C8F85060C5
:103120009BB1A168284601316268A1609847637B22
:10313000012B0AD148B909EB45131A7B60F3410210
:103140001A731A7F60F341021A770135082D4FEA8E
:10315000460604F11004DED1BDE8F88300000450F7
:103160005C52002000200450DC52002070B5044660
:1031700001250B4E04B970BD94FAA4F0B0FA80F0AA
:1031800005FA00F306EB001224EA03045368002B4F
:10319000F0D0117B11B191689847EBE79847E9E7C8
:1031A000DC53002008B5192001F084FF28B14FF04E
:1031B0000072074BC3F880211A601A2001F07AFFD1
:1031C00028B14FF08062024BC3F880211A6008BD1D
:1031D00000E100E038B505460C462FF0A0F90022CA
:1031E000044B03EB05135C601A73BDE838402FF005
:1031F0009CB900BFDC530020074BD3F82404D3F85C
:10320000202403F50053104000F0553020F05020EA
:10321000C3F82004FFF7AABF00C00350074BD3F840
:103220002404D3F8202403F50053104000F0AA3002
:1032300020F0A020C3F82004FFF798BF00C003507F
:10324000024B1968024B18681DF06CBA5413002029
:103250005013002037B5920004460D46019244F009
:10326000DFFB431C0BD060B929462046019A44F08D
:103270001AF90028044808BF002003B030BD0348F5
:10328000FBE70348F9E700BF10E000F021E000F0A1
:1032900024E000F010B5044644F0BAFB431C10D003
:1032A00088B902F0DBFC234620F00300204498425A
:1032B00001D1002010BD53F8042B0132F7D0034890
:1032C000F8E70348F6E70348F4E700BF0EE000F034
:1032D00021E000F024E000F008B52FF011F9014BD7
:1032E000186008BD1C5C0020014B18682FF00CB959
:1032F0001C5C002038B141B1013AB2F5006F0448BE
:1033000038BF00207047034870470148704700BF2E
:10331000037000F0027000F038B504460D462FF03F
:10332000FEF8A3889BB223B92B602FF0FEF8064865
:1033300038BD142263889BB202FB034408342C601E
:103340002FF0F3F80020F3E70B7000F0F8B5044617
:1033500016460F462FF0E3F8A388E2889BB29A4204
:10336000054605D8002333602FF0DFF81748F8BD75
:103370001422238807F1100C9BB202FB03433A4648
:103380000833174603CF6745186059603A4603F182
:103390000803F6D1142238681860238828469BB2A7
:1033A00002FB0343083333602388E2889BB2013376
:1033B000B3FBF2F102FB11339BB22380A3880133EC
:1033C0009BB2A3802FF0B1F80020D0E70A7000F084
:1033D00090F83530022B0DD114223023417F90F824
:1033E000210013FB0123044A9B5823FA00F000F04C
:1033F000010070470020704730C00350002313B510
:103400001D4A52F8044B94F8211081420ED001332A
:10341000042BF6D102B010BD0028FBD19DF8073077
:10342000002BF7D0A068FFF7BDFDF3E794F8353027
:10343000022BEFD12046FFF7CBFF637E2076022BD5
:10344000E8D194F8323003F0FF02002BE2D1A068FB
:103450000DF107018DF80720FFF704FE237E1BB155
:1034600094F83330002BD7D00023A06884F8333091
:10347000FFF7B8FDCEE700BFD05C0020104930B5A3
:103480000B78104A2BB9C2E90033C2E90233012399
:103490000B700C4C0023214651F8045B854208D088
:1034A0000133042BF8D1002154F8043B1BB942F836
:1034B0002100002003E001310429F5D1024830BD8C
:1034C000E17D0020D05C0020027000F010B50446C1
:1034D000FFF734FD002104F10800FFF7FFFC01466F
:1034E00020B904F10C00FFF7F9FC00B1004810BD51
:1034F0000E7000F090F8363053B9042103790A4A6F
:1035000003F239135B01D150022203685A617047FC
:10351000022B07D10068816C11F0020118BF06214F
:103520002FF046B8704700BF00C0035090F8363007
:1035300063B9012203685A619A69D207FCD5042154
:103540000379084AB9335B01D1507047022B07D188
:103550000068836C9B074CBF052109212FF028B818
:10356000704700BF00C0035010B590F836300446D5
:1035700063B9042203685A619A699207FCD52379DA
:103580000C4AB9335B011021995010BD022BFCD1BC
:103590000068836CDB074CBF052106212FF008F87B
:1035A000237941F294425B0103F1A04303F57033A8
:1035B000E9E700BF00C0035037B50446836B2EF027
:1035C000AEFFA36B0546013BA363A16B79B90191E3
:1035D0002EF096FF04460199012005F01BFD012005
:1035E000064A019905F01EFF20462EF08DFF284661
:1035F00003B0BDE830402EF098BF00BF8C840408B3
:1036000013B591F836200B68022A0CBF9B6C9B699E
:103610000C469B06084605D5FFF7CEFF0223E3655F
:1036200002B010BD2EF0BEFE00230146CDE90033EE
:10363000034A234604F13C0030F05BFBF0E700BF97
:103640000136000870B504462EF069FFA36B0546ED
:1036500073B92EF055FF01210646084605F0DAFC45
:103660000121074A084605F0DDFE30462EF04CFFEA
:10367000A36B28460133A363BDE870402EF055BF0D
:103680008C8404087FB5012380F8303090F8363000
:1036900083B9036824330D4A0490039200220292F6
:1036A0004A680192012200920A684169C0682EF0BE
:1036B000BAFD07E0022B02D103683C33EBE700239D
:1036C00080F8303007B05DF804FB00BF213D0008F2
:1036D00001232DE9F04180F8313090F8363004466E
:1036E0000E4688B063BB05683C352EF018FF04F128
:1036F0003C0807460DF11F01404606F077F940B936
:103700009DF81F302BB1404606F048F92046FFF7E0
:1037100053FF384601272EF008FF2046E765FFF7E4
:1037200091FF0D4B2A46039300230293736821698E
:10373000CDE90073A068336804942EF05AFD07E0C9
:10374000022B02D105684435CFE7002380F83130E1
:1037500008B0BDE8F08100BF5D370008F0B585B066
:10376000D06A03A91446FFF7D7FD064620462EF07F
:1037700019FE002501462346CDE90055164A04F1FD
:103780003C0030F0B6FA154B9E421FD0039B1D61E2
:103790009D602EF0C4FE039A0646D76827B1D2E991
:1037A000002329462046B847E06A03A92EF011FEFF
:1037B000E06A83889BB263B103A9FFF7ADFD2046A1
:1037C0000399FFF785FF30462EF0AFFE012005B0CC
:1037D000F0BD84F83130F6E7013600080B7000F0D8
:1037E0002DE9F3410D46044600287FD02EF097FEC8
:1037F000012D064641D1E36A9B889BB2002B43D042
:10380000A068FFF70FFC0023E06A84F8313083885A
:103810009BB273B101A9FFF77FFD0199A068083140
:10382000FFF748FC374F019B1F61E06A83889BB21A
:1038300083BB20462EF0F0FD8304FAD5023D012D16
:1038400010D8E068FFF7EEFB0023A06A84F8303060
:1038500083889BB26BBB94F83530032B02D0204693
:10386000FFF748FEA36B002B02DD2046FFF7A4FE06
:1038700030462EF05AFE002009E0022D38D1A36A0E
:103880009B889BB2002BDCD12EF04FFE1E4802B06D
:10389000BDE8F08101A92EF09CFD019BD3F80C80BE
:1038A000B8F1000FC1D00022394620469B68C047BE
:1038B000BBE76946FFF730FD0099E0680831FFF784
:1038C000F9FB104D009B1D61A06A83889BB2002B01
:1038D000C1D069462EF07DFD009BDF68002FF3D03C
:1038E0000022294620469B68B847EDE70748CEE707
:1038F000032DA3D1E36A9B889BB2002B80D1A36ADE
:103900007AE700BF097000F0087000F0027000F064
:10391000F8B507460D461646FFF7ECFC00286BD1BC
:10392000152001F0D5FB0446FA6A93889BB213B1C7
:1039300097F83230E3B197F83630F3B93B689C69B9
:1039400004F002041CB93846FFF70EFE00240123E0
:1039500087F8343097F83630CBB92E44B542386802
:1039600010D183699A06FCD51CB300242046F8BD0B
:10397000002CDAD0FFF7C0FBD6E7022BE3D13B687F
:103980009C6CDDE715F8011B2EF0B6FEE6E7022B76
:10399000EAD12E44B542386806D142F22003826C47
:1039A00033EA0202FBD1DFE715F8011B2EF005FE1A
:1039B000F0E797F8363053B910213B790F4A03F2FC
:1039C00039135B01D15008223B685A61CEE7022BC4
:1039D000CCD13868836CDB074CBF092121462EF01F
:1039E000E7FD42F2944210213B795B0103F1A043D1
:1039F00003F570339950B9E70446B7E700C00350A8
:103A000010B5044680B190F832302BB9FFF7E0FCD6
:103A100010B9A068FFF7C6FA002094F832300133DD
:103A2000DBB284F8323010BD0048FCE7027000F0D1
:103A300010B50446A0B190F832309BB190F8323006
:103A4000012B05D1FFF7C4FC10B9A068FFF7CAFA33
:103A5000002094F83230013BDBB284F8323010BDE4
:103A60000148FCE70148FAE7027000F0057000F039
:103A700037B590F835500446022D1DD1012290F83B
:103A80002230457E817F9A403020164B25B900FBBD
:103A9000013303F5015305E0012D07D100FB01338C
:103AA00003F582531A60002003B030BD247E00FB72
:103AB0000133002CF4D1ECE7012DF4D1037E73B96E
:103AC00011238DF80730FFF79BFF2A4620460DF1A2
:103AD0000701FFF71DFF2046FFF7AAFFE3E71323C7
:103AE000EFE700BF00C003502DE9F04304466F4FDD
:103AF00089B001AE0D460FCF0FC697E8070086E8E4
:103B00000700002C00F0D08025B9694E304609B07E
:103B1000BDE8F08360220021204643F0FBFC2046F4
:103B2000FFF7ACFC06460028F0D14FF001092B7DD1
:103B300084F835302B6884F8360023602A7BC4F87B
:103B40005C9022715B4A9342DFD1292363624FF478
:103B5000802359498046C4E90413D5E90723A262AA
:103B600010805080908084F83000E3621880588084
:103B700098806B6884F831000393EB8984F83300F4
:103B8000ADF814302B8A4946ADF81230AB7C3A20A0
:103B90008DF81030EB7C494F8DF8163005238DF8E9
:103BA000113000F07FFC4946606A00F07BFC286819
:103BB00001A98DF8046002F0DDF814212B7B03F1DC
:103BC00039025201B9502E7AA87A07EB431346EA1C
:103BD0000042C3F83827697AEA7A41EA024CC3F80E
:103BE00030C7E676E077217784F820206B7D494660
:103BF0006377AB7D204684F82130EB7DA3772B7E65
:103C000084F822302EF05EFB064600287FF47EAF5B
:103C10002EF085FC2B7D8146032B33D102212A7B9C
:103C200002F1B9035B01F950042107EB421741F29D
:103C30002C722B6803F58053D965297EEB7D43EA0E
:103C40000143BB50AA7D6B7D43EA024341F22872D7
:103C5000BB504FF0FF32286800F500539A642B7D6B
:103C6000032B0CBF052104212EF037FD4FF44062D9
:103C70002B6820465A61FFF729FC064648462EF07D
:103C800054FC43E7022BE4D194F821000C49FFF7E0
:103C9000A1FAFFF787FA4FF400732046238384F8D4
:103CA0001A80FFF7E5FED4E7064E2FE79484040858
:103CB000037000F000C005500200040000C0035073
:103CC000FD330008027000F0F0B587B005461646D7
:103CD000FFF710FB0446F0B90493104BCDE9011631
:103CE0006A46A86A01A903960593FFF72FFB0446CD
:103CF00088B995F8303073B92846FFF717FC284685
:103D00000099FFF7BFFC95F83530032B03D0284608
:103D10002C76FFF7ADFE204607B0F0BD017000F035
:103D200073B5906A01A91446FFF7F6FA384B98422A
:103D300031D094F83600019B00283AD12268916C6A
:103D400011F400712AD03349986019614FF400735F
:103D500002F5005293642EF0E2FB01990646CD680D
:103D600035B14A688B682046D31A0A680969A847A2
:103D7000A06A01A92EF02DFBA06A8588ADB2002DA6
:103D800037D001A9FFF7C8FA20460199FFF77AFC5E
:103D900030462EF0CAFB012002B070BD906CC50504
:103DA00023D51D489960186102F500524FF48073C5
:103DB000D0E7022819D12268D16C11F4007109D022
:103DC000144902F500521961002199604FF4007303
:103DD000D364C0E7D06CC00507D50F48996018615F
:103DE00002F500524FF48073F2E700221A619A60E4
:103DF000B1E7012320462376FFF73AFE94F83530E9
:103E000084F83050032BC3D02046FFF773FBBFE785
:103E10000B7000F00D7000F00C7000F0F0B587B082
:103E200004461646FFF766FA054658BB0493194B3D
:103E3000CDE90116059394F8363003962BBB236821
:103E40009B6903F0020313B92046FFF78DFB6A4616
:103E5000E06A01A9FFF77AFA054698B994F831307B
:103E600083B92EF05CFBE36A06469B889BB233B1B4
:103E700020460099FFF72CFC012384F834303046AB
:103E80002EF053FB284607B0F0BD022BDCD123688F
:103E90009B6CD6E7017000F00B4B30B51B7883B1FB
:103EA000012000230546094951F8042B2AB192F854
:103EB0005C40022C04BF2046D5650133042BF3D1AE
:103EC00030BD0120FCE700BFE17D0020D05C002078
:103ED000034B5A6812B19A6A002AFAD1704700BFA0
:103EE00000400650426810B5B2FA82F2144CC2F19A
:103EF0001F0163680BB1FFF7EBFF0122114B5A6002
:103F0000636813F00203FBD1027A002A14BF022473
:103F10000024427842EA0112094922438A60427A27
:103F20000124002A18BF0223827A13434B62064BF6
:103F30005C60037813B1FFF7CBFFCC6010BD00BF0E
:103F400000400650006006500050065008B50D4B6A
:103F50005A6802B938B15B680BB1FFF7B9FF18B105
:103F60000122094B5A6008BDFFF7B2FF0223054941
:103F7000CB60FFF7ADFF0122044B5A604B689B07F3
:103F8000FCD4F0E700400650005006500060065098
:103F9000044B9A6AD006FCD419639A6AD206FCD400
:103FA000704700BF0040065008B5FFF791FF02239D
:103FB0000449CB6000230B62FFF78AFF0123CB602B
:103FC00008BD00BF00400650044BD3F88420D20641
:103FD000FBD4D3F88400C0F3811070470040005038
:103FE00038B5104B0546D3F880300C4603F0030378
:103FF000022B0BD0032B0DD0012B0FD1FEF788FD28
:104000000E2305B1286004B1236038BDFEF7CAFD58
:104010000723F6E7FEF776FD0623F2E700231846AE
:10402000EFE700BF0080005038B5184B0546D3F8C5
:1040300020010C4600F00700062805D8DFE800F054
:10404000230B0F17131B1F000023184605B1286010
:1040500004B1236038BDFEF755FD0523F6E7FEF7F2
:1040600087FD0323F2E7FEF79DFD0723EEE7FEF74A
:1040700095FD0223EAE7FEF745FD0623E6E7FEF796
:1040800077FD0423E2E70123E0E700BF0080005052
:1040900038B5174B0546D3F828310C4603F0070313
:1040A000013B052B20D8DFE803F003131B0F0B1790
:1040B000FEF728FD052305B1286004B1236038BD53
:1040C000FEF720FD0623F6E7FEF76CFD0723F2E777
:1040D000FEF74EFD0323EEE7FEF74AFD0423EAE771
:1040E000FEF75CFD0223E6E700231846E3E700BF86
:1040F0000080005073B50D460021114B0191D3F89B
:104100008041064604F00304022C13D0032C0CD08B
:10411000012C13D101A8FFF787FF10240EB1019BDA
:10412000336005B12C6002B070BDFEF73BFD072483
:104130000190F3E7FEF732FD0190EFE70C46EDE763
:1041400000800050002337B50193164B0546D3F885
:1041500020320C4603F00703042B04D8DFE803F0F9
:10416000200B11161B0000230DB1019A2A6004B127
:10417000236003B030BD002101A8FFF789FF12239F
:10418000F2E7FEF70FFD07230190EDE72EF012F89E
:104190000A230190E8E7FEF747FD09230190E3E7D2
:1041A0000123E1E70080005038B5104B0546D3F8F5
:1041B00040310C4603F00303022B0BD0032B0DD030
:1041C000012B0FD12DF0F6FF0A2305B1286004B1B1
:1041D000236038BDFEF728FD0923F6E72DF0EDFF3B
:1041E0000C23F2E701230020EFE700BF008000501E
:1041F000002337B50193164B0546D3F860320C46C1
:1042000003F00703013B032B1FD8DFE803F0020E86
:104210001914002101A8FFF707FF10230DB1019A1F
:104220002A6004B1236003B030BD002101A8FFF76C
:10423000BBFF1123F2E7FEF7B5FC07230190EDE782
:10424000FEF7ACFC02230190E8E70023E6E700BF9D
:1042500000800050002337B50193164B0546D3F874
:1042600094320C4603F00703013B032B1FD8DFE811
:1042700003F0020E1914002101A8FFF7D5FE102348
:104280000DB1019A2A6004B1236003B030BD002152
:1042900001A8FFF789FF1123F2E7FEF783FC07234C
:1042A0000190EDE7FEF77AFC02230190E8E7002396
:1042B000E6E700BF0080005038B5144B0546D3F840
:1042C00000020C4600F00700042804D8DFE800F0E4
:1042D0001B0A0E1216000023184605B1286004B10F
:1042E000236038BD2DF066FF0A23F6E7FEF79CFC3D
:1042F0000923F2E72DF061FF0C23EEE7FEF722FC25
:104300000F23800AE9E70123E7E700BF00800050A0
:1043100038B5144B0546D3F808020C4600F00700E8
:10432000042804D8DFE800F01B0A0E121600002350
:10433000184605B1286004B1236038BD2DF03AFF5E
:104340000A23F6E7FEF770FC0923F2E72DF035FFAC
:104350000C23EEE7FEF7F6FB0F23800AE9E70123C3
:10436000E7E700BF0080005038B5104B0546D3F892
:1043700040320C4603F00303022B0BD0032B0DD06D
:10438000012B0FD12DF016FF0A2305B1286004B1CF
:10439000236038BDFEF748FC0923F6E72DF00DFF3A
:1043A0000C23F2E701230020EFE700BF008000505C
:1043B00038B5104B0546D3F860310C4603F00303C3
:1043C000022B0BD0032B0DD0012B0FD12DF0F2FEC1
:1043D0000A2305B1286004B1236038BDFEF724FC30
:1043E0000923F6E72DF0E9FE0C23F2E70123002074
:1043F000EFE700BF00800050B0F5207F1FD009D844
:10440000B0F5007F15D003D868B1B0F5C07F0AD0F1
:1044100000200CE0B0F5607FFAD10B4BD3F88000A0
:10442000C0F3011003E0084B186FC0F303300130F4
:104430007047054BD3F89000C0F30460F7E7024BD8
:10444000186FC0F38020F2E70080005002464FF45E
:104450008030104B10B598660020FFF7CDFF504319
:1044600041F671320C4BDC69DA635A6804F480342B
:1044700022F4401259B9094988428CBF4FF4801088
:104480000020104358600CB10022DA6310BD0449CB
:10449000F2E700BF0090005000000350005A620293
:1044A000002D3101430905D0012B0DD0022B094B02
:1044B00018BF002300F01F0041B103F58053012213
:1044C00002FA00F018607047034BF3E703F500535E
:1044D000F5E700BF68800050648000501FB50021E0
:1044E00080280446CDE9001100F0998029D80028E1
:1044F00000F09980A0F120043D2C35D83D2C33D814
:10450000DFE804F091999199A8A8A8A8A899B23CCD
:10451000C8603C99999932323232323232329999AA
:104520009968D299323232323232323232323232C7
:1045300032A8919191CD3C3CD7774DAD3232323299
:104540003288B0F5B06F00F08F802DD8B0F5207FA5
:1045500071D00CD8B0F5C07F65D0B0F5007F65D0C4
:10456000B0F5807F00F08580009804B010BDB0F5F4
:10457000607F6AD00DD8B0F5407FF5D1FEF7E2FA42
:1045800002464FF42070FFF737FFB2FBF0F040080F
:1045900047E0B0F5806F5DD0B0F5A06FE4D10021A9
:1045A0006846FFF7CFFDDFE7B0F5106F77D016D87C
:1045B000B0F5E06F78D00AD8B0F5C06F6AD0B0F52A
:1045C000D06FD1D100216846FFF776FECCE7B0F579
:1045D000F06FC9D100216846FFF7EAFEC4E7B0F5E5
:1045E000406F3CD013D8B0F5206F62D0B0F5286F83
:1045F000BAD10021314B0391D3F8703203F0030399
:10460000012B02D103A8FFF7CFFD039B3BE0B0F5E0
:10461000486FA9D100216846FFF71CFEA4E7FEF70A
:1046200077FA0090A0E7FEF78DFAFAE7FEF770FA46
:104630000246204604E0FEF785FA02464FF4207059
:10464000FFF7DAFEB2FBF0F0EBE701A8FFF7C8FCDA
:10465000019AEEE700216846FFF7E6FC84E70021B7
:104660006846FFF715FD7FE700216846FFF742FD2A
:104670007AE74FF0E02302911B695B0705D5FEF74F
:1046800061FA0290029B00936EE703A902A8FFF76C
:104690008BFDF7E700216846FFF786FD64E7002100
:1046A0006846FFF735FE5FE700216846FFF75CFECE
:1046B0005AE700216846FFF79BFD55E70080005050
:1046C00008B58020FFF70AFF034B98429EBF4FF4C6
:1046D0008032024B1A6708BD005A620200A00050E7
:1046E0001FB50023B0F5807F019300F0C38064D82C
:1046F0005D2855D84C2807D82D2847D823282BD8F3
:10470000019805B05DF804FB4D381028F8D801A3D6
:1047100053F820F06B4800080147000801470008E3
:10472000014700081D48000801470008014700082C
:10473000F14800083B480008E1470008E748000846
:104740000147000801470008014700080147000829
:1047500001470008FB48000824380928D0D801A3E5
:1047600053F820F06B4800086B4800086B480008BD
:104770006B4800086B4800080147000861480008C2
:1047800001470008FD470008A14800083D2800F047
:1047900082803E28B4D1002001A9FFF7E5FDAFE7F4
:1047A0008028ADD15A4B1B6F03F00703013B032B4D
:1047B000A6D8DFE803F05350878FB0F5F06F6AD0CA
:1047C00021D8B0F5B06F4BD00FD8B0F5607F00F0B6
:1047D000858095D3B0F5806F47D0B0F5A06F8FD1AD
:1047E000002001A9FFF7AEFC8AE7B0F5D06F57D0E3
:1047F000B0F5E06FCFD0B0F5C06F81D1002001A936
:10480000FFF7D2FC7CE7B0F5206F71D00BD8B0F584
:10481000086F4AD0B0F5106F7FF472AF002001A985
:10482000FFF776FD6CE7B0F5406F5CD0B0F5486FF0
:1048300063D0B0F5286F7FF463AF0021344B039150
:10484000D3F8703203F00303012B5BD0022B14BFAB
:104850000B46152300E00523019351E70223FBE7F4
:10486000002001A9FFF746FC4AE7002001A9FFF755
:10487000DBFB45E702934FF0E0231B695B0705D59F
:10488000FEF760F90D230393039BE5E703A902A854
:10489000FFF78AFCF8E7002001A9FFF789FD2FE761
:1048A000002001A9FFF708FD2AE7194BD3F80031D2
:1048B00003F00303022B07D0032B09D0012B0BD1EC
:1048C000FEF756F90323C7E7FEF7AEF90923C3E75E
:1048D0002DF06EFC0823BFE70123BDE7184601A9B0
:1048E000FFF77EFB0CE7002001A9FFF7D1FB07E7EC
:1048F000002001A9FFF77CFC02E7002001A9FFF7D7
:10490000A9FCFDE603A8FFF74FFC1123A4E700BFB5
:10491000008000504FF48012034B5A664FF48032EF
:10492000024B9A62704700BF009000500050005A3E
:1049300038B504468020FFF7D3FE032800F08A80B4
:104940004FF48012544B4FF0A0615A6645F60E03A7
:10495000524AC2F88030524B99624FF4803103F5CD
:1049600080539962936DD903FCD4916D11F080410D
:10497000FBD1D4E900031B0543EA0063E07B03435A
:10498000207B43EA0043607B43EA0033A07B43EA99
:10499000801313619069D4E904531B0643EA8563CD
:1049A00000F000400343A07EE57E0343207E43EAFF
:1049B0000043607E43EA00239361E069136A0028A4
:1049C0000CBF0022082223F00F0343EA000343EA4E
:1049D000850343EA0203314A324D13623BD194F816
:1049E0002430916A94F82000DB000D4043EA401324
:1049F00094F821102B4343EA011343F4803393626C
:104A0000294B916D33EA0101FBD14FF080712448AD
:104A100081621369A56823F4700343EA05531361A7
:104A20004FF00043836194F822300BB91F4B996219
:104A300094F823303BB94FF480321C4B9A62174AEA
:104A4000936D5B00FCD494F825301BB1134B184ACE
:104A5000C3F8802038BD022808D111611548916142
:104A60004FF408524FF47F412DF011FD0B4994F89B
:104A700022308A6A94F820001B06154043EA40134E
:104A800094F824202B4343EAC20394F8232043EAFA
:104A900002438B62D7E700BF009000500040005AED
:104AA0000050005AC7FFFEFE030001000060005ADC
:104AB000F1A7FFFF3440005A014B93F90000704703
:104AC00049140020014B1880704700BF2C140020AF
:104AD000B0F5207F10B50C4657D008D8B0F5007F50
:104AE00048D003D830B3B0F5C07F23D010BDB0F5A7
:104AF000607FFBD129492A48D1F8FC2012F080724E
:104B00001EBFD1F8FC3023F08073C1F8FC30D0F820
:104B10008030611E23F0300444EA0114C0F8804064
:104B2000002AE3D01D4AD2F8FC3043F08073C2F86B
:104B3000FC30DBE72DF0BCFC2DF0C8FC4FF48031DD
:104B4000184B174A1967136F611E23F4704444EA27
:104B500001341467FDF7F6FF0446FFF735FAC0F19C
:104B6000020120462DF0ACFC00F02EF8BDE810400C
:104B7000FFF7A6BD0A4A0139D2F8903023F0F85465
:104B800044EA0164C2F89040B0E7054B013C196F5C
:104B900021F4806141EA84241C67A7E700ED00E06E
:104BA000008000500090005008B50121022000F064
:104BB00003FB2DF07DFC2DF089FC4FF48032014B7E
:104BC0001A6708BD0090005008B54FF4C070FFF799
:104BD00085FCBDE80840044988428CBF02210121C0
:104BE0004FF42070FFF774BF80F0FA02B0F5807FB9
:104BF000F8B50C4600F052816BD85D285DD84C2882
:104C000004D82D2844D8232828D8F8BD4D3810289A
:104C1000FBD801A353F820F07D4E00080B4C000890
:104C20000B4C00080B4C00086F4D00080B4C0008A3
:104C30000B4C000831500008A74D0008FF4C00083D
:104C4000115000080B4C00080B4C00080B4C0008DE
:104C50000B4C00080B4C0008515000082438092860
:104C6000D3D801A353F820F07D4E00087D4E0008F4
:104C70007D4E00087D4E00087D4E00080B4C00085C
:104C80005D4E00080B4C0008354D00084B4F0008E6
:104C90003D2800F04A813E28B7D1093C032C8CBF47
:104CA0000021B24BB24A98BF195DD2F8403223F0CE
:104CB00003030B43C2F84032A7E78028A5D18B1E1F
:104CC000062B00F2C880DFE803F0C3B1C67EC6C67B
:104CD000C000B0F5F06F00F028813BD8B0F5B06FA0
:104CE00000F0BC801BD8B0F5607F00F06B818CD3E6
:104CF000B0F5806F00F0C280B0F5A06F85D1073CA1
:104D00000B2C8CBF00219B4B994A98BF195DD2F8A0
:104D1000203223F007030B43C2F8203275E7B0F5C9
:104D2000D06F00F01281B0F5E06FB6D0B0F5C06F73
:104D30007FF46BAF093C032C8CBF00218E4B8C4A57
:104D400098BF195DD2F8403123F003030B43C2F83A
:104D500040315AE7B0F5206F00F06A8117D8B0F5FE
:104D6000086F00F01F81B0F5106F7FF44EAF093C63
:104D7000062C8CBF0021814B7D4A98BF195DD2F86B
:104D8000083223F007030B43C2F808323DE7B0F5C1
:104D9000406F00F03D81B0F5486F00F05981B0F5EB
:104DA000286F7FF432AF112C00F06281152C14BFF4
:104DB000002102216E4AD2F8703223F003030B4324
:104DC000C2F8703221E7002502264FF48037012116
:104DD000022000F0F1F92DF06BFB2DF077FB684B12
:104DE000634A1F67136F23F0070333431367FDF70D
:104DF000A9FE0646FFF7E8F8C0F1020130462DF0A3
:104E00005FFB0121002000F017FAFFF7DDFEFFF73E
:104E100057FC002D7FF4F9AE032C7FF4F6AE594B0E
:104E2000594A9F62936D5800FCD4EEE64FF480120D
:104E3000534B0E465A664FF48032534B9D6A03F52E
:104E40008053C5F300659A62BFE700250426BCE7DE
:104E500000250126B9E700252E46B6E7023C0E2CB8
:104E60008CBF0021494B424A98BF195DD2F880316E
:104E700023F003030B43C2F88031C6E6023C052C45
:104E80008CBF0021424B3A4A98BF195DD2F82031BD
:104E900023F007030B43C2F82031B6E6A1F1090461
:104EA000082C3FF6B2AE01A353F824F0D14E00080F
:104EB000D14E00080B4C0008D14E0008FF4E0008F0
:104EC0000B4C00080B4C00080B4C0008D14E00089E
:104ED0004FF48032264B2F49586E03F580535A66A3
:104EE0004B6A43F001034B62C1035CBF2A4B5A6615
:104EF0004FF0E022136923F00403136185E64FF4B9
:104F000080321B4B2349586E03F580535A664B6A17
:104F100023F001034B62C3035CBF1F4B5A664FF083
:104F2000E022136943F00403E7E7093C032C8CBF3C
:104F300000211A4B0E4A98BF195DD2F8603123F058
:104F400003030B43C2F860315FE6093C062C8CBFBB
:104F50000021134B064A98BF195DD2F8003223F0A6
:104F600007030B43C2F800324FE600BFD6840408A3
:104F700000800050F1840408D6840408DA84040810
:104F8000009000500060005A0040005A0D8504084F
:104F9000D084040800C0075000A00050D684040844
:104FA000DA840408CC1E062C8CBF0021314B324A17
:104FB00098BF195DD2F8003123F003030B43C2F808
:104FC000003122E62D49063CD1F8FC2012F0807217
:104FD0001EBFD1F8FC3023F08073C1F8FC30082CE0
:104FE0008CBF0020264B244998BF185DD1F8803033
:104FF00023F003030343C1F88030002A3FF405AED9
:105000001E4AD2F8FC3043F08073C2F8FC30FCE555
:10501000023C052C8CBF00211A4B174A98BF195D22
:10502000D2F8283123F007030B43C2F82831ECE50E
:10503000023C0F2C8CBF0021134B0F4A98BF195D07
:10504000D2F8603223F007030B43C2F86032DCE58C
:10505000023C0F2C8CBF00210C4B074A98BF195DF6
:10506000D2F8943223F007030B43C2F89432CCE514
:1050700001219FE6E18404080080005000ED00E07B
:10508000E8840408D0840408FD840408FD8404082E
:105090000028ABBF00F16040054B00F5614000F017
:1050A0000F00ACBF90F80003185C0009704700BF08
:1050B00014ED00E0054B420953F8223000F01F00C8
:1050C00023FA00F0C04300F00100704700E100E067
:1050D000014608B5EFF31083DB0702D50122104625
:1050E00008BDFFF7E7FF02460028F7D10846FFF7A3
:1050F000CFFF0146EFF3118313B1B0EB131FEDD2D5
:10510000074B5B68C3F30803002BE8D0103B58B291
:10511000FFF7BEFF88428CBF00220122DFE700BFFD
:1051200000ED00E0024A536B0342FCD1704700BF20
:1051300000400950044A4178536F23F4407343EA16
:1051400001235367704700BF004000500A4A10B562
:105150001369044643F00403136104F02FFA2DF0A1
:10516000E7F930BF2DF0E5F904F03CFA1CB9BDE8D1
:105170001040FDF7E7BC10BD00ED00E0084A10B597
:105180001369044643F00403136104F017FA30BFB7
:1051900004F028FA1CB9BDE81040FDF7D3BC10BDDF
:1051A00000ED00E0034A0179D36E23F030030B4396
:1051B000D366704700400050F8B504461C4BD3F846
:1051C0008420D106FBD4D3F88430C3F381139C42EE
:1051D0002CD0FDF79DFC012C064602D121462DF076
:1051E0006FF92DF08DF94FF00072124B07465A6699
:1051F00020462DF0A1F94FF480630D4D621E9340BF
:105200002B676B6E9A0103D4D5F884309B060AD5C0
:1052100038462DF079F9022C08D13046BDE8F84027
:1052200000212DF04DB9D5F88430EAE7F8BD00BF74
:10523000004000500060005007B518B90191FDF71B
:1052400067FC0199064B1B7843B1064B984205D881
:10525000012003B05DF804EBFFF7AEBF0220F8E7D2
:10526000E27D0020005A62020278034B01210020F7
:105270001A70FFF7E1BF00BFE27D00204FF000424F
:1052800038B5284B28495A664AF6CD334D6C04464A
:1052900005F001050B6460BB0120FFF743FF4B687D
:1052A000DA0708D4002415B11F4B204A1A6441F0D4
:1052B00008FB204638BD1E4B586020461D4C0B6B2A
:1052C000DB0706D4A04202D14FF0FF34EBE70130F8
:1052D000F5E7A0424FF0FF3418BF0024E3E70132A6
:1052E0000B6B13F0080307D08242F8D16FF0010472
:1052F000D9E700220F48F3E78242F7D020210C4A79
:1053000091620121A2F5805251600749094A886AD9
:10531000800603D49342E9D00133F8E79342C1D128
:10532000E4E700BF00900050004009503254FFFFF6
:105330000060095040420F004FF0004238B5164B54
:1053400001465A664AF6CD33144C154A656C2364FF
:1053500043780B205B0043F00103D363FFF7E2FEC9
:1053600063688A7823F4F87343EA02136360CA78A7
:105370004B7943EA0223A3600A798B7943EA02233B
:1053800023610878FFF77AFFEB0744BF054B2364DE
:1053900041F097FA012038BD0090005000400950BC
:1053A000004000503254FFFF4FF00042124B70B5E6
:1053B0005D6E03F580535A664AF6CD3304460F49B5
:1053C00080204E6C0B64FFF7ADFE0B6A23F00F03D9
:1053D0000F2C94BF234343F00F030B62F30744BF2A
:1053E000074B0B64002DA2BF4FF00042054B5A66DD
:1053F00041F067FA70BD00BF0080005000400950C6
:105400003254FFFF00A000504FF00042104B70B527
:105410005D6E03F580535A664AF6CD3304460D4956
:1054200080204E6C0B64FFF77DFE0B6A23F4F8536B
:1054300043EA04230B62F30744BF074B0B64002DC0
:10544000A2BF4FF00042054B5A6641F03AFA70BDD8
:1054500000800050004009503254FFFF00A000506F
:105460002C4B2DE9F0419842064612D02A4886423C
:105470000CBF57200020FFF731F8B16811F001018F
:1054800009D03169090E0131B0FBF1F10846BDE8E0
:10549000F0815620EFE7326BB468204B04F0E00453
:1054A000402C03EA020310D007D854B3202C2CD090
:1054B000B36DDB0748BF4908E8E7602C27D0802C94
:1054C000F6D14FF480750C461CE080250C464FF059
:1054D000030803F5807308FB03F8002342461946CE
:1054E00029F0A8FA02FB04F100FB05F705FB031104
:1054F000A2FB050500234246294429F09BFA3918EE
:10550000D6E710254FF00108E3E72546DBE7402505
:10551000D9E700BF0000015B00000A50F8FF7F00E0
:10552000072AF7B501F0030614461F464FF00301A2
:105530002CD89500A94000FA05F21C4801912DF0E5
:1055400041F801991A4806FA05F22DF03BF8194B7B
:1055500019499DF82000002F08BF1946012303FABE
:1055600004F40C60154B1649002808BF0B461C605C
:10557000144B9DF82400C3F820441031A3F6DC330B
:10558000002808BF0B461C6003B0F0BDA2F108055F
:10559000AD00A94000FA05F20B4801912DF012F878
:1055A00001990A4806FA05F2CFE700BF00C403508C
:1055B00008C4035010E4035010D4035014D4035013
:1055C00014E4035000E0035004C403500CC403501F
:1055D0002DE9F04105460F461E4690464AB101238B
:1055E0003022194C8B4002FB00443EB304F5825438
:1055F00023600F21072F05EB450388BFA7F108049F
:105600004FEA0313114895BFBC00A40004330C33C8
:1056100008FA04F2A14018442CF0D4FFB8F1000FAE
:105620000AD101213020084A01FA07F700FB0522C0
:105630003EB102F582521760BDE8F08104F50154D5
:10564000D6E702F50152F6E700C0035030C0035020
:10565000F8B505460E4614465AB3826803F00307B0
:1056600022F4407282602CF04BFFAA6882EA072382
:1056700003F440735340AB602CF046FF36B9B5F1EC
:10568000B64F17D12E20FEF729FF0646AB680C4B0C
:10569000D85D60430DD06FEAC4040444A319B3FB82
:1056A000F0F3AA68013B920702D5002B08BF012343
:1056B000AB61F8BD034B9D42E8D12F20E3E700BF6B
:1056C0001C8504080080065038B500230E4A036488
:1056D00000F50053DA634A7804460D4600F10803EA
:1056E0007AB903F5805302221A602046D5E90112E7
:1056F0002B7BFFF7ADFF20462978BDE838402CF022
:1057000072BF03F50053EEE7FFFF1F00B0F1B64F85
:105710002DE9F04322D0804B984240F0FA807F4B35
:10572000402505264FF000084FF0030C996800F55E
:105730000054C26B12F4C06F16D0970510D5FD222D
:105740005A7009221A700022026493F9011001298B
:1057500000D15A7093F90100BDE8F083704BDFE788
:105760005605EED5FE22EBE71F78082F00F2CD801C
:10577000DFE817F009001F0041004C0069007400C9
:1057800096009E00C2004C880A88E5060AD5120AD7
:1057900002F0060242F0F002012119704263C1607A
:1057A0000120D9E702F0FE02A10748BF42F0010242
:1057B000F2E7170607D5802100F50052D1634FF6B6
:1057C00008721A8062E05206EAD54A88E563D70675
:1057D00004D502221A700B784363E1E7920765D57E
:1057E00007221A701B7901EBC3010B89012BD7D15A
:1057F0000823C360D4E71706DDD45206D0D54A8803
:10580000E563970752D583F800C092E74C880A8871
:10581000E50643BF120A02F0060242F0F00202F06F
:10582000FE02640709D51C7942F0010201EBC401B4
:105830000989012904BF0821C160042119700123CD
:10584000C3604263ACE71706B5D45706A8D54A88AB
:10585000E56352072AD507221A70A1E71A795F88F3
:1058600001EBC20EBEF80890B94511D80132D2B290
:105870001A714F88A3F8028017F0040FC3D1FF07F5
:1058800002D4012A7FF655AF08221A700223B0E72E
:10589000DEF80420791C5980D25D42630622DBE7E2
:1058A000170688D457067FF57BAFE5631E7040E787
:1058B00094067FF575AF20261A7900F5005401EBA8
:1058C000C2010A89456AE6635C88A24281BF4968D1
:1058D000661C5E800D5559888A42D5D90424012A58
:1058E000C46004D9013A914201D10822C2601A78F9
:1058F000092A3FF428AF53E7D2057FF551AF4FF4A3
:10590000807100F50052D1631BE74FF609321A800F
:1059100019E76FF003001FE700800650EC5C0020E1
:10592000E05C0020B0F1B64F10B407D01A4B98429B
:105930002ED06FF003005DF8044B7047174B0269DF
:10594000D20744BF2022C2604A88940702D50C893E
:10595000002CEED0520702D50A8A002AE9D04FF473
:1059600080721A60002299601A71C023C360436973
:10597000DB050FD4202200F50053DA63084A5DF8F6
:10598000044BDA63036C43F4FC630364FFF7BEBEAD
:10599000044BD4E7436AEAE700800650E05C00204D
:1059A000FFFF1F00EC5C0020044A054B002918BFD4
:1059B0001346012202FA00F018607047402004509C
:1059C0004010045010B5012104462020FEF76AFD66
:1059D00001212120FEF766FD0122114B5A60227839
:1059E00012069A606178A27842EA01429A61FF2227
:1059F0009A6200229A631A644FF000425A654FF08F
:105A0000FF324FF4001103F500531A65054AC2F83E
:105A10008011E3781B01DBB282F81533116010BDF1
:105A20000000045000E100E02DE9F0410125C3B27F
:105A3000D1F8008091F80AC00F7B91F80DE09D40ED
:105A40000C46CB7A1C491D4E0D65810001F1A04129
:105A500001F58821C1F80480302101FB00601B059D
:105A600043EA0C4343EA475322F00302C0F860E0E4
:105A7000C36502672CF053FD736D2B437365237A66
:105A800013B1336C2B433364637A13B1B36B2B4381
:105A9000B3632279A37943EA0243074A93616179A8
:105AA000E37943EA014306498B61044B55639D64E6
:105AB000BDE8F0412CF039BD002004500000045036
:105AC0000010045010B50124C0B284402CF027FD12
:105AD000044B5A6D22EA04025A659C62BDE81040EC
