:020000040800F2
:10000000001200203919000839DE020839DE020822
:10001000BBF4020839DE020839DE020839DE0208C4
:1000200039DE020839DE020839DE020839DE02084C
:1000300039DE020839DE020839DE020839DE02083C
:1000400039DE020839DE020839DE020839DE02082C
:1000500039DE020839DE020839DE020839DE02081C
:1000600039DE020839DE020839DE020839DE02080C
:1000700039DE020839DE020839DE020839DE0208FC
:1000800039DE020839DE020839DE020839DE0208EC
:1000900039DE0208F51F000839DE020839DE0208E1
:1000A00039DE020819210008F520000839DE0208AF
:1000B00039DE02084938020839420208C916040824
:1000C000C5160408213A0208D5160408CD160408FE
:1000D00011420208D116040879420208DD420208E2
:1000E00039DE020839DE020839DE020839DE02088C
:1000F000B7F4020839DE020839DE020839DE0208E8
:1001000039DE020839DE020839DE020839DE02086B
:1001100039DE020839DE020839DE020839DE02085B
:1001200039DE020839DE020839DE020839DE02084B
:1001300039DE020839DE020839DE020839DE02083B
:1001400039DE020839DE020839DE0208BDF5020890
:10015000051F020839DE0208271404082D140408BC
:1001600039DE020839DE020839DE020839DE02080B
:10017000013800D0FCE77047734B73B5198811F054
:10018000010140F0DA8041F60B22704D704BA960FE
:10019000C5E900316F4B19609A806F4B1B6ADB0712
:1001A00006D440F2B9316D4B6D4A6E482AF05CFDC1
:1001B00028461CF0E5FC044620B940F2BD316A4BEC
:1001C000674AF2E71DF056FC20B140F2C131674B9F
:1001D000634AEAE74FF00111204640F028FE20B1C3
:1001E00040F2C531614B5E4ADFE70221204640F014
:1001F00009FD20B14FF472715C4B594AD5E7204696
:100200005B491DF04DFA20B140F2CB31574B544AB7
:10021000CBE70121204640F002FF20B14FF474717A
:10022000524B4F4AC1E70121204640F008FF0646E5
:1002300020B140F2D3314D4B494AB6E701463C224A
:100240004C4841F0D7FA80233246204605F1100190
:1002500040F0F6FD802804D040F2DA31464B404AA7
:10026000A3E7464D01201CF0DFFC35A3D3E90023B2
:100270002C602046CDE900234FF0FF324FF0FF33D2
:1002800040F0F2FC20B140F21731384B3C4A8CE789
:10029000304808F03DFC0121084608F0A7FC012188
:1002A000286840F057FC044620B140F26E412F4BC5
:1002B000344A7AE7344B354A98801A60344B354AD1
:1002C00098801A60344B354A98801A60344A6FF02F
:1002D00063005A610CF02CFB0B2008F0D3FB314B70
:1002E000186020B940F28C412F4B264A5DE704F09C
:1002F00055FB2146286840F0F4FC20B140F219413A
:100300001A4B2A4A51E708222868114640F0AEFCF1
:10031000044620B14FF49261254B1A4A45E709F093
:10032000F7FC244B24481C70244B1C70244B1C707D
:1003300002B0BDE8704033F038BF02B070BD00BFFE
:100340000B6020FF22020000AE680020DC5C002071
:10035000B18E0008D45C00200080E00FAE250408B8
:100360005427040809210408C72504086D2004083F
:1003700064280408785D0020D6250408D05C00209D
:1003800047270408D0270408201C00206A6A0020A0
:10039000F81B0020EA690020481C0020EC6A0020BD
:1003A000701C0020745D00200E2604080D27040830
:1003B00029260408DF690020AD260408EB6A002026
:1003C000EA6A0020000000002DE9F04F2DED028BBD
:1003D0004FF0000B99B0259D9146C5E900BBC5E9DA
:1003E00002BB85F839B0A5F83AB0A5F83CB085F85D
:1003F0003EB0D0F8D62AD0F8DACAD0F8DE7AD0F8F3
:10040000E26A2A61EE61C5F814C0AF61D0F8E62A4D
:100410001E462A62D0F8C23AD0F8CA7AD0F8CE2A5C
:10042000D0F8C6CA2A63C5F828C0EF626B62D0F85C
:10043000D23A00F6F80A6B6390F8EA3A044685F877
:100440003830249B00F6C22783F800B0B0F85C3A3D
:10045000059324F057FCDAE9002352EA030104D0A3
:1004600094F8BD1A002900F0FE8094F8EB3A93B39B
:1004700094F8EA3A94F8ED2A013BDBB29A4204D1AF
:1004800094F8BD3A022B00F059810022012194F822
:10049000B83A85F83A3094F8B60AA34B85F83B0091
:1004A00094F8B70A19EB030346EB0202C5E90032E0
:1004B00085F83C0085F8391002222946204624F0B0
:1004C000EDFF0423A4F85A3ACAE9009619B0BDEC2E
:1004D000028BBDE8F08F0DF13E070DF13D032A467A
:1004E00001212046009724F013FC9DF83D30BDF813
:1004F0003E803BB194F8B83A85F83A3094F8B63A71
:1005000085F83B302A460DF13D0302212046009735
:1005100024F0FEFBBDF83E309DF83D20984528BFF5
:1005200098463AB194F8B73A85F83C3094F8B63A20
:1005300085F83B302A460DF13D0303212046009704
:1005400024F0E6FBBDF83E309DF83D20984528BFDD
:100550009846002A40F0CE802A4604210DF13D0342
:100560002046009724F0D4FBBDF83E300599434562
:1005700028BF4346994228BF19469DF83D208B4627
:10058000002A40F0718104F51067B4F8B23AB4F86B
:100590005E2AB3FBFBF10BFB1131ABEB010B1FFA36
:1005A0008BFB5B449BB2B3FBF2F102FB1133CAE954
:1005B00000969FED5B0BA4F8B23AA4F85ABAADF8D6
:1005C0003E2029F01DFA51EC100B2AF09FF90B4642
:1005D0004FF00008A0FB0B0103FB0B113B687A688E
:1005E00010EB090941EB0606B9EB0300C5E90096DB
:1005F00066EB020184F8BA8A2AF032F9DFED4B8A01
:1006000007EE900A9FED4A8AC7EEA87AF4EEC87A00
:10061000F1EE10FA1FD49FED477AF4EEC77AF1EEAF
:1006200010FA18DCD4F80809D4F80C19B9EB00005A
:1006300066EB01012AF014F907EE900AC7EEA87ADA
:10064000F4EEC87AF1EE10FA4ABF662384F8BB8A4A
:1006500084F8BB3A3AE7652384F8BB3A19B0BDEC9D
:10066000028BBDE8F08FB9EB02010A914FF0000157
:10067000B4F85A0A66EB03029FED290B0B92CDE901
:10068000060129F0BDF951EC100B2AF03FF98C4618
:10069000069B0B9AA0FB03010CFB0311030943EA21
:1006A000017302930A9BCDE91001C31A08934FEA24
:1006B0002113039361EB02030993DDE90823DDE9CC
:1006C00002BC93457CEB0303C0F265810A9B1B1AB5
:1006D0000C930B9B63EB01030D93DDE90C23DDE928
:1006E0000201904271EB0303BFF6BFAE6423249A6C
:1006F0001370BAE64FF6FF720F4B94F8B61A5B7B95
:1007000085F83B1004EB4303B3F8A0389342ADF8EF
:100710003E303FF421AFAB6843F40053AB601BE7BE
:1007200000000000D0126341C00E1602286B6E4E0E
:100730000000704200007043B086040894F8EC3A60
:10074000002B3FF4A2AE94F8BF3A94F8BE0A1844C6
:1007500029F01AFC41EC100B94F8C00A00F044FB9D
:1007600094F8BE2A0130C3B29A4284F8C03ABFF46A
:100770008CAE38687968BA68FB680DF14C0CE046BD
:10078000ACE80F0038692F46CCF80000BDF84C00EB
:1007900029F0EAFB02940D4604460DF15E0B38F891
:1007A000020F29F0E1FB02460B462046294629F0BC
:1007B0009FFAC34504460D46F1D12AF0A7F8029CE2
:1007C0003D4694F8BF7AA7FB002301FB07334FEAAD
:1007D000C20CDF001CEB020C47EA527743EB070721
:1007E0004FEA8C01BF0047EA9C77B1EB020C67EB44
:1007F000030E4FEA8E0747EA9C77BE4690484FEAC1
:100800008C0CA2FB007800FB038817EB090348EB74
:100810000602C5E90032294600222046CDE910CE65
:1008200024F03CFEDDE910780123002F84F8C03A63
:1008300078F10003C0F2D7800A22002338464146EF
:100840002AF04CF80A2205460023384641462AF091
:1008500045F8002B08BF052A80F0E580A8B2A4F86F
:100860005A0ACAE9009631E6012385F8393094F82E
:10087000B52A0DF13D0302F2375234F8121010AAD6
:10088000A98194F8B70A13A985F83C0094F8B67AC0
:10089000204685F83B7025F0F1FEDDED137AF5EE8C
:1008A000407AF1EE10FA0ED194F8BA3A5BB994F8A6
:1008B000B53A04F5106703F2335334F81330EB8183
:1008C000C7E9009661E604F5106704F60818D7E951
:1008D0000023D8E90001824273EB010CCDE910231B
:1008E00003DA02460B46CDE91001B9EB020066EBD4
:1008F000030129F0B5FFDFED537A07EE100A87EE0A
:10090000270AF1EE000A8DED130A2BF03DFBF0EE05
:10091000080AB0EE408A9DED130A2BF035FBDFED9F
:100920004A6ADFED4A7A9DED137A28EE268A20EE98
:10093000270ADFED476A67EE077A38EE008A67EE2E
:10094000A67ADFED446A78EE277A27EE267ADFED85
:10095000426A77EE877A9FED417A77EEA67A67EE64
:10096000877AF8FE677AFCEEE77A17EE902A94F819
:10097000BA3AEA8143BB00939FED390A4A463346AF
:100980001621204625F088FD94F8BA3A002B97D01E
:10099000C8E90096F9E59FED280BDAE90067B4F89D
:1009A0005A8A29F02DF851EC100B29F0AFFF64247E
:1009B000A0FB082301FB0833961947EB0303C5E9A5
:1009C0000063249B1C7081E50023B7EE000A0093AE
:1009D0004A4633461621204625F05EFDAB6843F4B7
:1009E0000013AB60D0E7B8F1004F08BF002F1DD057
:1009F0007F4268EB48080A2200233846414629F026
:100A00006DFF0D460290414638460A2200230395A9
:100A100029F064FFDDE90201002B08BF052A08D296
:100A2000404280B21BE7681C80B218E743F23330C3
:100A300015E7C04380B212E700000000D012634106
:100A4000003B5808286B6E4E598207B0DFE0C23475
:100A50003767D9B85A8E863C6A92E43E00007A44E1
:100A600000000000000000002DE9F04F2DED048B88
:100A7000044600200D46164698468DB01A9F0DF18B
:100A8000080904F6782C04F6982A3870CE46DCF86B
:100A90000000DCF80410DCF80820DCF80C300CF165
:100AA000100CD445AEE80F0009F11009EED1DCF8C6
:100AB0000000BCF80430C9F80000A9F8043076BB87
:100AC0000C2384F8EB6A3B70204602A924F04EF90F
:100AD000002840F0248197F90000002856DB00230D
:100AE000B94EDFF8F89203E05D1C1A2D2B464DD06D
:100AF00046FA03F2D507F7D513F809200CA901EB44
:100B0000420002F23B5130F82A2C34F811005D1CEF
:100B10009042E9B2E9D0204624F0DEFAE5E72B79ED
:100B2000013BDAB2012A40D900229FEDA88A9FED4D
:100B3000A89ADFEDA88ADFF890B205EBC60684F824
:100B4000EB2A0092CDF8048012E04BFA03F2D207B0
:100B500011D5012202FA03F3009A13EA020A00F007
:100B60009380F3233B700835B54209D02B79013BC4
:100B7000DBB2192BE9D90A230835B5423B70F5D110
:100B800097F90030DDF80480002B9DDA98F80030EA
:100B9000072B22D8F1234FF0000E3B7088F800E0BD
:100BA0000DB0BDEC048BBDE8F08FD5ED007AF5EE0D
:100BB000407AF1EE10FAB7D147F23053BDF8082071
:100BC0009A4200F0ED80BDF80A209A4200F0E880D9
:100BD0000B234FF0000E3B70E0E700259FED7B6A92
:100BE000AE46DFED7B5ADFF8F8A177497A4FDFF8A0
:100BF000ECC1DDF86CB002E00135182DCED0012239
:100C0000AA4012EA0A0FF7D00EF1010E5FFA8EFE2B
:100C10000EF1FF360BEBC606013586ED006A0023A8
:100C20004FF6FF7935710CE0484507D007EE900A82
:100C3000F8EEE77A85EEA77A86ED007A01331A2B73
:100C4000DBD041FA03F0C007F8D557F82300024281
:100C5000F4D0D6ED007AF4EE467AF1EE10FA13F8FD
:100C60000C0000F23B5034F81000DDD007EE100A03
:100C7000B8EEC77AC5EE876AF4EEE67AF1EE10FABE
:100C800048BFC6ED006AD9E7D5ED007AF5EE407AA7
:100C9000F1EE10FA009A42EA0302009229D1F623FB
:100CA0003B70D5ED007AF5EE407AF1EE10FAB0EE39
:100CB000677A1ED1B5EEC07AF1EE10FA31DCB5EEEE
:100CC000407AF1EE10FA14BF4FF0FF3300231FFA01
:100CD00083F897F90030002B7FF445AF3F4A2B791A
:100CE000134413F8013C0CAA02EB430323F82A8CAB
:100CF00039E7F4EE487AF1EE10FA4ED0B2EE047A0B
:100D0000F4EEC77AF1EE10FA04DCF4EEE87AF1EED4
:100D100010FA4DD5F2233B7095ED007ACAE7387092
:100D2000DBE6B4EEC87AF1EE10FAC8D5C9EE077A60
:100D3000F8FE677AFCEEE77A17EE903A1FFA83F82E
:100D4000264A2B79134413F8013C534403F2A7437A
:100D500034F813900AF1130A484629F005F918A34C
:100D6000D3E9002329F07AF941EC100B28F048FE72
:100D700051EC100B29F034FC80B2A9EB00039BB2BC
:100D8000814443451FFA89F901D8C145A1D2BAF17E
:100D9000720FD5D1F4233B70E5E6B0EE677A8EE7AB
:100DA00094F9BB3A3BB901229E4684F8BA2AF5E68B
:100DB000B0EE677A7EE74FF0000E3B70EEE600BFC4
:100DC0007B14AE47E17A843FEF79F20300FF7F475F
:100DD0000000C8420E74DA3AC88604086487040822
:100DE0000F20E000000000002DE9F84F2DED028BF0
:100DF00055EC104B074628F003FE51EC100B29F080
:100E0000EFFBC6B2304629F0BFF822462B4629F048
:100E10008DFB40B1BDEC028BB7FBF6F306FB137004
:100E2000C0B2BDE8F88F384629F09EF8002241ECA8
:100E3000180B00232046294629F078FBB0BB45EC6F
:100E4000104B2AF037FF204653EC102B294629F08F
:100E50006DFB58BB22462B4651EC180B29F028FAA3
:100E600021F0004700221E4B3946064628F040FF7D
:100E700041EC100B2AF01EFF304653EC102B394684
:100E800028F034FF002280468946164B304639460A
:100E900029F0E4F829F0004B02460B46404659463B
:100EA00029F058FB10B19FED0C0B07E0B0EE480A9B
:100EB000F0EE680A45EC114B2AF078FF28F0A0FD0F
:100EC00051EC100B29F08CFBBDEC028BC0B2BDE8DD
:100ED000F88F00BFAFF300800000000000000000AA
:100EE0000000E03F0000B03C2DE9F04F00224FF041
:100EF000090BDFED205A9FED206ADFED206AB1EE8D
:100F0000047ADFED1F7A4FF0FF346FF00045DFF811
:100F100080A0DFF88090DFF88080DFF880E0DFF8E5
:100F200080C0184F184E1949C0ED015A80ED046A6F
:100F3000C0ED056A80ED067AC0ED097AC0E9164574
:100F400080F800B0C0F828A0C0F82C90C0F8388015
:100F5000C0F83CE0C0F840C0C76406650166826026
:100F6000C260C26102620263426342648264BDE89D
:100F7000F08F00BF07F0963D1C7CE13D3480D73FE9
:100F8000CDCC0C3E5DFEE33E363C85BF00004040CC
:100F900067D5273EE63F4CC091ED3CBFFB3A403F52
:100FA000B15083402DE9F04786B004AB05AE04464E
:100FB0000078CDE900360DF10F030D4628F0F0FC66
:100FC0009DF90F00E0B94FF0010A04F1400904F166
:100FD0002C0804F118075FFA8AF3013B032B24D88D
:100FE000DFE803F01D1711024A463146284625F076
:100FF000ABFE0AF1010ABAF1060FECD19DF90F0020
:1010000006B0BDE8F08742463146284625F09CFEF2
:10101000EFE73A463146284625F096FEE9E73146A5
:101020002846221D25F090FEE3E73146284625F0AC
:1010300017FC84ED180ADCE72DE9F0432DED048B55
:1010400083B0BDF840400546DDE90E89B4F5E16F97
:1010500017461E46B0EE408AF0EE608A6BD028D963
:1010600041F270739C422ED047F230539C4208BF2D
:10107000012408D1D5E916014FF0FF326FF000438B
:1010800028F06AFD08B39FED309A4FF0FF326FF001
:1010900000433846314628F05FFD08B9C5E91676A9
:1010A00038EE490A30EE680A03B0BDEC048BBDE8A7
:1010B000F083642C05D0B4F5967F08BF0424D9D002
:1010C000E1E70524D6E70224D4E7D5E91601B8EB19
:1010D000000069EB010128F093FF19A3D3E9002375
:1010E00029F0E6F80B460246CDE9002329F098FAEC
:1010F000DDE9002305EB840407EE900AD4ED009AA5
:1011000094ED057A67EEA99A94ED0A9A104619466D
:1011100027EE899A79EE879A28F0A0FF29F080FAC5
:1011200007EE900A94ED0F7A79EE277A77EE877AB8
:1011300089EEA79AA9E790ED189AA6E7AFF3008089
:101140000000000065CDCD41000000002DE9F04712
:10115000052482B00746904600780DF103020D4643
:101160008DF8034028F03EFC9DF80360019036B3F3
:10117000012407F1400A07F12C09E3B2013B042BDB
:101180000BD8DFE803F031102A230300414628463C
:1011900097ED180A01AA25F07BFBA64204F1010392
:1011A0000CD01C46E9E701AB4246294607F118007E
:1011B00025F02CFDA64204F10103F2D10198C0F301
:1011C000072328706B7002B0BDE8F08742462946BD
:1011D000504601AB25F01AFDDFE742462946484656
:1011E00001AB25F013FDD8E74246294601AB381D77
:1011F00025F00CFDD1E700BF2DE9F043012485B0B7
:101200008046914600780DF10B020E468DF80B409A
:1012100028F0E8FB9DF80B50039035B1002403AF94
:1012200054B10134A542FBD10398C0F307233070B9
:10123000737005B0BDE8F083D8E916014B4632461D
:10124000009725F073FBECE770B586B004AB05AEF4
:1012500004460078CDE900360DF10F030D4628F065
:101260009FFB9DF90F0008B106B070BD31462846BE
:1012700025F040FBC4E916019DF90F0006B070BDD2
:1012800051EC100BF8B5C1F30A530C4610EE106A7E
:10129000A3F2FF35132D32DC002D1EDB364F2F411C
:1012A00001EA070303432FD031A3D3E9002328F039
:1012B0001FFD0022002329F061F948B1002C04DD54
:1012C0004FF4801343FA05F52C4424EA0704002662
:1012D0002346324643EC102BF8BD25A3D3E9002367
:1012E00028F006FD0022002329F048F90028EFD05D
:1012F000002C39DB264333D00026204CE8E7332D81
:1013000005DDB5F5806F23D041EC100BF8BDA3F2DD
:1013100013434FF0FF37DF400742F5D014A3D3E962
:10132000002328F0E5FC0022002329F027F90028FB
:10133000CED0002C09DD142D14D00123C5F13405C5
:1013400003FA05F5AE1928BFE41826EA0706BFE739
:1013500010EE102A0B4628F0CBFC41EC100BF8BD28
:101360003446B5E70134F0E700264FF00044AFE71C
:101370009C7500883CE4377EFFFF0F000000F03FC3
:1013800051EC100BF8B5C1F30A530C4610EE106A7D
:10139000A3F2FF35132D30DC002D1EDB384F2F411B
:1013A00001EA070303432DD033A3D3E9002328F038
:1013B0009FFC0022002329F0E1F848B1002C04DA58
:1013C0004FF4801343FA05F52C4424EA0704002661
:1013D0002346324643EC102BF8BD27A3D3E9002364
:1013E00028F086FC0022002329F0C8F80028EFD05E
:1013F000002C29DB00263446EAE7332D05DDB5F560
:10140000806F19D041EC100BF8BDA3F213434FF0DD
:10141000FF37DF400742F5D017A3D3E9002328F0B8
:1014200067FC0022002329F0A9F80028D0D0002C66
:1014300013DB26EA0706CBE710EE102A0B4628F04E
:1014400057FC41EC100BF8BD24F000430D4A334328
:101450000026B34218BF1446BAE7142D08D0012362
:10146000C5F1340503FA05F5AE1928BFE418E0E725
:101470000134DEE7AFF300809C7500883CE4377EE2
:10148000FFFF0F000000F0BF10B5054C237833B903
:10149000044B13B1044800E000BF0123237010BDCA
:1014A000F04F0020000000004895040808B5034BE9
:1014B0001BB10349034800E000BF08BD0000000065
:1014C000F44F002048950408A3F5803A704700BF08
:1014D000174B002B08BF134B9D46FFF7F5FF00216C
:1014E0008B460F461348144A121A40F083F90E4BEC
:1014F000002B00D098470D4B002B00D098470020C0
:10150000002104000D000D48002802D00C4800E026
:1015100000BF29F0F5FB200029002CF021FC29F068
:10152000C9FB00BF00000800000000000000000030
:1015300000120020A81B0020947200200000000070
:101540000000000000B50B4B89B003930DF10703B9
:10155000049301238DF8070006914FF0B64003A9CC
:10156000ADF81430ADF81C2000F068FB09B05DF850
:1015700004FB00BFEC00040000B50B4B89B00393E3
:101580000DF10703049301238DF8070006914FF036
:10159000B64003A9ADF81430ADF81C2000F04EFBA6
:1015A00009B05DF804FB00BFEC000800014B1868AF
:1015B000704700BF5C50002008B532F05CFC054B62
:1015C000186028B94821044B044A054829F04CFB0F
:1015D00008BD00BF5C500020F01C0408411E040838
:1015E000FA1C0408014B18680BF042B95C5000204B
:1015F00030B5264B502295B00021184640F0FAF83D
:10160000234A0264234A4264192282732CF000FBAD
:1016100028B17B21204B214A214829F025FB22F0CB
:101620001BFF18B17D211F4B1C4AF5E7082301243D
:101630008DF807301C4B2146029304AA0DF10703D5
:1016400002A88DF80C4022F015FF18B18921174B24
:10165000124AE1E7164D00F03FF800F061F82CF077
:101660007DFB2146286832F011FC18B19121114B05
:101670000A4AD1E72146286832F0E3FF18B19221E7
:101680000D4B064AC8E715B030BD00BF0C50002016
:101690004515000879150008081D0408381E0408BF
:1016A000FA1C0408271D0408C3F5A83E3E1D0408C3
:1016B0005C500020D11D0408031E040810B5054C21
:1016C000206832F07CFE206808F09CFBBDE81040EA
:1016D0002CF045BB5C50002010B50F4832F0DBF811
:1016E000FFF764FF4FF4FA6132F095FC044638B915
:1016F000FFF75CFF4FF0010132F0ACFE044648B149
:10170000204632F0B6FB2146BDE8104002460348B1
:1017100032F0C1B810BD00BF571E04086C1E04088B
:1017200070B5A4B07022002108A840F063F801222F
:101730000023CDE90623224B224A1C936B461068F6
:10174000516802AC03C36B46224603CB1E4BCDF857
:101750005900CDF85D1003F1100625461868596848
:10176000083303C5B3422C46F7D10FCA0EAC84E848
:101770000F00BDF88C30154843F4CA7343F00103E1
:10178000ADF88C3040F0FDF81049024612A840F048
:101790000AF89DF88C3043F008038DF88C30FFF781
:1017A00005FF06A932F0E4FA044630B132F061FBDD
:1017B00021460246064832F06EF824B070BD00BFE4
:1017C00022220F00BA1E0408C31E04083E14002083
:1017D000911E040810B5274C01F0B6FF02F0F0F896
:1017E000236F23F0070343F0030323672CF0A7FCC8
:1017F000214B00209B6ADB015EBF4FF480321F4B00
:101800009A62D4F8203123F0070343F00203C4F8AE
:101810002031D4F8283123F0070343F00203C4F841
:101820002831D4F8403123F0030343F00103C4F816
:101830004031D4F8603123F0030343F00103C4F8CE
:101840006031D4F8403223F0030343F00103C4F8BD
:101850004032D4F8003223F0070343F00103C4F808
:101860000032D4F8083223F0070343F00103C4F830
:10187000083210BD008000500040005A0060005A3D
:1018800007B501A802F008FE9DF80530012B14D120
:101890009DF804308BB94FF48012114B1149586EEA
:1018A00003F580535A664B6B23F0E05343F04063DB
:1018B0004B63C3025CBF0C4B5A6605F06BFC05F032
:1018C00001FC2DF0F6FD05F025FCFFF783FF05F088
:1018D0000FFC00F033FC03B05DF804EB05F092BEA2
:1018E000008000500040005A00A0005008B53A2087
:1018F000012101F0F1FCBDE80840014800F028B9E1
:101900000012002018B1034B1860002070472520FA
:10191000704700BFC050002010B5054C0549206835
:1019200001F080F82068BDE81040FFF7EBBF00BF72
:10193000381200201412002008B500F02DF8124BC8
:1019400012498B4212D30020114B12498B4218D3FB
:10195000FFF7BEFD186850F82240586840F8224052
:10196000013298688242F5D30C33EAE70022F8E7A7
:101970001C6844F8220001325C68A242F8D30833A4
:10198000E4E70022F8E700BF509504085C950408DE
:101990005C9504085C9504084FF480414FF0FF30DB
:1019A000114B124A10B59A60D3F8882042F47002A5
:1019B000C3F888200E4A91660E4901F50052106660
:1019C0000D4850660220C3F8D000BFF34F8FBFF31D
:1019D0006F8F01244FF440330848C0F88041D36032
:1019E00004600B6110BD00BF00ED00E000000008C6
:1019F0000090005000800044F7FF370000E100E055
:101A0000014B1868704700BF40130020084B1B6F44
:101A100003F00703022B04D0032B05D0012B05D0C4
:101A2000FEE7044B18687047034BFBE70348704719
:101A3000008000504013002044130020002D31018D
:101A400008B5FFF7E3FF054B1B6FC3F30333013307
:101A5000B0FBF3F0024B186008BD00BF00800050DF
:101A60003C1300200048704700B4C404014B1868C0
:101A7000704700BF44130020054B1860054B1B6FD7
:101A800003F00703032B01D1FFF7DABF704700BF54
:101A9000441300200080005000487047002D3101A1
:101AA0004FF0B4439868C0F304400C2822D8DFE814
:101AB00000F0092121212121071719211B1D1F00D9
:101AC0000F4870479B6803F04073B3F1807F13D0D9
:101AD000B3F1007F12D00B4A002B08BF10467047AD
:101AE00009487047094870470948704709487047D6
:101AF00009487047002070470848704708487047F9
:101B0000405DC60000093D000024F400C0EA210148
:101B100080BA8C010048E801005A620280841E00ED
:101B200040420F00014B1868704700BF4813002067
:101B300005490A681318054883428CBF4FF0FF32ED
:101B40000B601046704700BF4C13002000000420BB
:101B50002DE9FF4103680446B3F1B64F04D0354A7E
:101B6000934251D12F2000E02E20012101F0B4FB3F
:101B700001230A226179207902F0BCF901230A22AB
:101B8000E179A07902F0B6F9092701262A4D4FF034
:101B900030082279637908FB025206FA03F302F552
:101BA00001521360642006F043FC2379627908FB3C
:101BB000035306FA02F203F5825364201A6006F01A
:101BC00037FC013FE3D12068B0F1B64F1FD10323AA
:101BD000C5F8E8346279237943EA0243C5F8EC3466
:101BE000E279A37943EA0243C5F8F03440F20113E5
:101BF000ADF80030E36869460293A3680193237C43
:101C00008DF80C3002F0F2F904B0BDE8F081094B18
:101C10009842EBD10323C5F8F8346279237943EA7B
:101C20000243C5F8FC34E279A37943EA0243C5F8DC
:101C30000035DBE70080065000C0035038B505468C
:101C400002F002FB044C012801D1013C00D138BD57
:101C5000284602F0EDF9F6E7E19304002DE9F04F94
:101C60009A46564B85B01B7806460F461546DDF85A
:101C70003C909DF844B0DDF85080002B00F08D8042
:101C8000072A00F28C800E9B002B00F08880B9F1AF
:101C9000000F00F08480129BB3F5006F7FDC0128F9
:101CA00002D1109B002B7AD0454B03EB05131B7B15
:101CB000002B76D0434C1022002168463FF09AFD5D
:101CC00004EB45141022002F59D1394620463FF02D
:101CD00091FD43F210036380BBF1000F03D1E37861
:101CE00043F00303E370374A0E9B02EB451CCCE93B
:101CF0000193129B6901013BC3F30A009DF84C302C
:101D0000012E03F003034FEA836343EA001E535896
:101D10002D48CDF800A000EA03004EEA000353501E
:101D200041D113230CF1100ECCF80C309CE80F00BD
:101D30008EE80F006FF00301DCF81C20109B61F3AC
:101D40009F02012FCCF81C20CCF8143003D1CCF822
:101D50001890CCF804300027194A290102EB05132A
:101D600042F80180159A28465A60694622469F60CB
:101D70005E7302F0EBFA384605B0BDE8F08F002143
:101D800020463FF037FD4FF444736380BBF1000FF2
:101D9000A9D1E37843F03003A4E70C48ECE70C4802
:101DA000EAE70C48E8E7B8F1000FD4D19CF802301C
:101DB00068F304138CF80230CDE700BFAE69002051
:101DC000C4500020445100200F80FFF3028000F037
:101DD000018000F0078000F038B5124B05461B78F3
:101DE000DBB1E0B12CF0CFF90F4A00231146147B90
:101DF00054B92B6001251A0101EB03131D738C509C
:101E00002CF0C7F9204638BD0133082B02F110022F
:101E1000EDD12CF0BEF90548F5E70548F3E7054894
:101E2000F1E700BFAE690020C4500020048000F03C
:101E3000028000F0018000F0154B13B518680023F4
:101E400001908DF804302CF09EF9124B1C7824B1CF
:101E50002CF09FF9104802B010BD01221A702CF02E
:101E600098F90E4B01A81C731C7783F82C4083F85B
:101E70003C4083F84C4083F85C4083F86C4083F826
:101E80007C4008238DF8073002F02EFA2046E2E766
:101E9000D41E0408AE690020038000F0C450002066
:101EA0000A4A08B512785AB107280BD8084A02EB3B
:101EB00000131B7B43B1002102F008FA002008BD8B
:101EC0000448FCE70448FAE70448F8E7AE69002054
:101ED000C4500020028000F0018000F0078000F074
:101EE0000A4A08B512785AB107280BD8084A02EBFB
:101EF00000131B7B43B1012102F0E8F9002008BD6B
:101F00000448FCE70448FAE70448F8E7AE69002013
:101F1000C4500020028000F0018000F0078000F033
:101F20000A4A08B5127852B107280AD8084A02EBC3
:101F300000131B7B3BB102F057FA002008BD054897
:101F4000FCE70548FAE70548F8E700BFAE6900205E
:101F5000C4500020028000F0018000F0078000F0F3
:101F60000D4B1B7893B1072812D889B10B4B03EBAB
:101F700000131B7B73B10A4BDA6A012303FA00F0EA
:101F800010401ABF00200B7008707047054870475A
:101F90000548704705487047AE690020C4500020CE
:101FA00000000450028000F0018000F0078000F083
:101FB0000B4A10B512780C4662B107280CD859B1FB
:101FC000084A02EB00131B7B43B102F01FFA2060AA
:101FD000002010BD0448FCE70448FAE70448F8E78D
:101FE000AE690020C4500020028000F0018000F0A3
:101FF000078000F02DE9F843174B1F6D5B6D1F4004
:1020000000D5FEE701260025144CDFF85480DFF8E8
:102010005490374217D02368C8F850609BB1A1682C
:10202000284601316268A1609847637B012B0AD181
:1020300048B909EB45131A7B60F341021A731A7F02
:1020400060F341021A770135082D4FEA460604F184
:102050001004DED1BDE8F88300000450C450002015
:10206000002004504451002070B5044601250B4E59
:1020700004B970BD94FAA4F0B0FA80F005FA00F348
:1020800006EB001224EA03045368002BF0D0117B06
:1020900011B191689847EBE79847E9E7445200206F
:1020A00008B5192001F0C0FC28B14FF00072074BB1
:1020B000C3F880211A601A2001F0B6FC28B14FF055
:1020C0008062024BC3F880211A6008BD00E100E085
:1020D00038B505460C462CF056F80022044B03EBAD
:1020E00005135C601A73BDE838402CF052B800BF8D
:1020F00044520020074BD3F82404D3F8202403F5DE
:102100000053104000F0553020F05020C3F8200458
:10211000FFF7AABF00C00350074BD3F82404D3F83D
:10212000202403F50053104000F0AA3020F0A02036
:10213000C3F82004FFF798BF00C00350024B196892
:10214000024B18681AF02AB95413002050130020CB
:1021500037B5920004460D4601923FF0C1FD431C85
:102160000BD060B929462046019A3FF00CFB0028AD
:10217000044808BF002003B030BD0348FBE7034814
:10218000F9E700BF10E000F021E000F024E000F0EB
:1021900013B5044601A802F07FF99DF8063001222C
:1021A00023804FF4807300206380054B9B680A33C3
:1021B00003F01F0302FA03F3636002B010BD00BF17
:1021C0000080E00F10B504463FF082FD431C15D09F
:1021D000B0B90C4B20469B680A3303F01F02012361
:1021E000934023F003032344984201D1002010BD03
:1021F00050F8042B0132F7D00348F8E70348F6E71C
:102200000348F4E70080E00F0EE000F021E000F06A
:1022100024E000F008B52BF0A7FF014B186008BDC3
:10222000845A0020014B18682BF0A2BF845A00206A
:1022300038B141B1013AB2F5006F044838BF00200F
:102240007047034870470148704700BF037000F0B3
:10225000027000F038B504460D462BF094FFA388B9
:102260009BB223B92B602BF094FF064838BD142293
:1022700063889BB202FB034408342C602BF089FF77
:102280000020F3E70B7000F0F8B5044616460F4641
:102290002BF079FFA388E2889BB29A42054605D8C5
:1022A000002333602BF075FF1748F8BD14222388F4
:1022B00007F1100C9BB202FB03433A460833174662
:1022C00003CF6745186059603A4603F10803F6D119
:1022D000142238681860238828469BB202FB034307
:1022E000083333602388E2889BB20133B3FBF2F1F9
:1022F00002FB11339BB22380A38801339BB2A380DE
:102300002BF047FF0020D0E70A7000F090F835303E
:10231000022B0DD114223023417F90F8210013FBB2
:102320000123044A9B5823FA00F000F00100704793
:102330000020704730C00350002313B51D4A52F8E7
:10234000044B94F8211081420ED00133042BF6D1B6
:1023500002B010BD0028FBD19DF80730002BF7D04C
:10236000A068FFF79DFDF3E794F83530022BEFD11D
:102370002046FFF7CBFF637E2076022BE8D194F84E
:10238000323003F0FF02002BE2D1A0680DF107010B
:102390008DF80720FFF7E4FD237E1BB194F833305E
:1023A000002BD7D00023A06884F83330FFF798FDC6
:1023B000CEE700BF385B0020104930B50B78104ADB
:1023C0002BB9C2E90033C2E9023301230B700C4C74
:1023D0000023214651F8045B854208D00133042BC9
:1023E000F8D1002154F8043B1BB942F82100002029
:1023F00003E001310429F5D1024830BDAF69002066
:10240000385B0020027000F010B50446FFF714FDA1
:10241000002104F10800FFF7DFFC014620B904F1B8
:102420000C00FFF7D9FC00B1004810BD0E7000F0A1
:1024300090F8363053B9042103790A4A03F239136C
:102440005B01D150022203685A617047022B07D109
:102450000068816C11F0020118BF06212BF0DCBE70
:10246000704700BF00C0035090F8363063B90122B6
:1024700003685A619A69D207FCD504210379084A96
:10248000B9335B01D1507047022B07D10068836CD0
:102490009B074CBF052109212BF0BEBE704700BF32
:1024A00000C0035010B590F83630044663B90422DA
:1024B00003685A619A699207FCD523790C4AB933AB
:1024C0005B011021995010BD022BFCD10068836C78
:1024D000DB074CBF052106212BF09EFE237941F23C
:1024E00094425B0103F1A04303F57033E9E700BFB9
:1024F00000C0035037B50446836B2BF044FEA36B3A
:102500000546013BA363A16B79B901912BF02CFE29
:1025100004460199012005F0A7F80120064A019917
:1025200005F096FA20462BF023FE284603B0BDE8BE
:1025300030402BF02EBE00BFFC1E040813B591F8EE
:1025400036200B68022A0CBF9B6C9B690C469B06CD
:10255000084605D5FFF7CEFF0223E36502B010BDA4
:102560002BF054FD00230146CDE90033034A2346F6
:1025700004F13C002CF0D4FFF0E700BF3D2500083B
:1025800070B504462BF0FFFDA36B054673B92BF025
:10259000EBFD01210646084605F066F80121074AD1
:1025A000084605F055FA30462BF0E2FDA36B2846AD
:1025B0000133A363BDE870402BF0EBBDFC1E0408A3
:1025C0007FB5012380F8303090F8363083B9036846
:1025D00024330D4A04900392002202924A68019229
:1025E000012200920A684169C0682BF061FC07E093
:1025F000022B02D103683C33EBE7002380F8303034
:1026000007B05DF804FB00BF5D2C000801232DE935
:10261000F04180F8313090F8363004460E4688B0EC
:1026200063BB05683C352BF0AEFD04F13C08074662
:102630000DF11F01404605F0BDFC40B99DF81F306B
:102640002BB1404605F08EFC2046FFF753FF38467D
:1026500001272BF09EFD2046E765FFF791FF0D4B0C
:102660002A4603930023029373682169CDE900731E
:10267000A068336804942BF001FC07E0022B02D120
:1026800005684435CFE7002380F8313008B0BDE855
:10269000F08100BF99260008F0B585B0D06A03A983
:1026A0001446FFF7D7FD064620462BF0AFFC002569
:1026B00001462346CDE90055164A04F13C002CF0B2
:1026C0002FFF154B9E421FD0039B1D619D602BF079
:1026D0005AFD039A0646D76827B1D2E90023294656
:1026E0002046B847E06A03A92BF0A7FCE06A83887C
:1026F0009BB263B103A9FFF7ADFD20460399FFF735
:1027000085FF30462BF045FD012005B0F0BD84F873
:102710003130F6E73D2500080B7000F02DE9F3415C
:102720000D46044600287FD02BF02DFD012D0646D6
:1027300041D1E36A9B889BB2002B43D0A068FFF78E
:10274000EFFB0023E06A84F8313083889BB273B1D9
:1027500001A9FFF77FFD0199A0680831FFF728FC68
:10276000374F019B1F61E06A83889BB283BB204681
:102770002BF086FC8304FAD5023D012D10D8E068C9
:10278000FFF7CEFB0023A06A84F8303083889BB229
:102790006BBB94F83530032B02D02046FFF748FE80
:1027A000A36B002B02DD2046FFF7A4FE30462BF082
:1027B000F0FC002009E0022D38D1A36A9B889BB26F
:1027C000002BDCD12BF0E5FC1E4802B0BDE8F08107
:1027D00001A92BF032FC019BD3F80C80B8F1000F5B
:1027E000C1D00022394620469B68C047BBE76946F6
:1027F000FFF730FD0099E0680831FFF7D9FB104D75
:10280000009B1D61A06A83889BB2002BC1D06946E2
:102810002BF013FC009BDF68002FF3D00022294629
:1028200020469B68B847EDE70748CEE7032DA3D1C4
:10283000E36A9B889BB2002B80D1A36A7AE700BF32
:10284000097000F0087000F0027000F0F8B507465B
:102850000D461646FFF7ECFC00286BD1152001F061
:10286000F1F80446FA6A93889BB213B197F83230B4
:10287000E3B197F83630F3B93B689C6904F0020481
:102880001CB93846FFF70EFE0024012387F83430C8
:1028900097F83630CBB92E44B542386810D18369E9
:1028A0009A06FCD51CB300242046F8BD002CDAD0D3
:1028B000FFF7A0FBD6E7022BE3D13B689C6CDDE77A
:1028C00015F8011B2BF02EFDE6E7022BEAD12E4472
:1028D000B542386806D142F22003826C33EA020224
:1028E000FBD1DFE715F8011B2BF09BFCF0E797F815
:1028F000363053B910213B790F4A03F239135B018B
:10290000D15008223B685A61CEE7022BCCD13868FF
:10291000836CDB074CBF092121462BF07DFC42F282
:10292000944210213B795B0103F1A04303F570331E
:102930009950B9E70446B7E700C0035010B5044604
:1029400080B190F832302BB9FFF7E0FC10B9A068E5
:10295000FFF7A6FA002094F832300133DBB284F896
:10296000323010BD0048FCE7027000F010B504469C
:10297000A0B190F832309BB190F83230012B05D1E4
:10298000FFF7C4FC10B9A068FFF7AAFA002094F87A
:102990003230013BDBB284F8323010BD0148FCE735
:1029A0000148FAE7027000F0057000F037B590F8C2
:1029B00035500446022D1DD1012290F82230457E6B
:1029C000817F9A403020164B25B900FB013303F577
:1029D000015305E0012D07D100FB013303F58253BC
:1029E0001A60002003B030BD247E00FB0133002CB0
:1029F000F4D1ECE7012DF4D1037E73B911238DF8E6
:102A00000730FFF79BFF2A4620460DF10701FFF72D
:102A10001DFF2046FFF7AAFFE3E71323EFE700BF00
:102A200000C003502DE9F04304466F4F89B001AE5A
:102A30000D460FCF0FC697E8070086E80700002C69
:102A400000F0D08025B9694E304609B0BDE8F0836A
:102A50006022002120463EF0CDFE2046FFF7ACFC70
:102A600006460028F0D14FF001092B7D84F835305F
:102A70002B6884F8360023602A7BC4F85C902271AE
:102A80005B4A9342DFD1292363624FF48023594983
:102A90008046C4E90413D5E90723A2621080508060
:102AA000908084F83000E3621880588098806B68CA
:102AB00084F831000393EB8984F83300ADF81430C7
:102AC0002B8A4946ADF81230AB7C3A208DF8103095
:102AD000EB7C494F8DF8163005238DF8113000F04E
:102AE000FBFB4946606A00F0F7FB286801A98DF8F6
:102AF000046001F079FD14212B7B03F139025201AE
:102B0000B9502E7AA87A07EB431346EA0042C3F87D
:102B10003827697AEA7A41EA024CC3F830C7E67688
:102B2000E077217784F820206B7D49466377AB7D81
:102B3000204684F82130EB7DA3772B7E84F8223069
:102B40002BF0F4F9064600287FF47EAF2BF01BFB38
:102B50002B7D8146032B33D102212A7B02F1B9035D
:102B60005B01F950042107EB421741F22C722B68EC
:102B700003F58053D965297EEB7D43EA0143BB50C1
:102B8000AA7D6B7D43EA024341F22872BB504FF0AD
:102B9000FF32286800F500539A642B7D032B0CBF8D
:102BA000052104212BF0AFFB4FF440622B68204637
:102BB0005A61FFF729FC064648462BF0EAFA43E73C
:102BC000022BE4D194F821000C49FFF781FAFFF7BA
:102BD00067FA4FF400732046238384F81A80FFF7C6
:102BE000E5FED4E7064E2FE7041F0408037000F04B
:102BF00000C005500200040000C003503923000843
:102C0000027000F0F0B587B005461646FFF710FBDE
:102C10000446F0B90493104BCDE901166A46A86A40
:102C200001A903960593FFF72FFB044688B995F891
:102C3000303073B92846FFF717FC28460099FFF794
:102C4000BFFC95F83530032B03D028462C76FFF7D0
:102C5000ADFE204607B0F0BD017000F073B5906A7C
:102C600001A91446FFF7F6FA384B984231D094F890
:102C70003600019B00283AD12268916C11F4007152
:102C80002AD03349986019614FF4007302F500525D
:102C900093642BF078FA01990646CD6835B14A68FD
:102CA0008B682046D31A0A680969A847A06A01A957
:102CB0002BF0C3F9A06A8588ADB2002D37D001A9E9
:102CC000FFF7C8FA20460199FFF77AFC30462BF04F
:102CD00060FA012002B070BD906CC50523D51D4877
:102CE0009960186102F500524FF48073D0E7022812
:102CF00019D12268D16C11F4007109D0144902F580
:102D000000521961002199604FF40073D364C0E749
:102D1000D06CC00507D50F489960186102F50052C4
:102D20004FF48073F2E700221A619A60B1E7012341
:102D300020462376FFF73AFE94F8353084F8305079
:102D4000032BC3D02046FFF773FBBFE70B7000F0E7
:102D50000D7000F00C7000F0F0B587B00446164618
:102D6000FFF766FA054658BB0493194BCDE90116E7
:102D7000059394F8363003962BBB23689B6903F0C8
:102D8000020313B92046FFF78DFB6A46E06A01A9EA
:102D9000FFF77AFA054698B994F8313083B92BF0E9
:102DA000F2F9E36A06469B889BB233B1204600994C
:102DB000FFF72CFC012384F8343030462BF0E9F97E
:102DC000284607B0F0BD022BDCD123689B6CD6E708
:102DD000017000F00B4B30B51B7883B1012000234C
:102DE0000546094951F8042B2AB192F85C40022C9F
:102DF00004BF2046D5650133042BF3D130BD01203B
:102E0000FCE700BFAF690020385B0020044BD3F81B
:102E10008420D206FBD4D3F88400C0F3811070471D
:102E20000040005038B5104B0546D3F880300C46B2
:102E300003F00303022B0BD0032B0DD0012B0FD17A
:102E4000FEF7E4FD0E2305B1286004B1236038BD10
:102E5000FEF726FE0723F6E7FEF7D2FD0623F2E78C
:102E600000231846EFE700BF0080005038B5174B2D
:102E70000546D3F820310C4603F00703013B052B30
:102E800020D8DFE803F0030B130F171BFEF7B8FD84
:102E9000052305B1286004B1236038BDFEF7E6FDC7
:102EA0000323F6E7FEF7FCFD0723F2E7FEF7F4FD48
:102EB0000223EEE7FEF7A4FD0623EAE7FEF7D6FDC0
:102EC0000423E6E700231846E3E700BF0080005034
:102ED00038B5174B0546D3F828310C4603F00703E5
:102EE000013B052B20D8DFE803F003131B0F0B1762
:102EF000FEF786FD052305B1286004B1236038BDC7
:102F0000FEF77EFD0623F6E7FEF7CAFD0723F2E78C
:102F1000FEF7ACFD0323EEE7FEF7A8FD0423EAE786
:102F2000FEF7BAFD0223E6E700231846E3E700BFF9
:102F30000080005073B50D460021114B0191D3F86C
:102F40008041064604F00304022C13D0032C0CD05D
:102F5000012C13D101A8FFF789FF10240EB1019BAA
:102F6000336005B12C6002B070BDFEF799FD0724F7
:102F70000190F3E7FEF790FD0190EFE70C46EDE7D7
:102F800000800050002337B50193154B0546D3F858
:102F900020320C4603F00703013B032B1ED8DFE869
:102FA00003F0020E1318002101A8FFF791FF12236E
:102FB0000DB1019A2A6004B1236003B030BDFEF761
:102FC0006FFD07230190F3E72AF039FF0A230190F0
:102FD000EEE7FEF7A7FD09230190E9E70023E7E705
:102FE0000080005038B5104B0546D3F840310C46F0
:102FF00003F00303022B0BD0032B0DD0012B0FD1B9
:103000002AF01DFF0A2305B1286004B1236038BDF2
:10301000FEF788FD0923F6E72AF014FF0C23F2E7F8
:1030200000231846EFE700BF00800050002337B5AB
:103030000193164B0546D3F860320C4603F00703A4
:10304000013B032B1FD8DFE803F0020E1914002107
:1030500001A8FFF70BFF10230DB1019A2A6004B1FC
:10306000236003B030BD002101A8FFF7BBFF11238F
:10307000F2E7FEF715FD07230190EDE7FEF70CFDE3
:1030800002230190E8E70023E6E700BF008000503C
:10309000002337B50193164B0546D3F894320C46FE
:1030A00003F00703013B032B1FD8DFE803F0020EF8
:1030B0001914002101A8FFF7D9FE10230DB1019AC0
:1030C0002A6004B1236003B030BD002101A8FFF7DE
:1030D00089FF1123F2E7FEF7E3FC07230190EDE7F8
:1030E000FEF7DAFC02230190E8E70023E6E700BFE1
:1030F0000080005038B5134B0546D3F800320C461B
:1031000003F00703013B032B18D8DFE803F0020AA2
:103110000E122AF094FE0A2305B1286004B1236040
:1031200038BDFEF7FFFC0923F6E72AF08BFE0C23DF
:10313000F2E7FEF785FC0F23800AEDE7002318462F
:10314000EAE700BF0080005038B5134B0546D3F8BE
:1031500008320C4603F00703013B032B18D8DFE8C5
:1031600003F0020A0E122AF06AFE0A2305B1286053
:1031700004B1236038BDFEF7D5FC0923F6E72AF039
:1031800061FE0C23F2E7FEF75BFC0F23800AEDE7FC
:1031900000231846EAE700BF0080005038B5104B06
:1031A0000546D3F840320C4603F00303022B0BD044
:1031B000032B0DD0012B0FD12AF041FE0A2305B1BC
:1031C000286004B1236038BDFEF7ACFC0923F6E7A4
:1031D0002AF038FE0C23F2E700231846EFE700BF81
:1031E0000080005038B5104B0546D3F860310C46CE
:1031F00003F00303022B0BD0032B0DD0012B0FD1B7
:103200002AF01DFE0A2305B1286004B1236038BDF1
:10321000FEF788FC0923F6E72AF014FE0C23F2E7F8
:1032200000231846EFE700BF00800050B0F5207F74
:103230001FD009D8B0F5007F15D003D868B1B0F51C
:10324000C07F0AD000200CE0B0F5607FFAD10B4BB4
:10325000D3F88000C0F3011003E0084B186FC0F3EF
:10326000033001307047054BD3F89000C0F3046081
:10327000F7E7024B186FC0F38020F2E700800050A0
:1032800002464FF48030104B10B598660020FFF7CF
:10329000CDFF504341F671320C4BDC69DA635A685A
:1032A00004F4803422F4401259B9094988428CBF91
:1032B0004FF480100020104358600CB10022DA63F4
:1032C00010BD0449F2E700BF009000500000035019
:1032D000005A6202002D3101430905D0012B0DD0A7
:1032E000022B094B18BF002300F01F0041B103F56A
:1032F0008053012202FA00F018607047034BF3E795
:1033000003F50053F5E700BF68800050648000506B
:103310001FB5002180280446CDE9001100F09980F6
:1033200029D8002800F09980A0F120043D2C35D840
:103330003D2C33D8DFE804F091999199A8A8A8A86A
:10334000A899B23CC8603C999999323232323232F3
:10335000323299999968D2993232323232323232DB
:103360003232323232A8919191CD3C3CD7774DAD7B
:10337000323232323288B0F5B06F00F08F802DD803
:10338000B0F5207F71D00CD8B0F5C07F65D0B0F516
:10339000007F65D0B0F5807F00F08580009804B094
:1033A00010BDB0F5607F6AD00DD8B0F5407FF5D183
:1033B000FEF746FB02464FF42070FFF737FFB2FBE3
:1033C000F0F0400847E0B0F5806F5DD0B0F5A06F39
:1033D000E4D100216846FFF7D5FDDFE7B0F5106FB7
:1033E00077D016D8B0F5E06F78D00AD8B0F5C06FB6
:1033F0006AD0B0F5D06FD1D100216846FFF77AFED0
:10340000CCE7B0F5F06FC9D100216846FFF7EAFEBE
:10341000C4E7B0F5406F3CD013D8B0F5206F62D050
:10342000B0F5286FBAD10021314B0391D3F8703237
:1034300003F00303012B02D103A8FFF7D3FD039B85
:103440003BE0B0F5486FA9D100216846FFF720FEA8
:10345000A4E7FEF7DBFA0090A0E7FEF7F1FAFAE73F
:10346000FEF7D4FA0246204604E0FEF7E9FA0246E7
:103470004FF42070FFF7DAFEB2FBF0F0EBE701A8A3
:10348000FFF7D0FC019AEEE700216846FFF7EEFC5B
:1034900084E700216846FFF71BFD7FE700216846AF
:1034A000FFF748FD7AE74FF0E02302911B695B07C5
:1034B00005D5FEF7C5FA0290029B00936EE703A9BB
:1034C00002A8FFF78FFDF7E700216846FFF78AFDA6
:1034D00064E700216846FFF737FE5FE70021684692
:1034E000FFF75CFE5AE700216846FFF79FFD55E7AE
:1034F0000080005008B58020FFF70AFF034B984278
:103500009EBF4FF48032024B1A6708BD005A620218
:1035100000A000501FB50023B0F5807F019300F09C
:10352000C38064D85D2855D84C2807D82D2847D8A3
:1035300023282BD8019805B05DF804FB4D381028DE
:10354000F8D801A353F820F09F360008353500085D
:103550003535000835350008513600083535000886
:1035600035350008253700086F3600081536000885
:103570001B3700083535000835350008353500089B
:1035800035350008353500082F370008243809285C
:10359000D0D801A353F820F09F3600089F360008CA
:1035A0009F3600089F3600089F3600083535000812
:1035B000953600083535000831360008D536000844
:1035C0003D2800F082803E28B4D1002001A9FFF7F9
:1035D000E5FDAFE78028ADD15A4B1B6F03F0070321
:1035E000013B032BA6D8DFE803F05350878FB0F5DB
:1035F000F06F6AD021D8B0F5B06F4BD00FD8B0F5CE
:10360000607F00F0858095D3B0F5806F47D0B0F52E
:10361000A06F8FD1002001A9FFF7B4FC8AE7B0F5B5
:10362000D06F57D0B0F5E06FCFD0B0F5C06F81D17B
:10363000002001A9FFF7D6FC7CE7B0F5206F71D020
:103640000BD8B0F5086F4AD0B0F5106F7FF472AFA9
:10365000002001A9FFF778FD6CE7B0F5406F5CD062
:10366000B0F5486F63D0B0F5286F7FF463AF0021E9
:10367000344B0391D3F8703203F00303012B5BD07A
:10368000022B14BF0B46152300E00523019351E7DD
:103690000223FBE7002001A9FFF74CFC4AE70020CA
:1036A00001A9FFF7E3FB45E702934FF0E0231B6915
:1036B0005B0705D5FEF7C4F90D230393039BE5E7EC
:1036C00003A902A8FFF78EFCF8E7002001A9FFF785
:1036D00089FD2FE7002001A9FFF70CFD2AE7194B10
:1036E000D3F8003103F00303022B07D0032B09D0DA
:1036F000012B0BD1FEF7BAF90323C7E7FEF712FA45
:103700000923C3E72AF099FB0823BFE70123BDE79C
:10371000184601A9FFF786FB0CE7002001A9FFF777
:10372000D7FB07E7002001A9FFF780FC02E7002094
:1037300001A9FFF7ADFCFDE603A8FFF753FC112339
:10374000A4E700BF008000504FF48012034B5A667C
:103750004FF48032024B9A62704700BF00900050D5
:103760000050005A38B504468020FFF7D3FE0328E6
:1037700000F083804FF48012504B4FF0A0615A66E6
:1037800045F60E034E4AC2F880304E4B99624FF414
:10379000803103F580539962916D11F48031FBD132
:1037A000D4E900031B0543EA0063E07B0343207B6D
:1037B00043EA0043607B43EA0033A07B43EA801383
:1037C00013619069D4E904531B0643EA856300F052
:1037D00000400343A07EE57E0343207E43EA00438E
:1037E000607E43EA00239361E069136A00280CBFFE
:1037F0000022082223F00F0343EA000343EA850373
:1038000043EA02032E4A304D136237D194F8243034
:10381000916A94F82000DB000D4043EA401394F8CD
:1038200021102B4343EA011343F480339362274B67
:10383000916D33EA0101FBD14FF080712148816223
:103840001369A56823F4700343EA055313614FF02D
:103850000043836194F822300BB91D4B996294F8B0
:1038600023301BB94FF48032194B9A6294F82530FB
:103870001BB1134B174AC3F8802038BD022808D16A
:103880001161154891614FF408524FF47F412AF0BD
:1038900032FC0B4994F822308A6A94F820001B0607
:1038A000154043EA401394F824202B4343EAC20313
:1038B00094F8232043EA02438B62D7E7009000503C
:1038C0000040005A0050005AC7FFFEFE03000100EE
:1038D0000060005AF1A7FFFF3440005A014B93F9F2
:1038E000000070474A140020B0F5207F10B50C4648
:1038F00057D008D8B0F5007F48D003D830B3B0F522
:10390000C07F23D010BDB0F5607FFBD129492A4884
:10391000D1F8FC2012F080721EBFD1F8FC3023F0E9
:103920008073C1F8FC30D0F88030611E23F0300481
:1039300044EA0114C0F88040002AE3D01D4AD2F8BE
:10394000FC3043F08073C2F8FC30DBE72AF0E4FB84
:103950002AF0F0FB4FF48031184B174A1967136FA8
:10396000611E23F4704444EA01341467FEF768F8DA
:103970000446FFF74BFAC0F1020120462AF0D4FBBF
:1039800000F02EF8BDE81040FFF7B4BD0A4A013937
:10399000D2F8903023F0F85444EA0164C2F8904021
:1039A000B0E7054B013C196F21F4806141EA8424A2
:1039B0001C67A7E700ED00E0008000500090005079
:1039C00008B50121022000F0B1F82AF0A5FB2AF089
:1039D000B1FB4FF48032014B1A6708BD00900050D4
:1039E00008B54FF4C070FFF793FCBDE808400449E8
:1039F00088428CBF022101214FF42070FFF774BF71
:103A000080F0FA020028ABBF00F16040054B00F5E2
:103A1000614000F00F00ACBF90F80003185C000993
:103A2000704700BF14ED00E0054B420953F8223007
:103A300000F01F0023FA00F0C04300F001007047BF
:103A400000E100E0014608B5EFF31083DB0702D583
:103A50000122104608BDFFF7E7FF02460028F7D114
:103A60000846FFF7CFFF0146EFF3118313B1B0EB28
:103A7000131FEDD2074B5B68C3F30803002BE8D09C
:103A8000103B58B2FFF7BEFF88428CBF00220122D4
:103A9000DFE700BF00ED00E0024A536B0342FCD1B8
:103AA000704700BF00400950044A4178536F23F427
:103AB000407343EA01235367704700BF0040005042
:103AC0000A4A10B51369044643F00403136104F075
:103AD0008BF82AF061FB30BF2AF05FFB04F098F806
:103AE0001CB9BDE81040FDF7ABBF10BD00ED00E014
:103AF000084A10B51369044643F00403136104F047
:103B000073F830BF04F084F81CB9BDE81040FDF72D
:103B100097BF10BD00ED00E0034A0179D36E23F09A
:103B200030030B43D366704700400050F8B504469D
:103B30001C4BD3F88420D106FBD4D3F88430C3F3D4
:103B400081139C422CD0FDF761FF012C064602D167
:103B500021462AF0E9FA2AF007FB4FF00072124BD7
:103B600007465A6620462AF01BFB4FF480630D4D32
:103B7000621E93402B676B6E9A0103D4D5F8843094
:103B80009B060AD538462AF0F3FA022C08D13046B3
:103B9000BDE8F84000212AF0C7BAD5F88430EAE73A
:103BA000F8BD00BF004000500060005007B518B9D4
:103BB0000191FDF72BFF0199064B1B7843B1064B92
:103BC000984205D8012003B05DF804EBFFF7AEBFC3
:103BD0000220F8E7B0690020005A62020278034B25
:103BE000012100201A70FFF7E1BF00BFB06900207B
:103BF0004FF00042154B10B55A664AF6CD331449C2
:103C00004C6C0B6404F0010488B90120FFF744FFF9
:103C10004B68DB0704D50F4B58600B6BD807FCD5FE
:103C200014B10B4B0C4A1A643DF042F810BD0B6BFB
:103C30001A07FCD42022074B9A620122A3F5805375
:103C40005A60034A936A9B06FCD5E9E7009000504E
:103C500000400950006009503254FFFF4FF000420D
:103C600038B5164B01465A664AF6CD33144C154A00
:103C7000656C236443780B205B0043F00103D3633E
:103C8000FFF70AFF63688A7823F4F87343EA0213A4
:103C90006360CA784B7943EA0223A3600A798B797F
:103CA00043EA022323610878FFF7A2FFEB0744BF32
:103CB000054B23643CF0FCFF012038BD0090005010
:103CC00000400950004000503254FFFF4FF00042C6
:103CD000124B70B55D6E03F580535A664AF6CD33CC
:103CE00004460F4980204E6C0B64FFF7D5FE0B6A2B
:103CF00023F00F030F2C94BF234343F00F030B62F9
:103D0000F30744BF074B0B64002DA2BF4FF00042E6
:103D1000054B5A663CF0CCFF70BD00BF00800050E0
:103D2000004009503254FFFF00A000504FF0004205
:103D3000104B70B55D6E03F580535A664AF6CD336D
:103D400004460D4980204E6C0B64FFF7A5FE0B6AFC
:103D500023F4F85343EA04230B62F30744BF074BF1
:103D60000B64002DA2BF4FF00042054B5A663CF099
:103D70009FFF70BD00800050004009503254FFFF8B
:103D800000A000502C4B2DE9F0419842064612D07D
:103D90002A4886420CBF57200020FFF7B9FAB168C5
:103DA00011F0010109D03169090E0131B0FBF1F1C7
:103DB0000846BDE8F0815620EFE7326BB468204B2F
:103DC00004F0E004402C03EA020310D007D854B3F7
:103DD000202C2CD0B36DDB0748BF4908E8E7602CE6
:103DE00027D0802CF6D14FF480750C461CE080253E
:103DF0000C464FF0030803F5807308FB03F800231B
:103E00004246194626F06AFD02FB04F100FB05F765
:103E100005FB0311A2FB050500234246294426F0B9
:103E20005DFD3918D6E710254FF00108E3E7254678
:103E3000DBE74025D9E700BF0000015B00000A5026
:103E4000F8FF7F00072AF7B501F0030614461F4666
:103E50004FF003012CD89500A94000FA05F21C4848
:103E600001912AF0E3F901991A4806FA05F22AF0BD
:103E7000DDF9194B19499DF82000002F08BF19469C
:103E8000012303FA04F40C60154B1649002808BFFF
:103E90000B461C60144B9DF82400C3F820441031DD
:103EA000A3F6DC33002808BF0B461C6003B0F0BD4E
:103EB000A2F10805AD00A94000FA05F20B480191F6
:103EC0002AF0B4F901990A4806FA05F2CFE700BFD3
:103ED00000C4035008C4035010E4035010D403502E
:103EE00014D4035014E4035000E0035004C40350FE
:103EF0000CC403502DE9F04105460F461E4690467E
:103F00004AB101233022194C8B4002FB00443EB3DE
:103F100004F5825423600F21072F05EB450388BF6A
:103F2000A7F108044FEA0313114895BFBC00A40091
:103F300004330C3308FA04F2A14018442AF076F94D
:103F4000B8F1000F0AD101213020084A01FA07F721
:103F500000FB05223EB102F582521760BDE8F081F8
:103F600004F50154D6E702F50152F6E700C003500C
:103F700030C00350F8B505460E4614465AB3826861
:103F800003F0030722F4407282602AF0EDF8AA6879
:103F900082EA072303F440735340AB602AF0E8F849
:103FA00036B9B5F1B64F17D12E20FFF7B1F9064655
:103FB000AB680C4BD85D60430DD06FEAC404044479
:103FC000A319B3FBF0F3AA68013B920702D5002BBB
:103FD00008BF0123AB61F8BD034B9D42E8D12F2000
:103FE000E3E700BF401F04080080065038B50023F7
:103FF0000E4A036400F50053DA634A7804460D461E
:1040000000F108037AB903F5805302221A602046B2
:10401000D5E901122B7BFFF7ADFF20462978BDE8DB
:1040200038402AF014B903F50053EEE7FFFF1F00F4
:10403000B0F1B64F2DE9F04322D0804B984240F0CA
:10404000FA807F4B402505264FF000084FF0030C07
:10405000996800F50054C26B12F4C06F16D0970532
:1040600010D5FD225A7009221A700022026493F9B9
:104070000110012900D15A7093F90100BDE8F083C5
:10408000704BDFE75605EED5FE22EBE71F78082FD1
:1040900000F2CD80DFE817F009001F0041004C005E
:1040A0006900740096009E00C2004C880A88E506EC
:1040B0000AD5120A02F0060242F0F002012119703C
:1040C0004263C1600120D9E702F0FE02A10748BFA8
:1040D00042F00102F2E7170607D5802100F50052F1
:1040E000D1634FF608721A8062E05206EAD54A8818
:1040F000E563D70604D502221A700B784363E1E723
:10410000920765D507221A701B7901EBC3010B8951
:10411000012BD7D10823C360D4E71706DDD452069C
:10412000D0D54A88E563970752D583F800C092E757
:104130004C880A88E50643BF120A02F0060242F0E4
:10414000F00202F0FE02640709D51C7942F0010278
:1041500001EBC4010989012904BF0821C1600421C0
:1041600019700123C3604263ACE71706B5D4570644
:10417000A8D54A88E56352072AD507221A70A1E715
:104180001A795F8801EBC20EBEF80890B94511D8C4
:104190000132D2B21A714F88A3F8028017F0040FCF
:1041A000C3D1FF0702D4012A7FF655AF08221A7047
:1041B0000223B0E7DEF80420791C5980D25D426307
:1041C0000622DBE7170688D457067FF57BAFE56349
:1041D0001E7040E794067FF575AF20261A7900F52A
:1041E000005401EBC2010A89456AE6635C88A24279
:1041F00081BF4968661C5E800D5559888A42D5D9B1
:104200000424012AC46004D9013A914201D1082250
:10421000C2601A78092A3FF428AF53E7D2057FF528
:1042200051AF4FF4807100F50052D1631BE74FF698
:1042300009321A8019E76FF003001FE7008006506B
:10424000545B0020485B0020B0F1B64F10B407D09B
:104250001A4B98422ED06FF003005DF8044B704764
:10426000174B0269D20744BF2022C2604A889407D4
:1042700002D50C89002CEED0520702D50A8A002AFA
:10428000E9D04FF480721A60002299601A71C0233D
:10429000C3604369DB050FD4202200F50053DA63C5
:1042A000084A5DF8044BDA63036C43F4FC6303646F
:1042B000FFF7BEBE044BD4E7436AEAE7008006502E
:1042C000485B0020FFFF1F00545B0020044A054BA1
:1042D000002918BF1346012202FA00F01860704747
:1042E000402004504010045010B501210446202005
:1042F000FEF7F2FF01212120FEF7EEFF0122114B14
:104300005A60227812069A606178A27842EA0142E5
:104310009A61FF229A6200229A631A644FF0004267
:104320005A654FF0FF324FF4001103F500531A6540
:10433000054AC2F88011E3781B01DBB282F815331D
:10434000116010BD0000045000E100E02DE9F041D3
:104350000125C3B2D1F8008091F80AC00F7B91F813
:104360000DE09D400C46CB7A1C491D4E0D65810029
:1043700001F1A04101F58821C1F80480302101FB41
:1043800000601B0543EA0C4343EA475322F0030253
:10439000C0F860E0C365026729F0F5FE736D2B433A
:1043A0007365237A13B1336C2B433364637A13B18F
:1043B000B36B2B43B3632279A37943EA0243074AE1
:1043C00093616179E37943EA014306498B61044BC8
:1043D00055639D64BDE8F04129F0DBBE0020045028
:1043E000000004500010045010B50124C0B28440F5
:1043F00029F0C9FE044B5A6D22EA04025A659C62F8
:10440000BDE8104029F0C5BE00000450F8B50125F4
:10441000C3B204469D4029F0B6FE3022094B1E6D02
:104420005F6B02FB04335C6E29F0B3FE3D4206D1A4
:10443000C4F30A1008B9354200D10130F8BD00209C
:10444000FCE700BF000004504FF48032054B9A6631
:1044500041F6713203F51C33DA63012203F5005390
:10446000DA6070470090005041F671320121064B2E
:10447000DA6303F50052D1600022DA634FF4803230
:10448000A3F518339A66704700000350014BD3F828
:1044900094007047004000504FF48032064B5A663B
:1044A00003F5E6239B69C3F38512827003F03F0294
:1044B0001B0B4270037070470090005040F6B732FB
:1044C000064B5B689BB293429FBF4FF47A72B3FB7B
:1044D000F2F3034AD05C88BF002070470080E00FF1
:1044E000441F040870B5054616461C4621B94FF412
:1044F0002070FEF70DFF0146402C1BD003D8DCB125
:10450000202C1BD070BD602CFCD1042303FB06F2D1
:10451000560806EB4113B3FBF2F3094A203B02EACB
:10452000C303AA6822F06002AA60AA681443AC60C0
:10453000EB61E7E70623E9E71023E7E70823E5E770
:10454000F8FF7F002DE9B841154F15460F40FAB925
:10455000202B20D0402B20D0002B14BF402410242F
:10456000012307F580775F4300233A46194626F07A
:10457000B5F9554300FB04F804FB0351A2FB040406
:1045800000233A46214426F0A9F94044BDE8B88109
:1045900080240025E4E71C46E2E780240323E0E7CB
:1045A000F8FF7F00012100F5805310B5596040F6F7
:1045B000AA6341F2050243610023094C8360C3658D
:1045C000C26000F500520361C361C3649464054C8A
:1045D0008365A04204BF03654365516010BD00BF01
:1045E000FFFF010000C0055070B50D46FFF7DAFF70
:1045F000012300F580567360AB7C04461BB18368D1
:1046000043F080438360EB7C5BB1244B9C4202BF50
:104610002A7DA3F51033C3F8C821E36D43F080036E
:10462000E3652A8A6B7B20461343EA891343E360E0
:104630002B7BD5E90112FFF755FF6B7D1BB1A368FA
:1046400043F48033A360AB7D1BB1A36843F4004304
:10465000A360EB7D2A7E1B07120502F4E00203F043
:10466000E0431343A3656B7E9A1E012A4FF00202BA
:1046700009D80B49032BC1F8202709D10423F3657E
:104680002B78636170BD0749012BC1F82027F4E73F
:10469000042204F50053DA65F2E700BF00C00550BC
:1046A00000D0035000E00350054B9A689107FCD4FA
:1046B0005A689207F9D4DA69002AF6D1704700BF28
:1046C00000800A5008B5FFF7EFFF0122024B03F507
:1046D00080514A601A6108BD00800A50074B5A6831
:1046E000012A0AD15A68D20702D5DA69002AF9D11B
:1046F00002221A610122024B5A60704700800A5060
:1047000000A00A5010B5064CFFF7CEFF6368012BDE
:1047100003D1FFF7E3FFFFF7C7FF0378E36010BDA6
:1047200000800A50E8B94A680B7812B1127843EA5F
:10473000C2034A78002A14BF0222002213438A6867
:1047400012B1127843EA82138A78002A14BF042235
:1047500000221343CA6812B1127843EA4223014A85
:104760009364704700800A5008B9014B5964704740
:1047700000900A5008B9014B5964704700A00A50D4
:1047800008B9014B1964704700A00A5010B9024BD8
:10479000186C70470020704700800A5048B911B16A
:1047A000012903D07047044BD86C7047024B186D39
:1047B00070470020704700BF00800A5040B911B117
:1047C000012903D07047034BDA647047014B1A6527
:1047D000704700BF00800A5038B50446054D3CF0D4
:1047E0007CFA0FCC0FC594E8030085E80300002095
:1047F00038BD00BF605B002047F6FF739A42F0B5FA
:1048000067D0012967D8354DCF0015F8313005EB59
:10481000C100012B847813D10025C3781B1B9D4256
:1048200002D3E018C0B2F0BD591B4668A3EB51019A
:1048300036F911609642D4BF0D4601F1FF33EEE721
:1048400040680028EFD0B0F90030934204DBB0F9A3
:1048500002309342B8BF134682883D44FF2A19BFF5
:10486000C8214FF0280CB0F90610B0F908C0A1EB30
:1048700003020CBF0126002692FBFCF26D78324445
:1048800012B2954201DD002A01DA6A1E12B24FF41B
:104890007A7700EBC206F188B668013213FB01613A
:1048A00012B221EAE17101F5FA719542B1FBF7F11B
:1048B00004DD00EBC206B6888E42EAD200EBC202EB
:1048C00032F8040C884228BF0846A04238BF204670
:1048D000A8E7FF20A7E70020A5E700BF605B002056
:1048E0000129F0B553D82B4800EBC10410F8311062
:1048F000636801290FD1E078A478904294BFC4EB9B
:104900000001C4EB0201001BCAB28242C8BF0022F0
:1049100033F91200F0BD002B39D0A178914202D3B7
:10492000B3F90200F6E7E178B3F900009142F1D95A
:1049300099886478A1F1FF06013C714203F10405F6
:10494000E4B2714103F10C071FFA82FCCEB2B4420B
:1049500016D805EBC1014FF47A756A43B1F90240EC
:104960004968521A04EBD47102EB610292FBF4F233
:104970009042CFDBB3F902009042CBDC10B2C9E722
:1049800037F831E04E1CE645E3D33146DEE7024816
:10499000C0E700BF605B00200080FFFF0148FFF719
:1049A0001BBF00BF5C4804087FB51422002101A88A
:1049B0003CF020FF044B01A94FF0FF3002933CF084
:1049C00053FA07B05DF804FB006A180008B5B0B1EF
:1049D0004FF480620B4B9A6629F066FC4FF09843C7
:1049E0005A6CD202FCD54FF48062586D064B10F41D
:1049F00070209A6604D0BDE8084029F0A0BC2120B0
:104A000008BD00BF0090005000A000502DE9F0410B
:104A10008CB08846DDE912761D460446002847D052
:104A2000002945D0002F43D0002E41D013F00F03B2
:104A30003ED120482049A360002A18BF0146E36107
:104A4000C4E90013404609A929F0E9FD68BB2046E6
:104A5000099929F020FC2946204629F01CFC6946CA
:104A6000404600F0FDFD00BB6946204629F0FFFBF3
:104A7000404603A929F0A1FEB8B9204603A929F0B0
:104A8000F6FB06970127204645F0005506A9079733
:104A9000089529F0ECFB204609A909960A970B9581
:104AA00029F0EFFB2046FFF791FF0CB0BDE8F08145
:104AB0002120FAE700010104000100042DE9F0477C
:104AC00092B08846DDE91A571C460646DDF870901C
:104AD000002864D0002962D0002F60D0B9F1000F07
:104AE0005DD0002D5BD013F00F0358D12D482E4917
:104AF000B360002A18BF0146F361C6E900134046BF
:104B00000FA929F08CFD002846D130460F9929F0D5
:104B1000C2FB2146304629F0BEFB6946404600F004
:104B20009FFD002838D16946304629F0A0FB404659
:104B300003A929F042FE78BB4FF001083046DFF8A8
:104B40006CA003A929F093FB44F00054304606A959
:104B50000695CDF81C80CDF820A00997CDF82880C7
:104B60000B9429F084FB304609A929F080FB3046DC
:104B70000CA9CDF83090CDF834800E940F95CDF877
:104B80004080CDF844A029F07CFB30460FA929F0E5
:104B900078FB3046FFF71AFF12B0BDE8F0872120FE
:104BA000FAE700BF03020104030200041000002022
:104BB0002DE9F04F97B0894690461F460546DDF82F
:104BC00080A0002800F0BD80002900F0BA803AB132
:104BD000229B002B00F0B580239B002B00F0B180BE
:104BE000BAF1000F00F0AD80219B002B00F0A980EE
:104BF00077B13C680026229B43440293464509D383
:104C0000002F00F0A08000203C6017B0BDE8F08FBE
:104C10003C46EFE75CB1229B219A9B5D125D01341B
:104C20005340239A04F00F0493550136E6E7A8EBAE
:104C3000060BBBF10F0F58D9444B4846C5E9003469
:104C4000AC60EC6113A929F0EAFC0028DDD128460C
:104C500013992BF00F0B29F01EFB5946284629F01B
:104C60001AFB484604A900F0FBFC0028CDD12846D9
:104C700004A929F0FCFA484607A929F09EFD00285E
:104C8000C3D1284607A929F0F2FA01232299304A14
:104C9000CDF828A00B930C928A190D9228464BF060
:104CA00000520AA90E9303920F9229F0E0FA2846C7
:104CB0000DA929F0DCFA239B039A9919012310917D
:104CC00011931292224A284610A9CDF84CA01493B1
:104CD000159229F0D6FA284613A929F0D2FA2846C7
:104CE000FFF774FE5E4400288FD1229B03EB060B76
:104CF000239B1E44029B5B4501D146467EE7ACB92F
:104D0000219B2246CDE900A3494610232846FFF700
:104D10007DFE00287FF479AF0AF1100212F8013D00
:104D20000133DBB213700BB99245F7D1219A1BF80E
:104D3000013B125D0134534006F8013B04F00F04BF
:104D4000D8E7212061E738465FE700BF030300048E
:104D5000100000202DE9F0438DB0884615461C4612
:104D60000746DDF85090002850D000294ED0002A88
:104D70004CD0B9F1000F49D00B68103B102B45D82F
:104D8000012606FA03F303F0013323F08073002BAE
:104D90003CD000231E4A8360C0E90023C36109A9F7
:104DA000404629F03CFC70BB3846099929F073FA5B
:104DB0002146384629F06FFA6946404600F050FC1B
:104DC00008BB6946384629F052FA404603A929F043
:104DD000F4FCC0B9384603A929F049FA44F000545C
:104DE000384606A906950796089429F040FA094B1B
:104DF000384609A9CDF824900A960B9329F041FA78
:104E00003846FFF7E3FD0DB0BDE8F0832120FAE757
:104E10000000040410000020F0B50C4617461E46A2
:104E2000054695B0002874D0002972D0002A70D0B1
:104E3000002B6ED0036B0F2B5BD80023364A38460D
:104E4000C4E90023A360E36111A929F0E8FB00286D
:104E50005BD12046119929F01EFA296B20460F29B3
:104E600084BF01F00F01103129F015FA384602A96C
:104E700000F0F6FB002848D1204602A929F0F7F9F6
:104E8000384605A929F099FC00283ED1204605A9FD
:104E900029F0EDF90122214B089509920A932B6B19
:104EA00005F1100003F00F0141F000510B900F2BA2
:104EB0000C920D910E900F9243F00052109226D951
:104EC0000A9B08A923F0005320460A9329F0CFF942
:104ED0000BA9204629F0CBF90123119612930F4B11
:104EE000204611A9139329F0CCF92046FFF76EFD57
:104EF0000BE000F1200301900093012210233946BA
:104F00002046FFF783FD002897D015B0F0BD0EA90D
:104F1000DFE72120F9E700BF0000040410000020B3
:104F20002DE9F04F9BB00D46914698460646DDF8B8
:104F300090A0002800F0B380002900F0B080002A83
:104F400000F0AD80002B00F0AA80026B02EB0A0398
:104F50001B09B3EB121F02F00F0700F0988000232B
:104F6000504A8B60C1E90023CB61484617A929F05C
:104F700056FB0446002840F0868007EB0A0323F026
:104F80000F0B28461799009329F085F959462846B2
:104F900029F081F9484602A900F062FB0446002886
:104FA00071D1284602A929F062F9484605A929F0DD
:104FB00004FC0446002866D14FF00109284605A9E3
:104FC00029F055F9384A284608A90896CDF82490C2
:104FD0000A9229F04CF947F00051ABEB070706F1B4
:104FE000100347F000570B93CDF830900D91CDF89A
:104FF0003880CDF83C9010970D99284621F000514B
:105000000D910BA9019329F032F928460EA929F038
:105010002EF9ABF11001244A41F000511194CDF862
:105020004890139106F120011491CDF854901692F6
:105030001399284641F080411391139921F00051B2
:10504000139111A929F01DF9284614A929F019F97D
:10505000154A17A928461796CDF86090199229F09D
:1050600010F92846FFF7B2FC009B0446ABEB0301A6
:10507000A3EB0B02019B5144184641443CF093FBC7
:10508000336B5344336320461BB0BDE8F08F1030C0
:105090005246414638443CF086FB0024F0E7212488
:1050A000F1E700BF03020004100000202DE9F043E7
:1050B0008DB08846DDE914591E460746002850D0B9
:1050C00000294ED0002B4CD0B9F1000F49D0531E0F
:1050D000DBB2042B45D82449CC5C169B9C4240D8BB
:1050E000224B09A903EB022200230260C0E901332D
:1050F000C361404629F093FA80BB3846099929F0EC
:10510000CAF82946384629F0C6F86946404600F0F4
:10511000A7FA18BB6946384629F0A9F8404603A902
:1051200029F04BFBD0B9384603A929F0A0F8069620
:105130000126384606A945F00055079644F000546C
:10514000089529F094F8384609A9CDF824900A96D4
:105150000B9429F096F83846FFF738FC0DB0BDE8FF
:10516000F0832120FAE700BF471F04080001020373
:105170002DE9FF4700230E461746044600930028FA
:105180005BD00AB1002958D037F0030807F0030AB2
:1051900025D04FF000094FF0E063C4E90039012346
:1051A00001962046029301A948F00053C4F80890E4
:1051B000C4F81C90039329F064F84146204629F076
:1051C0006AF82046FFF702FC054640B142464946D0
:1051D00030463CF00FFB284604B0BDE8F0874FF0A6
:1051E0000009BAF1000F2AD04FF0E063C4E900399A
:1051F0000123CDF804D00293124B204601A9C4F834
:105200000890C4F81C90039329F03BF80421204631
:1052100029F041F82046FFF7D9FB054608B13A4688
:10522000D5E7034600994644DA00013321FA02F239
:105230009A4506F8012BF7D1CDE72125CBE7554656
:10524000C9E700BF04000020F0B5044608462178F5
:10525000174601398DB0042945D8DFE801F0033045
:10526000353A3F004025142620490C3400225D4386
:10527000C0E90122C26101602946019029F00BF8C2
:105280000123019846F0005606A945F00055039702
:105290000493059506940793089609940A930B9630
:1052A00028F0E5FF019803A928F0E1FF019809A97A
:1052B00028F0E7FF0198FFF789FB0DB0F0BD40250E
:1052C00020260B490C34D1E74025202609490C340F
:1052D000CCE78025402608491434C7E780254026BE
:1052E00006491434C2E72120E7E700BF00020103AA
:1052F000000301030004010300050103000601038C
:1053000010B591B188B10023C0E90133084B00F119
:105310000C0203F1200153F8044B8B4242F8044B7A
:10532000F9D102230370002010BD2120FCE700BF4B
:105330004C1F040810B591B188B10023C0E90133B6
:10534000084B00F10C0203F1200153F8044B8B428F
:1053500042F8044BF9D103230370002010BD212033
:10536000FCE700BF6D1F04082DE9F047044617460F
:1053700008468CB0002C7FD000297DD0002A7BD03D
:105380002278013A042A77D8DFE802F0030C5A6247
:105390006D0014263A4A04F10C0A04F104092C3475
:1053A000B04608E020264FF01C08364A04F10C0AEB
:1053B00004F104092C34402198455DD809F1040317
:1053C00009EBD10553F804CBBCF1000F56D1AB4229
:1053D000F8D1D9F80030013901EA0305C0E9002C01
:1053E000C0F808C0C0F81CC02946019028F053FF3F
:1053F000D9F80010019828F04EFF012248F0005320
:10540000019803A946F0005645F00055CDF80CA0D0
:105410000492059606940792089509970A920B93B1
:1054200028F025FF019806A928F021FF019809A975
:1054300028F027FF0198FFF7C9FA0CB0BDE8F08704
:1054400004F10C0A04F1040920260F4A2C34A7E7C2
:1054500040264FF030080D4A04F1140A04F1040903
:1054600054348021A8E7402604F1140A04F1040909
:10547000B046074A5434F4E72120DEE70F20DCE78A
:1054800000020303000303030004030300050303F6
:10549000000603032DE9F04186B090461D46044600
:1054A0000C9F002833D097B302B983BB4B1EDBB2ED
:1054B000042B2CD8174AD65C0D9B9E4227D800237C
:1054C000080200F1407000F580702946C4E90133FC
:1054D0002060E361204628F0DEFE01236946204675
:1054E00045F0005546F00056CDF800800193029536
:1054F00003970493059628F0BAFE204603A928F0E6
:10550000C0FE2046FFF762FA06B0BDE8F081212018
:10551000FAE700BF8E1F0408F0B50F4616461D4679
:10552000044693B010B9212013B0F0BD0029FAD081
:10553000002AF8D0002BF6D0002331461A46384610
:1055400029F022F80028EFD1304602A928F0B2FF56
:105550000028E9D1EB68022B0AD039683F48029A4B
:1055600081426B6902D01830814270D19A42DAD8F8
:105570002B68002BD7D14FF060623846C4E9002376
:10558000A360E36101A929F04AF80028CCD1019970
:10559000204621F4F061019128F07DFE69462846FD
:1055A00029F03DF80028BFD12046009928F073FE6D
:1055B000384609A900F054F80028B5D1204609A9B9
:1055C00028F055FE38460CA929F0F7F80028ABD191
:1055D00020460CA928F04BFEEB684BB1284606A9E3
:1055E00000F03EF800289FD1204606A928F03FFE93
:1055F000304603A929F0E1F8002895D1B368DA0410
:105600000CD59B0427D50621F36932691B6801FB81
:1056100003225B0043F0005303920593204603A945
:1056200028F025FE28460FA929F0C7F800287FF4A6
:105630007BAF20460FA928F024FE03252046FFF764
:10564000C5F901287FF470AF013DF7D16CE7B3EBEA
:10565000420F8DD267E7292066E700BF200000B027
:10566000A0B199B101234B60C368013B012B0AD85B
:105670008069074B18B1086000208B607047054AAD
:105680000A608B6070474FF00053F5E721207047A8
:1056900008000020941F040870B50E461546044605
:1056A0008AB000285BD0002959D0002A57D00123A6
:1056B00029461A46304628F067FF00284DD1B368C6
:1056C00013F4C04F4BD0AB6803F4C043B3F5005F95
:1056D00045D1254BA060C4E90030E06107A9304600
:1056E00028F09DFF002838D12046079928F0D3FDE7
:1056F000304601A9FFF7B4FF78BB204628F0B7FD7C
:10570000304604A929F059F838BB204604A928F0EE
:10571000AEFDEB681BBBAB6803F4C043B3F5005FA1
:105720001DD16946284628F0F6FEB0B9009B6A698B
:105730009A4216D32A6943F0005307920122204669
:1057400007A908920325099328F09BFD2046FFF73F
:105750003DF9012801D1013DF8D10AB070BD2120E9
:10576000FBE71D20F9E700BF000001022DE9F0432F
:1057700091B00C46DDE918650746DDF86880002821
:105780006DD000296BD0002E69D0B8F1000F66D023
:10579000096801F07041B1F1404F5BD0002B5BD143
:1057A000531E042B5BD8120202F1C06202F5807214
:1057B00000232046C7E901333A60FB610DA928F0B8
:1057C0002EFF002843D138460D9928F064FD294664
:1057D000384628F060FD204601A9FFF741FF002868
:1057E00035D1384601A928F042FD204604A928F009
:1057F000E4FF60BB4FF00109384604A928F037FDEB
:1058000045F00055384607A90796CDF82090099530
:1058100028F02DFD23680A9603F07043B3F1404F42
:10582000CDF82C900C9503D138460AA928F01FFD1D
:105830000123CDF834800E931B9B384643F0005370
:105840000DA90F9328F01DFD3846FFF7BFF811B0E2
:10585000BDE8F083034AABE74FF0C062A8E7212020
:10586000F5E700BF0000020610F1860F06D038B140
:105870009330044808BF6FF06F0070476FF07100FD
:10588000704700BF009FFFFF70B58CB004460D4607
:1058900016460021242203A83BF0ACFF4FF410531E
:1058A000ADF80C3054B3236843B33DB31B78032BDE
:1058B0001CD0042B1CD0022B23D18023206C4FF44E
:1058C000AE71ADF80E30B0B901202AF01EFBD8B190
:1058D00020640E4B2A460093206CF30803A901F0C4
:1058E00059FA0CB0BDE87040FFF7BEBFC023E5E732
:1058F0004FF48073E2E705F073FBEAE704480CB06D
:1059000070BD6FF07100FAE70248F8E70002C003CB
:10591000009FFFFF809EFFFF10B550B1046844B1A7
:1059200039B1006C28B101F025FBBDE81040FFF74C
:105930009BBF014810BD00BF009FFFFF07B578B1B6
:1059400002686AB1006C58B151B100231022019372
:1059500001AB01F03DFB03B05DF804EBFFF784BF42
:10596000014803B05DF804FB009FFFFF08B5064A3D
:10597000064B002914BF1146194601F077F9BDE81E
:10598000084029F058B800BF0800000209000002D2
:1059900030B5154B87B00293144B0390049346F631
:1059A00011030D46059300F023F81428044616D180
:1059B000684629F0B6F84FF0A843032202A95A63BB
:1059C00019601D619A63DA6B9207FCD1142C02D125
:1059D000684629F0B4F800F03FF8044601E00028DA
:1059E000E9D0204607B030BD785B002004000020DD
:1059F00038B5164B5A6E42F004025A66D3F880222C
:105A000042F00102C3F88022114B5B68C3F3080324
:105A100043B14FF0A842D36B13F0430FFBD11424D2
:105A2000204638BD4FF0A843DC6B14F04304FBD193
:105A3000084D2B681BB90421284605F0D9FF2B68B7
:105A4000013343F000432B60EAE700BF00800050C1
:105A500000ED00E0785B0020014B00205B687047A0
:105A600000ED00E0012300F01F02A0F50620094927
:105A7000A0F550604009934051F820201A4341F8A6
:105A80002020054951F8202022EA030341F8203064
:105A9000704700BF7C5B0020905B00200121A0F5D7
:105AA00006230F4AA3F550635B0900F01F0001FABB
:105AB00000F052F8231008430A4942F82300D1E9C4
:105AC0000030034488680344C868096903445B18CC
:105AD00002BFC2E90033C2E902331361704700BF5D
