:020000040800F2
:1000000000120020F109000841460208414602089A
:10001000AD5C02084146020841460208414602081A
:10002000414602084146020841460208414602088C
:10003000414602084146020841460208414602087C
:10004000414602084146020841460208414602086C
:10005000414602084146020841460208414602085C
:10006000414602084146020841460208414602084C
:10007000414602084146020841460208414602083C
:10008000414602084146020841460208414602082C
:10009000414602088D100008414602084146020808
:1000A00041460208B11100088D11000841460208BE
:1000B000414602082D2602081D3002087D7E0308F5
:1000C000797E030805280208897E0308817E0308DB
:1000D000F52F0208857E03085D300208C130020852
:1000E00041460208414602084146020841460208CC
:1000F000A95C02084146020841460208414602083E
:1001000041460208414602084146020841460208AB
:10011000414602084146020841460208414602089B
:10012000414602084146020841460208414602088B
:10013000414602084146020841460208414602087B
:10014000414602084146020841460208735D020822
:10015000E90C020841460208DB7B0308E17B030847
:10016000414602084146020841460208414602084B
:10017000013800D0FCE77047734B73B5198811F054
:10018000010140F0DA8041F60B22704D704BA960FE
:10019000C5E900316F4B19609A806F4B1B6ADB0712
:1001A00006D440F2B9316D4B6D4A6E4823F0D2F956
:1001B00028461BF0D7FB044620B940F2BD316A4BFC
:1001C000674AF2E71CF048FB20B140F2C131674BAF
:1001D000634AEAE74FF00111204637F006FA20B1F2
:1001E00040F2C531614B5E4ADFE70221204637F01D
:1001F000E7F820B14FF472715C4B594AD5E72046BD
:100200005B491CF03FF920B140F2CB31574B544AC7
:10021000CBE70121204637F0E0FA20B14FF47471AA
:10022000524B4F4AC1E70121204637F0E6FA064615
:1002300020B140F2D3314D4B494AB6E701463C224A
:100240004C4837F0CBFE80233246204605F11001A2
:1002500037F0D4F9802804D040F2DA31464B404AD6
:10026000A3E7464D01201BF0D1FB35A3D3E90023C2
:100270002C602046CDE900234FF0FF324FF0FF33D2
:1002800037F0D0F820B140F21731384B3C4A8CE7B8
:10029000304807F075FB0121084607F0DFFB01211C
:1002A000286837F035F8044620B140F26E412F4BF4
:1002B000344A7AE7344B354A98801A60344B354AD1
:1002C00098801A60344B354A98801A60344A6FF02F
:1002D00063005A610BF01EFA0B2007F00BFB314B49
:1002E000186020B940F28C412F4B264A5DE703F09D
:1002F00097FC2146286837F0D2F820B140F2194126
:100300001A4B2A4A51E708222868114637F08CF820
:10031000044620B14FF49261254B1A4A45E708F094
:100320002FFC244B24481C70244B1C70244B1C7045
:1003300002B0BDE870402AF020BB02B070BD00BF23
:100340000B6020FF22020000D259002094510020AF
:10035000217D00088C5100200080E00F868D03086D
:100360002C8F0308E18803089F8D03084588030844
:100370003C90030830520020AE8D030888510020C5
:100380001F8F0308A88F0308281C0020CC5B0020C7
:10039000001C00204C5B0020501C00204E5C002004
:1003A000781C00202C520020E68D0308E58E0308FF
:1003B000018E0308415B0020858E03084D5C002000
:1003C0004C5C002010B5054C237833B9044B13B1B5
:1003D000044800E000BF0123237010BD0845002041
:1003E000000000006CF5030808B5034B1BB103497E
:1003F000034800E000BF08BD000000000C450020DD
:100400006CF50308A3F5803A704700BF174B002B2B
:1004100008BF134B9D46FFF7F5FF00218B460F46A3
:100420001348144A121A37F0D9FD0E4B002B00D096
:1004300098470D4B002B00D0984700200021040066
:100440000D000D48002802D00C4800E000BF23F04A
:10045000CDF82000290024F0B3F823F0A1F800BF64
:100460000000080000000000000000000012002052
:10047000A81B0020F863002000000000000000001E
:100480002DE9F04F04460E4600254B4FDFF84C8116
:1004900097B040233A463046A9B22AF0BFF8002868
:1004A00040F0848034231FFA85FA03FB0AFA22689D
:1004B0003946304652442AF0B3F8002869D1206802
:1004C00000EB0A0950F80A00B9F80830B9F806201C
:1004D000B9F804100090394829F0C5FDD9F80C107E
:1004E000404629F0C0FD364829F0BDFD28220CA960
:1004F00009F112002AF015F932480CA929F0B3FDD0
:10050000D9F82410304829F0AEFD304829F0ABFD71
:1005100099F82E30002B3ED1B9F82C20D9F82810AC
:1005200007A82AF051F82A4829F09DFD0123DFF899
:10053000B0A0DFF8B0B0DFF8B09004A907A803932B
:100540002AF044F810BB039B13B9504629F08BFDE9
:10055000049961B91E4829F086FD05989DF8181088
:1005600029F074FD1B4829F07EFD0023E5E758467D
:1005700029F079FD059B002BF7D0484629F073FD43
:100580009DF81810059829F061FDEEE7114829F053
:100590006AFD01357DE70E4829F065FDD9F8280090
:1005A00099F82C1029F052FD0B48F0E70123257132
:1005B000637117B0BDE8F08FD25A0020D0840308D1
:1005C0000385030810850308F084030815850308D4
:1005D0001A8503082485030821850308FA84030883
:1005E0001C8503083F9703081F8503081FB50023D8
:1005F00004464371039100F011F8064B064A00933C
:10060000039923462AF003F800280CBF2420032076
:1006100004B010BD24450020A1450208014B186814
:10062000704700BF4845002008B52AF00CF8054B7C
:10063000186028B95521044B044A054822F08AFF66
:1006400008BD00BF48450020268503083085030803
:100650004D850308014B18680AF0FCBF484500208F
:1006600010B5134C00F078F800F09AF823F09DFFD5
:100670000121206829F0F2FF28B184210D4B0E4A98
:100680000E4822F067FF012120682AF0B8FB18B15C
:1006900085210B4B084AF3E723F088FF094B986C40
:1006A000D96C02460B460849C1E9002310BD00BFC2
:1006B000484500205D8503088F8503084D850308A4
:1006C0009F8503080080E00FA81B002010B50B4C8D
:1006D00020682AF05CFA2068094C08F085FA23F0BB
:1006E0006EFF23685A1C2260064A934205D10649D0
:1006F0000648FFF77BFF0023236010BD484500201C
:100700004C450020A0860100D48503084045002008
:10071000F8B500230F4C4FF4D070A38037F00DFCD8
:10072000FF2720604FF40076044600F5D0750121C4
:10073000FF2022F02DFF2782E06001214FF400709E
:1007400022F026FF343444F80C0C24F8086CAC4238
:10075000EDD1F8BD4045002010B50F4829F083FCCD
:10076000FFF75CFF4FF4FA612AF03DF8044638B910
:10077000FFF754FF4FF000012AF04AFA044648B14F
:10078000204629F05EFF2146BDE81040024603489E
:1007900029F069BC10BD00BFF38503080886030873
:1007A00070B5A4B07822002106A837F017FC224BC0
:1007B000224A1C936B461068516802AC03C36B4617
:1007C000224603CB1E4BCDF85900CDF85D1003F146
:1007D0001006254618685968083303C5B3422C46ED
:1007E000F7D10FCA0EAC84E80F00BDF88C30154865
:1007F00043F4CA7343F00103ADF88C3037F0DFFCEB
:100800001049024612A837F0C2FB9DF88C3043F025
:1008100008038DF88C30FFF701FF06A929F090FE40
:10082000044630B129F00DFF21460246064829F062
:100830001AFC24B070BD00BFADDE0F005686030861
:100840005F8603083E1400202D8603081FB50C2187
:100850004FF4F06002F044F901213D2001F0AAFDBF
:1008600001213C2001F0A6FD074A01AB07CA83E83D
:10087000070040F201121846ADF80C2001F000FB11
:1008800005B05DF804FB00BF7086030810B5274C67
:1008900001F0C8FF02F002F9236F23F0070343F0D1
:1008A0000303236724F04FF8214B00209B6ADB01F0
:1008B0005EBF4FF480321F4B9A62D4F8203123F090
:1008C000070343F00203C4F82031D4F8283123F0A1
:1008D000070343F00203C4F82831D4F8403123F071
:1008E000030343F00103C4F84031D4F8603123F02E
:1008F000030343F00103C4F86031D4F8403223F01D
:10090000030343F00103C4F84032D4F8003223F06B
:10091000070343F00103C4F80032D4F8083223F08F
:10092000070343F00103C4F8083210BD00800050F3
:100930000040005A0060005A07B501A802F0EEFE20
:100940009DF80530012B14D19DF804308BB94FF47C
:100950008012114B1149586E03F580535A664B6B48
:1009600023F0E05343F040634B63C3025CBF0C4B86
:100970005A6605F051FD05F0E7FC25F093F905F006
:100980000BFDFFF783FF05F0F5FC00F023FC03B03F
:100990005DF804EB05F042BF008000500040005AB3
:1009A00000A0005008B53A20012101F003FDBDE888
:1009B0000840014800F028B90012002018B1034B8C
:1009C0001860002070472520704700BFB045002008
:1009D00010B5054C0549206801F070F82068BDE8A5
:1009E0001040FFF7EBBF00BF3812002014120020A8
:1009F00008B500F02DF8124B12498B4212D300209B
:100A0000114B12498B4218D3FFF700FD186850F8BC
:100A10002240586840F82240013298688242F5D35B
:100A20000C33EAE70022F8E71C6844F822000132A0
:100A30005C68A242F8D30833E4E70022F8E700BF7D
:100A400074F5030880F5030880F5030880F50308B2
:100A50004FF480414FF0FF30114B124A10B59A60AD
:100A6000D3F8882042F47002C3F888200E4A9166B9
:100A70000E4901F5005210660D4850660220C3F879
:100A8000D000BFF34F8FBFF36F8F01244FF440337B
:100A90000848C0F88041D36004600B6110BD00BFFE
:100AA00000ED00E0000000080090005000800044CD
:100AB000F7FF370000E100E0014B1868704700BF06
:100AC00040130020084B1B6F03F00703022B04D0D8
:100AD000032B05D0012B05D0FEE7044B18687047A7
:100AE000034BFBE703487047008000504013002091
:100AF00044130020002D310108B5FFF7E3FF054B3B
:100B00001B6FC3F303330133B0FBF3F0024B1860E8
:100B100008BD00BF008000503C1300200048704713
:100B200000B4C404014B1868704700BF4413002090
:100B3000054B1860054B1B6F03F00703032B01D116
:100B4000FFF7DABF704700BF441300200080005059
:100B500000487047002D31014FF0B4439868C0F34E
:100B600004400C2822D8DFE800F0092121212121AE
:100B7000071719211B1D1F000F4870479B6803F0C2
:100B80004073B3F1807F13D0B3F1007F12D00B4AD2
:100B9000002B08BF10467047094870470948704746
:100BA0000948704709487047094870470020704756
:100BB0000848704708487047405DC60000093D007E
:100BC0000024F400C0EA210180BA8C010048E80149
:100BD000005A620280841E0040420F00014B1868D8
:100BE000704700BF4813002005490A6813180548DC
:100BF00083428CBF4FF0FF320B601046704700BF3E
:100C00004C130020000004202DE9FF410368044636
:100C1000B3F1B64F04D0354A934251D12F2000E0B2
:100C20002E20012101F0C6FB01230A2261792079DF
:100C300002F0F0FB01230A22E179A07902F0EAFB3D
:100C4000092701262A4D4FF030082279637908FBE5
:100C5000025206FA03F302F501521360642006F013
:100C60003BFB2379627908FB035306FA02F203F592
:100C7000825364201A6006F02FFB013FE3D1206805
:100C8000B0F1B64F1FD10323C5F8E8346279237958
:100C900043EA0243C5F8EC34E279A37943EA02431C
:100CA000C5F8F03440F20113ADF80030E36869464E
:100CB0000293A3680193237C8DF80C3002F026FC8C
:100CC00004B0BDE8F081094B9842EBD10323C5F88D
:100CD000F8346279237943EA0243C5F8FC34E279B7
:100CE000A37943EA0243C5F80035DBE700800650EC
:100CF00000C003502DE9F04F9A46564B85B01B7843
:100D000006460F461546DDF83C909DF844B0DDF8E8
:100D10005080002B00F08D80072A00F28C800E9B03
:100D2000002B00F08880B9F1000F00F08480129B46
:100D3000B3F5006F7FDC012802D1109B002B7AD025
:100D4000454B03EB05131B7B002B76D0434C102245
:100D50000021684637F042F904EB45141022002FB9
:100D600059D13946204637F039F943F210036380F0
:100D7000BBF1000F03D1E37843F00303E370374A7C
:100D80000E9B02EB451CCCE90193129B6901013BD0
:100D9000C3F30A009DF84C30012E03F003034FEA21
:100DA000836343EA001E53582D48CDF800A000EAA3
:100DB00003004EEA0003535041D113230CF1100EEF
:100DC000CCF80C309CE80F008EE80F006FF00301A8
:100DD000DCF81C20109B61F39F02012FCCF81C2033
:100DE000CCF8143003D1CCF81890CCF8043000279C
:100DF000194A290102EB051342F80180159A284689
:100E00005A60694622469F605E7302F0E1FB3846F5
:100E100005B0BDE8F08F0021204637F0DFF84FF431
:100E200044736380BBF1000FA9D1E37843F0300332
:100E3000A4E70C48ECE70C48EAE70C48E8E7B8F10F
:100E4000000FD4D19CF8023068F304138CF8023000
:100E5000CDE700BF125B0020B445002034460020DF
:100E60000F80FFF3028000F0018000F0078000F0A7
:100E700038B5124B05461B78DBB1E0B123F07FFD9E
:100E80000F4A00231146147B54B92B6001251A0127
:100E900001EB03131D738C5023F077FD204638BD02
:100EA0000133082B02F11002EDD123F06EFD05484D
:100EB000F5E70548F3E70548F1E700BF125B0020BE
:100EC000B4450020048000F0028000F0018000F0B2
:100ED000154B13B51868002301908DF8043023F0EA
:100EE0004EFD124B1C7824B123F04FFD104802B088
:100EF00010BD01221A7023F048FD0E4B01A81C738F
:100F00001C7783F82C4083F83C4083F84C4083F8EE
:100F10005C4083F86C4083F87C4008238DF80730F0
:100F200002F024FB2046E2E77C860308125B0020E7
:100F3000038000F0B44500200A4A08B512785AB17F
:100F400007280BD8084A02EB00131B7B43B1002192
:100F500002F0FEFA002008BD0448FCE70448FAE766
:100F60000448F8E7125B0020B4450020028000F03E
:100F7000018000F0078000F00A4A08B512785AB1E3
:100F800007280BD8084A02EB00131B7B43B1012151
:100F900002F0DEFA002008BD0448FCE70448FAE746
:100FA0000448F8E7125B0020B4450020028000F0FE
:100FB000018000F0078000F00A4A08B5127852B1AB
:100FC00007280AD8084A02EB00131B7B3BB102F04A
:100FD0004DFB002008BD0548FCE70548FAE7054839
:100FE000F8E700BF125B0020B4450020028000F04B
:100FF000018000F0078000F00D4B1B7893B10728AB
:1010000012D889B10B4B03EB00131B7B73B10A4B56
:10101000DA6A012303FA00F010401ABF00200B70B7
:101020000870704705487047054870470548704785
:10103000125B0020B445002000000450028000F044
:10104000018000F0078000F00B4A10B512780C46C2
:1010500062B107280CD859B1084A02EB00131B7B78
:1010600043B102F015FB2060002010BD0448FCE7EE
:101070000448FAE70448F8E7125B0020B445002072
:10108000028000F0018000F0078000F02DE9F843B5
:10109000174B1F6D5B6D1F4000D5FEE70126002535
:1010A000144CDFF85480DFF85490374217D023688F
:1010B000C8F850609BB1A168284601316268A16000
:1010C0009847637B012B0AD148B909EB45131A7B7A
:1010D00060F341021A731A7F60F341021A770135F7
:1010E000082D4FEA460604F11004DED1BDE8F8836E
:1010F00000000450B4450020002004503446002075
:1011000070B5044601250B4E04B970BD94FAA4F0E5
:10111000B0FA80F005FA00F306EB001224EA0304AB
:101120005368002BF0D0117B11B191689847EBE721
:101130009847E9E73447002008B5192001F030FF4F
:1011400028B14FF00072074BC3F880211A601A20B3
:1011500001F026FF28B14FF08062024BC3F88021D6
:101160001A6008BD00E100E038B505460C4623F0E2
:1011700006FC0022044B03EB05135C601A73BDE808
:10118000384023F002BC00BF34470020074BD3F89F
:101190002404D3F8202403F50053104000F0553008
:1011A00020F05020C3F82004FFF7AABF00C003506E
:1011B000074BD3F82404D3F8202403F50053104040
:1011C00000F0AA3020F0A020C3F82004FFF798BF59
:1011D00000C00350024B1968024B186819F0D0BFC9
:1011E000541300205013002037B5920004460D46DA
:1011F000019237F065F9431C0BD060B929462046AF
:10120000019A36F0B4FE0028044808BF002003B05D
:1012100030BD0348FBE70348F9E700BF10E000F0EA
:1012200021E000F024E000F013B5044601A802F02C
:1012300075FA9DF80630012223804FF48073002058
:101240006380054B9B680A3303F01F0302FA03F324
:10125000636002B010BD00BF0080E00F10B504460F
:1012600037F026F9431C15D0B0B90C4B20469B68CB
:101270000A3303F01F020123934023F003032344A6
:10128000984201D1002010BD50F8042B0132F7D054
:101290000348F8E70348F6E70348F4E70080E00F67
:1012A0000EE000F021E000F024E000F008B523F0AB
:1012B0005FFB014B186008BD744F0020014B18689C
:1012C00023F05ABB744F002038B141B1013AB2F556
:1012D000006F044838BF002070470348704701483A
:1012E000704700BF037000F0027000F038B504468C
:1012F0000D4623F044FBA3889BB223B92B6023F057
:1013000044FB064838BD142263889BB202FB0344A9
:1013100008342C6023F039FB0020F3E70B7000F059
:10132000F8B5044616460F4623F029FBA388E28849
:101330009BB29A42054605D80023336023F025FB73
:101340001748F8BD1422238807F1100C9BB202FB4A
:1013500003433A460833174603CF67451860596080
:101360003A4603F10803F6D114223868186023883E
:1013700028469BB202FB0343083333602388E2888C
:101380009BB20133B3FBF2F102FB11339BB223801A
:10139000A38801339BB2A38023F0F7FA0020D0E7A3
:1013A0000A7000F090F83530022B0DD11422302352
:1013B000417F90F8210013FB0123044A9B5823FA34
:1013C00000F000F0010070470020704730C003506B
:1013D000002313B51D4A52F8044B94F821108142A2
:1013E0000ED00133042BF6D102B010BD0028FBD182
:1013F0009DF80730002BF7D0A068FFF79DFDF3E7BD
:1014000094F83530022BEFD12046FFF7CBFF637EF7
:101410002076022BE8D194F8323003F0FF02002B43
:10142000E2D1A0680DF107018DF80720FFF7E4FD78
:10143000237E1BB194F83330002BD7D00023A06853
:1014400084F83330FFF798FDCEE700BF2850002026
:10145000104930B50B78104A2BB9C2E90033C2E904
:10146000023301230B700C4C0023214651F8045B1E
:10147000854208D00133042BF8D1002154F8043BF5
:101480001BB942F82100002003E001310429F5D105
:10149000024830BD135B002028500020027000F08D
:1014A00010B50446FFF714FD002104F10800FFF712
:1014B000DFFC014620B904F10C00FFF7D9FC00B1B4
:1014C000004810BD0E7000F090F8363053B904217A
:1014D00003790A4A03F239135B01D15002220368EF
:1014E0005A617047022B07D10068816C11F002012C
:1014F00018BF062123F089BA704700BF00C003500F
:1015000090F8363063B9012203685A619A69D207AC
:10151000FCD504210379084AB9335B01D1507047E7
:10152000022B07D10068836C9B074CBF0521092162
:1015300023F06BBA704700BF00C0035010B590F89D
:101540003630044663B9042203685A619A699207E7
:10155000FCD523790C4AB9335B011021995010BD99
:10156000022BFCD10068836CDB074CBF05210621F0
:1015700023F04BFA237941F294425B0103F1A0433B
:1015800003F57033E9E700BF00C0035037B50446E8
:10159000836B23F0F4F9A36B0546013BA363A16BB6
:1015A00079B9019123F0E4F904460199012005F08D
:1015B00067F90120064A019905F046FA204623F012
:1015C000DBF9284603B0BDE8304023F0DEB900BFA8
:1015D000A486030813B591F836200B68022A0CBFC5
:1015E0009B6C9B690C469B06084605D5FFF7CEFF12
:1015F0000223E36502B010BD23F00CF9002301467D
:10160000CDE90033034A234604F13C0024F063FB98
:10161000F0E700BFD515000870B5044623F0AFF918
:10162000A36B054673B923F0A3F9012106460846CA
:1016300005F026F90121074A084605F005FA30466B
:1016400023F09AF9A36B28460133A363BDE87040E9
:1016500023F09BB9A48603087FB5012380F83030BE
:1016600090F8363083B9036824330D4A049003920E
:10167000002202924A680192012200920A6841699E
:10168000C06823F019F807E0022B02D103683C334D
:10169000EBE7002380F8303007B05DF804FB00BFB3
:1016A000F51C000801232DE9F04180F8313090F855
:1016B000363004460E4688B063BB05683C3523F0DF
:1016C0005EF904F13C0807460DF11F01404605F0A4
:1016D00017FC40B99DF81F302BB1404605F0E8FBE0
:1016E0002046FFF753FF3846012723F04EF92046E6
:1016F000E765FFF791FF0D4B2A4603930023029302
:1017000073682169CDE90073A0683368049422F0FE
:10171000B9FF07E0022B02D105684435CFE700236B
:1017200080F8313008B0BDE8F08100BF3117000803
:10173000F0B585B0D06A03A91446FFF7D7FD064679
:10174000204623F067F8002501462346CDE90055E1
:10175000164A04F13C0024F0BEFA154B9E421FD0FD
:10176000039B1D619D6023F00AF9039A0646D76822
:1017700027B1D2E9002329462046B847E06A03A9E9
:1017800023F05FF8E06A83889BB263B103A9FFF797
:10179000ADFD20460399FFF785FF304623F0F5F8AD
:1017A000012005B0F0BD84F83130F6E7D51500080A
:1017B0000B7000F02DE9F3410D46044600287FD060
:1017C00023F0DDF8012D064641D1E36A9B889BB2E8
:1017D000002B43D0A068FFF7EFFB0023E06A84F8FA
:1017E000313083889BB273B101A9FFF77FFD019966
:1017F000A0680831FFF728FC374F019B1F61E06AA2
:1018000083889BB283BB204623F03EF88304FAD53D
:10181000023D012D10D8E068FFF7CEFB0023A06A3F
:1018200084F8303083889BB26BBB94F83530032B3F
:1018300002D02046FFF748FEA36B002B02DD2046B6
:10184000FFF7A4FE304623F0A0F8002009E0022DA7
:1018500038D1A36A9B889BB2002BDCD123F095F88A
:101860001E4802B0BDE8F08101A922F0EAFF019B09
:10187000D3F80C80B8F1000FC1D0002239462046C1
:101880009B68C047BBE76946FFF730FD0099E068F9
:101890000831FFF7D9FB104D009B1D61A06A8388BA
:1018A0009BB2002BC1D0694622F0CBFF009BDF68C2
:1018B000002FF3D00022294620469B68B847EDE769
:1018C0000748CEE7032DA3D1E36A9B889BB2002B88
:1018D00080D1A36A7AE700BF097000F0087000F0B9
:1018E000027000F0F8B507460D461646FFF7ECFC0F
:1018F00000286BD1152001F061FB0446FA6A938839
:101900009BB213B197F83230E3B197F83630F3B9A0
:101910003B689C6904F002041CB93846FFF70EFED0
:101920000024012387F8343097F83630CBB92E44A1
:10193000B542386810D183699A06FCD51CB30024DF
:101940002046F8BD002CDAD0FFF7A0FBD6E7022B2B
:10195000E3D13B689C6CDDE715F8011B23F0DBF855
:10196000E6E7022BEAD12E44B542386806D142F2AE
:101970002003826C33EA0202FBD1DFE715F8011B7A
:1019800023F048F8F0E797F8363053B910213B7947
:101990000F4A03F239135B01D15008223B685A61A8
:1019A000CEE7022BCCD13868836CDB074CBF092112
:1019B000214623F02AF842F2944210213B795B0140
:1019C00003F1A04303F570339950B9E70446B7E734
:1019D00000C0035010B5044680B190F832302BB9E6
:1019E000FFF7E0FC10B9A068FFF7A6FA002094F812
:1019F00032300133DBB284F8323010BD0048FCE7EE
:101A0000027000F010B50446A0B190F832309BB1DE
:101A100090F83230012B05D1FFF7C4FC10B9A06853
:101A2000FFF7AAFA002094F83230013BDBB284F8C9
:101A3000323010BD0148FCE70148FAE7027000F0BF
:101A4000057000F037B590F835500446022D1DD1D1
:101A5000012290F82230457E817F9A403020164B3B
:101A600025B900FB013303F5015305E0012D07D132
:101A700000FB013303F582531A60002003B030BD30
:101A8000247E00FB0133002CF4D1ECE7012DF4D1CE
:101A9000037E73B911238DF80730FFF79BFF2A46A9
:101AA00020460DF10701FFF71DFF2046FFF7AAFFB3
:101AB000E3E71323EFE700BF00C003502DE9F04335
:101AC00004466F4F89B001AE0D460FCF0FC697E8A1
:101AD000070086E80700002C00F0D08025B9694E89
:101AE000304609B0BDE8F08360220021204636F080
:101AF00075FA2046FFF7ACFC06460028F0D14FF0FF
:101B000001092B7D84F835302B6884F8360023607A
:101B10002A7BC4F85C9022715B4A9342DFD129236F
:101B200063624FF4802359498046C4E90413D5E920
:101B30000723A26210805080908084F83000E36216
:101B40001880588098806B6884F831000393EB8983
:101B500084F83300ADF814302B8A4946ADF81230C2
:101B6000AB7C3A208DF81030EB7C494F8DF8163065
:101B700005238DF8113000F01DFC4946606A00F025
:101B800019FC286801A98DF8046001F06FFE14218A
:101B90002B7B03F139025201B9502E7AA87A07EB58
:101BA000431346EA0042C3F83827697AEA7A41EAE1
:101BB000024CC3F830C7E676E077217784F820201E
:101BC0006B7D49466377AB7D204684F82130EB7D01
:101BD000A3772B7E84F8223022F0ACFD0646002845
:101BE0007FF47EAF22F0CBFE2B7D8146032B33D1D9
:101BF00002212A7B02F1B9035B01F950042107EBB2
:101C0000421741F22C722B6803F58053D965297E67
:101C1000EB7D43EA0143BB50AA7D6B7D43EA02435F
:101C200041F22872BB504FF0FF32286800F5005394
:101C30009A642B7D032B0CBF0521042122F05CFF4D
:101C40004FF440622B6820465A61FFF729FC064694
:101C5000484622F09AFE43E7022BE4D194F8210093
:101C60000C49FFF781FAFFF767FA4FF4007320463B
:101C7000238384F81A80FFF7E5FED4E7064E2FE7AA
:101C8000AC860308037000F000C005500200040099
:101C900000C00350D1130008027000F0F0B587B007
:101CA00005461646FFF710FB0446F0B90493104BA7
:101CB000CDE901166A46A86A01A903960593FFF7C4
:101CC0002FFB044688B995F8303073B92846FFF7E2
:101CD00017FC28460099FFF7BFFC95F83530032B19
:101CE00003D028462C76FFF7ADFE204607B0F0BDA6
:101CF000017000F073B5906A01A91446FFF7F6FA77
:101D0000384B984231D094F83600019B00283AD1E4
:101D10002268916C11F400712AD0334998601961DE
:101D20004FF4007302F50052936422F028FE0199EB
:101D30000646CD6835B14A688B682046D31A0A68D2
:101D40000969A847A06A01A922F07BFDA06A8588DD
:101D5000ADB2002D37D001A9FFF7C8FA204601998E
:101D6000FFF77AFC304622F010FE012002B070BD71
:101D7000906CC50523D51D489960186102F5005285
:101D80004FF48073D0E7022819D12268D16C11F486
:101D9000007109D0144902F50052196100219960BF
:101DA0004FF40073D364C0E7D06CC00507D50F486B
:101DB0009960186102F500524FF48073F2E7002237
:101DC0001A619A60B1E7012320462376FFF73AFEB5
:101DD00094F8353084F83050032BC3D02046FFF7F9
:101DE00073FBBFE70B7000F00D7000F00C7000F09B
:101DF000F0B587B004461646FFF766FA054658BBAD
:101E00000493194BCDE90116059394F836300396E7
:101E10002BBB23689B6903F0020313B92046FFF72D
:101E20008DFB6A46E06A01A9FFF77AFA054698B980
:101E300094F8313083B922F0A2FDE36A06469B880C
:101E40009BB233B120460099FFF72CFC012384F8A4
:101E50003430304622F099FD284607B0F0BD022B01
:101E6000DCD123689B6CD6E7017000F0034B5A6805
:101E700012B19A6A002AFAD1704700BF004006509A
:101E8000426810B5B2FA82F2144CC2F11F016368C5
:101E90000BB1FFF7EBFF0122114B5A60636813F09F
:101EA0000203FBD1027A002A14BF022400244278E4
:101EB00042EA0112094922438A60427A0124002A37
:101EC00018BF0223827A13434B62064B5C6003788F
:101ED00013B1FFF7CBFFCC6010BD00BF0040065030
:101EE0000060065000500650044BD3F88420D20600
:101EF000FBD4D3F88400C0F3811070470040005039
:101F000038B5104B0546D3F880300C4603F0030378
:101F1000022B0BD0032B0DD0012B0FD1FEF7D2FDDE
:101F20000E2305B1286004B1236038BDFEF714FE0E
:101F30000723F6E7FEF7C0FD0623F2E70023184665
:101F4000EFE700BF0080005038B5174B0546D3F8C7
:101F500020310C4603F00703013B052B20D8DFE8B6
:101F600003F0030B130F171BFEF7A6FD052305B1A6
:101F7000286004B1236038BDFEF7D4FD0323F6E7E3
:101F8000FEF7EAFD0723F2E7FEF7E2FD0223EEE7A4
:101F9000FEF792FD0623EAE7FEF7C4FD0423E6E719
:101FA00000231846E3E700BF0080005038B5174B08
:101FB0000546D3F828310C4603F00703013B052BF7
:101FC00020D8DFE803F003131B0F0B17FEF774FD97
:101FD000052305B1286004B1236038BDFEF76CFD10
:101FE0000623F6E7FEF7B8FD0723F2E7FEF79AFDB2
:101FF0000323EEE7FEF796FD0423EAE7FEF7A8FDCC
:102000000223E6E700231846E3E700BF0080005004
:1020100073B50D460021114B0191D3F8804106465E
:1020200004F00304022C13D0032C0CD0012C13D188
:1020300001A8FFF789FF10240EB1019B336005B1A1
:102040002C6002B070BDFEF787FD07240190F3E716
:10205000FEF77EFD0190EFE70C46EDE700800050B3
:10206000002337B50193154B0546D3F820320C46B3
:1020700003F00703013B032B1ED8DFE803F0020E39
:102080001318002101A8FFF791FF12230DB1019A47
:102090002A6004B1236003B030BDFEF75DFD072365
:1020A0000190F3E722F0CFFA0A230190EEE7FEF762
:1020B00095FD09230190E9E70023E7E70080005040
:1020C00038B5104B0546D3F840310C4603F00303F6
:1020D000022B0BD0032B0DD0012B0FD122F0B3FA22
:1020E0000A2305B1286004B1236038BDFEF776FDF0
:1020F0000923F6E722F0AAFA0C23F2E70023184698
:10210000EFE700BF00800050002337B50193164B66
:102110000546D3F860320C4603F00703013B032B5E
:102120001FD8DFE803F0020E1914002101A8FFF701
:102130000BFF10230DB1019A2A6004B1236003B094
:1021400030BD002101A8FFF7BBFF1123F2E7FEF726
:1021500003FD07230190EDE7FEF7FAFC022301904F
:10216000E8E70023E6E700BF00800050002337B512
:102170000193164B0546D3F894320C4603F007033F
:10218000013B032B1FD8DFE803F0020E19140021D6
:1021900001A8FFF7D9FE10230DB1019A2A6004B1FE
:1021A000236003B030BD002101A8FFF789FF112390
:1021B000F2E7FEF7D1FC07230190EDE7FEF7C8FC3C
:1021C00002230190E8E70023E6E700BF008000500B
:1021D00038B5134B0546D3F800320C4603F007031D
:1021E000013B032B18D8DFE803F0020A0E1222F09D
:1021F0002AFA0A2305B1286004B1236038BDFEF72E
:10220000EDFC0923F6E722F021FA0C23F2E7FEF7B2
:1022100073FC0F23800AEDE700231846EAE700BFAE
:102220000080005038B5134B0546D3F808320C46F1
:1022300003F00703013B032B18D8DFE803F0020A81
:102240000E1222F000FA0A2305B1286004B12360BF
:1022500038BDFEF7C3FC0923F6E722F0F7F90C239B
:10226000F2E7FEF749FC0F23800AEDE7002318464A
:10227000EAE700BF0080005038B5104B0546D3F8A0
:1022800040320C4603F00303022B0BD0032B0DD07E
:10229000012B0FD122F0D7F90A2305B1286004B130
:1022A000236038BDFEF79AFC0923F6E722F0CEF949
:1022B0000C23F2E700231846EFE700BF0080005030
:1022C00038B5104B0546D3F860310C4603F00303D4
:1022D000022B0BD0032B0DD0012B0FD122F0B3F921
:1022E0000A2305B1286004B1236038BDFEF776FCEF
:1022F0000923F6E722F0AAF90C23F2E70023184697
:10230000EFE700BF00800050B0F5207F1FD009D854
:10231000B0F5007F15D003D868B1B0F5C07F0AD002
:1023200000200CE0B0F5607FFAD10B4BD3F88000B1
:10233000C0F3011003E0084B186FC0F30330013005
:102340007047054BD3F89000C0F30460F7E7024BE9
:10235000186FC0F38020F2E70080005002464FF46F
:102360008030104B10B598660020FFF7CDFF50432A
:1023700041F671320C4BDC69DA635A6804F480343C
:1023800022F4401259B9094988428CBF4FF4801099
:102390000020104358600CB10022DA6310BD0449DC
:1023A000F2E700BF0090005000000350005A6202A4
:1023B000002D3101430905D0012B0DD0022B094B13
:1023C00018BF002300F01F0041B103F58053012224
:1023D00002FA00F018607047034BF3E703F500536F
:1023E000F5E700BF68800050648000501FB50021F1
:1023F00080280446CDE9001100F0998029D80028F2
:1024000000F09980A0F120043D2C35D83D2C33D824
:10241000DFE804F091999199A8A8A8A8A899B23CDE
:10242000C8603C99999932323232323232329999BB
:102430009968D299323232323232323232323232D8
:1024400032A8919191CD3C3CD7774DAD32323232AA
:102450003288B0F5B06F00F08F802DD8B0F5207FB6
:1024600071D00CD8B0F5C07F65D0B0F5007F65D0D5
:10247000B0F5807F00F08580009804B010BDB0F505
:10248000607F6AD00DD8B0F5407FF5D1FEF734FB00
:1024900002464FF42070FFF737FFB2FBF0F0400820
:1024A00047E0B0F5806F5DD0B0F5A06FE4D10021BA
:1024B0006846FFF7D5FDDFE7B0F5106F77D016D887
:1024C000B0F5E06F78D00AD8B0F5C06F6AD0B0F53B
:1024D000D06FD1D100216846FFF77AFECCE7B0F586
:1024E000F06FC9D100216846FFF7EAFEC4E7B0F5F6
:1024F000406F3CD013D8B0F5206F62D0B0F5286F94
:10250000BAD10021314B0391D3F8703203F00303A9
:10251000012B02D103A8FFF7D3FD039B3BE0B0F5ED
:10252000486FA9D100216846FFF720FEA4E7FEF717
:10253000C9FA0090A0E7FEF7DFFAFAE7FEF7C2FA61
:102540000246204604E0FEF7D7FA02464FF4207018
:10255000FFF7DAFEB2FBF0F0EBE701A8FFF7D0FCE3
:10256000019AEEE700216846FFF7EEFC84E70021C0
:102570006846FFF71BFD7FE700216846FFF748FD2F
:102580007AE74FF0E02302911B695B0705D5FEF760
:10259000B3FA0290029B00936EE703A902A8FFF72B
:1025A0008FFDF7E700216846FFF78AFD64E7002109
:1025B0006846FFF737FE5FE700216846FFF75CFEDD
:1025C0005AE700216846FFF79FFD55E7008000505D
:1025D00008B58020FFF70AFF034B98429EBF4FF4D7
:1025E0008032024B1A6708BD005A620200A00050F8
:1025F0001FB50023B0F5807F019300F0C38064D83D
:102600005D2855D84C2807D82D2847D823282BD803
:10261000019805B05DF804FB4D381028F8D801A3E7
:1026200053F820F07B270008112600081126000827
:10263000112600082D270008112600081126000881
:10264000012800084B270008F1260008F72700089A
:10265000112600081126000811260008112600087E
:10266000112600080B28000824380928D0D801A317
:1026700053F820F07B2700087B2700087B27000801
:102680007B2700087B270008112600087127000817
:10269000112600080D270008B12700083D2800F08A
:1026A00082803E28B4D1002001A9FFF7E5FDAFE705
:1026B0008028ADD15A4B1B6F03F00703013B032B5E
:1026C000A6D8DFE803F05350878FB0F5F06F6AD0DB
:1026D00021D8B0F5B06F4BD00FD8B0F5607F00F0C7
:1026E000858095D3B0F5806F47D0B0F5A06F8FD1BE
:1026F000002001A9FFF7B4FC8AE7B0F5D06F57D0EE
:10270000B0F5E06FCFD0B0F5C06F81D1002001A946
:10271000FFF7D6FC7CE7B0F5206F71D00BD8B0F591
:10272000086F4AD0B0F5106F7FF472AF002001A996
:10273000FFF778FD6CE7B0F5406F5CD0B0F5486FFF
:1027400063D0B0F5286F7FF463AF0021344B039161
:10275000D3F8703203F00303012B5BD0022B14BFBC
:102760000B46152300E00523019351E70223FBE705
:10277000002001A9FFF74CFC4AE7002001A9FFF760
:10278000E3FB45E702934FF0E0231B695B0705D5A8
:10279000FEF7B2F90D230393039BE5E703A902A813
:1027A000FFF78EFCF8E7002001A9FFF789FD2FE76E
:1027B000002001A9FFF70CFD2AE7194BD3F80031DF
:1027C00003F00303022B07D0032B09D0012B0BD1FD
:1027D000FEF7A8F90323C7E7FEF700FA0923C3E7CA
:1027E00021F02FFF0823BFE70123BDE7184601A909
:1027F000FFF786FB0CE7002001A9FFF7D7FB07E7EF
:10280000002001A9FFF780FC02E7002001A9FFF7E3
:10281000ADFCFDE603A8FFF753FC1123A4E700BFBE
:10282000008000504FF48012034B5A664FF4803200
:10283000024B9A62704700BF009000500050005A4F
:1028400038B504468020FFF7D3FE032800F08380CC
:102850004FF48012504B4FF0A0615A6645F60E03BC
:102860004E4AC2F880304E4B99624FF4803103F5E6
:1028700080539962916D11F48031FBD1D4E900034A
:102880001B0543EA0063E07B0343207B43EA0043EC
:10289000607B43EA0033A07B43EA801313619069B5
:1028A000D4E904531B0643EA856300F00040034368
:1028B000A07EE57E0343207E43EA0043607E43EA38
:1028C00000239361E069136A00280CBF00220822EC
:1028D00023F00F0343EA000343EA850343EA0203BC
:1028E0002E4A304D136237D194F82430916A94F80F
:1028F0002000DB000D4043EA401394F821102B43E5
:1029000043EA011343F480339362274B916D33EA1A
:102910000101FBD14FF08071214881621369A568E4
:1029200023F4700343EA055313614FF000438361BE
:1029300094F822300BB91D4B996294F823301BB9DF
:102940004FF48032194B9A6294F825301BB1134B27
:10295000174AC3F8802038BD022808D111611548F4
:1029600091614FF408524FF47F4121F0C8FF0B49A9
:1029700094F822308A6A94F820001B06154043EA36
:10298000401394F824202B4343EAC20394F82320F5
:1029900043EA02438B62D7E7009000500040005AA0
:1029A0000050005AC7FFFEFE030001000060005AFD
:1029B000F1A7FFFF3440005A014B93F90000704724
:1029C0004D140020B0F5207F10B50C4657D008D824
:1029D000B0F5007F48D003D830B3B0F5C07F23D026
:1029E00010BDB0F5607FFBD129492A48D1F8FC2001
:1029F00012F080721EBFD1F8FC3023F08073C1F852
:102A0000FC30D0F88030611E23F0300444EA011419
:102A1000C0F88040002AE3D01D4AD2F8FC3043F0D1
:102A20008073C2F8FC30DBE721F07AFF21F086FFEB
:102A30004FF48031184B174A1967136F611E23F446
:102A4000704444EA01341467FEF756F80446FFF771
:102A50004BFAC0F10201204621F06AFF00F02EF887
:102A6000BDE81040FFF7B4BD0A4A0139D2F89030F2
:102A700023F0F85444EA0164C2F89040B0E7054BF3
:102A8000013C196F21F4806141EA84241C67A7E7A7
:102A900000ED00E0008000500090005008B50121DA
:102AA000022000F0D3FA21F03BFF21F047FF4FF462
:102AB0008032014B1A6708BD0090005008B54FF4F2
:102AC000C070FFF793FCBDE80840044988428CBF02
:102AD000022101214FF42070FFF774BF80F0FA0249
:102AE000B0F5807FF8B50C4600F04E816BD85D28BC
:102AF0005DD84C2804D82D2844D8232828D8F8BDE0
:102B00004D381028FBD801A353F820F0692D000898
:102B1000FF2A0008FF2A0008FF2A0008632C00088B
:102B2000FF2A0008FF2A00081D2F00089B2C000820
:102B3000F32B0008FD2E0008FF2A0008FF2A0008DA
:102B4000FF2A0008FF2A0008FF2A00083D2F00087E
:102B500024380928D3D801A353F820F0692D0008A0
:102B6000692D0008692D0008692D0008692D0008ED
:102B7000FF2A0008492D0008FF2A0008292C000818
:102B8000372E00083D2800F046813E28B7D1093C89
:102B9000032C8CBF0021B04BB04A98BF195DD2F80E
:102BA000403223F003030B43C2F84032A7E78028EA
:102BB000A5D18B1E062B00F2C480DFE803F0BFAD69
:102BC000C27EC2C2BC00B0F5F06F00F024813BD8D9
:102BD000B0F5B06F00F0B8801BD8B0F5607F00F0A2
:102BE00067818CD3B0F5806F00F0BE80B0F5A06F28
:102BF00085D1073C0B2C8CBF0021994B974A98BF7D
:102C0000195DD2F8203223F007030B43C2F82032BB
:102C100075E7B0F5D06F00F00E81B0F5E06FB6D07B
:102C2000B0F5C06F7FF46BAF093C032C8CBF002163
:102C30008C4B8A4A98BF195DD2F8403123F00303C8
:102C40000B43C2F840315AE7B0F5206F00F06681BF
:102C500017D8B0F5086F00F01B81B0F5106F7FF446
:102C60004EAF093C062C8CBF00217F4B7B4A98BF9E
:102C7000195DD2F8083223F007030B43C2F808327B
:102C80003DE7B0F5406F00F03981B0F5486F00F0D6
:102C90005581B0F5286F7FF432AF112C00F05E81C2
:102CA000152C14BF002102216C4AD2F8703223F097
:102CB00003030B43C2F8703221E7002502264FF4CC
:102CC00080370121022000F0C1F921F029FE21F016
:102CD00035FE664B614A1F67136F23F007033343CA
:102CE0001367FDF709FF0646FFF7FEF8C0F1020182
:102CF000304621F01DFE0121002000F0E7F9FFF72A
:102D0000DDFEFFF765FC002D7FF4F9AE032C7FF4A8
:102D1000F6AE574B9F62F2E64FF48012534B0E46CD
:102D20005A664FF48032534B9D6A03F58053C5F3C6
:102D300000659A62C3E700250426C0E70025012646
:102D4000BDE700252E46BAE7023C0E2C8CBF0021C1
:102D5000494B424A98BF195DD2F8803123F00303F2
:102D60000B43C2F88031CAE6023C052C8CBF00211F
:102D7000424B3A4A98BF195DD2F8203123F007033D
:102D80000B43C2F82031BAE6A1F10904082C3FF642
:102D9000B6AE01A353F824F0BD2D0008BD2D0008E8
:102DA000FF2A0008BD2D0008EB2D0008FF2A0008AF
:102DB000FF2A0008FF2A0008BD2D00084FF48032CA
:102DC000264B2F49586E03F580535A664B6A43F0E1
:102DD00001034B62C1035CBF2A4B5A664FF0E022ED
:102DE000136923F00403136189E64FF480321B4B0F
:102DF0002349586E03F580535A664B6A23F001034A
:102E00004B62C3035CBF1F4B5A664FF0E02213694D
:102E100043F00403E7E7093C032C8CBF00211A4B65
:102E20000E4A98BF195DD2F8603123F003030B43BB
:102E3000C2F8603163E6093C062C8CBF0021134BBD
:102E4000064A98BF195DD2F8003223F007030B43FE
:102E5000C2F8003253E600BF3087030800800050FC
:102E6000FF86030830870308E886030800900050B7
:102E70000060005A0040005A1B8703082A87030895
:102E800000C0075000A0005030870308E886030800
:102E9000CC1E062C8CBF0021314B324A98BF195DE5
:102EA000D2F8003123F003030B43C2F8003126E6C9
:102EB0002D49063CD1F8FC2012F080721EBFD1F8DB
:102EC000FC3023F08073C1F8FC30082C8CBF00204C
:102ED000264B244998BF185DD1F8803023F00303B6
:102EE0000343C1F88030002A3FF409AE1E4AD2F8ED
:102EF000FC3043F08073C2F8FC3000E6023C052C45
:102F00008CBF00211A4B174A98BF195DD2F828319F
:102F100023F007030B43C2F82831F0E5023C0F2CE5
:102F20008CBF0021134B0F4A98BF195DD2F8603255
:102F300023F007030B43C2F86032E0E5023C0F2C9C
:102F40008CBF00210C4B074A98BF195DD2F8943210
:102F500023F007030B43C2F89432D0E50121A3E626
:102F6000EF8603080080005000ED00E0F6860308BD
:102F70002A8703080B8703080B8703080028ABBFC9
:102F800000F16040054B00F5614000F00F00ACBF60
:102F900090F80003185C0009704700BF14ED00E0D2
:102FA000054B420953F8223000F01F0023FA00F0CD
:102FB000C04300F00100704700E100E0014608B5A1
:102FC000EFF31083DB0702D50122104608BDFFF79F
:102FD000E7FF02460028F7D10846FFF7CFFF01467A
:102FE000EFF3118313B1B0EB131FEDD2074B5B6806
:102FF000C3F30803002BE8D0103B58B2FFF7BEFF25
:1030000088428CBF00220122DFE700BF00ED00E014
:10301000024A536B0342FCD1704700BF0040095085
:10302000044A4178536F23F4407343EA0123536702
:10303000704700BF00400050034A0179D36E23F06F
:1030400030030B43D366704700400050F8B5044688
:103050001C4BD3F88420D106FBD4D3F88430C3F3BF
:1030600081139C422CD0FDF72DFD012C064602D188
:10307000214621F05DFC21F07BFC4FF00072124BE9
:1030800007465A66204621F084FC4FF480630D4DBC
:10309000621E93402B676B6E9A0103D4D5F884307F
:1030A0009B060AD5384621F067FC022C08D1304631
:1030B000BDE8F840002121F03BBCD5F88430EAE7B8
:1030C000F8BD00BF004000500060005007B518B9BF
:1030D0000191FDF7F7FC0199064B1B7843B1064BB4
:1030E000984205D8012003B05DF804EBFFF7AEBFAE
:1030F0000220F8E7145B0020005A62020278034BBA
:10310000012100201A70FFF7E1BF00BF145B00200F
:103110004FF00042154B10B55A664AF6CD331449AC
:103120004C6C0B6404F0010488B90120FFF770FFB8
:103130004B68DB0704D50F4B58600B6BD807FCD5E9
:1031400014B10B4B0C4A1A6434F090F910BD0B6BA0
:103150001A07FCD42022074B9A620122A3F5805360
:103160005A60034A936A9B06FCD5E9E70090005039
:1031700000400950006009503254FFFF4FF00042F8
:1031800038B5164B01465A664AF6CD33144C154AEB
:10319000656C236443780B205B0043F00103D36329
:1031A000FFF736FF63688A7823F4F87343EA021363
:1031B0006360CA784B7943EA0223A3600A798B796A
:1031C00043EA022323610878FFF7A2FFEB0744BF1D
:1031D000054B236434F04AF9012038BD00900050BB
:1031E00000400950004000503254FFFF4FF00042B1
:1031F000124B70B55D6E03F580535A664AF6CD33B7
:1032000004460F4980204E6C0B64FFF701FF0B6AE8
:1032100023F00F030F2C94BF234343F00F030B62E3
:10322000F30744BF074B0B64002DA2BF4FF00042D1
:10323000054B5A6634F01AF970BD00BF008000508B
:10324000004009503254FFFF00A000504FF00042F0
:10325000104B70B55D6E03F580535A664AF6CD3358
:1032600004460D4980204E6C0B64FFF7D1FE0B6ABB
:1032700023F4F85343EA04230B62F30744BF074BDC
:103280000B64002DA2BF4FF00042054B5A6634F08C
:10329000EDF870BD00800050004009503254FFFF2F
:1032A00000A000502C4B2DE9F0419842064612D068
:1032B0002A4886420CBF57200020FFF797F8B168D4
:1032C00011F0010109D03169090E0131B0FBF1F1B2
:1032D0000846BDE8F0815620EFE7326BB468204B1A
:1032E00004F0E004402C03EA020310D007D854B3E2
:1032F000202C2CD0B36DDB0748BF4908E8E7602CD1
:1033000027D0802CF6D14FF480750C461CE0802528
:103310000C464FF0030803F5807308FB03F8002305
:10332000424619461FF086FF02FB04F100FB05F739
:1033300005FB0311A2FB05050023424629441FF0AB
:1033400079FF3918D6E710254FF00108E3E7254645
:10335000DBE74025D9E700BF0000015B00000A5011
:10336000F8FF7F00072AF7B501F0030614461F4651
:103370004FF003012CD89500A94000FA05F21C4833
:10338000019121F04CFB01991A4806FA05F221F04F
:1033900046FB194B19499DF82000002F08BF19461C
:1033A000012303FA04F40C60154B1649002808BFEA
:1033B0000B461C60144B9DF82400C3F820441031C8
:1033C000A3F6DC33002808BF0B461C6003B0F0BD39
:1033D000A2F10805AD00A94000FA05F20B480191E1
:1033E00021F01DFB01990A4806FA05F2CFE700BF5C
:1033F00000C4035008C4035010E4035010D4035019
:1034000014D4035014E4035000E0035004C40350E8
:103410000CC403502DE9F04105460F461E46904668
:103420004AB101233022194C8B4002FB00443EB3C9
:1034300004F5825423600F21072F05EB450388BF55
:10344000A7F108044FEA0313114895BFBC00A4007C
:1034500004330C3308FA04F2A140184421F0DFFAD7
:10346000B8F1000F0AD101213020084A01FA07F70C
:1034700000FB05223EB102F582521760BDE8F081E3
:1034800004F50154D6E702F50152F6E700C00350F7
:1034900030C00350F8B505460E4614465AB382684C
:1034A00003F0030722F44072826021F061FAAA68F7
:1034B00082EA072303F440735340AB6021F05CFAC7
:1034C00036B9B5F1B64F17D12E20FEF78FFF06465D
:1034D000AB680C4BD85D60430DD06FEAC404044464
:1034E000A319B3FBF0F3AA68013B920702D5002BA6
:1034F00008BF0123AB61F8BD034B9D42E8D12F20EB
:10350000E3E700BF348703080080065038B5002386
:103510000E4A036400F50053DA634A7804460D4608
:1035200000F108037AB903F5805302221A6020469D
:10353000D5E901122B7BFFF7ADFF20462978BDE8C6
:10354000384021F07DBA03F50053EEE7FFFF1F007E
:10355000044A054B002918BF1346012202FA00F065
:1035600018607047402004504010045010B50121ED
:1035700004462020FEF71EFF01212120FEF71AFF3E
:103580000122114B5A60227812069A606178A27863
:1035900042EA01429A61FF229A6200229A631A6407
:1035A0004FF000425A654FF0FF324FF4001103F51F
:1035B00000531A65054AC2F88011E3781B01DBB29B
:1035C00082F81533116010BD0000045000E100E0E6
:1035D0002DE9F0410125C3B2D1F8008091F80AC06D
:1035E0000F7B91F80DE09D400C46CB7A1C491D4E97
:1035F0000D65810001F1A04101F58821C1F8048029
:10360000302101FB00601B0543EA0C4343EA4753AA
:1036100022F00302C0F860E0C365026721F0AFF951
:10362000736D2B437365237A13B1336C2B4333646F
:10363000637A13B1B36B2B43B3632279A37943EA63
:103640000243074A93616179E37943EA01430649FA
:103650008B61044B55639D64BDE8F04121F095B941
:1036600000200450000004500010045010B5012444
:10367000C0B2844021F083F9044B5A6D22EA04025F
:103680005A659C62BDE8104021F07FB900000450EB
:10369000F8B50125C3B204469D4021F070F93022EF
:1036A000094B1E6D5F6B02FB04335C6E21F06DF9FC
:1036B0003D4206D1C4F30A1008B9354200D10130A9
:1036C000F8BD0020FCE700BF000004504FF480323A
:1036D000054B9A6641F6713203F51C33DA63012219
:1036E00003F50053DA6070470090005041F67132E4
:1036F0000121064BDA6303F50052D1600022DA6340
:103700004FF48032A3F518339A66704700000350D7
:10371000014BD3F894007047004000504FF48032C2
:10372000064B5A6603F5E6239B69C3F38512827044
:1037300003F03F021B0B4270037070470090005073
:1037400040F6B732064B5B689BB293429FBF4FF483
:103750007A72B3FBF2F3034AD05C88BF0020704753
:103760000080E00F3887030870B5054616461C46F2
:1037700021B94FF42070FEF739FE0146402C1BD0D2
:1037800003D8DCB1202C1BD070BD602CFCD10423ED
:1037900003FB06F2560806EB4113B3FBF2F3094AAA
:1037A000203B02EAC303AA6822F06002AA60AA686A
:1037B0001443AC60EB61E7E70623E9E71023E7E792
:1037C0000823E5E7F8FF7F002DE9B841154F1546BE
:1037D0000F40FAB9202B20D0402B20D0002B14BF53
:1037E00040241024012307F580775F4300233A46E5
:1037F00019461FF01FFD554300FB04F804FB03515D
:10380000A2FB040400233A4621441FF013FD404468
:10381000BDE8B88180240025E4E71C46E2E7802467
:103820000323E0E7F8FF7F00012100F5805310B586
:10383000596040F6AA6341F2050243610023094C36
:103840008360C365C26000F500520361C361C36455
:103850009464054C8365A04204BF036543655160D1
:1038600010BD00BFFFFF010000C0055070B50D4640
:10387000FFF7DAFF012300F580567360AB7C044646
:103880001BB1836843F080438360EB7C5BB1244BC6
:103890009C4202BF2A7DA3F51033C3F8C821E36D13
:1038A00043F08003E3652A8A6B7B20461343EA8951
:1038B0001343E3602B7BD5E90112FFF755FF6B7DC6
:1038C0001BB1A36843F48033A360AB7D1BB1A36835
:1038D00043F40043A360EB7D2A7E1B07120502F42C
:1038E000E00203F0E0431343A3656B7E9A1E012AB6
:1038F0004FF0020209D80B49032BC1F8202709D148
:103900000423F3652B78636170BD0749012BC1F86F
:103910002027F4E7042204F50053DA65F2E700BF3C
:1039200000C0055000D0035000E00350054B9A68DA
:103930009107FCD45A689207F9D4DA69002AF6D1C3
:10394000704700BF00800A5008B5FFF7EFFF012263
:10395000024B03F580514A601A6108BD00800A508D
:10396000074B5A68012A0AD15A68D20702D5DA6988
:10397000002AF9D102221A610122024B5A607047D3
:1039800000800A5000A00A5010B5064CFFF7CEFF89
:103990006368012B03D1FFF7E3FFFFF7C7FF03784D
:1039A000E36010BD00800A50E8B94A680B7812B194
:1039B000127843EAC2034A78002A14BF0222002286
:1039C00013438A6812B1127843EA82138A78002A74
:1039D00014BF042200221343CA6812B1127843EACA
:1039E0004223014A9364704700800A5008B9014B92
:1039F0005964704700900A5008B9014B59647047E8
:103A000000A00A5008B9014B1964704700A00A5081
:103A100010B9024B186C70470020704700800A50A4
:103A200048B911B1012903D07047044BD86C7047D5
:103A3000024B186D70470020704700BF00800A508D
:103A400040B911B1012903D07047034BDA647047C4
:103A5000014B1A65704700BF00800A5038B5044614
:103A6000054D33F018FD0FCC0FC594E8030085E831
:103A70000300002038BD00BF3850002047F6FF7318
:103A80009A42F0B567D0012967D8354DCF0015F8B7
:103A9000313005EBC100012B847813D10025C378A8
:103AA0001B1B9D4202D3E018C0B2F0BD591B4668F3
:103AB000A3EB510136F911609642D4BF0D4601F1D6
:103AC000FF33EEE740680028EFD0B0F900309342B2
:103AD00004DBB0F902309342B8BF134682883D44FC
:103AE000FF2A19BFC8214FF0280CB0F90610B0F911
:103AF00008C0A1EB03020CBF0126002692FBFCF2DA
:103B00006D78324412B2954201DD002A01DA6A1E54
:103B100012B24FF47A7700EBC206F188B668013230
:103B200013FB016112B221EAE17101F5FA719542CC
:103B3000B1FBF7F104DD00EBC206B6888E42EAD293
:103B400000EBC20232F8040C884228BF0846A042AB
:103B500038BF2046A8E7FF20A7E70020A5E700BF61
:103B6000385000200129F0B553D82B4800EBC10490
:103B700010F83110636801290FD1E078A4789042E1
:103B800094BFC4EB0001C4EB0201001BCAB2824225
:103B9000C8BF002233F91200F0BD002B39D0A17844
:103BA000914202D3B3F90200F6E7E178B3F90000DD
:103BB0009142F1D999886478A1F1FF06013C7142E4
:103BC00003F10405E4B2714103F10C071FFA82FC12
:103BD000CEB2B44216D805EBC1014FF47A756A43F0
:103BE000B1F902404968521A04EBD47102EB610248
:103BF00092FBF4F29042CFDBB3F902009042CBDCAF
:103C000010B2C9E737F831E04E1CE645E3D3314640
:103C1000DEE70248C0E700BF385000200080FFFF09
:103C20000148FFF71BBF00BF18B003087FB514227F
:103C3000002101A834F0D2F9044B01A94FF0FF3064
:103C4000029333F0EFFC07B05DF804FB006A180044
:103C500008B5B0B14FF480620B4B9A6620F01DFF9F
:103C60004FF098435A6CD202FCD54FF48062586DE5
:103C7000064B10F470209A6604D0BDE8084020F08E
:103C800057BF212008BD00BF0090005000A0005089
:103C90002DE9F0418CB08846DDE912761D460446D8
:103CA000002847D0002945D0002F43D0002E41D016
:103CB00013F00F033ED120482049A360002A18BF0B
:103CC0000146E361C4E90013404609A921F0A0F8C8
:103CD00068BB2046099920F0D7FE2946204620F0EF
:103CE000D3FE6946404600F0FDFD00BB6946204614
:103CF00020F0B6FE404603A921F058F9B8B9204695
:103D000003A920F0ADFE06970127204645F0005597
:103D100006A90797089520F0A3FE204609A9099651
:103D20000A970B9520F0A6FE2046FFF791FF0CB0F6
:103D3000BDE8F0812120FAE7000101040001000440
:103D40002DE9F04792B08846DDE91A571C46064631
:103D5000DDF87090002864D0002962D0002F60D078
:103D6000B9F1000F5DD0002D5BD013F00F0358D1D7
:103D70002D482E49B360002A18BF0146F361C6E9F9
:103D8000001340460FA921F043F8002846D13046E1
:103D90000F9920F079FE2146304620F075FE6946E5
:103DA000404600F09FFD002838D16946304620F09B
:103DB00057FE404603A921F0F9F878BB4FF00108FF
:103DC0003046DFF86CA003A920F04AFE44F000540E
:103DD000304606A90695CDF81C80CDF820A009979D
:103DE000CDF828800B9420F03BFE304609A920F046
:103DF00037FE30460CA9CDF83090CDF834800E94C3
:103E00000F95CDF84080CDF844A020F033FE304629
:103E10000FA920F02FFE3046FFF71AFF12B0BDE8C1
:103E2000F0872120FAE700BF030201040302000427
:103E3000100000202DE9F04F97B0894690461F46AC
:103E40000546DDF880A0002800F0BD80002900F0C4
:103E5000BA803AB1229B002B00F0B580239B002B47
:103E600000F0B180BAF1000F00F0AD80219B002B73
:103E700000F0A98077B13C680026229B434402935E
:103E8000464509D3002F00F0A08000203C6017B009
:103E9000BDE8F08F3C46EFE75CB1229B219A9B5D29
:103EA000125D01345340239A04F00F0493550136F8
:103EB000E6E7A8EB060BBBF10F0F58D9444B484679
:103EC000C5E90034AC60EC6113A920F0A1FF002823
:103ED000DDD1284613992BF00F0B20F0D5FD594664
:103EE000284620F0D1FD484604A900F0FBFC00283C
:103EF000CDD1284604A920F0B3FD484607A921F0FA
:103F000055F80028C3D1284607A920F0A9FD0123B0
:103F10002299304ACDF828A00B930C928A190D9261
:103F200028464BF000520AA90E9303920F9220F0FC
:103F300097FD28460DA920F093FD239B039A99191C
:103F40000123109111931292224A284610A9CDF80C
:103F50004CA01493159220F08DFD284613A920F053
:103F600089FD2846FFF774FE5E4400288FD1229B0E
:103F700003EB060B239B1E44029B5B4501D1464687
:103F80007EE7ACB9219B2246CDE900A34946102328
:103F90002846FFF77DFE00287FF479AF0AF1100272
:103FA00012F8013D0133DBB213700BB99245F7D122
:103FB000219A1BF8013B125D0134534006F8013B86
:103FC00004F00F04D8E7212061E738465FE700BF1F
:103FD00003030004100000202DE9F0438DB0884653
:103FE00015461C460746DDF85090002850D00029A1
:103FF0004ED0002A4CD0B9F1000F49D00B68103BCD
:10400000102B45D8012606FA03F303F0013323F001
:104010008073002B3CD000231E4A8360C0E900233C
:10402000C36109A9404620F0F3FE70BB38460999E8
:1040300020F02AFD2146384620F026FD69464046FC
:1040400000F050FC08BB6946384620F009FD4046A8
:1040500003A920F0ABFFC0B9384603A920F000FD4A
:1040600044F00054384606A906950796089420F0B7
:10407000F7FC094B384609A9CDF824900A960B9312
:1040800020F0F8FC3846FFF7E3FD0DB0BDE8F08303
:104090002120FAE70000040410000020F0B50C46CF
:1040A00017461E46054695B0002874D0002972D0E8
:1040B000002A70D0002B6ED0036B0F2B5BD800232F
:1040C000364A3846C4E90023A360E36111A920F011
:1040D0009FFE00285BD12046119920F0D5FC296B6A
:1040E00020460F2984BF01F00F01103120F0CCFCD5
:1040F000384602A900F0F6FB002848D1204602A964
:1041000020F0AEFC384605A920F050FF00283ED133
:10411000204605A920F0A4FC0122214B0895099214
:104120000A932B6B05F1100003F00F0141F00051D1
:104130000B900F2B0C920D910E900F9243F00052AA
:10414000109226D90A9B08A923F0005320460A930F
:1041500020F086FC0BA9204620F082FC012311965A
:1041600012930F4B204611A9139320F083FC204695
:10417000FFF76EFD0BE000F1200301900093012298
:10418000102339462046FFF783FD002897D015B04D
:10419000F0BD0EA9DFE72120F9E700BF000004040D
:1041A000100000202DE9F04F9BB00D469146984637
:1041B0000646DDF890A0002800F0B380002900F04A
:1041C000B080002A00F0AD80002B00F0AA80026BC6
:1041D00002EB0A031B09B3EB121F02F00F0700F0FA
:1041E00098800023504A8B60C1E90023CB61484688
:1041F00017A920F00DFE0446002840F0868007EB4A
:104200000A0323F00F0B28461799009320F03CFC7B
:104210005946284620F038FC484602A900F062FBC7
:104220000446002871D1284602A920F019FC48460E
:1042300005A920F0BBFE0446002866D14FF0010915
:10424000284605A920F00CFC384A284608A90896FB
:10425000CDF824900A9220F003FC47F00051ABEB1C
:10426000070706F1100347F000570B93CDF8309085
:104270000D91CDF83880CDF83C9010970D992846D7
:1042800021F000510D910BA9019320F0E9FB284684
:104290000EA920F0E5FBABF11001244A41F00051DA
:1042A0001194CDF84890139106F120011491CDF8A6
:1042B000549016921399284641F080411391139916
:1042C00021F00051139111A920F0D4FB284614A924
:1042D00020F0D0FB154A17A928461796CDF8609014
:1042E000199220F0C7FB2846FFF7B2FC009B04465A
:1042F000ABEB0301A3EB0B02019B51441846414475
:1043000033F045FE336B5344336320461BB0BDE8A6
:10431000F08F103052464146384433F038FE0024C6
:10432000F0E72124F1E700BF0302000410000020A1
:104330002DE9F0438DB08846DDE914591E46074645
:10434000002850D000294ED0002B4CD0B9F1000FDE
:1043500049D0531EDBB2042B45D82449CC5C169BB4
:104360009C4240D8224B09A903EB022200230260A1
:10437000C0E90133C361404620F04AFD80BB3846A6
:10438000099920F081FB2946384620F07DFB6946DB
:10439000404600F0A7FA18BB6946384620F060FB9B
:1043A000404603A920F002FED0B9384603A920F008
:1043B00057FB06960126384606A945F00055079694
:1043C00044F00054089520F04BFB384609A9CDF87D
:1043D00024900A960B9420F04DFB3846FFF738FCEA
:1043E0000DB0BDE8F0832120FAE700BF3B8703084A
:1043F000000102032DE9FF4700230E46174604463D
:10440000009300285BD00AB1002958D037F0030888
:1044100007F0030A25D04FF000094FF0E063C4E92C
:104420000039012301962046029301A948F0005368
:10443000C4F80890C4F81C90039320F01BFB41467D
:10444000204620F021FB2046FFF702FC054640B144
:1044500042464946304633F0C1FD284604B0BDE827
:10446000F0874FF00009BAF1000F2AD04FF0E06357
:10447000C4E900390123CDF804D00293124B204641
:1044800001A9C4F80890C4F81C90039320F0F2FA34
:104490000421204620F0F8FA2046FFF7D9FB054614
:1044A00008B13A46D5E7034600994644DA0001339D
:1044B00021FA02F29A4506F8012BF7D1CDE7212522
:1044C000CBE75546C9E700BF04000020F0B504461D
:1044D00008462178174601398DB0042945D8DFE810
:1044E00001F00330353A3F004025142620490C34B2
:1044F00000225D43C0E90122C261016029460190AA
:1045000020F0C2FA0123019846F0005606A945F0B2
:10451000005503970493059506940793089609940C
:104520000A930B9620F09CFA019803A920F098FAC0
:10453000019809A920F09EFA0198FFF789FB0DB0B8
:10454000F0BD402520260B490C34D1E7402520261C
:1045500009490C34CCE78025402608491434C7E7C4
:104560008025402606491434C2E72120E7E700BF32
:10457000000201030003010300040103000501031D
:104580000006010310B591B188B10023C0E90133E1
:10459000084B00F10C0203F1200153F8044B8B424D
:1045A00042F8044BF9D102230370002010BD2120F2
:1045B000FCE700BF4087030810B591B188B1002324
:1045C000C0E90133084B00F10C0203F1200153F85C
:1045D000044B8B4242F8044BF9D1032303700020B3
:1045E00010BD2120FCE700BF618703082DE9F047DB
:1045F0000446174608468CB0002C7FD000297DD099
:10460000002A7BD02278013A042A77D8DFE802F02A
:10461000030C5A626D0014263A4A04F10C0A04F1A4
:1046200004092C34B04608E020264FF01C08364A16
:1046300004F10C0A04F104092C34402198455DD89A
:1046400009F1040309EBD10553F804CBBCF1000FC9
:1046500056D1AB42F8D1D9F80030013901EA03054F
:10466000C0E9002CC0F808C0C0F81CC02946019061
:1046700020F00AFAD9F80010019820F005FA01227A
:1046800048F00053019803A946F0005645F0005544
:10469000CDF80CA004920596069407920895099708
:1046A0000A920B9320F0DCF9019806A920F0D8F9C2
:1046B000019809A920F0DEF90198FFF7C9FA0CB0BA
:1046C000BDE8F08704F10C0A04F1040920260F4A22
:1046D0002C34A7E740264FF030080D4A04F1140AA5
:1046E00004F1040954348021A8E7402604F1140A97
:1046F00004F10409B046074A5434F4E72120DEE708
:104700000F20DCE70002030300030303000403039C
:1047100000050303000603032DE9F04186B090462F
:104720001D4604460C9F002833D097B302B983BBC3
:104730004B1EDBB2042B2CD8174AD65C0D9B9E4235
:1047400027D80023080200F1407000F58070294648
:10475000C4E901332060E361204620F095F901238C
:104760006946204645F0005546F00056CDF80080D9
:104770000193029503970493059620F071F9204662
:1047800003A920F077F92046FFF762FA06B0BDE8EA
:10479000F0812120FAE700BF82870308F0B50F46B9
:1047A00016461D46044693B010B9212013B0F0BD43
:1047B0000029FAD0002AF8D0002BF6D00023314689
:1047C0001A46384620F0D9FA0028EFD1304602A91F
:1047D00020F069FA0028E9D1EB68022B0AD0396889
:1047E0003F48029A81426B6902D01830814270D1F1
:1047F0009A42DAD82B68002BD7D14FF06062384646
:10480000C4E90023A360E36101A920F001FB0028B3
:10481000CCD10199204621F4F061019120F034F9C6
:104820006946284620F0F4FA0028BFD120460099B6
:1048300020F02AF9384609A900F054F80028B5D12B
:10484000204609A920F00CF938460CA920F0AEFB4F
:104850000028ABD120460CA920F002F9EB684BB13F
:10486000284606A900F03EF800289FD1204606A958
:1048700020F0F6F8304603A920F098FB002895D1E7
:10488000B368DA040CD59B0427D50621F369326995
:104890001B6801FB03225B0043F000530392059366
:1048A000204603A920F0DCF828460FA920F07EFB63
:1048B00000287FF47BAF20460FA920F0DBF803250A
:1048C0002046FFF7C5F901287FF470AF013DF7D10D
:1048D0006CE7B3EB420F8DD267E7292066E700BF94
:1048E000200000B0A0B199B101234B60C368013B27
:1048F000012B0AD88069074B18B1086000208B6033
:104900007047054A0A608B6070474FF00053F5E727
:1049100021207047080000208887030870B50E46E4
:10492000154604468AB000285BD0002959D0002AD9
:1049300057D0012329461A46304620F01EFA002897
:104940004DD1B36813F4C04F4BD0AB6803F4C043F0
:10495000B3F5005F45D1254BA060C4E90030E061AC
:1049600007A9304620F054FA002838D1204607998C
:1049700020F08AF8304601A9FFF7B4FF78BB204643
:1049800020F06EF8304604A920F010FB38BB20461A
:1049900004A920F065F8EB681BBBAB6803F4C043C7
:1049A000B3F5005F1DD16946284620F0ADF9B0B9D6
:1049B000009B6A699A4216D32A6943F00053079212
:1049C0000122204607A908920325099320F052F8F6
:1049D0002046FFF73DF9012801D1013DF8D10AB089
:1049E00070BD2120FBE71D20F9E700BF0000010298
:1049F0002DE9F04391B00C46DDE918650746DDF876
:104A0000688000286DD000296BD0002E69D0B8F1E5
:104A1000000F66D0096801F07041B1F1404F5BD0E2
:104A2000002B5BD1531E042B5BD8120202F1C06233
:104A300002F5807200232046C7E901333A60FB612A
:104A40000DA920F0E5F9002843D138460D9920F052
:104A50001BF82946384620F017F8204601A9FFF731
:104A600041FF002835D1384601A91FF0F9FF204643
:104A700004A920F09BFA60BB4FF00109384604A955
:104A80001FF0EEFF45F00055384607A90796CDF810
:104A9000209009951FF0E4FF23680A9603F0704305
:104AA000B3F1404FCDF82C900C9503D138460AA9AC
:104AB0001FF0D6FF0123CDF834800E931B9B3846A0
:104AC00043F000530DA90F931FF0D4FF3846FFF7B2
:104AD000BFF811B0BDE8F083034AABE74FF0C06206
:104AE000A8E72120F5E700BF0000020610F1860FBD
:104AF00006D038B19330044808BF6FF06F0070479C
:104B00006FF07100704700BF009FFFFF70B58CB061
:104B100004460D4616460021242203A833F05EFA0F
:104B20004FF41053ADF80C3054B3236843B33DB386
:104B30001B78032B1CD0042B1CD0022B23D18023E9
:104B4000206C4FF4AE71ADF80E30B0B9012021F0F9
:104B5000B7FDD8B120640E4B2A460093206CF308B1
:104B600003A901F059FA0CB0BDE87040FFF7BEBFD1
:104B7000C023E5E74FF48073E2E705F023F9EAE7A5
:104B800004480CB070BD6FF07100FAE70248F8E716
:104B90000002C003009FFFFF809EFFFF10B550B1D1
:104BA000046844B139B1006C28B101F025FBBDE8BF
:104BB0001040FFF79BBF014810BD00BF009FFFFFE3
:104BC00007B578B102686AB1006C58B151B10023E1
:104BD0001022019301AB01F03DFB03B05DF804EB43
:104BE000FFF784BF014803B05DF804FB009FFFFF9F
:104BF00008B5064A064B002914BF1146194601F0B4
:104C000077F9BDE8084020F00FBB00BF08000002A4
:104C10000900000230B5154B87B00293144B039086
:104C2000049346F611030D46059300F023F814286B
:104C3000044616D1684620F06DFB4FF0A8430322CE
:104C400002A95A6319601D619A63DA6B9207FCD15D
:104C5000142C02D1684620F06BFB00F03FF80446AC
:104C600001E00028E9D0204607B030BD50500020B8
:104C70000400002038B5164B5A6E42F004025A6602
:104C8000D3F8802242F00102C3F88022114B5B6806
:104C9000C3F3080343B14FF0A842D36B13F0430FA3
:104CA000FBD11424204638BD4FF0A843DC6B14F030
:104CB0004304FBD1084D2B681BB90421284605F09D
:104CC00089FD2B68013343F000432B60EAE700BF06
:104CD0000080005000ED00E050500020014B00200B
:104CE0005B68704700ED00E0012300F01F02A0F5B3
:104CF00006200949A0F550604009934051F8202052
:104D00001A4341F82020054951F8202022EA0303E4
:104D100041F82030704700BF5450002068500020F8
:104D20000121A0F506230F4AA3F550635B0900F0AB
:104D30001F0001FA00F052F8231008430A4942F814
:104D40002300D1E90030034488680344C868096936
:104D500003445B1802BFC2E90033C2E902331361A6
:104D6000704700BF68500020545000202DE9F04FDC
:104D7000A9B002921F46DDE9328904460822CDE936
:104D80000301414021FA02F34B40980702F1080267
:104D900018BF9B00202A1C44F4D18123B4FBF3F3F9
:104DA00003EBC313E41A784B04F506241B7804F5CF
:104DB0005064002B3CD1FCF70DFA014620B16FF096
:104DC000910029B0BDE8F08F4022059008A833F08B
:104DD00005F94022059918A833F000F96B4EDFF869
:104DE000C4A1334603F10F0B102208A9DAF8000022
:104DF000CDF800B0059332F0EFF800220146059B94
:104E0000103608AD914244D1CDF800B01022DAF846
:104E1000000018A932F0E9F84FF0000B034618AD76
:104E20005B4542D15A4B9E42DBD10122564B1A7050
:104E300081250026DFF86CA1A4F50623554AA3F5C9
:104E400050635B0952F8232004F01F01CA40D207C7
:104E50003ED4514A52F82300C84010F001002DD032
:104E6000002E08BF26468123A4F50724A4F2FF44A0
:104E7000B4FBF3F303EBC313E41A04F50624013D7A
:104E800004F55064D8D1029BD3B1CEB1349B1E60DF
:104E900063E055F8040BCDE906230591FFF724FFE5
:104EA000069A079B05990132ACE755F8040B059368
:104EB0000BF1010BFFF734FF059BB1E7029B13B920
:104EC0006FF08B007DE7349B002E45D01E6078E7A5
:104ED000B8F1000F02D00023C8F80030B9F1000F7C
:104EE00002D00023C9F800304FF0100B00233A46DF
:104EF0002146DAF80000CDF800B016F0AFFA70BB2A
:104F0000B8F1000F01D0C8F800B03B68234A9342C3
:104F10002FD1B8F1000F11D0B9F1000F0ED04B46D0
:104F20002146DAF8000018AA16F0ECFAB8B9D9F858
:104F30000030D8F800209B1AC9F80030D7E90223C6
:104F4000DDE90310834208BF8A428CD1029B13B172
:104F50007B68012B15D0349B1C60002031E7104B7F
:104F6000984206D01233984203D0133B9842E5D0C2
:104F700025E72146DAF8000016F00AFB0028DDD00C
:104F80009EE76FF084001CE7155B0020006D0800B1
:104F9000007108005450002068500020105D175E1A
:104FA000FFDF00F0501300202DE9F04F87B082465C
:104FB000894698461646DDF840B02AB1002B4ED0FF
:104FC00040F26C739A424DD8BBF1010F4DD80024CA
:104FD00006F1100739460120059421F071FB0546C2
:104FE000002845D021463A4632F0F8FF05ABCDE91E
:104FF000014300942B46012250464946FFF7B6FE76
:10500000044680B110F18C0F08BF6FF08D043A4652
:105010000021284632F0E2FF284621F062FB2046BC
:1050200007B0BDE8F08F144BC5E902A92B60C5F8A5
:1050300004B02EB13246414605F1100032F0A7FF10
:105040000E483B462A460599006816F06FF918B9D4
:105050000598FFF749FEDAE76FF09104D7E76FF0A4
:105060008604DCE76FF09104D9E76FF08504D6E79A
:105070006FF08C04D3E700BF105D175E5013002063
:105080002DE9F0438DB08146DDE914780C461546D4
:105090001E469BB1B8F1000F05D16FF08604204683
:1050A0000DB0BDE8F083002FF7D0B7F1005FF4D367
:1050B000C3F1005303F580239F42EED81022002154
:1050C00008A832F08BFF002207AB029305AB0193D7
:1050D00006AB21460093484608ABCDE90522FFF711
:1050E00045FE04460028DAD10599DEB1A94203D86D
:1050F0000029D2D115B1D0E70029FBD0491BB1421C
:1051000028BF3146069B0948C8F8001000913A466E
:10511000079900682B4416F0A1F9002818BF6FF01A
:105120009104BCE7A942E9D2B7E700BF50130020C1
:1051300030B58DB00C4605461022002108A832F08B
:105140004DFF002207AB029305AB019306AB21464E
:105150000093284608ABCDE90522FFF707FE044679
:10516000D0B9099B012B1AD0104B0799186816F07B
:105170000FFAB8B9012207980D49A0F50623A3F547
:1051800050635B0900F01F05AA4051F823506A40A4
:1051900041F82320FFF7C4FD20460DB030BD6FF06D
:1051A0008404F9E76FF09104F6E700BF5013002084
:1051B00054500020134B98421BD010D8124B9842E9
:1051C00005D020F48070A3F58063984216D10B8837
:1051D000B3F5105F0CBF00206FF0850070470B4BDC
:1051E0009842F4D08EBF0A4B20F48070A3F5007370
:1051F000EBE742F204030A889A42EBE76FF085007E
:10520000704700BF00018004004440040012C00445
:105210000013C0042DE9F04F1F460023A3B08246BF
:10522000DDE92EB4DDE93068CDE90633CDE9083398
:10523000CDE90A33CDE90C33DDF8C890059204912D
:1052400011B96FF0860529E0059B002BF9D0BBF161
:10525000000F01D1002CF4D12C9B13B92D9B002BF6
:10526000EFD116B9B8F1000FEBD1B9F1000FE8D0CA
:1052700051463846FFF79EFF054678B90146202281
:1052800012A832F0ABFE202229461AA832F0A6FE60
:1052900012A81FF07DFC28B16FF09205284623B0BC
:1052A000BDE8F08F5046DDE904121AAB00F0BCF9FE
:1052B00005460028F2D11A9820F0A8F805460028E3
:1052C000ECD114B9C9F80000E8E7B3451ED20BEBE6
:1052D00004039E421AD24445B3D85946224630466A
:1052E00032F062FE914BB3469F4214D08F4B9F42E7
:1052F00021D8A3F580639F4200F09C8003F5807362
:105300009F4200F0F7806FF08505C7E7874B9F420B
:10531000ECD1444595D814F00F0292D12346CDE943
:1053200000B61AA912A8FEF7B3FC8346002850D194
:10533000C9F80040B2E77E4B9F4203D003F54073AB
:105340009F42E0D100234445CDE90E33CDE910332F
:105350003FF677AF774B9F422D9B49D10D2B7FF4C2
:1053600070AF01238DF838302C9B0DF1390203F119
:105370000C0153F8040B8B4242F8040BF9D11B7853
:10538000137001238DF8473014F00F0724F00F0A33
:1053900000F0C7800BEB0A030DF1280C03F1100E8F
:1053A000624618685968083303C273459446F7D1BA
:1053B000BAF1000F2ED006AB01930EABCDE902B6C9
:1053C0000093524600231AA912A8FEF733FD834624
:1053D000F0B142460021304632F000FE0023BBF11E
:1053E000010FC9F800307FF457AF6FF08B0555E718
:1053F000102B7FF426AF2C9B0EAF03F1100C3A4616
:1054000018685968083303C263451746F7D1BBE7EC
:10541000002F8DD00AAB029306AB06EB0A02019374
:105420000EAB039200933A4600231AA912A8FEF786
:1054300001FD7AE723077FF404AF44456ED82D9B26
:10544000102B7FF4FEAE06AA92462C9B03F1100EA1
:105450009446186859680833ACE8030073456246FF
:10546000F6D1354B9F4207D124F00F0104F00F0213
:1054700059440AA832F08BFD0F2C40D82E4B9F4286
:105480007FF456AF04F00F00C0F110020AAF1146CE
:10549000384432F0A3FD0F2C0FD924F00F02324410
:1054A000A2F110030DF1180EF4461868596808337C
:1054B000ACE803009342E646F6D110230022CDE982
:1054C0000177CDF800A01AA912A8FEF739FC83468F
:1054D00000287FF47EAF24F00F0426440EAA3B463A
:1054E00003CB9342306071601F4606F10806F6D187
:1054F00010341DE724F00F03103343459EE7CDE938
:1055000001B60022CDF800A024F00F031AA912A8BA
:10551000FEF716FC83460028B0D05AE76FF08905E5
:10552000BCE6BAF1000F3FF403AF44E70044400487
:105530000010C0040013C00400414004F8B5134635
:1055400042880D460732072A4FEAD20104D0A94209
:1055500002D06FF086003AE044680688C7682022CF
:105560001846002132F03AFD240A034614B1012CFA
:1055700052D1C460002DECD041F20102964205D018
:10558000B6F5885F02D0B6F5905F0ED15D60002C55
:1055900045D017F0020007F0010116D1B9B99A6899
:1055A000084642F080729A6011E0B6F5105F07D1AC
:1055B000182D03D0202D01D0102DCAD11D60E5E794
:1055C00006F44F42B2F5824F02D06FF08500F8BD6D
:1055D000F2B2122AF9D1202DF7D1124A26F0FF0695
:1055E000B6F5E24F1A600DD14FF4804217F4705FA8
:1055F0009A600DD017F4864FE7D19A6842F4806222
:105600009A60C4E7B6F5824FA3D14FF40052EDE79C
:105610009A6822F48062F3E76FF08B00D7E72046A8
:10562000D5E700BF200000802DE9F041154600229B
:105630001C4643688AB01B0A07460E46019204D0F6
:10564000012B59D06FF08B0094E0008820F0FF030D
:10565000B3F5824F4ED17A880732D20801921FF0FB
:10566000E1FE002800F001810B78042B02D06FF0DE
:1056700086007FE0013DB5EB420F06F10106F6D151
:10568000224638460199FFF759FF002872D10335A9
:10569000C4E9030625F003056561019D002C00F0B7
:1056A000C880002D00F0C5802022002102A832F021
:1056B00095FC2946384602AAFFF740FF002840F033
:1056C000B8802368029A9A4240F0B3806368039AD4
:1056D0009A4240F0AE80A368049A9A4240F0A980B2
:1056E000A369089A9A4240F0A480E369099A9A4211
:1056F00040D09EE00195C3E7032DB8D991F8008012
:10570000B8F1010F40F0B4804978002979D0F73919
:10571000082997D801A353F821F000BFB357000818
:105720007B57000845560008975700084556000863
:105730004157000845560008CF570008E9570008B0
:105740001C22002103A832F049FC4B4B4FF41050AF
:1057500002930323CDE90403FC2306930AAD02ABB5
:105760001A4603CAAA4220606160134604F1080485
:10577000F6D100200AB0BDE8F0811C22002103A868
:1057800032F02CFC3C4B4FF4105202930323CDE932
:105790000423F823E1E71C22002103A832F01EFCB9
:1057A00010234FF0807E02930323CDE904E3FA2314
:1057B000D3E71C22002103A832F010FC20234FF075
:1057C000007702930323CDE90473F723C5E71C2276
:1057D000002103A832F002FC274B284D029303233B
:1057E000CDE90453FE23B8E700211C2203A832F0C0
:1057F000F5FB214B224902930323CDE90413FF2338
:10580000ABE72B2D7FF633AF2022204632F0E6FBAC
:105810007368103D2360B3681036636056F8043C2B
:105820002046C4E902382661656101A91FF03BFAF0
:1058300028B120220021204632F0D0FB17E73A8819
:10584000019B02F44F41B1F5824F08D1D1B2122928
:1058500005D122F0FF02B2F5824F08BF5B006269FA
:105860001C339A42BFF419AFE3E76FF0850081E77C
:105870006FF091007EE700BF20000080004400022E
:10588000004400032DE9F0410D4614461E46C4B005
:1058900010B96FF086000DE00029FAD0002AF8D088
:1058A000002BF6D0038803F44F42B2F5824F04D0A8
:1058B0006FF0850044B0BDE8F081DAB2122AF7D16A
:1058C00023F0FF03B3F5E24F28D14388336003BBD5
:1058D000E30033603368B3F5807FE9D10023404AA9
:1058E000281914441A4614F8016D10F8011D0A43D2
:1058F000891B0CBF4FF0FF360026854203EA0603E2
:1059000043EA0103EFD1002AC3D0002BC1DA002003
:10591000D0E70733B4EBD30FDCD0BAE7B3F5824F4F
:105920005AD10B78042BB4D12022002101A832F0E7
:1059300055FB01A81FF02CF900284AD10027862228
:10594000394622A8219732F049FB01234FF08A08FB
:1059500020223946013C09A88DF88430013532F007
:105960003DFB202239460E9411A8E4000D956408F1
:1059700032F034FB21AD2022394619A81595CDF817
:10598000588032F02BFBB4F5807FCDE91D58346090
:105990007FF47FAF134B09AA099311934FF400537F
:1059A0000B934FF480431393402311A91A9301A83A
:1059B00019ABFEF7F3FE33680733DB085A002BB947
:1059C00000283FF477AF64E705F8017B013AFBD28A
:1059D000F6E76FF092006DE76FF096006AE700BFA0
:1059E0009087030820000080144B0340B3F1607FD0
:1059F00021D1C3B243F0007303F17E43053B062B74
:105A000019D8DFE803F0041818080C101400142348
:105A100001200B6070471C2302200B60704720237D
:105A200003200B607047302304200B607047402335
:105A300005200B6070470020704700BF0000C07F4A
:105A40002DE9F04F9FB00646DDE9289A0C469046B6
:105A50009B462A9FB9F1000F05D16FF086042046BE
:105A60001FB0BDE8F08F002FF7D00028F5D020221E
:105A7000002106A832F0B2FA06A81FF089F8054600
:105A8000002870D1414B2340B3F1607F38D105909D
:105A900005A92046FFF7A8FF0246002873D0059B02
:105AA000C4F305449C42D8D804B10594059B5345E2
:105AB00066D840230DF1380A029331464346CDE9BA
:105AC00000BA06A8FEF734FC0446A0B9059E51466C
:105AD0003246484632F05BFA3E6000220AEB05038C
