:020000040800F2
:1000000000120020293300089F8504089F850408FA
:1000100007A604089F8504089F8504089F85040897
:100020009F8504089F8504089F8504089F85040810
:100030009F8504089F8504089F8504089F85040800
:100040009F8504089F8504089F8504089F850408F0
:100050009F8504089F8504089F8504089F850408E0
:100060009F8504089F8504089F8504089F850408D0
:100070009F8504089F8504089F8504089F850408C0
:100080009F850408E12B00089F8504089F850408CC
:100090009F850408C53900089F8504089F850408CA
:1000A0009F850408E93A0008C53A00089F850408BE
:1000B0009F850408793903087D430308091506085C
:1000C00005150608493B0308151506080D15060811
:1000D0005543030811150608BD43030821440308CE
:1000E0009F8504089F8504089F8504089F85040850
:1000F00003A604089F8504089F8504089F850408BB
:100100009F8504089F8504089F8504089F8504082F
:100110009F8504089F8504089F8504089F8504081F
:100120009F8504089F8504089F8504089F8504080F
:100130009F8504089F8504089F8504089F850408FF
:100140009F8504089F8504089F85040809A7040863
:10015000AD2203089F85040811120608171206082D
:100160009F8504089F8504089F8504089F850408CF
:10017000013800D0FCE770477F4B73B51C8814F042
:10018000010440F0F38041F60B227C4D7C4B7F2133
:10019000C5E900347B4B7C489A8010221C60AC601F
:1001A0006CF093FB7F22794B1A70794B1B6ADB074B
:1001B00006D440F20E41774B774A784842F0DAFF96
:1001C000214628462DF0A0F8044620B940F21241FD
:1001D000734B714AF1E72DF0D1FF20B140F2164187
:1001E000704B6D4AE9E74FF00111204660F0F4FCD6
:1001F00020B140F21A416B4B674ADEE702212046EC
:1002000060F0CDFB20B140F21D41664B624AD4E75D
:10021000204665492DF00EFE20B14FF48461614BFC
:100220005D4ACAE70121204660F0CEFD20B140F2D0
:1002300025415C4B584AC0E70121204660F0D4FDBF
:10024000064620B14FF48561564B534AB5E7014647
:10025000382256486CF039FB80233246204605F19F
:10026000100160F0C2FC802804D040F22F41504BB6
:10027000494AA2E74F4D01202DF09AF83CA3D3E95B
:1002800000232C602046CDE900234FF0FF324FF0D1
:10029000FF3360F0BFFB014620B140F26E31414BAD
:1002A000454A8AE737480CF0DFF9012108460CF08F
:1002B0004FFA0121286860F014FB044620B140F297
:1002C000C141384B3D4A78E701464FF408723C483B
:1002D0006CF0FBFA3B4A3C4B02F188011A609962D0
:1002E00002F5887102F5CC729C809A679C85374A2A
:1002F000A3F854401965A3F87C40354B6FF06300B8
:100300001A609C80334A344B1A60344A9C801470C3
:10031000334A5A6119F092FA0B200CF05FF9314B15
:10032000186020B940F2D9412F4B244A45E706F026
:1003300011FA20460CF078FA08222868114660F07D
:100340006BFB044620B140F2DE41284B1B4A34E7E8
:100350000DF062FB264B27481C70274B1C70274B67
:100360001C7002B0BDE8704052F00EB902B070BD12
:100370000BE020FF220200002A8600204C650020AE
:10038000ADCA0008446500208C8800207D880020CC
:100390000080E00FE0E2060884E4060885E0060835
:1003A000F9E20608E3DF060894E50608E8650020A0
:1003B00008E306084065002077E4060800E5060823
:1003C0002066002028660020282000209D8800202C
:1003D0000020002022890020C82000201C89002045
:1003E000F0200020E465002040E306085BE30608F7
:1003F00080880020DFE30608218900202089002072
:1004000070B590B00E46044606A909AD81E80C000F
:100410000023179928460F9336F0C4FA9DF85830F8
:100420004FF00001B26820460393159B0495029398
:100430009DF850300193079B9FED050B0093069BA1
:1004400065F0B6F9284662F009F8204610B070BD94
:10045000000000000000000070B590B00E46044699
:1004600006A909AD81E80C000023179928460F93CF
:1004700036F00AFB169B4FF00001B268204603934A
:10048000159B049502939DF850300193079B9FEDB7
:10049000060B0093069B65F0B3FA284661F0DEFF79
:1004A000204610B070BD00BF00000000000000003A
:1004B00070B590B00E46044606A909AD81E80C005F
:1004C0000023179928460F9338F006FC9DF8583002
:1004D0004FF00001B26820460393159B04950293E8
:1004E0009DF850300193079B9FED050B0093069BF1
:1004F00062F0BBFA284661F0B1FF204610B070BD33
:10050000000000000000000070B590B00E460446E8
:1005100006A909AD81E80C000023179928460F931E
:1005200038F020FC169B4FF00001B2682046039380
:10053000159B049502939DF850300193079B9FED06
:10054000060B0093069B62F069FB284661F086FF6C
:10055000204610B070BD00BF000000000000000089
:100560002DE9F04F1F460023044688464FF0000A4D
:100570004FF0000B2DED028B9DB018939F4B139203
:100580001B68184605936CF0EDFA0546CDF85C80C3
:10059000179B1A782B2A4ED03BD80D2A34D8082A1C
:1005A00034D8002A3ED000230A93179E3378302B8C
:1005B00040F0B080737803F0DF03582B68D10A9BBA
:1005C00017A902972046019318AB8D4A009319ABE7
:1005D00046F012FA10F00707054605D0062F2CD179
:1005E0000136002317960A93139B002B40F08E854B
:1005F0000A9BEBB152460BF1004343EC102B1DB0AC
:10060000BDEC028BBDE8F08F202ACCD101331793CB
:10061000BEE72D2AC7D101220A925A1C17925B7895
:10062000002BC2D1139BCDF85C80002B40F06C8571
:1006300052465B46E1E70022EEE7189A3AB13521CF
:100640001AA86CF013FF1899204646F0F9FC013FF8
:10065000042F06D8DFE807F00A0314170A00DDE9C3
:100660001AAB2807C0D54BF0004BBDE7DDE91AA354
:10067000199A23F4801302F2334243EA025BF0E753
:10068000DFF880B1EDE76FF0004B4FF0FF3AE8E79D
:10069000179B5A1C17925B78302BF9D0002BA3D0F4
:1006A00001234FF0000904930A22179B4F46CDF80F
:1006B0001C90089317980678A6F13003D9B209293F
:1006C0002AD92A4605996CF055FAA0B30020324683
:1006D0003D4603460590652A01D0452A18D11DB92B
:1006E000049A02439ED00025DDF85C8008F10102E7
:1006F000179298F801202B2A75D02D2A7BD04FF025
:10070000000CA2F13001092940F28280CDF85C8012
:1007100000269DE00023C4E7082F00F1010007F147
:100720000107D4BF079902FB09391790DCBF02FB10
:1007300001330793BEE7179B5A1917925A5D002F92
:1007400036D03D460590A2F13003092B12D9012382
:10075000C1E7179B01305A1C17925A78302AF8D0FB
:10076000A2F13103082B00F2D68405900020179BDC
:1007700005460893303A00F1010313D0059900EBC8
:10078000050E19442B4605910A21734512D12B18E9
:100790000135082B05441CDC07990A2303FB0123C0
:1007A00007930023179A1846511C17915278CAE7ED
:1007B0003846D3E7082B04DC079E4E4307960133E7
:1007C000E3E703F1010CBCF1100FD8BF01FB09F9FD
:1007D000F5E7102DDCBF0A2303FB0929E1E700231D
:1007E000059301237CE74FF0000C08F102021792F9
:1007F00098F8022085E74FF0010CF6E7E0AB070818
:10080000A4A707080000F07F179A511C179152788F
:10081000302AF9D0A2F1310108293FF679AFA2F1CF
:10082000300E179A0692179A511C17915278A2F11E
:100830003006092E37D9069E891B44F61F66082903
:1008400002DC7645A8BF7646BCF1000F00D07642A8
:10085000002D4DD1049901437FF4C6AE002B7FF4E7
:10086000E1AE692A27D024DC492A24D04E2A7FF41D
:10087000D9AE9F4917A86CF086FC00283FF4D2AE91
:10088000179B1B78282B2DD11AAA9A4917A86CF010
:100890008EFC052826D11B9BDDF868A043F0FF4B9A
:1008A0004BF4E00BA0E60A2101FB0E2EAEF1300E58
:1008B000B9E76E2ADBE7904917A86CF064FC0028C2
:1008C0003FF4B0AE179B17A88C49013B17936CF00F
:1008D0005AFC10B9179B01331793DFF830B24FF071
:1008E000000A81E6864800F03FFC5BEC10AB7BE63B
:1008F000059B002F08BF2F46102D0798A6EB03037A
:10090000A846A8BF4FF01008069341F0C1FE092D7C
:1009100082468B4613DD7B4B03EBC80353E912235E
:1009200041F030FF82468B46484641F0B1FE024618
:100930000B465046594641F06FFD82468B460F2DBF
:1009400038DC069B002B3FF44FAE24DD162B0BDC6E
:100950006C49524601EBC3015B46D1E9000141F00D
:1009600011FF82468B463FE6C5F12503069A934266
:1009700020DBC5F10F05634C52465B4604EBC50115
:10098000D1E9000141F0FEFE069B5D1B04EBC504AE
:10099000D4E90023E3E7069B16330BDB059B5046A7
:1009A00059469E1B574B03EBC606D6E9002342F07F
:1009B00013F8D6E7A5EB0808069B9844B8F1000F9A
:1009C00074DD18F00F030AD04E49524601EBC30103
:1009D0005B46D1E9000141F0D5FE82468B4638F0F6
:1009E0000F084FD0B8F59A7F22DD00252E460795D7
:1009F00005952223DFF814B14FF0000A2360079B0E
:100A0000002B3FF4F1AD1899204646F019FB0599EB
:100A1000204646F015FB3146204646F011FB07996B
:100A2000204646F00DFB2946204646F009FBDBE553
:100A3000354B4FEA281850465946049300239946EF
:100A4000B8F1010F21DC0BB182468B462E4BABF186
:100A5000547B524603EBC9095B46D9E9000141F0DA
:100A600091FE2A4B0A4682460B4029498B42BCD84C
:100A7000A1F580118B4286BFDFF898B04FF0FF3AA6
:100A800002F1547B0023049383E018F0010F05D09A
:100A9000049BD3E9002341F075FE0123049A09F178
:100AA00001094FEA680808320492C9E7EAD0C8F1A0
:100AB000000818F00F020AD0124B5046594603EBBB
:100AC000C203D3E9002341F087FF82468B465FEAE9
:100AD0002818D7D0B8F11F0F1EDD00252E46079528
:100AE000059522234FF0000A4FF0000B236086E7A4
:100AF000F5220708B8A70708A1A7070847AF070806
:100B0000E8E9060898AC070870AC07080000F07F19
:100B10000000A07CFFFFEF7F18F0100350465946FD
:100B2000DFF8A89318BF6A230493002318F0010F7D
:100B300004D0D9E9002341F025FE01235FEA6808CB
:100B400009F10809F2D10BB182468B46049BC3B16F
:100B5000CBF30A525946C2F16B03002B11DD1F2B58
:100B600040F32181342B4FF0000ADBBFC2F14B026E
:100B70004FF0FF334FF05C7B03FA02F2D8BF02EA7A
:100B8000010B002200235046594642F063F800282A
:100B9000A3D1079B3A460899204600932B4646F07E
:100BA000B9FA079000283FF420AF059B00259E1B53
:100BB000069B002BB4BF334600232E460C93069BA6
:100BC00023EAE3731293079B2046596846F0F8F92D
:100BD000059000283FF40DAF079B0C301A6903F114
:100BE0000C01023292006BF049FE1AAA19A92046A4
:100BF0004BEC10AB46F06AFD18904BEC18AB00289C
:100C00003FF4F7AE0121204646F0CEFA0646002812
:100C10003FF4EFAE199B0499002BA3EB0108A9BF89
:100C20000C9A129A03EB0209129FB8BFD71A1A9AAC
:100C3000A14B9044B8BFDDF83090C2F1360208F104
:100C4000FF38984580F2C380A3EB080301211F2BD6
:100C5000A2EB030200F3AE8001FA03F30D9300232D
:100C6000089309EB0208049B1744C1451F444B46F7
:100C7000A8BF4346BB42A8BF3B46002BC2BFA8EB60
:100C80000308FF1AA9EB03090C9B002B17DD314663
:100C90001A46204646F046FB064600283FF4A9AE19
:100CA0000146189A204646F095FA0B9000283FF42A
:100CB000A0AE1899204646F0C3F90B9B1893B8F1E3
:100CC000000F00F38980069B002B08DD129A204656
:100CD000059946F027FB059000283FF48AAE002FC7
:100CE00008DD3A460599204646F076FB0590002837
:100CF0003FF47FAEB9F1000F08DD31464A46204689
:100D000046F06AFB064600283FF473AE059A20467B
:100D1000189946F0D1FB054600283FF46AAEC36837
:100D200031460B930023C3606CF051FB00285DDA61
:100D30000B9B53EA0A037FD1CBF31303002B7BD128
:100D40002BF000431B0D1B05B3F1D66F74D96B69F3
:100D500013B92B69012B6FDD29460122204646F08D
:100D60003BFB314605466CF032FB002864DD0499FC
:100D70005B46524A00297FD002EA0B01B1F1D66FDF
:100D80007ADCB1F15C7F7FF7ACAE4D4B50465946F3
:100D9000002241F0F7FC0B4682468B46034304BF1A
:100DA000222323602FE64FF0FF3202FA03F303EA17
:100DB0000A0AE6E6C8F17F480D9108F57F0808F5B4
:100DC0007B4808F1E20801FA08F3089349E7002399
:100DD000089301230D9344E742461899204646F0B4
:100DE000FBFA189000287FF46EAF02E65F466FD1E1
:100DF0000B9ACBF3130342B3324A934228D1049B9C
:100E00005146EBB12D4B4FF0FF323B40B3F1D46F65
:100E100019D81B0DC3F16B0302FA03F3994217D1E2
:100E2000294B9F4202D101313FF4E3AD234B4FF0F8
:100E3000000A3B4003F5801B049B002BA5D1E2E593
:100E40004FF0FF33EAE71346E8E753EA0A038ED090
:100E5000089BDBB13B42EFD00B9B5046049A5946AE
:100E6000C3B16BF0C4FE02460B4651EC180B41F0C7
:100E7000D3FA82468B46DFE713404FF0FF3AA3F5E3
:100E800080136FEA135B6FEA0B5BD5E70D9B13EAE8
:100E90000A0FE0E76BF0ABFE02460B4651EC180B75
:100EA00041F0B8FA0022002382468B4641F0D2FE80
:100EB0000028C1D015E600BF02FCFFFF0000F07F54
:100EC00000005039FFFF0F00FFFFEF7FD0A707089A
:100ED000314628466CF097FA00224FF0804310EE1E
:100EE000100A59EC108B494641F0C8FE00287AD010
:100EF0000B9B002B4AD00022934B4FF00008DFF8E9
:100F00004892CDE90823914B3B400D930D9A904BAD
:100F10009A4240F0B080A7F1547BDDE908014BEC28
:100F200010ABCDE9080146F057FBDDE9080153ECB1
:100F3000102B41F027FC52465B4641F06DFA0B4600
:100F400082498246834A1940914260D918EE903A0C
:100F500002F15472934204D118EE103A01333FF477
:100F600048ADDFF8FCB14FF0FF3A1899204646F043
:100F700067F80599204646F063F83146204646F06A
:100F80005FF82946204646F05BF81CE6BAF1000FF0
:100F90001BD1CBF31303F3B900226B4B40464946F8
:100FA00041F062FED0B94046494600226A4B41F00A
:100FB000E9FB8046894609F10043CDF8508015933E
:100FC000DDE91423CDE908239DE7BAF1010F02D131
:100FD000002F3FF486AD0022604B8EE74FF00008F3
:100FE000DFF87491E7E75C4B40464946002241F048
:100FF000C9FB0B9B8046894633B901F100430E9033
:101000000F93DDE90E23DDE7CDE90E89F9E703F162
:10101000547B049B002BA8D12BF000430D9A1B0D91
:101020001B059A42A1D14046494641F0F5FE41F0E8
:101030007BFB02460B464046494641F0EBF9CBF3B9
:1010400013030B9A804643EA0A038946134355D09B
:1010500035A3D3E9002341F007FE00287FF4D3AC89
:101060004046494632A3D3E9002341F01BFE002845
:101070003FF47BAFC7E4049B33B30D9BB3F1D46F54
:1010800022D8404649462CA3D3E9002341F0F6FD7F
:10109000A0B14946404641F037FE012838BF012043
:1010A00041F0F6FA0B9B8046894623BB01F10043D1
:1010B00010901193DDE91023CDE90823099B0D9AC7
:1010C00003F1D6639B1A0993B0EE480AF0EE680A62
:1010D000DDE90801CDE9080146F07EFADDE9080105
:1010E00053EC102B41F04EFB53EC182B41F094F9CC
:1010F00082468B468DE7CDE91089DBE710A3D3E963
:10110000002341F0B1FDB2E700230A93179B139A25
:101110001360FFF76DBA652A3FF461AB452A3FF4CF
:101120005EAB0123FFF796BB9535A094FFFFDF3F31
:1011300035E5AF350000E03F0000C0FFFFFFDF41B5
:101140009535A094FFFFCF3F0000F03F0000F07FF7
:101150000000E07FFFFF9F7C0000E03F0000F0BF49
:10116000FFFFEF7F000000009FED010B704700BF05
:10117000000000000000F87F2DE9F04F1D4600231D
:10118000894683462DED048BD3B019930B9247F01B
:1011900041F803681B781693B9F80C301C061AD571
:1011A000D9F81030BBB94021584642F0D7FDC9F8F4
:1011B0000000C9F8100058B90C23CBF800304FF0EC
:1011C000FF330D930D9853B0BDEC048BBDE8F08F49
:1011D0004023C9F8143000239FED8D7B0F931193AA
:1011E000B0EE478AF0EE678A0D930B9B1C4653F8CE
:1011F000042B0AB1252AF9D10B9BA3420DD0E61A84
:101200000B9A4946584633466CF09AF9013000F083
:10121000E8800D9B03EBA6030D932368002B00F0E1
:10122000E0800021221D0A204FF0FF340E460F46B9
:1012300015910C9152F8043B09930B92099B392BA1
:101240004CD81F2B4FD9099B203B192B4AD8DFE8DC
:1012500003F06B494970494949494949736C497AD6
:101260007D49989B9B9B9B9B9B9B9B9B332B39D83E
:10127000DFE813F0EB003800EB00380038003800EE
:1012800038009D0038003800380038003800380039
:1012900038003800380038003800210338003800A2
:1012A000380038003800380038003800380038007E
:1012B000A600D700EB00EB00EB00A000D700380041
:1012C0003800A300380089029A02A702A300380060
:1012D000C60238001603380038004200099B453B1F
:1012E000332BC3D911B1099B002B7AD0099B002065
:1012F0000A952A93159081E001B11596464B2A462E
:101300000F93F80652F8043B0A9202D4790648BFBC
:101310009BB2FA0706D52BB1302247F002071A928A
:10132000099A1B9202225AE20EB9099E01210B9AD8
:1013300080E747F00107FAE755F8043B002B0C93D0
:10134000F5DA5B420C9347F00407F0E70B9A52F88A
:10135000043B2A2B099312D155F8044B0B9244EA13
:10136000E474E4E700FB043452F8043B0993099B5E
:10137000303B092BF6D944EAE4740B925EE7002473
:10138000F5E747F08007D2E700230C930C9A099BFE
:1013900000FB0233303B0C930B9B1A4652F8043B84
:1013A0000993099B0B92303B092BEFD946E747F095
:1013B0000807BCE747F04007B9E747F01007B6E772
:1013C00001B115962B1DF8060A9327D4286841F021
:1013D000EFFE411C0ED1B9F80C3043F04003A9F8E0
:1013E0000C30B9F80C3013F0400F0D9B18BF4FF0C4
:1013F000FF33E6E62A9000202B90159080460124CA
:10140000064605460DF1A80A08E100BFAFF30080CB
:10141000000000000000000078AE07082B682A9347
:10142000E9E701B115962B1DFA060A9307D52B683B
:10143000002B02DA2D225B4215920122D1E117F036
:10144000400F2B6818BF1BB2F2E701B115960735A4
:101450004FF0FF3225F00703B3EC027BB0EE478A72
:10146000F0EE678A0A93B0EE479A18EE903A23F0AE
:10147000004309EE903AA54B51EC190B46F010FFD2
:10148000F0B94FF0FF32A14B51EC190B41F0F6FBD4
:10149000B0B90022002351EC180B41F0E5FB08B174
:1014A0002D2315939A4B9B48099A27F080074FF0FC
:1014B00000080324472A94BF9A4682464646D1E351
:1014C00053EC182B51EC180B46F0EAFE40B118EE25
:1014D000903A9148002BBCBF2D2315938F4BE3E727
:1014E000631C00F00D81099B23F02003472B02D1E0
:1014F000002C08BF012447F480730DF1A80818AE32
:1015000017AD0E9328235846CDF81880079319ABD2
:1015100003960593099B029504930E9BCDE9004326
:1015200053EC182B6CF031F94045824640F0EA80CC
:101530001999282940F3E6808900584642F00EFCAC
:10154000804600283FF447AF199B0295CDE906037A
:1015500019AB58460593099BCDE903630E9BCDE972
:10156000004353EC182B6CF010F98246099B189D30
:1015700023F02003472B40F0D580EE1C199B02DBA3
:10158000AC4280F2EB80099B023B09936B1E099AE7
:10159000002B18931C92BABFC5F101032D222B22F8
:1015A000092B1D9240F3D1802AA80A25024604384F
:1015B00093FBF5F405FB1431303142F8041C194655
:1015C00023466329F2DC3033A2F1080140F8043CE1
:1015D0001EA82AAB9942C0F0B3800DF1B304A41A3F
:1015E0000B3A24F00304934238BF00241EAB1C4482
:1015F0001CA8241AA3101193199B012B03EBA4041C
:1016000002DC17F0010501D001340025179E002EE1
:1016100000F07D812D230E9F00261593A6423346B0
:10162000B8BF23460E93159B13B10E9B01330E9347
:1016300017F0020312931EBF0E9B02330E9317F096
:101640008403139300F06581159B43B1042315AA0D
:10165000494658466BF074FF013000F06D81129BD3
:1016600043B108231AAA494658466BF069FF013076
:1016700000F06281139B802B13D10C9B0E9A9B1A56
:10168000002B10930DDD109B254A102B00F3698170
:101690009B00234A494658466BF052FF013000F048
:1016A0004B81361B002E0CDD102E1D4A00F3648189
:1016B000B3001B4A494658466BF042FF013000F028
:1016C0003B81F90500F16181A30052464946584625
:1016D0006BF036FF013000F02F817A0700F17F8236
:1016E0000E99DDE90C238A42ACBF9B185B180D9361
:1016F000B8F1000F56D04146584642F0E3FA51E0A7
:101700000624F8E64FF0000830E700BFFFFFEF7F48
:10171000F4AD070804AE070824AE070814AE0708A6
:1017200004AF0708099B662B7FF430AF07F0010375
:10173000002D43EA04030EDDFBB101342C4465E7C0
:1017400051F8044B40F8044B44E7302220AC1344DA
:101750001E921F934CE793B1023457E79D4205DB7D
:10176000FC070ED56C1C672309934FE7002DD4BFEF
:10177000C5F1020401241C44F5E72C4646E7012488
:1017800044E72C46EFE701B115962B1DF8060A93A6
:1017900003D52B680D9A1A6004E07906F9D52B68F9
:1017A0000D9A1A800A9D20E52A4617F0100152F87A
:1017B000043B0A9203D117F0400210D09BB20022E2
:1017C0000DE02A46782147F0020752F8043B0991C0
:1017D0000A923022CDE91A21A44A0F920222002156
:1017E0001591661C00F0188227F08001002B40F054
:1017F0001782002C00F08380012A40F0148260E000
:101800002B46002617F0100553F804AB15960A93E3
:101810002DD1621C14D022462946504626466BF034
:101820000FF808B1A0EB0A06272E0ED9711C5846F6
:10183000890042F093FA00283FF4CDAD804607E0DE
:1018400050466BF08FF90646EEE74FF000082AA8E5
:1018500034460023B34204D10026824640F8236078
:10186000DCE61AF8032040F823200133F2E7631C7A
:1018700011D02246314650466BF02FFB804600289F
:101880003FF41CAEA0EB0A084FEAA8084445A8BFE5
:101890004446B04612E650466BF08EFA0446F8E72E
:1018A0002A46FE0652F8043B0A9202D47D0600D571
:1018B0009BB2012293E701B115966D4B1FE5092BF1
:1018C00004D830330DF5A27A5193C3E10DF5A47A13
:1018D0000A25B3FBF5F005FB103230324AF8042D2F
:1018E0001A460346092AF4D8B4E103F00F020F9810
:1018F0001B0950F822204AF8042DF6D1AAE11AB9A2
:10190000F80701D53023DDE70DF5A47AA2E10E9F9B
:1019100084E60C9B0E9A9B1A002B10937FF794AED3
:10192000109B102B11DC9B00524A494658466BF025
:1019300007FE01307FF488AEB8F1000F3FF451ADDF
:101940004146584642F0BEF94BE54023494A4946D4
:1019500058466BF0F5FD0130EED0109B103B109314
:10196000DEE74023494658466BF0EAFD0130E3D0FC
:10197000109B103B109386E64023494658466BF077
:10198000DFFD0130D8D0103E8EE6099B652B40F27A
:10199000E4800022002351EC180B41F05BF958B3AE
:1019A0000423354A494658466BF0CAFD0130C3D07E
:1019B000DDE918239A4202DBFB077FF58EAE042394
:1019C00016AA494658466BF0BBFD0130B4D0199CAD
:1019D000013C002C7FF781AE284D102C02DCA300C7
:1019E000264A73E640232A46494658466BF0A8FD2E
:1019F0000130A1D0103CF0E7189B002B40DC042301
:101A00001D4A494658466BF09BFD013094D0DDE9F4
:101A10001832134307F0010213433FF45EAE042370
:101A200016AA494658466BF08BFD013084D0189CAD
:101A3000002C0CDA6442114D102C0BDCA3000F4A71
:101A4000494658466BF07CFD01303FF475AF199B59
:101A50009B003AE640232A46494658466BF070FD03
:101A600001303FF469AF103CE6E700BF78AE0708ED
:101A700034AE0708C4AE0708BCAE070804AF0708B9
:101A8000199C44F31D04AC42A8BF2C46002C1FDC5B
:101A9000002CACBF2E1B2E46002E0BDD724C102EE0
:101AA0001FDCB300704A494658466BF049FD0130CF
:101AB0003FF442AFAD00DDE918239A421CDA04235B
:101AC00016AA494658466BF03BFD013016D133E764
:101AD000A3005246494658466BF032FD0130D7D13B
:101AE0002AE740232246494658466BF029FD01303B
:101AF0003FF422AF103ED2E7FE07E0D4199BC5EBBE
:101B00008304A210189C1C1B9442A8BF1446002CEE
:101B100009DDA3000AEB0502494658466BF010FDAB
:101B200001303FF409AF002CDDE91835A5EB0305C2
:101B3000A8BF2D1B002D7FF7D0AD4B4C102D01DC25
:101B4000AB004DE740232246494658466BF0F8FC6F
:101B500001303FF4F1AE103DF0E7199B5246494683
:101B60005846012B4FF0040301DCFC071BD56BF03A
:101B7000E7FC01303FF4E0AE042316AA494658467C
:101B80006BF0DEFC01303FF4D7AE199C002200233D
:101B9000013C51EC180B41F05DF868B9A3000AF163
:101BA0000402494658466BF0CBFC01303FF4C4AE0A
:101BB000119B1CAA9B0089E5002CF9DD2A4D102CF5
:101BC00002DCA300284AECE740232A46494658464F
:101BD0006BF0B6FC01303FF4AFAE103CEFE70C9B6E
:101BE0000E9A9C1A002C7FF77BAD102C09DCA30009
:101BF0001E4A494658466BF0A3FC01307FF470AD95
:101C00009AE64023194A494658466BF099FC013040
:101C10003FF492AE103CE8E73946002B3FF4ECADC0
:101C2000012A3FF44CAE022A0DF5A47A3FF45DAED2
:101C300003F00702DB08504602F130024AF8042D97
:101C4000F6D1CD0706D5302A04D030234AF8043C1B
:101C5000A0F1080A52AB26460F464FF00008A3EB4E
:101C60000A04A4104546D9E404AF0708C4AE070827
:101C70002DE9F04F456A044610EE10AA2DED048BB5
:101C800093B057EC106BDDF88080BB46069109924B
:101C90000C9375B9102041F0DDFF0246606220B957
:101CA000A74BEA21A74841F065FAC0E90155056054
:101CB000C560636A196851B15A6801232046934090
:101CC0004A608B6045F0BCF9636A00221A603B1ED3
:101CD000ADBF0023012223F0004BC8F800309A4B1F
:101CE000B8BFC8F8002033EA0B031BD142F20F73D0
:101CF0000C9A1360CBF31303334300F08F85219BC1
:101D000063B9924B22E0924B01930833219A1360FE
:101D1000019813B0BDEC048BBDE8F08F8B4B0193A1
:101D20000333F3E7002200235046594640F092FF68
:101D300080464BEC19AB58B101230C9A1360219BE0
:101D4000002B00F0688583481860431E0193DFE78D
:101D5000CBF30A5510AA11A920464BEC10AB45F065
:101D6000B5FC08EE100A002D00F0828019EE903AC2
:101D70005646A5F2FF35CDF83880C3F3130343F080
:101D80007F5747F440170022734B3046394640F0E6
:101D900041FB65A3D3E9002340F0F4FC64A3D3E93D
:101DA000002340F039FB06460F46284640F080FCF1
:101DB00061A3D3E9002340F0E5FC02460B46304620
:101DC000394640F029FB06460F4640F075FF0022D9
:101DD000009000233046394640F046FF50B100984D
:101DE00040F066FC32463B4640F034FF10B9009BA1
:101DF000013B0093009B162B59D8009A574B03EBDD
:101E0000C20351EC190BD3E9002340F02DFF002849
:101E10004FD0009B013B009300230B93109B5D1B55
:101E20006B1E059349BFC5F10103002304930023F2
:101E300054BF04930593009B002B3CDB059B009A49
:101E400013440A92059300230793069B092B00F283
:101E50008980052BC5BF043B002501250693069B01
:101E6000023B032B00F28980DFE803F02E3B395A56
:101E7000DDE910531D4405F23243202BC6BFC3F1E8
:101E8000400305F21240C3F1200305F1FF35C5BF41
:101E90000BFA03F326FA00F006FA03F0184340F0B9
:101EA000F7FB01230646A1F1F8770E936BE70123B8
:101EB000B3E70B90B2E7049B009A9B1A049353423A
:101EC000079300230A93C0E700230893099B002B84
:101ED00056DC01231A46CDE9023309920CE00123B6
:101EE000F3E70023099A0893009B134402930133FC
:101EF000012B0393B8BF01230022606A42600422D1
:101F000002F1140641689E423ED9204645F058F839
:101F1000019000283CD1124B02464FF4D571C1E626
:101F20000123DFE7AFF3008061436F63A787D23FF0
:101F3000B3C8608B288AC63FFB799F501344D33FB8
:101F40009C9E070851AF07080000F07F4DAF0708BF
:101F500044AF0708CCDC06080000F83F98AC07083F
:101F600048AB070801250023089506934FF0FF337F
:101F70000022CDE902331223AFE701230893F5E7EE
:101F8000099BCDE90233B7E7013152004160B7E761
:101F9000636A019A1A60039B0E2B00F29D80002D4C
:101FA00000F09A80009B002B32DD03F00F03B64A4D
:101FB00002EBC303D3E90089009BD8054FEA23173E
:101FC00016D5B24B07F00F070325D3E9082351ECD0
:101FD000190B40F001FD82468B46AC4E57B9424684
:101FE0004B465046594640F0F7FC82468B4628E067
:101FF0000225F2E7F90708D5404649460135D6E9FA
:10200000002340F0BFFB804689467F100836E5E795
:1020100000F09B80009B02259C4F5E429A4B06F08D
:102020000F02361103EBC20351EC190BD3E9002365
:1020300040F0A8FB002382468B46002E7AD1002B6D
:10204000D3D10B9B002B00F082800022904B504696
:10205000594640F009FE002879D0039B002B76D02A
:10206000029B002B36DD009B5046594600225F1E26
:10207000884B40F087FB013582468B46029E2846FE
:10208000D04640F015FB52465B46D94640F07AFBFD
:102090000022814B40F0C0F98246A1F1507B002E16
:1020A00058D100227D4B4046494640F0B3F9524694
:1020B0005B468046894640F0F5FD002840F093825B
:1020C00052460BF100434046494640F0CDFD002802
:1020D00040F087825BEC19AB119B002BC0F248816A
:1020E000009A0E2A00F34481674B03EBC203D3E945
:1020F0000089099B002B80F2D580039B002B00F305
:10210000D18040F06D820022644B4046494640F049
:1021100039FB52465B4640F0BBFD039E3746002824
:1021200040F043823123019D05F8013B009B0133C0
:1021300000933EE2F20705D50135D7E9002340F0D0
:1021400021FB01237610083777E7022579E7009F06
:10215000039E94E701994C4B314403EBC6030D9168
:10216000089953E90223002943D000204C4940F04C
:1021700033FC52465B4640F04DF9019D82468B464A
:102180004946404640F098FD064640F091FA024626
:1021900030360B464046494640F03CF952465B46D5
:1021A00005F8016B8046894640F05EFD002863D14A
:1021B00042464B460020364940F02CF952465B46D9
:1021C00040F052FD002840F0B5800D9B9D4281D02B
:1021D0000022304B5046594640F0D4FA0022824645
:1021E0008B46404649462B4B40F0CCFA8046894608
:1021F000C6E75046594640F0C5FA0D9B82468B46CD
:10220000019D0F934946404640F056FD064640F07A
:102210004FFA02460B4640464946303640F0FAF83F
:102220000D9B05F8016B80469D4289464FF00002E8
:1022300024D11B4B5046594640F0EEF802460B465F
:102240004046494640F02EFD002873D152465B4679
:102250000020134940F0DEF802460B46404649464E
:1022600040F002FD00283FF435AF0F9D6B1E0F9329
:1022700015F8013C302BF8D0009749E0054B40F0B1
:1022800081FA80468946BDE798AC070870AC07081C
:102290000000F03F0000244000001C4000001440FB
:1022A0000000E03F56465F46019D42464B463046A1
:1022B000394640F091FB40F0FFFC824640F0F8F9CF
:1022C00042464B4640F05EFA024630460AF130067E
:1022D0000B46394640F09EF805F8016B019E024618
:1022E000039F0B46AE1BB74235D140F095F84246EE
:1022F0004B4606460F4640F0D5FCD0B942464B4609
:102300003046394640F0A6FC10B11AF0010F10D14A
:10231000204618EE101A44F093FE002300982B700C
:1023200001300C9B1860219B002B3FF4F1AC1D6029
:10233000EEE4009F2B461D4613F8012D392A06D1E5
:10234000019A9A42F7D13022019901370A701A781E
:1023500001321A7090E70022A44B40F013FA0022D9
:10236000002306460F4640F075FC00289DD0CFE7BD
:10237000089A002A00F0D580069A012A00F3B98055
:102380000E9A002A00F0B18003F23343079E049DA9
:10239000049A012120461A440492059A1A4405928F
:1023A00044F002FF0746002D0CDD059B002B09DDE4
:1023B000AB42049AA8BF2B46D21AED1A0492059A92
:1023C000D31A0593079B1BB3089B002B00F0AD802D
:1023D000002E13DD39463246204644F0A3FF18EEA6
:1023E000102A01460746204644F0F4FE804618EEC7
:1023F000101A204608EE108A44F022FE079B9A1B12
:1024000006D018EE101A204644F08CFF08EE100A91
:102410000121204644F0C8FE0A9B0646002B40F3EB
:1024200086801A460146204644F07CFF069B0646FD
:10243000012B7FDD4FF00008336906EB8303186939
:102440006AF076FFC0F12000059B184410F01F00D1
:1024500000F09180C0F12003042B40F38980C0F18B
:102460001C00049B054403440493059B034405930B
:10247000049B002B07DD18EE101A1A46204644F084
:10248000ABFF08EE100A059B002B05DD31461A460E
:10249000204644F0A1FF06460B9B002B6DD0314631
:1024A00018EE100A6AF093FF002866DA009B18EE17
:1024B000101A0A222046013B0093002344F0E2FD5B
:1024C000089B08EE100A002B00F0AF81002339466C
:1024D0000A22204644F0D6FD029B0746002B00F35B
:1024E0008D80069B022B50DC88E0109BC3F13603E5
:1024F0004CE7039B5E1E079BB342B7BF079B9E1B27
:102500000796F21ABFBF0A9B00269B180A93039BEB
:10251000002BB7BFDDE90323DDE903359D1A002356
:1025200036E7079E049D089F3DE7079A69E7069BEB
:10253000012B18DCBAF1000F15D1CBF3130393B9BB
:102540002BF000431B0D1B0583B1049B4FF00108CA
:1025500001330493059B013305930A9B002B7FF401
:102560006BAF012070E74FF00008F6E79846F4E7FC
:102570003FF47EAF18461C3073E7039B002B37DC1B
:10258000069B022B34DD039B0293029B6BB9314601
:102590000522204644F076FD0146064618EE100A54
:1025A0006AF015FF00283FF7BDAD099B019DDB4395
:1025B00000934FF000083146204644F041FD002FC3
:1025C0003FF4A6AEB8F1000F05D0B84503D04146A0
:1025D000204644F035FD3946204644F031FD97E66B
:1025E00000263746E1E7009737469BE50000244088
:1025F000089B002B00F0CA80039B0293002D05DD91
:1026000039462A46204644F0E7FE0746B8F1000F57
:102610005BD07968204644F0D3FC054628B9874B47
:10262000024640F2EA21FFF73DBB3A6907F10C018F
:102630000C30023292006AF021F90122294620462C
:1026400044F0CAFE019BB846074603F10109DDE9E3
:102650000123134405930AF001030493314618EE55
:10266000100A6BF003F94146029000F1300A18EEAF
:10267000100A09F1FF3B6AF0AAFE3A460390314680
:10268000204644F019FFC268054602BB014618EE19
:10269000100A6AF09CFE024629462046079244F042
:1026A000CFFC4D46DDE9063243EA0201049B0B43B1
:1026B0000FD1BAF1390F2AD0039B002B02DD029B08
:1026C00003F1310A8BF800A075E73846BAE701221A
:1026D000E2E7039B002B04DB06990B4304990B43B1
:1026E00022D1002AEEDD18EE101A0122204644F015
:1026F00073FE314608EE100A6AF069FE002803DC1A
:10270000E0D11AF0010FDDD0BAF1390FD7D139235A
:102710008BF800302B461D46013B15F8012C392A59
:1027200070D001321A7046E7002A07DDBAF1390F7E
:10273000EDD00AF101038BF800303CE7059B09F866
:1027400001AC994546D018EE101A00230A22204603
:1027500044F098FCB84508EE100A4FF000034FF023
:102760000A024146204606D144F08CFC80460746CA
:1027700009F1010972E744F085FC394680460023DF
:102780000A22204644F07EFC0746F1E7039B0293B1
:10279000019D314618EE100A6BF068F8019B00F1BC
:1027A000300A05F801ABEA1A029B934209DD18EEE4
:1027B000101A00230A22204644F064FC08EE100A96
:1027C000E7E7029B4FF00008002BCCBF1D46012518
:1027D000019B1D4418EE101A0122204644F0FCFD16
:1027E000314608EE100A6AF0F2FD002892DC02D1B0
:1027F0001AF0010F8ED12B461D4613F8012D302AF9
:10280000FAD0D8E6019A9A4285D1009B0133009311
:1028100031231370CFE60A4BFFF798BA219B002BA8
:102820007FF471AA074BFFF791BA029B002BAFDC34
:10283000069B022B3FF7A9AEAAE700BF48AB0708EB
:10284000CBDC060844AF070810B5054C237833B934
:10285000044B13B1044800E000BF0123237010BDF6
:10286000A057002000000000D0AF070808B5034BB8
:102870001BB10349034800E000BF08BD0000000091
:10288000A4570020D0AF0708A3F5803A704700BFD7
:10289000174B002B08BF134B9D46FFF7F5FF002198
:1028A0008B460F461348144A121A6AF00EF80E4B64
:1028B000002B00D098470D4B002B00D098470020EC
:1028C000002104000D000D48002802D00C4800E053
:1028D00000BF41F0DFF82000290045F0DDFD40F0A9
:1028E000CDFC00BF00000800000000000000000058
:1028F00000120020A81F0020F0910020000000001E
:102900000000000030B585B06C4684E80F00064A30
:1029100004AD234603CBAB42106051601C4602F16C
:102920000802F6D105B030BD288800201FB56C46DE
:1029300084E80F000122074B1A7000F04BF941F2B6
:1029400033614FF06DFB94E80F0004B0BDE8104018
:10295000FFF7D8BF28870020F0B52DED068B5F4B21
:102960009BB01E78002E00F0AC805D4CA368A2697D
:102970009A4200F0B18093ED028A9FED5AAA5A481C
:1029800093ED009AD3ED048AD3ED069A4EF02AFF18
:1029900028EE0A8AFCEEC87A17EE905A00F01AF96F
:1029A0000FA950F060F868EE8A7A0023FCEEE77A0F
:1029B000FCEEE99ABDEEC88ABCEEC99A9DF93C20AE
:1029C0000893CDE906520093484ACDED049ACDED27
:1029D000037A8DED028A8DED019AFE21444805951A
:1029E00041F09CFD2269A368403A93422CD04033C9
:1029F0008022A3603F4BC3F8A0200BAA17463E4B92
:102A000003F11005144618685968083303C4AB4233
:102A10002246F7D100F0DEF800214FF0A4FA044678
:102A2000032200214FF0ACFA022120464FF0C3FAF6
:102A3000204632494FF0C6FA90B1314D002C45D1B5
:102A40002B6801332B6035E0E0685EF0C1FD6369FF
:102A50001A1D5B68626103F50072E3602261C7E7DB
:102A600023486AF07FF8054658B120464FF0ACFA8B
:102A70000028E2D120461E49AAB24FF091FD00285D
:102A8000DBD12C2200210FA813AD69F01EFF97E8BF
:102A90000F0085E80F0041F23363ADF85E3000F0BF
:102AA00099F800232146CDE900330FAA1CF0C4FB9E
:102AB0000028C2D18022134B1348C3F8A0204EF047
:102AC00091FE30461BB0BDEC068BF0BD00232046C6
:102AD0002B604FF05FFDB3E70026F2E72887002068
:102AE000BC57002000007A44C8D90608F8D9060867
:102AF0002987002000D003502888002022DA060809
:102B0000E457002000E0035029DA0608F8B51B4C12
:102B1000204631F071FD1A4A1A4920465EF053FDF5
:102B20000023194C2020C4E90233C4E90433C4E96A
:102B30000633C4E908332360082363605EF04AFD6E
:102B400065680646013D6D0800EB850720604FF47F
:102B500000705EF03FFD00F50073C4E9070346F81E
:102B60002500E060A060A061676120462361676284
:102B7000034A0649BDE8F8405EF025BD38880020CC
:102B80005812002061480308BC570020F382040853
:102B90001FB5036804460391984780B1002384F869
:102BA0006A3004F144030093064A234603994FF028
:102BB00022FB00280CBF2420032004B010BD0D20F0
:102BC000FBE700BF558304080122014B1A707047D0
:102BD0003A880020014B1868704700BFB4580020A5
:102BE000022208B5084B5A6101F038FE074B5A68BB
:102BF00012B19A6A002AFAD102220121DA60044B4A
:102C00001970014B9A6108BD0060065000400650E3
:102C1000B01600201FB52022254B264CC3F8A0205B
:102C200000F004FA00F026FA45F01BFC01212068B0
:102C30004FF008FB28B16A211F4B204A204840F082
:102C400099FA012120684FF01DFF18B16B211D4B2F
:102C50001A4AF3E700F064FA41F2883003A908F059
:102C6000D5FE034630B9CDE90000174A039917484D
:102C700047F0FCFC0024164A234640F6C411CDE977
:102C80000044144808F0E0FE134B14481C70144B29
:102C90001C704EF0A7FD03F0F3FA8022044BC3F83A
:102CA000A020202203F58053C3F8A02004B010BD5B
:102CB00000D00350B45800204ADA06087CDA06082F
:102CC0008CDA06089CDA0608C92B0008B8580020E0
:102CD000312E00089458002039880020D1DA0608E7
:102CE0003A88002030B5364C8DB020684FF07EFD1C
:102CF0002068344C0AF052FF45F0B4FB237863B1EE
:102D00000023314931482370FFF742FF30484EF02D
:102D100069FD80222F4BC3F8A0202F4D2B78CBB913
:102D20002A480DF1030201A98DF8033045F07AFB22
:102D3000002842D09DF80330EBB928484EF052FDF0
:102D400001232370234B2022C3F8A020244B802290
:102D5000C3F8A02040221F4BC3F8A020214B1A78B3
:102D60000AB100221A70FFF7F7FD40221C4BC3F88E
:102D7000A0200DB030BD1C484EF034FD1B49019B16
:102D80000C4603F11202223352F8040B9A4241F826
:102D9000040BF9D12822154802A94FF0B6FA1448BD
:102DA00002A94EF01FFD012320682B706168E368C3
:102DB000A268FFF7BBFD0A4BC5E70E4BC7E700BF94
:102DC000B45800203A880020FBDA0608E8570020B3
:102DD0001CDB060800D00350398800203ADB0608C7
:102DE00000E00350B016002058DB06083B880020A6
:102DF00075DB060800F0035008B54FF018FA054BD4
:102E0000186030B94FF49371034B044A044840F002
:102E1000B1F908BDB45800209FDB0608A9DB0608FD
:102E20008CDA0608014B186816F0A8BCB4580020CC
:102E3000624B2DE9F0471B78002B00F0BD80604904
:102E4000604C01F1100045F0FBFA032806D122691D
:102E5000A368403A93421ED04033A360226AA3691C
:102E6000403A93424FF0000621D000221E601A71B2
:102E70009E601A731E611A759E611A771E6283F82E
:102E800024209E6283F82C204033A3614E48BDE885
:102E9000F0474EF0A7BCE0685EF09AFB63691A1D2C
:102EA0005B68626103F50072E3602261D5E7444923
:102EB00001F1100045F0C4FA6FF07E43984202D150
:102EC000424863F05DFF626A20686368111AA3EBF1
:102ED000A101012925D86169A2EB01084FEAA807E1
:102EE000BD1CB3EB450F42D95D1B6D0800EB85059A
:102EF000131DA942A3EB010232D9994202D0284600
:102F000069F0C9FC2B686561E36003F50073236118
:102F100005EB0803636255F80830E36103F50073BD
:102F200023624FF40070656A5EF054FB0022686013
:102F3000A3691A711A731A751A771E609E601E6152
:102F40009E611E6283F8242083F82C209E62636AAF
:102F50001A1D5B68626203F50072E361226294E706
:102F60009942CFD008F10400801A2844C8E703F141
:102F70000209012B2CBF994409F10109B9F1005F45
:102F800001D363F0F4FE4FEA89005EF023FB626A2E
:102F90006169A9EB050504326D089142824600EB98
:102FA000850503D02846521A69F075FC20685EF04A
:102FB0000FFBC4E900A9A5E7BDE8F0873988002028
:102FC000C4570020BC570020F6DB0608C6DB060805
:102FD00010B5084C204631F00FFB2046064A074941
:102FE0005EF0F1FABDE81040042305491A46054891
:102FF00045F0B5B94B8800205812002061480308FD
:10300000D52B0008E857002010B5054C204631F0BC
:10301000F3FA2046BDE81040024A03495EF0D3BAF5
:103020004C880020581200206148030810B50F4852
:103030004EF0D8FBFFF7CEFD4FF4FA614FF0E7F901
:10304000044638B9FFF7C6FD4FF000014FF019FCF8
:10305000044648B120464FF0E8F82146BDE810404C
:10306000024603484EF0BEBB10BD00BF26DC06087A
:103070004BDC060870B5A4B07822002106A869F0E0
:1030800024FC224B224A1C936B461068516802AC08
:1030900003C36B46224603CB1E4BCDF85900CDF837
:1030A0005D1003F11006254618685968083303C5FA
:1030B000B3422C46F7D10FCA0EAC84E80F00BDF81E
:1030C0008C30154843F4CA7343F00103ADF88C30DB
:1030D00069F048FD1049024612A869F0CFFB9DF83F
:1030E0008C3043F008038DF88C30FFF773FD06A990
:1030F0004FF001F8044630B14FF097F821460246F0
:1031000006484EF06FFB24B070BD00BFADDE0F006F
:10311000A9DC0608B2DC0608B116002080DC06082F
:1031200030B58BB0FFF756FD0DF106014FF024FBD3
:103130000446224DFFF74EFD29464FF0F3FA2B6867
:1031400023602B792371FFF745FD4FF0EFFAFFF76E
:1031500041FD4FF01DFB48F29A230446184A0382B2
:103160002021012302A841F0D9F920460DF10601E2
:103170004FF02FFBBDF8062002A969F07FFB204627
:103180000DF106014FF021FBBDF806200D4969F055
:1031900075FBFFF71FFD21464FF0D0FA044628B11A
:1031A000A821094B094A0A483FF0E4FFFFF712FD46
:1031B000224621464FF080FA0BB030BDC3DC060832
:1031C000CDDC0608D6DC0608DFDC0608F6DC0608DF
:1031D00008DD06081FB50C214FF4F06002F06CF911
:1031E00001213D2001F0B8FD01213C2001F0B4FD9A
:1031F0000C4A01AB07CA83E8070040F201121846E7
:10320000ADF80C2001F0D4FA0222074B9A614FF47A
:103210000032064B1A60012001F0FEFA05B05DF89D
:1032200004FB00BF1CDD06080050065000E100E072
:1032300010B5274C01F0D4FF02F01CF9236F23F0E6
:10324000070343F00303236745F03DFB214B0020B8
:103250009B6ADB015EBF4FF480321F4B9A62D4F849
:10326000203123F0070343F00203C4F82031D4F8DF
:10327000283123F0070343F00203C4F82831D4F8BF
:10328000403123F0030343F00103C4F84031D4F884
:10329000603123F0030343F00103C4F86031D4F834
:1032A000403223F0030343F00103C4F84032D4F862
:1032B000003223F0070343F00103C4F80032D4F8CE
:1032C000083223F0070343F00103C4F8083210BDAD
:1032D000008000500040005A0060005A08B53A20B3
:1032E000012101F039FDBDE80840014800F028B98E
:1032F0005C12002018B1034B186000207047252095
:10330000704700BF3859002010B5054C05492068AA
:1033100001F050F82068BDE81040FFF7EBBF00BF98
:10332000941200207012002008B500F02DF8124B06
:1033300012498B4212D30020114B12498B4218D3F1
:10334000FFF7A6FA186850F82240586840F8224063
:10335000013298688242F5D30C33EAE70022F8E79D
:103360001C6844F8220001325C68A242F8D308339A
:10337000E4E70022F8E700BFD8AF0708E4AF07088A
:10338000E4AF0708E4AF07084FF480414FF0FF3087
:10339000114B124A10B59A60D3F8882042F470029B
:1033A000C3F888200E4A91660E4901F50052106656
:1033B0000D4850660220C3F8D000BFF34F8FBFF313
:1033C0006F8F01244FF440330848C0F88041D36028
:1033D00004600B6110BD00BF00ED00E000000008BC
:1033E0000090005000800044F7FF370000E100E04B
:1033F000014B1868704700BF9C130020084B1B6FDF
:1034000003F00703022B04D0032B05D0012B05D0BA
:10341000FEE7044B18687047034BFBE7034870470F
:10342000008000509C130020A0130020002D3101CB
:1034300008B5FFF7E3FF054B1B6FC3F303330133FD
:10344000B0FBF3F0024B186008BD00BF00800050D5
:10345000981300200048704700B4C404014B18685A
:10346000704700BFA0130020054B1860054B1B6F71
:1034700003F00703032B01D1FFF7DABF704700BF4A
:10348000A01300200080005000487047002D31013B
:103490004FF0B4439868C0F304400C2822D8DFE80A
:1034A00000F0092121212121071719211B1D1F00CF
:1034B0000F4870479B6803F04073B3F1807F13D0CF
:1034C000B3F1007F12D00B4A002B08BF10467047A3
:1034D00009487047094870470948704709487047CC
:1034E00009487047002070470848704708487047EF
:1034F000405DC60000093D000024F400C0EA21013F
:1035000080BA8C010048E801005A620280841E00E3
:1035100040420F00014B1868704700BFA413002001
:1035200005490A681318054883428CBF4FF0FF32E3
:103530000B601046704700BFA81300200000042055
:103540002DE9FF4103680446B3F1B64F04D0354A74
:10355000934251D12F2000E02E20012101F0FCFBED
:1035600001230A226179207902F098FC01230A22C2
:10357000E179A07902F092FC0A2701262A4D4FF04A
:1035800030082279637908FB025206FA03F302F548
:1035900001521360642008F0BFFC2379627908FBB4
:1035A000035306FA02F203F5825364201A6008F00E
:1035B000B3FC013FE3D12068B0F1B64F1FD1032324
:1035C000C5F8E8346279237943EA0243C5F8EC345C
:1035D000E279A37943EA0243C5F8F03440F20113DB
:1035E000ADF80030E36869460293A3680193237C39
:1035F0008DF80C3002F0CEFC04B0BDE8F081094B30
:103600009842EBD10323C5F8F8346279237943EA71
:103610000243C5F8FC34E279A37943EA0243C5F8D2
:103620000035DBE70080065000C003502DE9F04F65
:103630009A46564B85B01B7806460F461546DDF870
:103640003C909DF844B0DDF85080002B00F08D8058
:10365000072A00F28C800E9B002B00F08880B9F1C5
:10366000000F00F08480129BB3F5006F7FDC01280F
:1036700002D1109B002B7AD0454B03EB05131B7B2B
:10368000002B76D0434C10220021684669F01DF9CA
:1036900004EB45141022002F59D13946204669F019
:1036A00014F943F210036380BBF1000F03D1E378F8
:1036B00043F00303E370374A0E9B02EB451CCCE951
:1036C0000193129B6901013BC3F30A009DF84C3042
:1036D000012E03F003034FEA836343EA001E5358AD
:1036E0002D48CDF800A000EA03004EEA0003535035
:1036F00041D113230CF1100ECCF80C309CE80F00D4
:103700008EE80F006FF00301DCF81C20109B61F3C2
:103710009F02012FCCF81C20CCF8143003D1CCF838
:103720001890CCF804300027194A290102EB051340
:1037300042F80180159A28465A60694622469F60E1
:103740005E7302F089FC384605B0BDE8F08F0021B9
:10375000204669F0BAF84FF444736380BBF1000F60
:10376000A9D1E37843F03003A4E70C48ECE70C4818
:10377000EAE70C48E8E7B8F1000FD4D19CF8023032
:1037800068F304138CF80230CDE700BF4D880020A9
:103790003C590020BC5900200F80FFF3028000F04C
:1037A000018000F0078000F038B5124B05461B7809
:1037B000DBB1E0B145F0ABF80F4A00231146147BB2
:1037C00054B92B6001251A0101EB03131D738C50B2
:1037D00045F0A3F8204638BD0133082B02F1100252
:1037E000EDD145F09AF80548F5E70548F3E70548B7
:1037F000F1E700BF4D8800203C590020048000F014
:10380000028000F0018000F0154B13B5186800230A
:1038100001908DF8043045F07AF8124B1C7824B1F1
:1038200045F07BF8104802B010BD01221A7045F037
:1038300074F80E4B01A81C731C7783F82C4083F896
:103840003C4083F84C4083F85C4083F86C4083F83C
:103850007C4008238DF8073002F0CCFB2046E2E7DD
:1038600028DD06084D880020038000F03C59002028
:103870000A4A08B512785AB107280BD8084A02EB51
:1038800000131B7B43B1002102F0A6FB002008BD02
:103890000448FCE70448FAE70448F8E74D880020AC
:1038A0003C590020028000F0018000F0078000F009
:1038B0000A4A08B512785AB107280BD8084A02EB11
:1038C00000131B7B43B1012102F086FB002008BDE1
:1038D0000448FCE70448FAE70448F8E74D8800206C
:1038E0003C590020028000F0018000F0078000F0C9
:1038F0000A4A08B5127852B107280AD8084A02EBDA
:1039000000131B7B3BB102F0F5FB002008BD05480E
:10391000FCE70548FAE70548F8E700BF4D880020B6
:103920003C590020028000F0018000F0078000F088
:103930000D4B1B7893B1072812D889B10B4B03EBC1
:1039400000131B7B73B10A4BDA6A012303FA00F000
:1039500010401ABF00200B70087070470548704770
:1039600005487047054870474D8800203C590020A5
:1039700000000450028000F0018000F0078000F099
:103980000B4A10B512780C4662B107280CD859B111
:10399000084A02EB00131B7B43B102F0BDFB206021
:1039A000002010BD0448FCE70448FAE70448F8E7A3
:1039B0004D8800203C590020028000F0018000F07A
:1039C000078000F02DE9F843174B1F6D5B6D1F401A
:1039D00000D5FEE701260025144CDFF85480DFF8FF
:1039E0005490374217D02368C8F850609BB1A16843
:1039F000284601316268A1609847637B012B0AD198
:103A000048B909EB45131A7B60F341021A731A7F18
:103A100060F341021A770135082D4FEA460604F19A
:103A20001004DED1BDE8F883000004503C590020AA
:103A300000200450BC59002070B5044601250B4EEF
:103A400004B970BD94FAA4F0B0FA80F005FA00F35E
:103A500006EB001224EA03045368002BF0D0117B1C
:103A600011B191689847EBE79847E9E7BC5A002005
:103A700008B5192001F084FF28B14FF00072074B00
:103A8000C3F880211A601A2001F07AFF28B14FF0A4
:103A90008062024BC3F880211A6008BD00E100E09B
:103AA00038B505460C4644F032FF0022044B03EBC8
:103AB00005135C601A73BDE8384044F02EBF00BFA8
:103AC000BC5A0020074BD3F82404D3F8202403F574
:103AD0000053104000F0553020F05020C3F820046F
:103AE000FFF7AABF00C00350074BD3F82404D3F854
:103AF000202403F50053104000F0AA3020F0A0204D
:103B0000C3F82004FFF798BF00C00350024B1968A8
:103B1000024B186829F006B8B0130020AC1300203F
:103B200037B5920004460D46019269F045FF431CEB
:103B30000BD060B929462046019A68F08FFE002814
:103B4000044808BF002003B030BD0348FBE703482A
:103B5000F9E700BF10E000F021E000F024E000F001
:103B600010B5044669F020FF431C10D088B902F05C
:103B70008DFB234620F003002044984201D1002011
:103B800010BD53F8042B0132F7D00348F8E703487F
:103B9000F6E70348F4E700BF0EE000F021E000F094
:103BA00024E000F008B544F0A3FE014B186008BD06
:103BB000FC620020014B186844F09EBEFC620020AD
:103BC00038B141B1013AB2F5006F044838BF002066
:103BD0007047034870470148704700BF037000F00A
:103BE000027000F038B504460D4644F090FEA388FC
:103BF0009BB223B92B6044F090FE064838BD1422D6
:103C000063889BB202FB034408342C6044F085FEB9
:103C10000020F3E70B7000F0F8B5044616460F4697
:103C200044F075FEA388E2889BB29A42054605D807
:103C30000023336044F071FE1748F8BD1422238836
:103C400007F1100C9BB202FB03433A4608331746B8
:103C500003CF6745186059603A4603F10803F6D16F
:103C6000142238681860238828469BB202FB03435D
:103C7000083333602388E2889BB20133B3FBF2F14F
:103C800002FB11339BB22380A38801339BB2A38034
:103C900044F043FE0020D0E70A7000F090F8353081
:103CA000022B0DD114223023417F90F8210013FB09
:103CB0000123044A9B5823FA00F000F001007047EA
:103CC0000020704730C00350002313B51D4A52F83E
:103CD000044B94F8211081420ED00133042BF6D10D
:103CE00002B010BD0028FBD19DF80730002BF7D0A3
:103CF000A068FFF7BDFDF3E794F83530022BEFD154
:103D00002046FFF7CBFF637E2076022BE8D194F8A4
:103D1000323003F0FF02002BE2D1A0680DF1070161
:103D20008DF80720FFF704FE237E1BB194F8333093
:103D3000002BD7D00023A06884F83330FFF7B8FDFC
:103D4000CEE700BFB0630020104930B50B78104AB1
:103D50002BB9C2E90033C2E9023301230B700C4CCA
:103D60000023214651F8045B854208D00133042B1F
:103D7000F8D1002154F8043B1BB942F8210000207F
:103D800003E001310429F5D1024830BD4E880020FE
:103D9000B0630020027000F010B50446FFF734FD58
:103DA000002104F10800FFF7FFFC014620B904F1EF
:103DB0000C00FFF7F9FC00B1004810BD0E7000F0D8
:103DC00090F8363053B9042103790A4A03F23913C3
:103DD0005B01D150022203685A617047022B07D160
:103DE0000068816C11F0020118BF062144F0D8BDB3
:103DF000704700BF00C0035090F8363063B901220D
:103E000003685A619A69D207FCD504210379084AEC
:103E1000B9335B01D1507047022B07D10068836C26
:103E20009B074CBF0521092144F0BABD704700BF74
:103E300000C0035010B590F83630044663B9042230
:103E400003685A619A699207FCD523790C4AB93301
:103E50005B011021995010BD022BFCD10068836CCE
:103E6000DB074CBF0521062144F09AFD237941F27E
:103E700094425B0103F1A04303F57033E9E700BF0F
:103E800000C0035037B50446836B44F040FDA36B7C
:103E90000546013BA363A16B79B9019144F028FD6C
:103EA00004460199012007F031F80120064A0199E2
:103EB00007F034FA204644F01FFD284603B0BDE861
:103EC000304044F02ABD00BF50DD060813B591F81C
:103ED00036200B68022A0CBF9B6C9B690C469B0624
:103EE000084605D5FFF7CEFF0223E36502B010BDFB
:103EF00044F050FC00230146CDE90033034A234639
:103F000004F13C0046F0B2FBF0E700BFCD3E0008F4
:103F100070B5044644F0FBFCA36B054673B944F04E
:103F2000E7FC01210646084606F0F0FF0121074A9A
:103F3000084607F0F3F9304644F0DEFCA36B284650
:103F40000133A363BDE8704044F0E7BC50DD0608D0
:103F50007FB5012380F8303090F8363083B903689C
:103F600024330D4A04900392002202924A6801927F
:103F7000012200920A684169C06844F04CFB07E0E6
:103F8000022B02D103683C33EBE7002380F830308A
:103F900007B05DF804FB00BFED45000801232DE9E3
:103FA000F04180F8313090F8363004460E4688B043
:103FB00063BB05683C3544F0AAFC04F13C080746A5
:103FC0000DF11F01404607F08DFC40B99DF81F30F0
:103FD0002BB1404607F05EFC2046FFF753FF384602
:103FE000012744F09AFC2046E765FFF791FF0D4B4F
:103FF0002A4603930023029373682169CDE9007375
:10400000A0683368049444F0ECFA07E0022B02D174
:1040100005684435CFE7002380F8313008B0BDE8AB
:10402000F08100BF29400008F0B585B0D06A03A92F
:104030001446FFF7D7FD0646204644F0ABFB0025AB
:1040400001462346CDE90055164A04F13C0046F0EE
:104050000DFB154B9E421FD0039B1D619D6044F0DC
:1040600056FC039A0646D76827B1D2E900232946B1
:104070002046B847E06A03A944F0A3FBE06A8388BE
:104080009BB263B103A9FFF7ADFD20460399FFF78B
:1040900085FF304644F041FC012005B0F0BD84F8B6
:1040A0003130F6E7CD3E00080B7000F02DE9F3410A
:1040B0000D46044600287FD044F029FC012D064619
:1040C00041D1E36A9B889BB2002B43D0A068FFF7E5
:1040D0000FFC0023E06A84F8313083889BB273B10F
:1040E00001A9FFF77FFD0199A0680831FFF748FC9F
:1040F000374F019B1F61E06A83889BB283BB2046D8
:1041000044F082FB8304FAD5023D012D10D8E0680B
:10411000FFF7EEFB0023A06A84F8303083889BB25F
:104120006BBB94F83530032B02D02046FFF748FED6
:10413000A36B002B02DD2046FFF7A4FE304644F0BF
:10414000ECFB002009E0022D38D1A36A9B889BB2CA
:10415000002BDCD144F0E1FB1E4802B0BDE8F08149
:1041600001A944F02EFB019BD3F80C80B8F1000F9D
:10417000C1D00022394620469B68C047BBE769464C
:10418000FFF730FD0099E0680831FFF7F9FB104DAB
:10419000009B1D61A06A83889BB2002BC1D0694639
:1041A00044F00FFB009BDF68002FF3D0002229466C
:1041B00020469B68B847EDE70748CEE7032DA3D11B
:1041C000E36A9B889BB2002B80D1A36A7AE700BF89
:1041D000097000F0087000F0027000F0F8B50746B2
:1041E0000D461646FFF7ECFC00286BD1152001F0B8
:1041F000D5FB0446FA6A93889BB213B197F8323024
:10420000E3B197F83630F3B93B689C6904F00204D7
:104210001CB93846FFF70EFE0024012387F834301E
:1042200097F83630CBB92E44B542386810D183693F
:104230009A06FCD51CB300242046F8BD002CDAD029
:10424000FFF7C0FBD6E7022BE3D13B689C6CDDE7B0
:1042500015F8011B44F048FCE6E7022BEAD12E4496
:10426000B542386806D142F22003826C33EA02027A
:10427000FBD1DFE715F8011B44F097FBF0E797F857
:10428000363053B910213B790F4A03F239135B01E1
:10429000D15008223B685A61CEE7022BCCD1386856
:1042A000836CDB074CBF0921214644F079FB42F2C5
:1042B000944210213B795B0103F1A04303F5703375
:1042C0009950B9E70446B7E700C0035010B504465B
:1042D00080B190F832302BB9FFF7E0FC10B9A0683C
:1042E000FFF7C6FA002094F832300133DBB284F8CD
:1042F000323010BD0048FCE7027000F010B50446F3
:10430000A0B190F832309BB190F83230012B05D13A
:10431000FFF7C4FC10B9A068FFF7CAFA002094F8B0
:104320003230013BDBB284F8323010BD0148FCE78B
:104330000148FAE7027000F0057000F037B590F818
:1043400035500446022D1DD1012290F82230457EC1
:10435000817F9A403020164B25B900FB013303F5CD
:10436000015305E0012D07D100FB013303F5825312
:104370001A60002003B030BD247E00FB0133002C06
:10438000F4D1ECE7012DF4D1037E73B911238DF83C
:104390000730FFF79BFF2A4620460DF10701FFF784
:1043A0001DFF2046FFF7AAFFE3E71323EFE700BF57
:1043B00000C003502DE9F04304466F4F89B001AEB1
:1043C0000D460FCF0FC697E8070086E80700002CC0
:1043D00000F0D08025B9694E304609B0BDE8F083C1
:1043E00060220021204668F070FA2046FFF7ACFCFE
:1043F00006460028F0D14FF001092B7D84F83530B6
:104400002B6884F8360023602A7BC4F85C90227104
:104410005B4A9342DFD1292363624FF480235949D9
:104420008046C4E90413D5E90723A26210805080B6
:10443000908084F83000E3621880588098806B6820
:1044400084F831000393EB8984F83300ADF814301D
:104450002B8A4946ADF81230AB7C3A208DF81030EB
:10446000EB7C494F8DF8163005238DF8113000F0A4
:1044700073FC4946606A00F06FFC286801A98DF85A
:10448000046001F08FFF14212B7B03F139025201EC
:10449000B9502E7AA87A07EB431346EA0042C3F8D4
:1044A0003827697AEA7A41EA024CC3F830C7E676DF
:1044B000E077217784F820206B7D49466377AB7DD8
:1044C000204684F82130EB7DA3772B7E84F82230C0
:1044D00044F0F0F8064600287FF47EAF44F017FA67
:1044E0002B7D8146032B33D102212A7B02F1B903B4
:1044F0005B01F950042107EB421741F22C722B6843
:1045000003F58053D965297EEB7D43EA0143BB5017
:10451000AA7D6B7D43EA024341F22872BB504FF003
:10452000FF32286800F500539A642B7D032B0CBFE3
:104530000521042144F0C9FA4FF440622B6820465B
:104540005A61FFF729FC0646484644F0E6F943E77E
:10455000022BE4D194F821000C49FFF7A1FAFFF7F0
:1045600087FA4FF400732046238384F81A80FFF7FC
:10457000E5FED4E7064E2FE758DD0608037000F08D
:1045800000C005500200040000C00350C93C0008F0
:10459000027000F0F0B587B005461646FFF710FB35
:1045A0000446F0B90493104BCDE901166A46A86A97
:1045B00001A903960593FFF72FFB044688B995F8E8
:1045C000303073B92846FFF717FC28460099FFF7EB
:1045D000BFFC95F83530032B03D028462C76FFF727
:1045E000ADFE204607B0F0BD017000F073B5906AD3
:1045F00001A91446FFF7F6FA384B984231D094F8E7
:104600003600019B00283AD12268916C11F40071A8
:104610002AD03349986019614FF4007302F50052B3
:10462000936444F074F901990646CD6835B14A683F
:104630008B682046D31A0A680969A847A06A01A9AD
:1046400044F0BFF8A06A8588ADB2002D37D001A92B
:10465000FFF7C8FA20460199FFF77AFC304644F08C
:104660005CF9012002B070BD906CC50523D51D48D2
:104670009960186102F500524FF48073D0E7022868
:1046800019D12268D16C11F4007109D0144902F5D6
:1046900000521961002199604FF40073D364C0E7A0
:1046A000D06CC00507D50F489960186102F500521B
:1046B0004FF48073F2E700221A619A60B1E7012398
:1046C00020462376FFF73AFE94F8353084F83050D0
:1046D000032BC3D02046FFF773FBBFE70B7000F03E
:1046E0000D7000F00C7000F0F0B587B0044616466F
:1046F000FFF766FA054658BB0493194BCDE901163E
:10470000059394F8363003962BBB23689B6903F01E
:10471000020313B92046FFF78DFB6A46E06A01A940
:10472000FFF77AFA054698B994F8313083B944F026
:10473000EEF8E36A06469B889BB233B120460099A7
:10474000FFF72CFC012384F83430304644F0E5F8C0
:10475000284607B0F0BD022BDCD123689B6CD6E75E
:10476000017000F00B4B30B51B7883B101200023A2
:104770000546094951F8042B2AB192F85C40022CF5
:1047800004BF2046D5650133042BF3D130BD012091
:10479000FCE700BF4E880020B0630020034B5A683E
:1047A00012B19A6A002AFAD1704700BF0040065041
:1047B000426810B5B2FA82F2144CC2F11F0163686C
:1047C0000BB1FFF7EBFF0122114B5A60636813F046
:1047D0000203FBD1027A002A14BF0224002442788B
:1047E00042EA0112094922438A60427A0124002ADE
:1047F00018BF0223827A13434B62064B5C60037836
:1048000013B1FFF7CBFFCC6010BD00BF00400650D6
:10481000006006500050065008B50D4B5A6802B9AA
:1048200038B15B680BB1FFF7B9FF18B10122094B32
:104830005A6008BDFFF7B2FF02230549CB60FFF7BE
:10484000ADFF0122044B5A604B689B07FCD4F0E794
:1048500000400650005006500060065008B5FFF7B3
:104860009DFF02230449CB6000230B62FFF796FFF4
:104870000123CB6008BD00BF00400650044BD3F8B5
:104880008420D206FBD4D3F88400C0F38110704793
:104890000040005038B5104B0546D3F880300C4628
:1048A00003F00303022B0BD0032B0DD0012B0FD1F0
:1048B000FEF7A4FD0E2305B1286004B1236038BDC6
:1048C000FEF7E6FD0723F6E7FEF792FD0623F2E783
:1048D00000231846EFE700BF0080005038B5184BA2
:1048E0000546D3F820010C4600F00700062805D83D
:1048F000DFE800F0230B0F17131B1F0000231846DF
:1049000005B1286004B1236038BDFEF771FD0523B1
:10491000F6E7FEF7A3FD0323F2E7FEF7B9FD072351
:10492000EEE7FEF7B1FD0223EAE7FEF761FD06239D
:10493000E6E7FEF793FD0423E2E70123E0E700BF8B
:104940000080005038B5174B0546D3F828310C4687
:1049500003F00703013B052B20D8DFE803F0031326
:104960001B0F0B17FEF744FD052305B1286004B1AA
:10497000236038BDFEF73CFD0623F6E7FEF788FD11
:104980000723F2E7FEF76AFD0323EEE7FEF766FD75
:104990000423EAE7FEF778FD0223E6E70023184642
:1049A000E3E700BF0080005073B50D460021114BB6
:1049B0000191D3F88041064604F00304022C13D081
:1049C000032C0CD0012C13D101A8FFF787FF102472
:1049D0000EB1019B336005B12C6002B070BDFEF7D3
:1049E00057FD07240190F3E7FEF74EFD0190EFE736
:1049F0000C46EDE700800050002337B50193164BBD
:104A00000546D3F820320C4603F00703042B04D8E4
:104A1000DFE803F0200B11161B0000230DB1019AF3
:104A20002A6004B1236003B030BD002101A8FFF764
:104A300089FF1223F2E7FEF72BFD07230190EDE734
:104A400043F0B0FD0A230190E8E7FEF763FD092378
:104A50000190E3E70123E1E70080005038B5104BF7
:104A60000546D3F840310C4603F00303022B0BD06C
:104A7000032B0DD0012B0FD143F094FD0A2305B178
:104A8000286004B1236038BDFEF744FD0923F6E732
:104A900043F08BFD0C23F2E701230020EFE700BF7A
:104AA00000800050002337B50193164B0546D3F81C
:104AB00060320C4603F00703013B032B1FD8DFE8ED
:104AC00003F0020E1914002101A8FFF707FF1023BD
:104AD0000DB1019A2A6004B1236003B030BD0021FA
:104AE00001A8FFF7BBFF1123F2E7FEF7D1FC072374
:104AF0000190EDE7FEF7C8FC02230190E8E70023F0
:104B0000E6E700BF00800050002337B50193164B45
:104B10000546D3F894320C4603F00703013B032B00
:104B20001FD8DFE803F0020E1914002101A8FFF7D7
:104B3000D5FE10230DB1019A2A6004B1236003B0A1
:104B400030BD002101A8FFF789FF1123F2E7FEF72E
:104B50009FFC07230190EDE7FEF796FC02230190EE
:104B6000E8E70023E6E700BF0080005038B5144BAB
:104B70000546D3F800020C4600F00700042804D8CC
:104B8000DFE800F01B0A0E1216000023184605B1DC
:104B9000286004B1236038BD43F004FD0A23F6E722
:104BA000FEF7B8FC0923F2E743F0FFFC0C23EEE725
:104BB000FEF73EFC0F23800AE9E70123E7E700BF89
:104BC0000080005038B5144B0546D3F808020C4657
:104BD00000F00700042804D8DFE800F01B0A0E12DA
:104BE00016000023184605B1286004B1236038BDC3
:104BF00043F0D8FC0A23F6E7FEF78CFC0923F2E722
:104C000043F0D3FC0C23EEE7FEF712FC0F23800ADF
:104C1000E9E70123E7E700BF0080005038B5104BFB
:104C20000546D3F840320C4603F00303022B0BD0A9
:104C3000032B0DD0012B0FD143F0B4FC0A2305B197
:104C4000286004B1236038BDFEF764FC0923F6E751
:104C500043F0ABFC0C23F2E701230020EFE700BF99
:104C60000080005038B5104B0546D3F860310C4633
:104C700003F00303022B0BD0032B0DD0012B0FD11C
:104C800043F090FC0A2305B1286004B1236038BDCD
:104C9000FEF740FC0923F6E743F087FC0C23F2E71C
:104CA00001230020EFE700BF00800050B0F5207F17
:104CB0001FD009D8B0F5007F15D003D868B1B0F582
:104CC000C07F0AD000200CE0B0F5607FFAD10B4B1A
:104CD000D3F88000C0F3011003E0084B186FC0F355
:104CE000033001307047054BD3F89000C0F30460E7
:104CF000F7E7024B186FC0F38020F2E70080005006
:104D000002464FF48030104B10B598660020FFF734
:104D1000CDFF504341F671320C4BDC69DA635A68BF
:104D200004F4803422F4401259B9094988428CBFF6
:104D30004FF480100020104358600CB10022DA6359
:104D400010BD0449F2E700BF00900050000003507E
:104D5000005A6202002D3101430905D0012B0DD00C
:104D6000022B094B18BF002300F01F0041B103F5CF
:104D70008053012202FA00F018607047034BF3E7FA
:104D800003F50053F5E700BF6880005064800050D1
:104D90001FB5002180280446CDE9001100F0A58050
:104DA00035D85E2846D85E2844D8DFE800F0A24314
:104DB00043434343434343434343434343434343C3
:104DC0004343434343434343434343434343A2AAED
:104DD000A2AAB9B9B9B9B9AAC34DD9714DAAAAAA9B
:104DE0004343434343434343AAAAAA79E3AA434321
:104DF0004343434343434343434343B9A2A2A2DE55
:104E00004D4DE8885EBE434343434399A200B0F54D
:104E1000B06F00F08F802DD8B0F5207F71D00CD806
:104E2000B0F5C07F65D0B0F5007F65D0B0F5807F6C
:104E300000F08580009804B010BDB0F5607F6AD0A6
:104E40000DD8B0F5407FF5D1FEF7F2FA02464FF4E7
:104E50002070FFF72BFFB2FBF0F0400847E0B0F501
:104E6000806F5DD0B0F5A06FE4D100216846FFF7F8
:104E7000C3FDDFE7B0F5106F77D016D8B0F5E06F5F
:104E800078D00AD8B0F5C06F6AD0B0F5D06FD1D164
:104E900000216846FFF76AFECCE7B0F5F06FC9D194
:104EA00000216846FFF7DEFEC4E7B0F5406F3CD056
:104EB00013D8B0F5206F62D0B0F5286FBAD10021B9
:104EC000314B0391D3F8703203F00303012B02D16D
:104ED00003A8FFF7C3FD039B3BE0B0F5486FA9D1E2
:104EE00000216846FFF710FEA4E7FEF787FA00905E
:104EF000A0E7FEF79DFAFAE7FEF780FA02462046A1
:104F000004E0FEF795FA02464FF42070FFF7CEFE5C
:104F1000B2FBF0F0EBE701A8FFF7BCFC019AEEE76B
:104F200000216846FFF7DAFC84E700216846FFF7B6
:104F300009FD7FE700216846FFF736FD7AE74FF06D
:104F4000E02302911B695B0705D5FEF771FA029019
:104F5000029B00936EE703A902A8FFF77FFDF7E726
:104F600000216846FFF77AFD64E700216846FFF7F5
:104F700029FE5FE700216846FFF750FE5AE700214F
:104F80006846FFF78FFD55E70080005008B5802088
:104F9000FFF7FEFE034B98429EBF4FF48032024B58
:104FA0001A6708BD005A620200A000501FB5002316
:104FB000B0F5807F019300F0C38064D85D2855D898
:104FC0004C2807D82D2847D823282BD8019805B07E
:104FD0005DF804FB4D381028F8D801A353F820F0F1
:104FE00037510008CD4F0008CD4F0008CD4F0008C5
:104FF000E9500008CD4F0008CD4F0008BD51000812
:1050000007510008AD500008B3510008CD4F00080B
:10501000CD4F0008CD4F0008CD4F0008CD4F000800
:10502000C751000824380928D0D801A353F820F02C
:105030003751000837510008375100083751000830
:1050400037510008CD4F00082D510008CD4F000802
:10505000C95000086D5100083D2800F082803E28AC
:10506000B4D1002001A9FFF7D9FDAFE78028ADD169
:105070005A4B1B6F03F00703013B032BA6D8DFE855
:1050800003F05350878FB0F5F06F6AD021D8B0F598
:10509000B06F4BD00FD8B0F5607F00F0858095D30E
:1050A000B0F5806F47D0B0F5A06F8FD1002001A977
:1050B000FFF7A2FC8AE7B0F5D06F57D0B0F5E06FEC
:1050C000CFD0B0F5C06F81D1002001A9FFF7C6FC99
:1050D0007CE7B0F5206F71D00BD8B0F5086F4AD0DF
:1050E000B0F5106F7FF472AF002001A9FFF76AFDE1
:1050F0006CE7B0F5406F5CD0B0F5486F63D0B0F5A9
:10510000286F7FF463AF0021344B0391D3F87032E2
:1051100003F00303012B5BD0022B14BF0B461523B6
:1051200000E00523019351E70223FBE7002001A9DA
:10513000FFF73AFC4AE7002001A9FFF7CFFB45E75C
:1051400002934FF0E0231B695B0705D5FEF770F96A
:105150000D230393039BE5E703A902A8FFF77EFC59
:10516000F8E7002001A9FFF77DFD2FE7002001A946
:10517000FFF7FCFC2AE7194BD3F8003103F00303D7
:10518000022B07D0032B09D0012B0BD1FEF766F9B8
:105190000323C7E7FEF7BEF90923C3E743F000FA8C
:1051A0000823BFE70123BDE7184601A9FFF772FBFB
:1051B0000CE7002001A9FFF7C5FB07E7002001A9C4
:1051C000FFF770FC02E7002001A9FFF79DFCFDE658
:1051D00003A8FFF743FC1123A4E700BF00800050A1
:1051E0004FF48012034B5A664FF48032024B9A629E
:1051F000704700BF009000500050005A38B5044678
:105200008020FFF7D3FE032800F08A804FF480123D
:10521000544B4FF0A0615A6645F60E03524AC2F84D
:105220008030524B99624FF4803103F5805399627C
:10523000936DD903FCD4916D11F08041FBD1D4E979
:1052400000031B0543EA0063E07B0343207B43EA42
:105250000043607B43EA0033A07B43EA8013136181
:105260009069D4E904531B0643EA856300F00040CB
:105270000343A07EE57E0343207E43EA0043607E35
:1052800043EA00239361E069136A00280CBF0022FF
:10529000082223F00F0343EA000343EA850343EAAD
:1052A0000203314A324D13623BD194F82430916AA3
:1052B00094F82000DB000D4043EA401394F82110DD
:1052C0002B4343EA011343F480339362294B916DDE
:1052D00033EA0101FBD14FF08071244881621369E8
:1052E000A56823F4700343EA055313614FF00043AC
:1052F000836194F822300BB91F4B996294F82330E4
:105300003BB94FF480321C4B9A62174A936D5B0095
:10531000FCD494F825301BB1134B184AC3F88020F5
:1053200038BD022808D11161154891614FF4085227
:105330004FF47F4143F0A3FA0B4994F822308A6A74
:1053400094F820001B06154043EA401394F82420EB
:105350002B4343EAC20394F8232043EA02438B62BF
:10536000D7E700BF009000500040005A0050005A9C
:10537000C7FFFEFE030001000060005AF1A7FFFF17
:105380003440005A014B93F900007047C0160020CA
:10539000014B1880704700BF90160020B0F5207FA9
:1053A00010B50C4657D008D8B0F5007F48D003D8C8
:1053B00030B3B0F5C07F23D010BDB0F5607FFBD116
:1053C00029492A48D1F8FC2012F080721EBFD1F87A
:1053D000FC3023F08073C1F8FC30D0F88030611EBF
:1053E00023F0300444EA0114C0F88040002AE3D0DE
:1053F0001D4AD2F8FC3043F08073C2F8FC30DBE782
:1054000043F04EFA43F05AFA4FF48031184B174AE2
:105410001967136F611E23F4704444EA0134146762
:10542000FEF706F80446FFF729FAC0F1020120460C
:1054300043F03EFA00F02EF8BDE81040FFF7A6BD9D
:105440000A4A0139D2F8903023F0F85444EA016452
:10545000C2F89040B0E7054B013C196F21F4806120
:1054600041EA84241C67A7E700ED00E000800050BB
:105470000090005008B50121022000F003FB43F02A
:105480000FFA43F01BFA4FF48032014B1A6708BD44
:105490000090005008B54FF4C070FFF779FCBDE8EC
:1054A0000840044988428CBF022101214FF420703A
:1054B000FFF774BF80F0FA02B0F5807FF8B50C46B4
:1054C00000F052816BD85D285DD84C2804D82D2877
:1054D00044D8232828D8F8BD4D381028FBD801A37C
:1054E00053F820F049570008D7540008D754000853
:1054F000D75400083B560008D7540008D75400087A
:10550000FD58000873560008CB550008DD58000808
:10551000D7540008D7540008D7540008D7540008BF
:10552000D75400081D59000824380928D3D801A3EE
:1055300053F820F049570008495700084957000818
:105540004957000849570008D75400082957000850
:10555000D754000801560008175800083D2800F0ED
:105560004A813E28B7D1093C032C8CBF0021B24BA5
:10557000B24A98BF195DD2F8403223F003030B43BF
:10558000C2F84032A7E78028A5D18B1E062B00F277
:10559000C880DFE803F0C3B1C67EC6C6C000B0F560
:1055A000F06F00F028813BD8B0F5B06F00F0BC8000
:1055B0001BD8B0F5607F00F06B818CD3B0F5806FA5
:1055C00000F0C280B0F5A06F85D1073C0B2C8CBFDA
:1055D00000219B4B994A98BF195DD2F8203223F0E5
:1055E00007030B43C2F8203275E7B0F5D06F00F027
:1055F0001281B0F5E06FB6D0B0F5C06F7FF46BAF3D
:10560000093C032C8CBF00218E4B8C4A98BF195D3E
:10561000D2F8403123F003030B43C2F840315AE77C
:10562000B0F5206F00F06A8117D8B0F5086F00F070
:105630001F81B0F5106F7FF44EAF093C062C8CBF74
:105640000021814B7D4A98BF195DD2F8083223F0C2
:1056500007030B43C2F808323DE7B0F5406F00F096
:105660003D81B0F5486F00F05981B0F5286F7FF4A7
:1056700032AF112C00F06281152C14BF00210221E1
:105680006E4AD2F8703223F003030B43C2F8703233
:1056900021E7002502264FF480370121022000F087
:1056A000F1F943F0FDF843F009F9684B634A1F67CD
:1056B000136F23F0070333431367FDF7B9FE064664
:1056C000FFF7DCF8C0F10201304643F0F1F80121A8
:1056D000002000F017FAFFF7DDFEFFF757FC002D62
:1056E0007FF4F9AE032C7FF4F6AE594B594A9F6212
:1056F000936D5800FCD4EEE64FF48012534B0E46E7
:105700005A664FF48032534B9D6A03F58053C5F3BC
:1057100000659A62BFE700250426BCE70025012644
:10572000B9E700252E46B6E7023C0E2C8CBF0021BF
:10573000494B424A98BF195DD2F8803123F00303E8
:105740000B43C2F88031C6E6023C052C8CBF002119
:10575000424B3A4A98BF195DD2F8203123F0070333
:105760000B43C2F82031B6E6A1F10904082C3FF63C
:10577000B2AE01A353F824F09D5700089D570008CE
:10578000D75400089D570008CB570008D75400088D
:10579000D7540008D75400089D5700084FF48032B2
:1057A000264B2F49586E03F580535A664B6A43F0D7
:1057B00001034B62C1035CBF2A4B5A664FF0E022E3
:1057C000136923F00403136185E64FF480321B4B09
:1057D0002349586E03F580535A664B6A23F0010340
:1057E0004B62C3035CBF1F4B5A664FF0E022136944
:1057F00043F00403E7E7093C032C8CBF00211A4B5C
:105800000E4A98BF195DD2F8603123F003030B43B1
:10581000C2F860315FE6093C062C8CBF0021134BB7
:10582000064A98BF195DD2F8003223F007030B43F4
:10583000C2F800324FE600BF9ADD06080080005033
:10584000B5DD06089ADD06089EDD060800900050CA
:105850000060005A0040005AD1DD060894DD0608B9
:1058600000C0075000A000509ADD06089EDD060823
:10587000CC1E062C8CBF0021314B324A98BF195DDB
:10588000D2F8003123F003030B43C2F8003122E6C3
:105890002D49063CD1F8FC2012F080721EBFD1F8D1
:1058A000FC3023F08073C1F8FC30082C8CBF002042
:1058B000264B244998BF185DD1F8803023F00303AC
:1058C0000343C1F88030002A3FF405AE1E4AD2F8E7
:1058D000FC3043F08073C2F8FC30FCE5023C052C40
:1058E0008CBF00211A4B174A98BF195DD2F8283196
:1058F00023F007030B43C2F82831ECE5023C0F2CE0
:105900008CBF0021134B0F4A98BF195DD2F860324B
:1059100023F007030B43C2F86032DCE5023C0F2C96
:105920008CBF00210C4B074A98BF195DD2F8943206
:1059300023F007030B43C2F89432CCE501219FE624
:10594000A5DD06080080005000ED00E0ACDD060893
:1059500094DD0608C1DD0608C1DD06080028ABBFDE
:1059600000F16040054B00F5614000F00F00ACBF56
:1059700090F80003185C0009704700BF14ED00E0C8
:10598000054B420953F8223000F01F0023FA00F0C3
:10599000C04300F00100704700E100E0014608B597
:1059A000EFF31083DB0702D50122104608BDFFF795
:1059B000E7FF02460028F7D10846FFF7CFFF014670
:1059C000EFF3118313B1B0EB131FEDD2074B5B68FC
:1059D000C3F30803002BE8D0103B58B2FFF7BEFF1B
:1059E00088428CBF00220122DFE700BF00ED00E00B
:1059F000024A536B0342FCD1704700BF004009507C
:105A0000044A4178536F23F4407343EA01235367F8
:105A1000704700BF004000500A4A10B513690446A1
:105A200043F00403136105F045FD42F079FF30BFF8
:105A300042F077FF05F052FD1CB9BDE81040FDF7BC
:105A4000F7BC10BD00ED00E0084A10B5136904462C
:105A500043F00403136105F02DFD30BF05F03EFD5A
:105A60001CB9BDE81040FDF7E3BC10BD00ED00E03F
:105A7000034A0179D36E23F030030B43D36670479A
:105A800000400050F8B504461C4BD3F88420D106E2
:105A9000FBD4D3F88430C3F381139C422CD0FDF7A0
:105AA000ADFC012C064602D1214642F001FF42F036
:105AB0001FFF4FF00072124B07465A66204642F015
:105AC00033FF4FF480630D4D621E93402B676B6E66
:105AD0009A0103D4D5F884309B060AD5384642F0A3
