S01300006F646F7267756172642D73772E73333703
S3150800000000120020A9190008C5E30208C5E3020882
S3150800001047FA0208C5E30208C5E30208C5E3020871
S31508000020C5E30208C5E30208C5E30208C5E30208FA
S31508000030C5E30208C5E30208C5E30208C5E30208EA
S31508000040C5E30208C5E30208C5E30208C5E30208DA
S31508000050C5E30208C5E30208C5E30208C5E30208CA
S31508000060C5E30208C5E30208C5E30208C5E30208BA
S31508000070C5E30208C5E30208C5E30208C5E30208AA
S31508000080C5E30208C5E30208C5E30208C5E302089A
S31508000090C5E3020865200008C5E30208C5E30208AF
S315080000A0C5E302088921000865210008C5E302089E
S315080000B0C5E30208D13D0208C1470208551C0408D9
S315080000C0511C0408A93F0208611C0408591C0408AD
S315080000D0994702085D1C0408014802086548020899
S315080000E0C5E30208C5E30208C5E30208C5E302083A
S315080000F043FA0208C5E30208C5E30208C5E3020895
S31508000100C5E30208C5E30208C5E30208C5E3020819
S31508000110C5E30208C5E30208C5E30208C5E3020809
S31508000120C5E30208C5E30208C5E30208C5E30208F9
S31508000130C5E30208C5E30208C5E30208C5E30208E9
S31508000140C5E30208C5E30208C5E3020849FB02083D
S315080001508D240208C5E30208B3190408B91904086E
S31508000160C5E30208C5E30208C5E30208C5E30208B9
S31508000170013800D0FCE77047734B73B5198811F046
S31508000180010140F0DA8041F60B22704D704BA960F0
S31508000190C5E900316F4B19609A806F4B1B6ADB0704
S315080001A006D440F2B9316D4B6D4A6E482BF020F8F3
S315080001B028461CF0A9FF044620B940F2BD316A4B17
S315080001C0674AF2E71DF01AFF20B140F2C131674BCA
S315080001D0634AEAE74FF00111204641F0EEF820B1F4
S315080001E040F2C531614B5E4ADFE70221204640F006
S315080001F0CFFF20B14FF472715C4B594AD5E72046C0
S315080002005B491DF011FD20B140F2CB31574B544AE2
S31508000210CBE70121204641F0C8F920B14FF47471AB
S31508000220524B4F4AC1E70121204641F0CEF9064616
S3150800023020B140F2D3314D4B494AB6E701463C223C
S315080002404C4841F09DFD80233246204605F11001B9
S3150800025041F0BCF8802804D040F2DA31464B404AD7
S31508000260A3E7464D01201CF0A3FF35A3D3E90023DD
S315080002702C602046CDE900234FF0FF324FF0FF33C4
S3150800028040F0B8FF20B140F21731384B3C4A8CE7B2
S31508000290304808F001FF0121084608F06BFF0121EC
S315080002A0286840F01DFF044620B140F26E412F4BEE
S315080002B0344A7AE7344B354A98801A60344B354AC3
S315080002C098801A60344B354A98801A60344A6FF021
S315080002D063005A610CF0F0FD0B2008F097FE314BD5
S315080002E0186020B940F28C412F4B264A5DE704F08E
S315080002F019FE2146286840F0BAFF20B140F219419C
S315080003001A4B2A4A51E708222868114640F074FF1A
S31508000310044620B14FF49261254B1A4A45E709F085
S31508000320BBFF244B24481C70244B1C70244B1C70A8
S3150800033002B0BDE8704034F0FEB902B070BD00BF2F
S315080003400B6020FF22020000B6680020E45C002053
S3150800035039940008DC5C00200080E00FA62B040816
S315080003604C2D040801270408BF2B04086526040839
S315080003705C2E0408805D0020CE2B0408D85C002083
S315080003803F2D0408C82D0408281C0020726A002086
S31508000390001C0020F2690020501C0020F46A00208E
S315080003A0781C00207C5D0020062C0408052D040816
S315080003B0212C0408E7690020A52C0408F36A00200C
S315080003C0F26A0020000000002DE9F04F2DED028BA7
S315080003D04FF0000B99B0259D9146C5E900BBC5E9CC
S315080003E002BB85F839B0A5F83AB0A5F83CB085F84F
S315080003F03EB0D0F8D62AD0F8DACAD0F8DE7AD0F8E5
S31508000400E26A2A61EE61C5F814C0AF61D0F8E62A3F
S315080004101E462A62D0F8C23AD0F8CA7AD0F8CE2A4E
S31508000420D0F8C6CA2A63C5F828C0EF626B62D0F84E
S31508000430D23A00F6F80A6B6390F8EA3A044685F869
S315080004403830249B00F6C22783F800B0B0F85C3A2F
S31508000450059324F01BFFDAE9002352EA030104D0CE
S3150800046094F8BD1A002900F0FE8094F8EB3A93B38D
S3150800047094F8EA3A94F8ED2A013BDBB29A4204D1A1
S3150800048094F8BD3A022B00F059810022012194F814
S31508000490B83A85F83A3094F8B60AA34B85F83B0083
S315080004A094F8B70A19EB030346EB0202C5E90032D2
S315080004B085F83C0085F8391002222946204625F0A1
S315080004C0B1FA0423A4F85A3ACAE9009619B0BDEC61
S315080004D0028BBDE8F08F0DF13E070DF13D032A466C
S315080004E001212046009724F0D7FE9DF83D30BDF83F
S315080004F03E803BB194F8B83A85F83A3094F8B63A63
S3150800050085F83B302A460DF13D0302212046009727
S3150800051024F0C2FEBDF83E309DF83D20984528BF20
S3150800052098463AB194F8B73A85F83C3094F8B63A12
S3150800053085F83B302A460DF13D03032120460097F6
S3150800054024F0AAFEBDF83E309DF83D20984528BF08
S315080005509846002A40F0CE802A4604210DF13D0334
S315080005602046009724F098FEBDF83E30059943458D
S3150800057028BF4346994228BF19469DF83D208B4619
S31508000580002A40F0718104F51067B4F8B23AB4F85D
S315080005905E2AB3FBFBF10BFB1131ABEB010B1FFA28
S315080005A08BFB5B449BB2B3FBF2F102FB1133CAE946
S315080005B000969FED5B0BA4F8B23AA4F85ABAADF8C8
S315080005C03E2029F0E1FC51EC100B2AF063FC0B46A7
S315080005D04FF00008A0FB0B0103FB0B113B687A6880
S315080005E010EB090941EB0606B9EB0300C5E90096CD
S315080005F066EB020184F8BA8A2AF0F6FBDFED4B8A2D
S3150800060007EE900A9FED4A8AC7EEA87AF4EEC87AF2
S31508000610F1EE10FA1FD49FED477AF4EEC77AF1EEA1
S3150800062010FA18DCD4F80809D4F80C19B9EB00004C
S3150800063066EB01012AF0D8FB07EE900AC7EEA87A06
S31508000640F4EEC87AF1EE10FA4ABF662384F8BB8A3C
S3150800065084F8BB3A3AE7652384F8BB3A19B0BDEC8F
S31508000660028BBDE8F08FB9EB02010A914FF0000149
S31508000670B4F85A0A66EB03029FED290B0B92CDE9F3
S31508000680060129F081FC51EC100B2AF003FC8C467C
S31508000690069B0B9AA0FB03010CFB0311030943EA13
S315080006A0017302930A9BCDE91001C31A08934FEA16
S315080006B02113039361EB02030993DDE90823DDE9BE
S315080006C002BC93457CEB0303C0F265810A9B1B1AA7
S315080006D00C930B9B63EB01030D93DDE90C23DDE91A
S315080006E00201904271EB0303BFF6BFAE6423249A5E
S315080006F01370BAE64FF6FF720F4B94F8B61A5B7B87
S3150800070085F83B1004EB4303B3F8A0389342ADF8E1
S315080007103E303FF421AFAB6843F40053AB601BE7B0
S3150800072000000000D0126341C00E1602286B6E4E00
S315080007300000704200007043A88C040894F8EC3A54
S31508000740002B3FF4A2AE94F8BF3A94F8BE0A1844B8
S3150800075029F0DEFE41EC100B94F8C00A00F044FBC9
S3150800076094F8BE2A0130C3B29A4284F8C03ABFF45C
S315080007708CAE38687968BA68FB680DF14C0CE046AF
S31508000780ACE80F0038692F46CCF80000BDF84C00DD
S3150800079029F0AEFE02940D4604460DF15E0B38F8BC
S315080007A0020F29F0A5FE02460B462046294629F0E7
S315080007B063FDC34504460D46F1D12AF06BFB029C46
S315080007C03D4694F8BF7AA7FB002301FB07334FEA9F
S315080007D0C20CDF001CEB020C47EA527743EB070713
S315080007E04FEA8C01BF0047EA9C77B1EB020C67EB36
S315080007F0030E4FEA8E0747EA9C77BE4690484FEAB3
S315080008008C0CA2FB007800FB038817EB090348EB66
S315080008100602C5E90032294600222046CDE910CE57
S3150800082025F000F9DDE910780123002F84F8C03A95
S3150800083078F10003C0F2D7800A22002338464146E1
S315080008402AF010FB0A2205460023384641462AF0BC
S3150800085009FB002B08BF052A80F0E580A8B2A4F89A
S315080008605A0ACAE9009631E6012385F8393094F820
S31508000870B52A0DF13D0302F2375234F8121010AAC8
S31508000880A98194F8B70A13A985F83C0094F8B67AB2
S31508000890204685F83B7026F0B5F9DDED137AF5EEBE
S315080008A0407AF1EE10FA0ED194F8BA3A5BB994F898
S315080008B0B53A04F5106703F2335334F81330EB8175
S315080008C0C7E9009661E604F5106704F60818D7E943
S315080008D00023D8E90001824273EB010CCDE910230D
S315080008E003DA02460B46CDE91001B9EB020066EBC6
S315080008F003012AF079FADFED537A07EE100A87EE3C
S31508000900270AF1EE000A8DED130A2BF001FEF0EE30
S31508000910080AB0EE408A9DED130A2BF0F9FDDFEDCB
S315080009204A6ADFED4A7A9DED137A28EE268A20EE8A
S31508000930270ADFED476A67EE077A38EE008A67EE20
S31508000940A67ADFED446A78EE277A27EE267ADFED77
S31508000950426A77EE877A9FED417A77EEA67A67EE56
S31508000960877AF8FE677AFCEEE77A17EE902A94F80B
S31508000970BA3AEA8143BB00939FED390A4A463346A1
S315080009801621204626F04CF894F8BA3A002B97D050
S31508000990C8E90096F9E59FED280BDAE90067B4F88F
S315080009A05A8A29F0F1FA51EC100B2AF073FA6424EA
S315080009B0A0FB082301FB0833961947EB0303C5E997
S315080009C00063249B1C7081E50023B7EE000A0093A0
S315080009D04A4633461621204626F022F8AB6843F4E9
S315080009E00013AB60D0E7B8F1004F08BF002F1DD049
S315080009F07F4268EB48080A220023384641462AF017
S31508000A0031FA0D460290414638460A2200230395DC
S31508000A102AF028FADDE90201002B08BF052A08D2C8
S31508000A20404280B21BE7681C80B218E743F23330B5
S31508000A3015E7C04380B212E700000000D0126341F8
S31508000A40003B5808286B6E4E598207B0DFE0C23467
S31508000A503767D9B85A8E863C6A92E43E00007A44D3
S31508000A6000000000000000002DE9F04F2DED048B7A
S31508000A70044600200D46164698468DB01A9F0DF17D
S31508000A80080904F6782C04F6982A3870CE46DCF85D
S31508000A900000DCF80410DCF80820DCF80C300CF157
S31508000AA0100CD445AEE80F0009F11009EED1DCF8B8
S31508000AB00000BCF80430C9F80000A9F8043076BB79
S31508000AC00C2384F8EB6A3B70204602A924F012FC3A
S31508000AD0002840F0248197F90000002856DB0023FF
S31508000AE0B94EDFF8F89203E05D1C1A2D2B464DD05F
S31508000AF046FA03F2D507F7D513F809200CA901EB36
S31508000B00420002F23B5130F82A2C34F811005D1CE1
S31508000B109042E9B2E9D0204624F0A2FDE5E72B7918
S31508000B20013BDAB2012A40D900229FEDA88A9FED3F
S31508000B30A89ADFEDA88ADFF890B205EBC60684F816
S31508000B40EB2A0092CDF8048012E04BFA03F2D207A2
S31508000B5011D5012202FA03F3009A13EA020A00F0F9
S31508000B609380F3233B700835B54209D02B79013BB6
S31508000B70DBB2192BE9D90A230835B5423B70F5D102
S31508000B8097F90030DDF80480002B9DDA98F80030DC
S31508000B90072B22D8F1234FF0000E3B7088F800E0AF
S31508000BA00DB0BDEC048BBDE8F08FD5ED007AF5EEFF
S31508000BB0407AF1EE10FAB7D147F23053BDF8082063
S31508000BC09A4200F0ED80BDF80A209A4200F0E880CB
S31508000BD00B234FF0000E3B70E0E700259FED7B6A84
S31508000BE0AE46DFED7B5ADFF8F8A177497A4FDFF892
S31508000BF0ECC1DDF86CB002E00135182DCED001222B
S31508000C00AA4012EA0A0FF7D00EF1010E5FFA8EFE1D
S31508000C100EF1FF360BEBC606013586ED006A00239A
S31508000C204FF6FF7935710CE0484507D007EE900A74
S31508000C30F8EEE77A85EEA77A86ED007A01331A2B65
S31508000C40DBD041FA03F0C007F8D557F82300024273
S31508000C50F4D0D6ED007AF4EE467AF1EE10FA13F8EF
S31508000C600C0000F23B5034F81000DDD007EE100AF5
S31508000C70B8EEC77AC5EE876AF4EEE67AF1EE10FAB0
S31508000C8048BFC6ED006AD9E7D5ED007AF5EE407A99
S31508000C90F1EE10FA009A42EA0302009229D1F623ED
S31508000CA03B70D5ED007AF5EE407AF1EE10FAB0EE2B
S31508000CB0677A1ED1B5EEC07AF1EE10FA31DCB5EEE0
S31508000CC0407AF1EE10FA14BF4FF0FF3300231FFAF3
S31508000CD083F897F90030002B7FF445AF3F4A2B790C
S31508000CE0134413F8013C0CAA02EB430323F82A8C9D
S31508000CF039E7F4EE487AF1EE10FA4ED0B2EE047AFD
S31508000D00F4EEC77AF1EE10FA04DCF4EEE87AF1EEC6
S31508000D1010FA4DD5F2233B7095ED007ACAE7387084
S31508000D20DBE6B4EEC87AF1EE10FAC8D5C9EE077A52
S31508000D30F8FE677AFCEEE77A17EE903A1FFA83F820
S31508000D40264A2B79134413F8013C534403F2A7436C
S31508000D5034F813900AF1130A484629F0C9FB18A378
S31508000D60D3E9002329F03EFC41EC100B29F00CF9DD
S31508000D7051EC100B29F0F8FE80B2A9EB00039BB2E8
S31508000D80814443451FFA89F901D8C145A1D2BAF170
S31508000D90720FD5D1F4233B70E5E6B0EE677A8EE79D
S31508000DA094F9BB3A3BB901229E4684F8BA2AF5E67D
S31508000DB0B0EE677A7EE74FF0000E3B70EEE600BFB6
S31508000DC07B14AE47E17A843FEF79F20300FF7F4751
S31508000DD00000C8420E74DA3AC08C04085C8D040818
S31508000DE00F20E000000000002DE9F84F2DED028BE2
S31508000DF055EC104B074629F0C7F851EC100B29F0B3
S31508000E00B3FEC6B2304629F083FB22462B4629F0AC
S31508000E1051FE40B1BDEC028BB7FBF6F306FB13702F
S31508000E20C0B2BDE8F88F384629F062FB002241ECD3
S31508000E30180B00232046294629F03CFEB0BB45EC9A
S31508000E40104B2BF0FBF9204653EC102B294629F0C2
S31508000E5031FE58BB22462B4651EC180B29F0ECFC08
S31508000E6021F0004700221E4B3946064629F004FAAF
S31508000E7041EC100B2BF0E2F9304653EC102B3946B7
S31508000E8029F0F8F9002280468946164B304639463D
S31508000E9029F0A8FB29F0004B02460B464046594666
S31508000EA029F01CFE10B19FED0C0B07E0B0EE480AC6
S31508000EB0F0EE680A45EC114B2BF03CFA29F064F881
S31508000EC051EC100B29F050FEBDEC028BC0B2BDE808
S31508000ED0F88F00BFAFF3008000000000000000009C
S31508000EE00000E03F0000B03C2DE9F04F00224FF033
S31508000EF0090BDFED205A9FED206ADFED206AB1EE7F
S31508000F00047ADFED1F7A4FF0FF346FF00045DFF803
S31508000F1080A0DFF88090DFF88080DFF880E0DFF8D7
S31508000F2080C0184F184E1949C0ED015A80ED046A61
S31508000F30C0ED056A80ED067AC0ED097AC0E9164566
S31508000F4080F800B0C0F828A0C0F82C90C0F8388007
S31508000F50C0F83CE0C0F840C0C76406650166826018
S31508000F60C260C26102620263426342648264BDE88F
S31508000F70F08F00BF07F0963D1C7CE13D3480D73FDB
S31508000F80CDCC0C3E5DFEE33E363C85BF00004040BE
S31508000F9067D5273EE63F4CC091ED3CBFFB3A403F44
S31508000FA0B15083402DE9F04786B004AB05AE044640
S31508000FB00078CDE900360DF10F030D4628F0B4FF91
S31508000FC09DF90F00E0B94FF0010A04F1400904F158
S31508000FD02C0804F118075FFA8AF3013B032B24D87F
S31508000FE0DFE803F01D1711024A463146284626F067
S31508000FF06FF90AF1010ABAF1060FECD19DF90F0053
S3150800100006B0BDE8F08742463146284626F060F924
S31508001010EFE73A463146284626F05AF9E9E73146D7
S315080010202846221D26F054F9E3E73146284625F0DE
S31508001030DBFE84ED180ADCE72DE9F0432DED048B81
S3150800104083B0BDF840400546DDE90E89B4F5E16F89
S3150800105017461E46B0EE408AF0EE608A6BD028D955
S3150800106041F270739C422ED047F230539C4208BF1F
S31508001070012408D1D5E916014FF0FF326FF000437D
S3150800108029F02EF808B39FED309A4FF0FF326FF033
S3150800109000433846314629F023F808B9C5E91676DB
S315080010A038EE490A30EE680A03B0BDEC048BBDE899
S315080010B0F083642C05D0B4F5967F08BF0424D9D0F4
S315080010C0E1E70524D6E70224D4E7D5E91601B8EB0B
S315080010D0000069EB010129F057FA19A3D3E90023A7
S315080010E029F0AAFB0B460246CDE9002329F05CFD50
S315080010F0DDE9002305EB840407EE900AD4ED009A97
S3150800110094ED057A67EEA99A94ED0A9A104619465F
S3150800111027EE899A79EE879A29F064FA29F044FD30
S3150800112007EE900A94ED0F7A79EE277A77EE877AAA
S3150800113089EEA79AA9E790ED189AA6E7AFF300807B
S315080011400000000065CDCD41000000002DE9F04704
S31508001150052482B00746904600780DF103020D4635
S315080011608DF8034028F002FF9DF80360019036B31E
S31508001170012407F1400A07F12C09E3B2013B042BCD
S315080011800BD8DFE803F031102A230300414628462E
S3150800119097ED180A01AA25F03FFEA64204F10103BD
S315080011A00CD01C46E9E701AB4246294607F1180070
S315080011B025F0F0FFA64204F10103F2D10198C0F32D
S315080011C0072328706B7002B0BDE8F08742462946AF
S315080011D0504601AB25F0DEFFDFE742462946484682
S315080011E001AB25F0D7FFD8E74246294601AB381DA3
S315080011F025F0D0FFD1E700BF2DE9F043012485B0E3
S315080012008046914600780DF10B020E468DF80B408C
S3150800121028F0ACFE9DF80B50039035B1002403AFBF
S3150800122054B10134A542FBD10398C0F307233070AB
S31508001230737005B0BDE8F083D8E916014B4632460F
S31508001240009725F037FEECE770B586B004AB05AE1F
S3150800125004460078CDE900360DF10F030D4628F057
S3150800126063FE9DF90F0008B106B070BD31462846E9
S3150800127025F004FEC4E916019DF90F0006B070BDFD
S3150800128051EC100BF8B5C1F30A530C4610EE106A70
S31508001290A3F2FF35132D32DC002D1EDB364F2F410E
S315080012A001EA070303432FD031A3D3E9002328F02B
S315080012B0E3FF0022002329F025FC48B1002C04DDB9
S315080012C04FF4801343FA05F52C4424EA0704002654
S315080012D02346324643EC102BF8BD25A3D3E9002359
S315080012E028F0CAFF0022002329F00CFC0028EFD0C2
S315080012F0002C39DB264333D00026204CE8E7332D73
S3150800130005DDB5F5806F23D041EC100BF8BDA3F2CF
S3150800131013434FF0FF37DF400742F5D014A3D3E954
S31508001320002328F0A9FF0022002329F0EBFB002860
S31508001330CED0002C09DD142D14D00123C5F13405B7
S3150800134003FA05F5AE1928BFE41826EA0706BFE72B
S3150800135010EE102A0B4628F08FFF41EC100BF8BD53
S315080013603446B5E70134F0E700264FF00044AFE70E
S315080013709C7500883CE4377EFFFF0F000000F03FB5
S3150800138051EC100BF8B5C1F30A530C4610EE106A6F
S31508001390A3F2FF35132D30DC002D1EDB384F2F410D
S315080013A001EA070303432DD033A3D3E9002328F02A
S315080013B063FF0022002329F0A5FB48B1002C04DABC
S315080013C04FF4801343FA05F52C4424EA0704002653
S315080013D02346324643EC102BF8BD27A3D3E9002356
S315080013E028F04AFF0022002329F08CFB0028EFD0C2
S315080013F0002C29DB00263446EAE7332D05DDB5F552
S31508001400806F19D041EC100BF8BDA3F213434FF0CF
S31508001410FF37DF400742F5D017A3D3E9002328F0AA
S315080014202BFF0022002329F06DFB0028D0D0002CCA
S3150800143013DB26EA0706CBE710EE102A0B4628F040
S315080014401BFF41EC100BF8BD24F000430D4A334353
S315080014500026B34218BF1446BAE7142D08D0012354
S31508001460C5F1340503FA05F5AE1928BFE418E0E717
S315080014700134DEE7AFF300809C7500883CE4377ED4
S31508001480FFFF0F000000F0BF10B5054C237833B9F5
S31508001490044B13B1044800E000BF0123237010BDBC
S315080014A0F84F002000000000409B040808B5034BD5
S315080014B01BB10349034800E000BF08BD0000000057
S315080014C0FC4F0020409B0408A3F5803A704700BFF4
S315080014D0174B002B08BF134B9D46FFF7F5FF00215E
S315080014E08B460F461348144A121A40F049FC0E4B15
S315080014F0002B00D098470D4B002B00D098470020B2
S31508001500002104000D000D48002802D00C4800E018
S3150800151000BF29F0B9FE200029002CF0E5FE29F0CD
S315080015208DFE00BF0000080000000000000000005B
S3150800153000120020A81B00209C720020000000005A
S315080015400000000000B50B4B89B003930DF10703AB
S31508001550049301238DF8070006914FF0B64003A9BE
S31508001560ADF81430ADF81C2000F0A0FB09B05DF80A
S3150800157004FB00BFEC00040000B50B4B89B00393D5
S315080015800DF10703049301238DF8070006914FF028
S31508001590B64003A9ADF81430ADF81C2000F086FB60
S315080015A009B05DF804FB00BFEC000800014B1868A1
S315080015B0704700BF6450002008B532F022FF054B83
S315080015C0186028B95121044B044A054829F010FE31
S315080015D008BD00BF6450002080220408DE230408EA
S315080015E08A220408014B18680BF006BC64500020D8
S315080015F07FB5194B50220021184640F0C1FB174A07
S315080016000264174A4264174A8264192282732CF0CC
S31508001610C3FD28B18E21144B144A154829F0E8FD5C
S3150800162023F0DEF918B19021124B104AF5E7012193
S31508001630114B04AA029302A80DF107038DF80710AF
S315080016408DF80C1023F0DAF918B19B210B4B074AD9
S31508001650E3E707B05DF804FB1450002045150008C1
S3150800166079150008B989000898220408C8230408CF
S315080016708A220408B7220408C3F5A83ECE22040825
S3150800168010B5134CFFF7B4FF00F03EF800F060F811
S315080016902CF028FE0121206832F0BEFE28B18021F8
S315080016A00C4B0D4A0D4829F0A3FD0121206833F0A3
S315080016B08EFA18B181210A4B074AF3E7094B986C51
S315080016C0D96C02460B460849C1E9002310BD00BF84
S315080016D06450002061230408D52304088A220408DC
S315080016E0932304080080E00FA81B002010B5054CC2
S315080016F0206833F02AF9206808F048FEBDE8104053
S315080017002CF0F1BD6450002010B50F4832F089FB6B
S31508001710FFF74CFF4FF4FA6132F043FF044638B93D
S31508001720FFF744FF4FF0010133F05AF9044648B178
S31508001730204632F064FE2146BDE8104002460348C2
S3150800174032F06FBB10BD00BFF42304080924040857
S3150800175070B5A4B07022002108A840F011FB012240
S315080017600023CDE90623224B224A1C936B461068B8
S31508001770516802AC03C36B46224603CB1E4BCDF819
S315080017805900CDF85D1003F110062546186859680A
S31508001790083303C5B3422C46F7D10FCA0EAC84E80A
S315080017A00F00BDF88C30154843F4CA7343F00103A3
S315080017B0ADF88C3040F0ABFB1049024612A840F059
S315080017C0B8FA9DF88C3043F008038DF88C30FFF793
S315080017D0EDFE06A932F092FD044630B132F00FFE56
S315080017E021460246064832F01CFB24B070BD00BFF5
S315080017F022220F0057240408602404083E140020FF
S315080018002E2404081FB50C214FF4F06002F070F97D
S3150800181001213D2001F0D6FD01213C2001F0D2FD39
S31508001820074A01AB07CA83E8070040F201121846C7
S31508001830ADF80C2001F02CFB05B05DF804FB00BFE9
S315080018407424040810B5274C01F0F4FF02F02EF9B1
S31508001850236F23F0070343F0030323672CF035FFB8
S31508001860214B00209B6ADB015EBF4FF480321F4B81
S315080018709A62D4F8203123F0070343F00203C4F830
S315080018802031D4F8283123F0070343F00203C4F8C3
S315080018902831D4F8403123F0030343F00103C4F898
S315080018A04031D4F8603123F0030343F00103C4F850
S315080018B06031D4F8403223F0030343F00103C4F83F
S315080018C04032D4F8003223F0070343F00103C4F88A
S315080018D00032D4F8083223F0070343F00103C4F8B2
S315080018E0083210BD008000500040005A0060005ABF
S315080018F007B501A803F094F89DF80530012B14D11B
S315080019009DF804308BB94FF48012114B1149586E6B
S3150800191003F580535A664B6B23F0E05343F040635C
S315080019204B63C3025CBF0C4B5A6605F0F7FE05F025
S315080019308DFE2EF084F805F0B1FEFFF783FF05F063
S315080019409BFE00F033FC03B05DF804EB06F01EB90D
S31508001950008000500040005A00A0005008B53A2008
S31508001960012101F02FFDBDE80840014800F028B923
S315080019700012002018B1034B18600020704725207C
S31508001980704700BFC850002010B5054C05492068AF
S3150800199001F080F82068BDE81040FFF7EBBF00BFF4
S315080019A0381200201412002008B500F02DF8124B4A
S315080019B012498B4212D30020114B12498B4218D37D
S315080019C0FFF786FD186850F82240586840F822400C
S315080019D0013298688242F5D30C33EAE70022F8E729
S315080019E01C6844F8220001325C68A242F8D3083326
S315080019F0E4E70022F8E700BF489B0408549B040864
S31508001A00549B0408549B04084FF480414FF0FF3060
S31508001A10114B124A10B59A60D3F8882042F4700226
S31508001A20C3F888200E4A91660E4901F500521066E1
S31508001A300D4850660220C3F8D000BFF34F8FBFF39E
S31508001A406F8F01244FF440330848C0F88041D360B3
S31508001A5004600B6110BD00BF00ED00E00000000847
S31508001A600090005000800044F7FF370000E100E0D6
S31508001A70014B1868704700BF40130020084B1B6FC6
S31508001A8003F00703022B04D0032B05D0012B05D046
S31508001A90FEE7044B18687047034BFBE7034870479B
S31508001AA0008000504013002044130020002D31010F
S31508001AB008B5FFF7E3FF054B1B6FC3F30333013389
S31508001AC0B0FBF3F0024B186008BD00BF0080005061
S31508001AD03C1300200048704700B4C404014B186842
S31508001AE0704700BF44130020054B1860054B1B6F59
S31508001AF003F00703032B01D1FFF7DABF704700BFD6
S31508001B00441300200080005000487047002D310122
S31508001B104FF0B4439868C0F304400C2822D8DFE895
S31508001B2000F0092121212121071719211B1D1F005A
S31508001B300F4870479B6803F04073B3F1807F13D05A
S31508001B40B3F1007F12D00B4A002B08BF104670472E
S31508001B500948704709487047094870470948704757
S31508001B60094870470020704708487047084870477A
S31508001B70405DC60000093D000024F400C0EA2101CA
S31508001B8080BA8C010048E801005A620280841E006F
S31508001B9040420F00014B1868704700BF48130020E9
S31508001BA005490A681318054883428CBF4FF0FF326F
S31508001BB00B601046704700BF4C130020000004203D
S31508001BC02DE9FF4103680446B3F1B64F04D0354A00
S31508001BD0934251D12F2000E02E20012101F0F2FB83
S31508001BE001230A226179207902F048FC01230A229E
S31508001BF0E179A07902F042FC092701262A4D4FF027
S31508001C0030082279637908FB025206FA03F302F5D3
S31508001C1001521360642006F0CFFE2379627908FB2F
S31508001C20035306FA02F203F5825364201A6006F09B
S31508001C30C3FE013FE3D12068B0F1B64F1FD103239D
S31508001C40C5F8E8346279237943EA0243C5F8EC34E7
S31508001C50E279A37943EA0243C5F8F03440F2011366
S31508001C60ADF80030E36869460293A3680193237CC4
S31508001C708DF80C3002F07EFC04B0BDE8F081094B0B
S31508001C809842EBD10323C5F8F8346279237943EAFD
S31508001C900243C5F8FC34E279A37943EA0243C5F85E
S31508001CA00035DBE70080065000C0035038B505460E
S31508001CB002F08EFD044C012801D1013C00D138BD4B
S31508001CC0284602F079FCF6E7E19304002DE9F04F87
S31508001CD09A46564B85B01B7806460F461546DDF8DC
S31508001CE03C909DF844B0DDF85080002B00F08D80C4
S31508001CF0072A00F28C800E9B002B00F08880B9F131
S31508001D00000F00F08480129BB3F5006F7FDC01287A
S31508001D1002D1109B002B7AD0454B03EB05131B7B96
S31508001D20002B76D0434C10220021684640F028F854
S31508001D3004EB45141022002F59D13946204640F0AD
S31508001D401FF843F210036380BBF1000F03D1E37859
S31508001D5043F00303E370374A0E9B02EB451CCCE9BC
S31508001D600193129B6901013BC3F30A009DF84C30AD
S31508001D70012E03F003034FEA836343EA001E535818
S31508001D802D48CDF800A000EA03004EEA00035350A0
S31508001D9041D113230CF1100ECCF80C309CE80F003F
S31508001DA08EE80F006FF00301DCF81C20109B61F32E
S31508001DB09F02012FCCF81C20CCF8143003D1CCF8A4
S31508001DC01890CCF804300027194A290102EB0513AC
S31508001DD042F80180159A28465A60694622469F604D
S31508001DE05E7302F077FD384605B0BDE8F08F002136
S31508001DF020463FF0C5FF4FF444736380BBF1000FE4
S31508001E00A9D1E37843F03003A4E70C48ECE70C4883
S31508001E10EAE70C48E8E7B8F1000FD4D19CF802309D
S31508001E2068F304138CF80230CDE700BFB6690020CA
S31508001E30CC5000204C5100200F80FFF3028000F0A8
S31508001E40018000F0078000F038B5124B05461B7874
S31508001E50DBB1E0B12CF05DFC0F4A00231146147B80
S31508001E6054B92B6001251A0101EB03131D738C501D
S31508001E702CF055FC204638BD0133082B02F1100220
S31508001E80EDD12CF04CFC0548F5E70548F3E7054885
S31508001E90F1E700BFB6690020CC500020048000F0AE
S31508001EA0028000F0018000F0154B13B51868002376
S31508001EB001908DF804302CF02CFC124B1C7824B1C0
S31508001EC02CF02DFC104802B010BD01221A702CF01F
S31508001ED026FC0E4B01A81C731C7783F82C4083F84C
S31508001EE03C4083F84C4083F85C4083F86C4083F8A8
S31508001EF07C4008238DF8073002F0BAFC2046E2E75A
S31508001F0080240408B6690020038000F0CC50002025
S31508001F100A4A08B512785AB107280BD8084A02EBBC
S31508001F2000131B7B43B1002102F094FC002008BD7E
S31508001F300448FCE70448FAE70448F8E7B6690020CD
S31508001F40CC500020028000F0018000F0078000F0ED
S31508001F500A4A08B512785AB107280BD8084A02EB7C
S31508001F6000131B7B43B1012102F074FC002008BD5D
S31508001F700448FCE70448FAE70448F8E7B66900208D
S31508001F80CC500020028000F0018000F0078000F0AD
S31508001F900A4A08B5127852B107280AD8084A02EB45
S31508001FA000131B7B3BB102F0E3FC002008BD05488B
S31508001FB0FCE70548FAE70548F8E700BFB6690020D8
S31508001FC0CC500020028000F0018000F0078000F06D
S31508001FD00D4B1B7893B1072812D889B10B4B03EB2D
S31508001FE000131B7B73B10A4BDA6A012303FA00F06C
S31508001FF010401ABF00200B700870704705487047DC
S315080020000548704705487047B6690020CC5000203F
S3150800201000000450028000F0018000F0078000F004
S315080020200B4A10B512780C4662B107280CD859B17C
S31508002030084A02EB00131B7B43B102F0ABFC20609D
S31508002040002010BD0448FCE70448FAE70448F8E70E
S31508002050B6690020CC500020028000F0018000F014
S31508002060078000F02DE9F843174B1F6D5B6D1F4085
S3150800207000D5FEE701260025144CDFF85480DFF86A
S315080020805490374217D02368C8F850609BB1A168AE
S31508002090284601316268A1609847637B012B0AD103
S315080020A048B909EB45131A7B60F341021A731A7F84
S315080020B060F341021A770135082D4FEA460604F106
S315080020C01004DED1BDE8F88300000450CC5000208F
S315080020D0002004504C51002070B5044601250B4ED3
S315080020E004B970BD94FAA4F0B0FA80F005FA00F3CA
S315080020F006EB001224EA03045368002BF0D0117B88
S3150800210011B191689847EBE79847E9E74C520020E8
S3150800211008B5192001F04CFF28B14FF00072074BA3
S31508002120C3F880211A601A2001F042FF28B14FF047
S315080021308062024BC3F880211A6008BD00E100E006
S3150800214038B505460C462CF0E4FA0022044B03EB9E
S3150800215005135C601A73BDE838402CF0E0BA00BF7E
S315080021604C520020074BD3F82404D3F8202403F557
S315080021700053104000F0553020F05020C3F82004DA
S31508002180FFF7AABF00C00350074BD3F82404D3F8BF
S31508002190202403F50053104000F0AA3020F0A020B8
S315080021A0C3F82004FFF798BF00C00350024B196814
S315080021B0024B18681AF0B6BB5413002050130020BF
S315080021C037B5920004460D46019240F049F8431C83
S315080021D00BD060B929462046019A3FF09AFD00289F
S315080021E0044808BF002003B030BD0348FBE7034896
S315080021F0F9E700BF10E000F021E000F024E000F06D
S3150800220013B5044601A802F00BFC9DF8063001221E
S3150800221023804FF4807300206380054B9B680A3344
S3150800222003F01F0302FA03F3636002B010BD00BF98
S315080022300080E00F10B5044640F01AF8431C15D08C
S31508002240B0B90C4B20469B680A3303F01F020123E2
S31508002250934023F003032344984201D1002010BD84
S3150800226050F8042B0132F7D00348F8E70348F6E79D
S315080022700348F4E70080E00F0EE000F021E000F0EC
S3150800228024E000F008B52CF035FA014B186008BDBB
S315080022908C5A0020014B18682CF030BA8C5A002052
S315080022A038B141B1013AB2F5006F044838BF002091
S315080022B07047034870470148704700BF037000F035
S315080022C0027000F038B504460D462CF022FAA388B1
S315080022D09BB223B92B602CF022FA064838BD14228B
S315080022E063889BB202FB034408342C602CF017FA6F
S315080022F00020F3E70B7000F0F8B5044616460F46C3
S315080023002CF007FAA388E2889BB29A42054605D8BC
S31508002310002333602CF003FA1748F8BD14222388EB
S3150800232007F1100C9BB202FB03433A4608331746E3
S3150800233003CF6745186059603A4603F10803F6D19A
S31508002340142238681860238828469BB202FB034388
S31508002350083333602388E2889BB20133B3FBF2F17A
S3150800236002FB11339BB22380A38801339BB2A3805F
S315080023702CF0D5F90020D0E70A7000F090F8353037
S31508002380022B0DD114223023417F90F8210013FB34
S315080023900123044A9B5823FA00F000F00100704715
S315080023A00020704730C00350002313B51D4A52F869
S315080023B0044B94F8211081420ED00133042BF6D138
S315080023C002B010BD0028FBD19DF80730002BF7D0CE
S315080023D0A068FFF79DFDF3E794F83530022BEFD19F
S315080023E02046FFF7CBFF637E2076022BE8D194F8D0
S315080023F0323003F0FF02002BE2D1A0680DF107018D
S315080024008DF80720FFF7E4FD237E1BB194F83330DF
S31508002410002BD7D00023A06884F83330FFF798FD47
S31508002420CEE700BF405B0020104930B50B78104A54
S315080024302BB9C2E90033C2E9023301230B700C4CF5
S315080024400023214651F8045B854208D00133042B4A
S31508002450F8D1002154F8043B1BB942F821000020AA
S3150800246003E001310429F5D1024830BDB7690020DF
S31508002470405B0020027000F010B50446FFF714FD1B
S31508002480002104F10800FFF7DFFC014620B904F13A
S315080024900C00FFF7D9FC00B1004810BD0E7000F023
S315080024A090F8363053B9042103790A4A03F23913EE
S315080024B05B01D150022203685A617047022B07D18B
S315080024C00068816C11F0020118BF06212CF06AB968
S315080024D0704700BF00C0035090F8363063B9012238
S315080024E003685A619A69D207FCD504210379084A18
S315080024F0B9335B01D1507047022B07D10068836C52
S315080025009B074CBF052109212CF04CB9704700BF29
S3150800251000C0035010B590F83630044663B904225B
S3150800252003685A619A699207FCD523790C4AB9332C
S315080025305B011021995010BD022BFCD10068836CF9
S31508002540DB074CBF052106212CF02CF9237941F233
S3150800255094425B0103F1A04303F57033E9E700BF3A
S3150800256000C0035037B50446836B2CF0D2F8A36B32
S315080025700546013BA363A16B79B901912CF0BAF822
S3150800258004460199012005F033FB0120064A01990A
S3150800259005F022FD20462CF0B1F8284603B0BDE828
S315080025A030402CF0BCB800BFA824040813B591F835
S315080025B036200B68022A0CBF9B6C9B690C469B064F
S315080025C0084605D5FFF7CEFF0223E36502B010BD26
S315080025D02BF0E2FF00230146CDE90033034A2346E8
S315080025E004F13C002DF062FAF0E700BFAD250008C3
S315080025F070B504462CF08DF8A36B054673B92CF01C
S3150800260079F801210646084605F0F2FA0121074A3B
S31508002610084605F0E1FC30462CF070F8A36B284616
S315080026200133A363BDE870402CF079B8A8240408E8
S315080026307FB5012380F8303090F8363083B90368C7
S3150800264024330D4A04900392002202924A680192AA
S31508002650012200920A684169C0682BF0EFFE07E084
S31508002660022B02D103683C33EBE7002380F83030B5
S3150800267007B05DF804FB00BFCD2C000801232DE947
S31508002680F04180F8313090F8363004460E4688B06E
S3150800269063BB05683C352CF03CF804F13C0807465A
S315080026A00DF11F01404605F049FF40B99DF81F305E
S315080026B02BB1404605F01AFF2046FFF753FF384670
S315080026C001272CF02CF82046E765FFF791FF0D4B04
S315080026D02A4603930023029373682169CDE90073A0
S315080026E0A068336804942BF08FFE07E0022B02D112
S315080026F005684435CFE7002380F8313008B0BDE8D7
S31508002700F08100BF09270008F0B585B0D06A03A993
S315080027101446FFF7D7FD064620462BF03DFF002559
S3150800272001462346CDE90055164A04F13C002DF032
S31508002730BDF9154B9E421FD0039B1D619D602BF072
S31508002740E8FF039A0646D76827B1D2E90023294647
S315080027502046B847E06A03A92BF035FFE06A83886C
S315080027609BB263B103A9FFF7ADFD20460399FFF7B6
S3150800277085FF30462BF0D3FF012005B0F0BD84F865
S315080027803130F6E7AD2500080B7000F02DE9F3416E
S315080027900D46044600287FD02BF0BBFF012D0646C8
S315080027A041D1E36A9B889BB2002B43D0A068FFF710
S315080027B0EFFB0023E06A84F8313083889BB273B15B
S315080027C001A9FFF77FFD0199A0680831FFF728FCEA
S315080027D0374F019B1F61E06A83889BB283BB204603
S315080027E02BF014FF8304FAD5023D012D10D8E068BA
S315080027F0FFF7CEFB0023A06A84F8303083889BB2AB
S315080028006BBB94F83530032B02D02046FFF748FE01
S31508002810A36B002B02DD2046FFF7A4FE30462BF003
S315080028207EFF002009E0022D38D1A36A9B889BB25F
S31508002830002BDCD12BF073FF1E4802B0BDE8F081F7
S3150800284001A92BF0C0FE019BD3F80C80B8F1000F4C
S31508002850C1D00022394620469B68C047BBE7694677
S31508002860FFF730FD0099E0680831FFF7D9FB104DF6
S31508002870009B1D61A06A83889BB2002BC1D0694664
S315080028802BF0A1FE009BDF68002FF3D0002229461B
S3150800289020469B68B847EDE70748CEE7032DA3D146
S315080028A0E36A9B889BB2002B80D1A36A7AE700BFB4
S315080028B0097000F0087000F0027000F0F8B50746DD
S315080028C00D461646FFF7ECFC00286BD1152001F0E3
S315080028D07DFB0446FA6A93889BB213B197F83230A7
S315080028E0E3B197F83630F3B93B689C6904F0020403
S315080028F01CB93846FFF70EFE0024012387F834304A
S3150800290097F83630CBB92E44B542386810D183696A
S315080029109A06FCD51CB300242046F8BD002CDAD054
S31508002920FFF7A0FBD6E7022BE3D13B689C6CDDE7FB
S3150800293015F8011B2BF0BCFFE6E7022BEAD12E4463
S31508002940B542386806D142F22003826C33EA0202A5
S31508002950FBD1DFE715F8011B2BF029FFF0E797F805
S31508002960363053B910213B790F4A03F239135B010C
S31508002970D15008223B685A61CEE7022BCCD1386881
S31508002980836CDB074CBF092121462BF00BFF42F273
S31508002990944210213B795B0103F1A04303F57033A0
S315080029A09950B9E70446B7E700C0035010B5044686
S315080029B080B190F832302BB9FFF7E0FC10B9A06867
S315080029C0FFF7A6FA002094F832300133DBB284F818
S315080029D0323010BD0048FCE7027000F010B504461E
S315080029E0A0B190F832309BB190F83230012B05D166
S315080029F0FFF7C4FC10B9A068FFF7AAFA002094F8FC
S31508002A003230013BDBB284F8323010BD0148FCE7B6
S31508002A100148FAE7027000F0057000F037B590F843
S31508002A2035500446022D1DD1012290F82230457EEC
S31508002A30817F9A403020164B25B900FB013303F5F8
S31508002A40015305E0012D07D100FB013303F582533D
S31508002A501A60002003B030BD247E00FB0133002C31
S31508002A60F4D1ECE7012DF4D1037E73B911238DF867
S31508002A700730FFF79BFF2A4620460DF10701FFF7AF
S31508002A801DFF2046FFF7AAFFE3E71323EFE700BF82
S31508002A9000C003502DE9F04304466F4F89B001AEDC
S31508002AA00D460FCF0FC697E8070086E80700002CEB
S31508002AB000F0D08025B9694E304609B0BDE8F083EC
S31508002AC06022002120463FF05BF92046FFF7ACFC68
S31508002AD006460028F0D14FF001092B7D84F83530E1
S31508002AE02B6884F8360023602A7BC4F85C90227130
S31508002AF05B4A9342DFD1292363624FF48023594905
S31508002B008046C4E90413D5E90723A26210805080E1
S31508002B10908084F83000E3621880588098806B684B
S31508002B2084F831000393EB8984F83300ADF8143048
S31508002B302B8A4946ADF81230AB7C3A208DF8103016
S31508002B40EB7C494F8DF8163005238DF8113000F0CF
S31508002B5039FC4946606A00F035FC286801A98DF8F9
S31508002B60046002F005F814212B7B03F139025201A7
S31508002B70B9502E7AA87A07EB431346EA0042C3F8FF
S31508002B803827697AEA7A41EA024CC3F830C7E6760A
S31508002B90E077217784F820206B7D49466377AB7D03
S31508002BA0204684F82130EB7DA3772B7E84F82230EB
S31508002BB02BF082FC064600287FF47EAF2BF0A9FD99
S31508002BC02B7D8146032B33D102212A7B02F1B903DF
S31508002BD05B01F950042107EB421741F22C722B686E
S31508002BE003F58053D965297EEB7D43EA0143BB5043
S31508002BF0AA7D6B7D43EA024341F22872BB504FF02F
S31508002C00FF32286800F500539A642B7D032B0CBF0E
S31508002C10052104212BF03DFE4FF440622B68204627
S31508002C205A61FFF729FC064648462BF078FD43E72C
S31508002C30022BE4D194F821000C49FFF781FAFFF73B
S31508002C4067FA4FF400732046238384F81A80FFF747
S31508002C50E5FED4E7064E2FE7B0240408037000F01B
S31508002C6000C005500200040000C00350A923000854
S31508002C70027000F0F0B587B005461646FFF710FB60
S31508002C800446F0B90493104BCDE901166A46A86AC2
S31508002C9001A903960593FFF72FFB044688B995F813
S31508002CA0303073B92846FFF717FC28460099FFF716
S31508002CB0BFFC95F83530032B03D028462C76FFF752
S31508002CC0ADFE204607B0F0BD017000F073B5906AFE
S31508002CD001A91446FFF7F6FA384B984231D094F812
S31508002CE03600019B00283AD12268916C11F40071D4
S31508002CF02AD03349986019614FF4007302F50052DF
S31508002D0093642BF006FD01990646CD6835B14A68ED
S31508002D108B682046D31A0A680969A847A06A01A9D8
S31508002D202BF051FCA06A8588ADB2002D37D001A9D9
S31508002D30FFF7C8FA20460199FFF77AFC30462BF0D0
S31508002D40EEFC012002B070BD906CC50523D51D4868
S31508002D509960186102F500524FF48073D0E7022893
S31508002D6019D12268D16C11F4007109D0144902F501
S31508002D7000521961002199604FF40073D364C0E7CB
S31508002D80D06CC00507D50F489960186102F5005246
S31508002D904FF48073F2E700221A619A60B1E70123C3
S31508002DA020462376FFF73AFE94F8353084F83050FB
S31508002DB0032BC3D02046FFF773FBBFE70B7000F069
S31508002DC00D7000F00C7000F0F0B587B0044616469A
S31508002DD0FFF766FA054658BB0493194BCDE9011669
S31508002DE0059394F8363003962BBB23689B6903F04A
S31508002DF0020313B92046FFF78DFB6A46E06A01A96C
S31508002E00FFF77AFA054698B994F8313083B92BF06A
S31508002E1080FCE36A06469B889BB233B1204600993C
S31508002E20FFF72CFC012384F8343030462BF077FC6E
S31508002E30284607B0F0BD022BDCD123689B6CD6E789
S31508002E40017000F00B4B30B51B7883B101200023CD
S31508002E500546094951F8042B2AB192F85C40022C20
S31508002E6004BF2046D5650133042BF3D130BD0120BC
S31508002E70FCE700BFB7690020405B0020034B5A6897
S31508002E8012B19A6A002AFAD1704700BF004006506C
S31508002E90426810B5B2FA82F2144CC2F11F01636897
S31508002EA00BB1FFF7EBFF0122114B5A60636813F071
S31508002EB00203FBD1027A002A14BF022400244278B6
S31508002EC042EA0112094922438A60427A0124002A09
S31508002ED018BF0223827A13434B62064B5C60037861
S31508002EE013B1FFF7CBFFCC6010BD00BF0040065002
S31508002EF00060065000500650044BD3F88420D206D2
S31508002F00FBD4D3F88400C0F381107047004000500A
S31508002F1038B5104B0546D3F880300C4603F003034A
S31508002F20022B0BD0032B0DD0012B0FD1FEF7A6FDDC
S31508002F300E2305B1286004B1236038BDFEF7E8FD0D
S31508002F400723F6E7FEF794FD0623F2E70023184663
S31508002F50EFE700BF0080005038B5174B0546D3F899
S31508002F6020310C4603F00703013B052B20D8DFE888
S31508002F7003F0030B130F171BFEF77AFD052305B1A4
S31508002F80286004B1236038BDFEF7A8FD0323F6E7E1
S31508002F90FEF7BEFD0723F2E7FEF7B6FD0223EEE7CE
S31508002FA0FEF766FD0623EAE7FEF798FD0423E6E743
S31508002FB000231846E3E700BF0080005038B5174BDA
S31508002FC00546D3F828310C4603F00703013B052BC9
S31508002FD020D8DFE803F003131B0F0B17FEF748FD95
S31508002FE0052305B1286004B1236038BDFEF740FD0E
S31508002FF00623F6E7FEF78CFD0723F2E7FEF76EFDDC
S315080030000323EEE7FEF76AFD0423EAE7FEF77CFDF5
S315080030100223E6E700231846E3E700BF00800050D6
S3150800302073B50D460021114B0191D3F88041064630
S3150800303004F00304022C13D0032C0CD0012C13D15A
S3150800304001A8FFF789FF10240EB1019B336005B173
S315080030502C6002B070BDFEF75BFD07240190F3E714
S31508003060FEF752FD0190EFE70C46EDE700800050B1
S31508003070002337B50193154B0546D3F820320C4685
S3150800308003F00703013B032B1ED8DFE803F0020E0B
S315080030901318002101A8FFF791FF12230DB1019A19
S315080030A02A6004B1236003B030BDFEF731FD072363
S315080030B00190F3E72BF089F90A230190EEE7FEF772
S315080030C069FD09230190E9E70023E7E7008000503E
S315080030D038B5104B0546D3F840310C4603F00303C8
S315080030E0022B0BD0032B0DD0012B0FD12BF06DF932
S315080030F00A2305B1286004B1236038BDFEF74AFDEE
S315080031000923F6E72BF064F90C23F2E700231846A7
S31508003110EFE700BF00800050002337B50193164B38
S315080031200546D3F860320C4603F00703013B032B30
S315080031301FD8DFE803F0020E1914002101A8FFF7D3
S315080031400BFF10230DB1019A2A6004B1236003B066
S3150800315030BD002101A8FFF7BBFF1123F2E7FEF7F8
S31508003160D7FC07230190EDE7FEF7CEFC022301907A
S31508003170E8E70023E6E700BF00800050002337B5E4
S315080031800193164B0546D3F894320C4603F0070311
S31508003190013B032B1FD8DFE803F0020E19140021A8
S315080031A001A8FFF7D9FE10230DB1019A2A6004B1D0
S315080031B0236003B030BD002101A8FFF789FF112362
S315080031C0F2E7FEF7A5FC07230190EDE7FEF79CFC66
S315080031D002230190E8E70023E6E700BF00800050DD
S315080031E038B5134B0546D3F800320C4603F00703EF
S315080031F0013B032B18D8DFE803F0020A0E122BF066
S31508003200E4F80A2305B1286004B1236038BDFEF747
S31508003210C1FC0923F6E72BF0DBF80C23F2E7FEF7EF
S3150800322047FC0F23800AEDE700231846EAE700BFAC
S315080032300080005038B5134B0546D3F808320C46C3
S3150800324003F00703013B032B18D8DFE803F0020A53
S315080032500E122BF0BAF80A2305B1286004B12360D0
S3150800326038BDFEF797FC0923F6E72BF0B1F80C23D7
S31508003270F2E7FEF71DFC0F23800AEDE70023184648
S31508003280EAE700BF0080005038B5104B0546D3F872
S3150800329040320C4603F00303022B0BD0032B0DD050
S315080032A0012B0FD12BF091F80A2305B1286004B140
S315080032B0236038BDFEF76EFC0923F6E72BF088F885
S315080032C00C23F2E700231846EFE700BF0080005002
S315080032D038B5104B0546D3F860310C4603F00303A6
S315080032E0022B0BD0032B0DD0012B0FD12BF06DF831
S315080032F00A2305B1286004B1236038BDFEF74AFCED
S315080033000923F6E72BF064F80C23F2E700231846A6
S31508003310EFE700BF00800050B0F5207F1FD009D826
S31508003320B0F5007F15D003D868B1B0F5C07F0AD0D4
S3150800333000200CE0B0F5607FFAD10B4BD3F8800083
S31508003340C0F3011003E0084B186FC0F303300130D7
S315080033507047054BD3F89000C0F30460F7E7024BBB
S31508003360186FC0F38020F2E70080005002464FF441
S315080033708030104B10B598660020FFF7CDFF5043FC
S3150800338041F671320C4BDC69DA635A6804F480340E
S3150800339022F4401259B9094988428CBF4FF480106B
S315080033A00020104358600CB10022DA6310BD0449AE
S315080033B0F2E700BF0090005000000350005A620276
S315080033C0002D3101430905D0012B0DD0022B094BE5
S315080033D018BF002300F01F0041B103F580530122F6
S315080033E002FA00F018607047034BF3E703F5005341
S315080033F0F5E700BF68800050648000501FB50021C3
S3150800340080280446CDE9001100F0998029D80028C3
S3150800341000F09980A0F120043D2C35D83D2C33D8F6
S31508003420DFE804F091999199A8A8A8A8A899B23CB0
S31508003430C8603C999999323232323232323299998D
S315080034409968D299323232323232323232323232AA
S3150800345032A8919191CD3C3CD7774DAD323232327C
S315080034603288B0F5B06F00F08F802DD8B0F5207F88
S3150800347071D00CD8B0F5C07F65D0B0F5007F65D0A7
S31508003480B0F5807F00F08580009804B010BDB0F5D7
S31508003490607F6AD00DD8B0F5407FF5D1FEF708FBFE
S315080034A002464FF42070FFF737FFB2FBF0F04008F2
S315080034B047E0B0F5806F5DD0B0F5A06FE4D100218C
S315080034C06846FFF7D5FDDFE7B0F5106F77D016D859
S315080034D0B0F5E06F78D00AD8B0F5C06F6AD0B0F50D
S315080034E0D06FD1D100216846FFF77AFECCE7B0F558
S315080034F0F06FC9D100216846FFF7EAFEC4E7B0F5C8
S31508003500406F3CD013D8B0F5206F62D0B0F5286F65
S31508003510BAD10021314B0391D3F8703203F003037B
S31508003520012B02D103A8FFF7D3FD039B3BE0B0F5BF
S31508003530486FA9D100216846FFF720FEA4E7FEF7E9
S315080035409DFA0090A0E7FEF7B3FAFAE7FEF796FAB7
S315080035500246204604E0FEF7ABFA02464FF4207016
S31508003560FFF7DAFEB2FBF0F0EBE701A8FFF7D0FCB5
S31508003570019AEEE700216846FFF7EEFC84E7002192
S315080035806846FFF71BFD7FE700216846FFF748FD01
S315080035907AE74FF0E02302911B695B0705D5FEF732
S315080035A087FA0290029B00936EE703A902A8FFF729
S315080035B08FFDF7E700216846FFF78AFD64E70021DB
S315080035C06846FFF737FE5FE700216846FFF75CFEAF
S315080035D05AE700216846FFF79FFD55E7008000502F
S315080035E008B58020FFF70AFF034B98429EBF4FF4A9
S315080035F08032024B1A6708BD005A620200A00050CA
S315080036001FB50023B0F5807F019300F0C38064D80E
S315080036105D2855D84C2807D82D2847D823282BD8D5
S31508003620019805B05DF804FB4D381028F8D801A3B9
S3150800363053F820F08B370008213600082136000899
S31508003640213600083D3700082136000821360008D3
S31508003650113800085B3700080137000807380008EA
S3150800366021360008213600082136000821360008D0
S31508003670213600081B38000824380928D0D801A3A9
S3150800368053F820F08B3700088B3700088B37000873
S315080036908B3700088B370008213600088137000869
S315080036A0213600081D370008C13700083D2800F0FC
S315080036B082803E28B4D1002001A9FFF7E5FDAFE7D7
S315080036C08028ADD15A4B1B6F03F00703013B032B30
S315080036D0A6D8DFE803F05350878FB0F5F06F6AD0AD
S315080036E021D8B0F5B06F4BD00FD8B0F5607F00F099
S315080036F0858095D3B0F5806F47D0B0F5A06F8FD190
S31508003700002001A9FFF7B4FC8AE7B0F5D06F57D0BF
S31508003710B0F5E06FCFD0B0F5C06F81D1002001A918
S31508003720FFF7D6FC7CE7B0F5206F71D00BD8B0F563
S31508003730086F4AD0B0F5106F7FF472AF002001A968
S31508003740FFF778FD6CE7B0F5406F5CD0B0F5486FD1
S3150800375063D0B0F5286F7FF463AF0021344B039133
S31508003760D3F8703203F00303012B5BD0022B14BF8E
S315080037700B46152300E00523019351E70223FBE7D7
S31508003780002001A9FFF74CFC4AE7002001A9FFF732
S31508003790E3FB45E702934FF0E0231B695B0705D57A
S315080037A0FEF786F90D230393039BE5E703A902A811
S315080037B0FFF78EFCF8E7002001A9FFF789FD2FE740
S315080037C0002001A9FFF70CFD2AE7194BD3F80031B1
S315080037D003F00303022B07D0032B09D0012B0BD1CF
S315080037E0FEF77CF90323C7E7FEF7D4F90923C3E7F5
S315080037F02AF0E9FD0823BFE70123BDE7184601A91A
S31508003800FFF786FB0CE7002001A9FFF7D7FB07E7C0
S31508003810002001A9FFF780FC02E7002001A9FFF7B5
S31508003820ADFCFDE603A8FFF753FC1123A4E700BF90
S31508003830008000504FF48012034B5A664FF48032D2
S31508003840024B9A62704700BF009000500050005A21
S3150800385038B504468020FFF7D3FE032800F083809E
S315080038604FF48012504B4FF0A0615A6645F60E038E
S315080038704E4AC2F880304E4B99624FF4803103F5B8
S3150800388080539962916D11F48031FBD1D4E900031C
S315080038901B0543EA0063E07B0343207B43EA0043BE
S315080038A0607B43EA0033A07B43EA80131361906987
S315080038B0D4E904531B0643EA856300F0004003433A
S315080038C0A07EE57E0343207E43EA0043607E43EA0A
S315080038D000239361E069136A00280CBF00220822BE
S315080038E023F00F0343EA000343EA850343EA02038E
S315080038F02E4A304D136237D194F82430916A94F8E1
S315080039002000DB000D4043EA401394F821102B43B6
S3150800391043EA011343F480339362274B916D33EAEC
S315080039200101FBD14FF08071214881621369A568B6
S3150800393023F4700343EA055313614FF00043836190
S3150800394094F822300BB91D4B996294F823301BB9B1
S315080039504FF48032194B9A6294F825301BB1134BF9
S31508003960174AC3F8802038BD022808D111611548C6
S3150800397091614FF408524FF47F412AF082FE0B49B9
S3150800398094F822308A6A94F820001B06154043EA08
S31508003990401394F824202B4343EAC20394F82320C7
S315080039A043EA02438B62D7E7009000500040005A72
S315080039B00050005AC7FFFEFE030001000060005ACF
S315080039C0F1A7FFFF3440005A014B93F900007047F6
S315080039D04A140020B0F5207F10B50C4657D008D8F9
S315080039E0B0F5007F48D003D830B3B0F5C07F23D0F8
S315080039F010BDB0F5607FFBD129492A48D1F8FC20D3
S31508003A0012F080721EBFD1F8FC3023F08073C1F823
S31508003A10FC30D0F88030611E23F0300444EA0114EB
S31508003A20C0F88040002AE3D01D4AD2F8FC3043F0A3
S31508003A308073C2F8FC30DBE72AF034FE2AF040FE39
S31508003A404FF48031184B174A1967136F611E23F418
S31508003A50704444EA01341467FEF72AF80446FFF76F
S31508003A604BFAC0F1020120462AF024FE00F02EF897
S31508003A70BDE81040FFF7B4BD0A4A0139D2F89030C4
S31508003A8023F0F85444EA0164C2F89040B0E7054BC5
S31508003A90013C196F21F4806141EA84241C67A7E779
S31508003AA000ED00E0008000500090005008B50121AC
S31508003AB0022000F0FFFA2AF0F5FD2AF001FE4FF485
S31508003AC08032014B1A6708BD0090005008B54FF4C4
S31508003AD0C070FFF793FCBDE80840044988428CBFD4
S31508003AE0022101214FF42070FFF774BF80F0FA021B
S31508003AF0B0F5807FF8B50C4600F04E816BD85D288E
S31508003B005DD84C2804D82D2844D8232828D8F8BDB1
S31508003B104D381028FBD801A353F820F0793D00084A
S31508003B200F3B00080F3B00080F3B0008733C0008DA
S31508003B300F3B00080F3B00082D3F0008AB3C000870
S31508003B40033C00080D3F00080F3B00080F3B000828
S31508003B500F3B00080F3B00080F3B00084D3F0008CD
S31508003B6024380928D3D801A353F820F0793D000852
S31508003B70793D0008793D0008793D0008793D00083F
S31508003B800F3B0008593D00080F3B0008393C000868
S31508003B90473E00083D2800F046813E28B7D1093C3B
S31508003BA0032C8CBF0021B04BB04A98BF195DD2F8E0
S31508003BB0403223F003030B43C2F84032A7E78028BC
S31508003BC0A5D18B1E062B00F2C480DFE803F0BFAD3B
S31508003BD0C27EC2C2BC00B0F5F06F00F024813BD8AB
S31508003BE0B0F5B06F00F0B8801BD8B0F5607F00F074
S31508003BF067818CD3B0F5806F00F0BE80B0F5A06FFA
S31508003C0085D1073C0B2C8CBF0021994B974A98BF4E
S31508003C10195DD2F8203223F007030B43C2F820328D
S31508003C2075E7B0F5D06F00F00E81B0F5E06FB6D04D
S31508003C30B0F5C06F7FF46BAF093C032C8CBF002135
S31508003C408C4B8A4A98BF195DD2F8403123F003039A
S31508003C500B43C2F840315AE7B0F5206F00F0668191
S31508003C6017D8B0F5086F00F01B81B0F5106F7FF418
S31508003C704EAF093C062C8CBF00217F4B7B4A98BF70
S31508003C80195DD2F8083223F007030B43C2F808324D
S31508003C903DE7B0F5406F00F03981B0F5486F00F0A8
S31508003CA05581B0F5286F7FF432AF112C00F05E8194
S31508003CB0152C14BF002102216C4AD2F8703223F069
S31508003CC003030B43C2F8703221E7002502264FF49E
S31508003CD080370121022000F0EDF92AF0E3FC2AF0F2
S31508003CE0EFFC664B614A1F67136F23F007033343E4
S31508003CF01367FDF7DDFE0646FFF7FEF8C0F1020181
S31508003D0030462AF0D7FC0121002000F013FAFFF70D
S31508003D10DDFEFFF765FC002D7FF4F9AE032C7FF47A
S31508003D20F6AE574B9F62F2E64FF48012534B0E469F
S31508003D305A664FF48032534B9D6A03F58053C5F398
S31508003D4000659A62C3E700250426C0E70025012618
S31508003D50BDE700252E46BAE7023C0E2C8CBF002193
S31508003D60494B424A98BF195DD2F8803123F00303C4
S31508003D700B43C2F88031CAE6023C052C8CBF0021F1
S31508003D80424B3A4A98BF195DD2F8203123F007030F
S31508003D900B43C2F82031BAE6A1F10904082C3FF614
S31508003DA0B6AE01A353F824F0CD3D0008CD3D00087A
S31508003DB00F3B0008CD3D0008FB3D00080F3B0008FF
S31508003DC00F3B00080F3B0008CD3D00084FF480323A
S31508003DD0264B2F49586E03F580535A664B6A43F0B3
S31508003DE001034B62C1035CBF2A4B5A664FF0E022BF
S31508003DF0136923F00403136189E64FF480321B4BE1
S31508003E002349586E03F580535A664B6A23F001031B
S31508003E104B62C3035CBF1F4B5A664FF0E02213691F
S31508003E2043F00403E7E7093C032C8CBF00211A4B37
S31508003E300E4A98BF195DD2F8603123F003030B438D
S31508003E40C2F8603163E6093C062C8CBF0021134B8F
S31508003E50064A98BF195DD2F8003223F007030B43D0
S31508003E60C2F8003253E600BF34250408008000502B
S31508003E700325040834250408EC240408009000509F
S31508003E800060005A0040005A1F2504082E25040821
S31508003E9000C0075000A0005034250408EC2404088C
S31508003EA0CC1E062C8CBF0021314B324A98BF195DB7
S31508003EB0D2F8003123F003030B43C2F8003126E69B
S31508003EC02D49063CD1F8FC2012F080721EBFD1F8AD
S31508003ED0FC3023F08073C1F8FC30082C8CBF00201E
S31508003EE0264B244998BF185DD1F8803023F0030388
S31508003EF00343C1F88030002A3FF409AE1E4AD2F8BF
S31508003F00FC3043F08073C2F8FC3000E6023C052C16
S31508003F108CBF00211A4B174A98BF195DD2F8283171
S31508003F2023F007030B43C2F82831F0E5023C0F2CB7
S31508003F308CBF0021134B0F4A98BF195DD2F8603227
S31508003F4023F007030B43C2F86032E0E5023C0F2C6E
S31508003F508CBF00210C4B074A98BF195DD2F89432E2
S31508003F6023F007030B43C2F89432D0E50121A3E6F8
S31508003F70F32404080080005000ED00E0FA24040849
S31508003F802E2504080F2504080F2504080028ABBFB2
S31508003F9000F16040054B00F5614000F00F00ACBF32
S31508003FA090F80003185C0009704700BF14ED00E0A4
S31508003FB0054B420953F8223000F01F0023FA00F09F
S31508003FC0C04300F00100704700E100E0014608B573
S31508003FD0EFF31083DB0702D50122104608BDFFF771
S31508003FE0E7FF02460028F7D10846FFF7CFFF01464C
S31508003FF0EFF3118313B1B0EB131FEDD2074B5B68D8
S31508004000C3F30803002BE8D0103B58B2FFF7BEFFF6
S3150800401088428CBF00220122DFE700BF00ED00E0E6
S31508004020024A536B0342FCD1704700BF0040095057
S31508004030044A4178536F23F4407343EA01235367D4
S31508004040704700BF004000500A4A10B5136904467D
S3150800405043F00403136104F08BF82AF063FB30BFC6
S315080040602AF061FB04F098F81CB9BDE81040FDF78A
S315080040701FBD10BD00ED00E0084A10B513690446DF
S3150800408043F00403136104F073F830BF04F084F8B6
S315080040901CB9BDE81040FDF70BBD10BD00ED00E0F2
S315080040A0034A0179D36E23F030030B43D366704776
S315080040B000400050F8B504461C4BD3F88420D106BE
S315080040C0FBD4D3F88430C3F381139C422CD0FDF77C
S315080040D0D5FC012C064602D121462AF0EBFA2AF035
S315080040E009FB4FF00072124B07465A6620462AF023
S315080040F01DFB4FF480630D4D621E93402B676B6E5C
S315080041009A0103D4D5F884309B060AD538462AF096
S31508004110F5FA022C08D13046BDE8F84000212AF00D
S31508004120C9BAD5F88430EAE7F8BD00BF00400050A8
S315080041300060005007B518B90191FDF79FFC019979
S31508004140064B1B7843B1064B984205D8012003B0AD
S315080041505DF804EBFFF7AEBF0220F8E7B869002068
S31508004160005A62020278034B012100201A70FFF7F9
S31508004170E1BF00BFB86900204FF00042154B10B5EB
S315080041805A664AF6CD3314494C6C0B6404F00104A4
S3150800419088B90120FFF744FF4B68DB0704D50F4BAE
S315080041A058600B6BD807FCD514B10B4B0C4A1A6434
S315080041B03DF044F810BD0B6B1A07FCD42022074BC0
S315080041C09A620122A3F580535A60034A936A9B06B2
S315080041D0FCD5E9E7009000500040095000600950FE
S315080041E03254FFFF4FF0004238B5164B01465A6667
S315080041F04AF6CD33144C154A656C236443780B2074
S315080042005B0043F00103D363FFF70AFF63688A780C
S3150800421023F4F87343EA02136360CA784B7943EAD6
S315080042200223A3600A798B7943EA0223236108787B
S31508004230FFF7A2FFEB0744BF054B23643CF0FEFFE4
S31508004240012038BD00900050004009500040005041
S315080042503254FFFF4FF00042124B70B55D6E03F506
S3150800426080535A664AF6CD3304460F4980204E6C71
S315080042700B64FFF7D5FE0B6A23F00F030F2C94BFD0
S31508004280234343F00F030B62F30744BF074B0B644A
S31508004290002DA2BF4FF00042054B5A663CF0CEFFF8
S315080042A070BD00BF00800050004009503254FFFF27
S315080042B000A000504FF00042104B70B55D6E03F53C
S315080042C080535A664AF6CD3304460D4980204E6C13
S315080042D00B64FFF7A5FE0B6A23F4F85343EA04239D
S315080042E00B62F30744BF074B0B64002DA2BF4FF0C8
S315080042F00042054B5A663CF0A1FF70BD0080005095
S31508004300004009503254FFFF00A000502C4B2DE905
S31508004310F0419842064612D02A4886420CBF5720DA
S315080043200020FFF76BF8B16811F0010109D0316977
S31508004330090E0131B0FBF1F10846BDE8F0815620BF
S31508004340EFE7326BB468204B04F0E004402C03EA34
S31508004350020310D007D854B3202C2CD0B36DDB073A
S3150800436048BF4908E8E7602C27D0802CF6D14FF4DF
S3150800437080750C461CE080250C464FF0030803F5B3
S31508004380807308FB03F800234246194626F06AFDA7
S3150800439002FB04F100FB05F705FB0311A2FB05056B
S315080043A000234246294426F05DFD3918D6E7102534
S315080043B04FF00108E3E72546DBE74025D9E700BFCC
S315080043C00000015B00000A50F8FF7F00072AF7B5D6
S315080043D001F0030614461F464FF003012CD895003A
S315080043E0A94000FA05F21C4801912AF0E5F901995D
S315080043F01A4806FA05F22AF0DFF9194B19499DF809
S315080044002000002F08BF1946012303FA04F40C60A4
S31508004410154B1649002808BF0B461C60144B9DF81F
S315080044202400C3F820441031A3F6DC33002808BF63
S315080044300B461C6003B0F0BDA2F10805AD00A9400B
S3150800444000FA05F20B4801912AF0B6F901990A48D3
S3150800445006FA05F2CFE700BF00C4035008C40350AC
S3150800446010E4035010D4035014D4035014E403503A
S3150800447000E0035004C403500CC403502DE9F04176
S3150800448005460F461E4690464AB101233022194C6E
S315080044908B4002FB00443EB304F5825423600F218F
S315080044A0072F05EB450388BFA7F108044FEA031356
S315080044B0114895BFBC00A40004330C3308FA04F273
S315080044C0A14018442AF078F9B8F1000F0AD1012161
S315080044D03020084A01FA07F700FB05223EB102F52B
S315080044E082521760BDE8F08104F50154D6E702F55B
S315080044F00152F6E700C0035030C00350F8B5054630
S315080045000E4614465AB3826803F0030722F4407233
S3150800451082602AF0EFF8AA6882EA072303F4407358
S315080045205340AB602AF0EAF836B9B5F1B64F17D161
S315080045302E20FEF763FF0646AB680C4BD85D60433A
S315080045400DD06FEAC4040444A319B3FBF0F3AA68B8
S31508004550013B920702D5002B08BF0123AB61F8BDCA
S31508004560034B9D42E8D12F20E3E700BF3825040816
S315080045700080065038B500230E4A036400F5005340
S31508004580DA634A7804460D4600F108037AB903F55A
S31508004590805302221A602046D5E901122B7BFFF7C9
S315080045A0ADFF20462978BDE838402AF016B903F54C
S315080045B00053EEE7FFFF1F00B0F1B64F2DE9F043B9
S315080045C022D0804B984240F0FA807F4B4025052642
S315080045D04FF000084FF0030C996800F50054C26BC1
S315080045E012F4C06F16D0970510D5FD225A7009220D
S315080045F01A700022026493F90110012900D15A7039
S3150800460093F90100BDE8F083704BDFE75605EED558
S31508004610FE22EBE71F78082F00F2CD80DFE817F0BF
S3150800462009001F0041004C006900740096009E00B6
S31508004630C2004C880A88E5060AD5120A02F0060264
S3150800464042F0F002012119704263C1600120D9E7E6
S3150800465002F0FE02A10748BF42F00102F2E7170680
S3150800466007D5802100F50052D1634FF608721A80EB
S3150800467062E05206EAD54A88E563D70604D50222DF
S315080046801A700B784363E1E7920765D507221A701B
S315080046901B7901EBC3010B89012BD7D10823C36012
S315080046A0D4E71706DDD45206D0D54A88E5639707BE
S315080046B052D583F800C092E74C880A88E50643BFBE
S315080046C0120A02F0060242F0F00202F0FE02640745
S315080046D009D51C7942F0010201EBC40109890129B7
S315080046E004BF0821C160042119700123C360426315
S315080046F0ACE71706B5D45706A8D54A88E563520726
S315080047002AD507221A70A1E71A795F8801EBC20E2B
S31508004710BEF80890B94511D80132D2B21A714F883D
S31508004720A3F8028017F0040FC3D1FF0702D4012AA9
S315080047307FF655AF08221A700223B0E7DEF8042088
S31508004740791C5980D25D42630622DBE7170688D4B6
S3150800475057067FF57BAFE5631E7040E794067FF545
S3150800476075AF20261A7900F5005401EBC2010A89B3
S31508004770456AE6635C88A24281BF4968661C5E801A
S315080047800D5559888A42D5D90424012AC46004D90A
S31508004790013A914201D10822C2601A78092A3FF4E7
S315080047A028AF53E7D2057FF551AF4FF4807100F576
S315080047B00052D1631BE74FF609321A8019E76FF0EA
S315080047C003001FE7008006505C5B0020505B00205A
S315080047D0B0F1B64F10B407D01A4B98422ED06FF0EE
S315080047E003005DF8044B7047174B0269D20744BFB4
S315080047F02022C2604A88940702D50C89002CEED084
S31508004800520702D50A8A002AE9D04FF480721A6044
S31508004810002299601A71C023C3604369DB050FD46F
S31508004820202200F50053DA63084A5DF8044BDA6380
S31508004830036C43F4FC630364FFF7BEBE044BD4E782
S31508004840436AEAE700800650505B0020FFFF1F001E
S315080048505C5B0020044A054B002918BF1346012259
S3150800486002FA00F0186070474020045040100450C7
S3150800487010B5012104462020FEF7A4FD01212120C0
S31508004880FEF7A0FD0122114B5A60227812069A60A3
S315080048906178A27842EA01429A61FF229A6200226E
S315080048A09A631A644FF000425A654FF0FF324FF48C
S315080048B0001103F500531A65054AC2F88011E3781A
S315080048C01B01DBB282F81533116010BD00000450DD
S315080048D000E100E02DE9F0410125C3B2D1F80080DE
S315080048E091F80AC00F7B91F80DE09D400C46CB7AF3
S315080048F01C491D4E0D65810001F1A04101F5882175
S31508004900C1F80480302101FB00601B0543EA0C4313
S3150800491043EA475322F00302C0F860E0C365026722
S3150800492029F0F7FE736D2B437365237A13B1336C45
S315080049302B433364637A13B1B36B2B43B363227986
S31508004940A37943EA0243074A93616179E37943EA23
S31508004950014306498B61044B55639D64BDE8F041EC
S3150800496029F0DDBE00200450000004500010045059
S3150800497010B50124C0B2844029F0CBFE044B5A6D11
S3150800498022EA04025A659C62BDE8104029F0C7BEB7
S3150800499000000450F8B50125C3B204469D4029F02D
S315080049A0B8FE3022094B1E6D5F6B02FB04335C6E4A
S315080049B029F0B5FE3D4206D1C4F30A1008B93542BE
S315080049C000D10130F8BD0020FCE700BF000004500C
S315080049D04FF48032054B9A6641F6713203F51C3363
S315080049E0DA63012203F50053DA607047009000503D
S315080049F041F671320121064BDA6303F50052D160A4
S31508004A000022DA634FF48032A3F518339A667047AA
S31508004A1000000350014BD3F8940070470040005043
S31508004A204FF48032064B5A6603F5E6239B69C3F3B7
S31508004A308512827003F03F021B0B427003707047A9
S31508004A400090005040F6B732064B5B689BB2934223
S31508004A509FBF4FF47A72B3FBF2F3034AD05C88BF68
S31508004A60002070470080E00F3C25040870B5054615
S31508004A7016461C4621B94FF42070FEF7BFFC0146C6
S31508004A80402C1BD003D8DCB1202C1BD070BD602C69
S31508004A90FCD1042303FB06F2560806EB4113B3FBCD
S31508004AA0F2F3094A203B02EAC303AA6822F060022D
S31508004AB0AA60AA681443AC60EB61E7E70623E9E756
S31508004AC01023E7E70823E5E7F8FF7F002DE9B8415B
S31508004AD0154F15460F40FAB9202B20D0402B20D071
S31508004AE0002B14BF40241024012307F580775F4369
S31508004AF000233A46194626F0B5F9554300FB04F853
S31508004B0004FB0351A2FB040400233A46214426F081
S31508004B10A9F94044BDE8B88180240025E4E71C468D
S31508004B20E2E780240323E0E7F8FF7F00012100F590
S31508004B30805310B5596040F6AA6341F205024361F5
S31508004B400023094C8360C365C26000F50052036107
S31508004B50C361C3649464054C8365A04204BF0365BE
S31508004B604365516010BD00BFFFFF010000C005503E
S31508004B7070B50D46FFF7DAFF012300F5805673601E
S31508004B80AB7C04461BB1836843F080438360EB7CAF
S31508004B905BB1244B9C4202BF2A7DA3F51033C3F8B0
S31508004BA0C821E36D43F08003E3652A8A6B7B2046C0
S31508004BB01343EA891343E3602B7BD5E90112FFF718
S31508004BC055FF6B7D1BB1A36843F48033A360AB7DAF
S31508004BD01BB1A36843F40043A360EB7D2A7E1B0741
S31508004BE0120502F4E00203F0E0431343A3656B7E6B
S31508004BF09A1E012A4FF0020209D80B49032BC1F865
S31508004C00202709D10423F3652B78636170BD074912
S31508004C10012BC1F82027F4E7042204F50053DA65CE
S31508004C20F2E700BF00C0055000D0035000E0035073
S31508004C30054B9A689107FCD45A689207F9D4DA6941
S31508004C40002AF6D1704700BF00800A5008B5FFF762
S31508004C50EFFF0122024B03F580514A601A6108BD35
S31508004C6000800A50074B5A68012A0AD15A68D207A7
S31508004C7002D5DA69002AF9D102221A610122024B09
S31508004C805A60704700800A5000A00A5010B5064CBA
S31508004C90FFF7CEFF6368012B03D1FFF7E3FFFFF7AA
S31508004CA0C7FF0378E36010BD00800A50E8B94A6878
S31508004CB00B7812B1127843EAC2034A78002A14BF65
S31508004CC00222002213438A6812B1127843EA821339
S31508004CD08A78002A14BF042200221343CA6812B134
S31508004CE0127843EA4223014A9364704700800A50C7
S31508004CF008B9014B5964704700900A5008B9014B2E
S31508004D005964704700A00A5008B9014B19647047E6
S31508004D1000A00A5010B9024B186C70470020704763
S31508004D2000800A5048B911B1012903D07047044BD5
S31508004D30D86C7047024B186D70470020704700BF4B
S31508004D4000800A5040B911B1012903D07047034BBE
S31508004D50DA647047014B1A65704700BF00800A5035
S31508004D6038B50446054D3CF07EFA0FCC0FC594E8DD
S31508004D70030085E80300002038BD00BF685B0020FB
S31508004D8047F6FF739A42F0B567D0012967D8354DC3
S31508004D90CF0015F8313005EBC100012B847813D10B
S31508004DA00025C3781B1B9D4202D3E018C0B2F0BD94
S31508004DB0591B4668A3EB510136F911609642D4BFD8
S31508004DC00D4601F1FF33EEE740680028EFD0B0F951
S31508004DD00030934204DBB0F902309342B8BF134661
S31508004DE082883D44FF2A19BFC8214FF0280CB0F924
S31508004DF00610B0F908C0A1EB03020CBF0126002675
S31508004E0092FBFCF26D78324412B2954201DD002A1B
S31508004E1001DA6A1E12B24FF47A7700EBC206F188FD
S31508004E20B668013213FB016112B221EAE17101F59C
S31508004E30FA719542B1FBF7F104DD00EBC206B688BC
S31508004E408E42EAD200EBC20232F8040C884228BF2E
S31508004E500846A04238BF2046A8E7FF20A7E700205B
S31508004E60A5E700BF685B00200129F0B553D82B4899
S31508004E7000EBC10410F83110636801290FD1E078FE
S31508004E80A478904294BFC4EB0001C4EB0201001B56
S31508004E90CAB28242C8BF002233F91200F0BD002B05
S31508004EA039D0A178914202D3B3F90200F6E7E17846
S31508004EB0B3F900009142F1D999886478A1F1FF0607
S31508004EC0013C714203F10405E4B2714103F10C0798
S31508004ED01FFA82FCCEB2B44216D805EBC1014FF4D4
S31508004EE07A756A43B1F902404968521A04EBD471DB
S31508004EF002EB610292FBF4F29042CFDBB3F90200B7
S31508004F009042CBDC10B2C9E737F831E04E1CE645D3
S31508004F10E3D33146DEE70248C0E700BF685B0020FE
S31508004F200080FFFF0148FFF71BBF00BF544E04086F
S31508004F307FB51422002101A83CF022FF044B01A9E9
S31508004F404FF0FF3002933CF055FA07B05DF804FBCA
S31508004F50006A180008B5B0B14FF480620B4B9A6628
S31508004F6029F068FC4FF098435A6CD202FCD54FF4EE
S31508004F708062586D064B10F470209A6604D0BDE81E
S31508004F80084029F0A2BC212008BD00BF00900050AF
S31508004F9000A000502DE9F0418CB08846DDE9127674
S31508004FA01D460446002847D0002945D0002F43D087
S31508004FB0002E41D013F00F033ED120482049A360AC
S31508004FC0002A18BF0146E361C4E90013404609A94F
S31508004FD029F0EBFD68BB2046099929F022FC2946F1
S31508004FE0204629F01EFC6946404600F0FDFD00BB40
S31508004FF06946204629F001FC404603A929F0A3FE8C
S31508005000B8B9204603A929F0F8FB069701272046D8
S3150800501045F0005506A90797089529F0EEFB2046A6
S3150800502009A909960A970B9529F0F1FB2046FFF77F
S3150800503091FF0CB0BDE8F0812120FAE700010104D8
S31508005040000100042DE9F04792B08846DDE91A57B9
S315080050501C460646DDF87090002864D0002962D008
S31508005060002F60D0B9F1000F5DD0002D5BD013F092
S315080050700F0358D12D482E49B360002A18BF0146A0
S31508005080F361C6E9001340460FA929F08EFD0028F2
S3150800509046D130460F9929F0C4FB2146304629F0FF
S315080050A0C0FB6946404600F09FFD002838D1694696
S315080050B0304629F0A2FB404603A929F044FE78BBF6
S315080050C04FF001083046DFF86CA003A929F095FBDC
S315080050D044F00054304606A90695CDF81C80CDF854
S315080050E020A00997CDF828800B9429F086FB304636
S315080050F009A929F082FB30460CA9CDF83090CDF8E5
S3150800510034800E940F95CDF84080CDF844A029F050
S315080051107EFB30460FA929F07AFB3046FFF71AFFC7
S3150800512012B0BDE8F0872120FAE700BF03020104A8
S3150800513003020004100000202DE9F04F97B08946BD
S3150800514090461F460546DDF880A0002800F0BD8081
S31508005150002900F0BA803AB1229B002B00F0B580F6
S31508005160239B002B00F0B180BAF1000F00F0AD8050
S31508005170219B002B00F0A98077B13C680026229B72
S3150800518043440293464509D3002F00F0A08000202F
S315080051903C6017B0BDE8F08F3C46EFE75CB1229B58
S315080051A0219A9B5D125D01345340239A04F00F0443
S315080051B093550136E6E7A8EB060BBBF10F0F58D956
S315080051C0444B4846C5E90034AC60EC6113A929F0A4
S315080051D0ECFC0028DDD1284613992BF00F0B29F09B
S315080051E020FB5946284629F01CFB484604A900F02E
S315080051F0FBFC0028CDD1284604A929F0FEFA48462A
S3150800520007A929F0A0FD0028C3D1284607A929F037
S31508005210F4FA01232299304ACDF828A00B930C9270
S315080052208A190D9228464BF000520AA90E9303924A
S315080052300F9229F0E2FA28460DA929F0DEFA239BF7
S31508005240039A99190123109111931292224A28461A
S3150800525010A9CDF84CA01493159229F0D8FA28462F
S3150800526013A929F0D4FA2846FFF774FE5E440028ED
S315080052708FD1229B03EB060B239B1E44029B5B45A7
S3150800528001D146467EE7ACB9219B2246CDE900A36B
S31508005290494610232846FFF77DFE00287FF479AF9C
S315080052A00AF1100212F8013D0133DBB213700BB993
S315080052B09245F7D1219A1BF8013B125D0134534000
S315080052C006F8013B04F00F04D8E7212061E73846C9
S315080052D05FE700BF03030004100000202DE9F04338
S315080052E08DB0884615461C460746DDF850900028BE
S315080052F050D000294ED0002A4CD0B9F1000F49D021
S315080053000B68103B102B45D8012606FA03F303F069
S31508005310013323F08073002B3CD000231E4A8360A0
S31508005320C0E90023C36109A9404629F03EFC70BBC9
S315080053303846099929F075FA2146384629F071FA4E
S315080053406946404600F050FC08BB6946384629F0D5
S3150800535054FA404603A929F0F6FCC0B9384603A911
S3150800536029F04BFA44F00054384606A906950796E4
S31508005370089429F042FA094B384609A9CDF8249031
S315080053800A960B9329F043FA3846FFF7E3FD0DB06A
S31508005390BDE8F0832120FAE700000404100000208D
S315080053A0F0B50C4617461E46054695B0002874D03B
S315080053B0002972D0002A70D0002B6ED0036B0F2BF9
S315080053C05BD80023364A3846C4E90023A360E36164
S315080053D011A929F0EAFB00285BD12046119929F08A
S315080053E020FA296B20460F2984BF01F00F011031DE
S315080053F029F017FA384602A900F0F6FB002848D12A
S31508005400204602A929F0F9F9384605A929F09BFC96
S3150800541000283ED1204605A929F0EFF90122214BA3
S31508005420089509920A932B6B05F1100003F00F01FA
S3150800543041F000510B900F2B0C920D910E900F928C
S3150800544043F00052109226D90A9B08A923F000536C
S3150800545020460A9329F0D1F90BA9204629F0CDF95F
S315080054600123119612930F4B204611A9139329F085
S31508005470CEF92046FFF76EFD0BE000F12003019000
S3150800548000930122102339462046FFF783FD0028A2
S3150800549097D015B0F0BD0EA9DFE72120F9E700BFC8
S315080054A000000404100000202DE9F04F9BB00D46C3
S315080054B0914698460646DDF890A0002800F0B3808D
S315080054C0002900F0B080002A00F0AD80002B00F023
S315080054D0AA80026B02EB0A031B09B3EB121F02F048
S315080054E00F0700F098800023504A8B60C1E900231B
S315080054F0CB61484617A929F058FB0446002840F016
